:020000040800F2
:100000000816002039500008A54F0008A74F000827
:10001000A94F0008AB4F0008AD4F000800000000DA
:10002000000000000000000000000000AF4F0008CA
:10003000B14F000800000000B34F0008B54F0008A2
:10004000495000084D500008515000085550000814
:10005000595000085D5000086150000865500008C4
:10006000695000086D500008715000087550000874
:10007000795000087D500008815000088550000824
:10008000895000088D5000089150000895500008D4
:10009000B94F0008995000089D500008A150000871
:1000A000A5500008A9500008AD500008B150000844
:1000B000B5500008B9500008BD500008C1500008F4
:1000C000C5500008C9500008CD500008D1500008A4
:1000D000D5500008D9500008DD500008E150000854
:1000E000E5500008E9500008ED5000082DE9F14FF7
:1000F000B2B09946924600230691CDE900333C9A6E
:100100000F930DF14A0114914A7011E0329E574647
:100110002C4617F8011B0698B0470028069000F0FF
:1001200026810F98401C641E0F90F2D13296AA448B
:100130009AF80000252808D10021002209910A928E
:100140000B910C920D910E920FE06A464FF0FF3129
:10015000504601F01DF8050002D10F9800F00EBEC8
:10016000D4D50125E3E741F001011AF8010F202859
:10017000F9D023280CD02B2804D02D2805D03028E6
:1001800009D00BE041F00201EFE741F00401ECE798
:1001900041F00801E9E741F01001E6E72A280FD114
:1001A000D9F8002052F8040BC9F80020002811905B
:1001B00003D54042119041F004010AF1010A14E014
:1001C0001192DFF8543B0AE01198984205DA00EBEF
:1001D000800402EB4402303A11920AF1010A9AF8C3
:1001E0000020A2F130000A28EED39AF800002E2851
:1001F00003D04FF0FF32109229E01AF8010F2A289D
:1002000009D1D9F8000050F8042BC9F80000109269
:100210000AF1010A1BE02D280CBF0AF1010A002097
:1002200000221092DFF8F02A0BE040B9109B9342B5
:1002300005DA03EB830504EB4504303C10940AF126
:10024000010A9AF80040A4F130030A2BEDD3ADF86F
:1002500048100FF6C8209AF8001000F0A3FF08B16C
:100260001AF8010B8DF84A009DF84A00682805D15C
:100270009AF8000068280CD1622106E06C2804BFBF
:100280009AF800006C2804D171218DF84A100AF107
:10029000010A1FA808901AF801BBBBF125012DD057
:1002A0001C3900F06381091F022940F25F810E3979
:1002B0002AD0491F00F06684093900F05781891E51
:1002C00000F0FC84491E00F0A884491E022940F277
:1002D0004D81091F00F0A184491F00F0BC80491E18
:1002E00000F05084491E65D0C91E21D0891E00F03F
:1002F0004984C91E00F0468400F0FFBC25238DF818
:100300007C30012109912AE06C208DF84A00D9F84F
:10031000000050F8042BC9F80000002A43D11499BA
:10032000487800283DD04FF0FF340FF6F81012E067
:100330009DF84A006C28EAD0D9F8000050F8044B28
:10034000C9F800000794D4B91499487898B14FF0CF
:10035000FF340FF6EC1000F035FF201A07D1329869
:100360001FAA04A900F00DFD00287FF5E1AE4FF0B3
:10037000FF3000F003BD0FF6E4100790EFE7109D8B
:10038000002D04D5204600F03DFF044607E02A4634
:10039000204600F041FF002814BF041B2C460A949D
:1003A000DDE70FF6BC12329804A900F070FD0028BA
:1003B000D5D5DCE7D9F8001051F8040BC9F80010C6
:1003C00020F00004002121F0FF351FABCDE90445EA
:1003D0000793DDE9042308993C2413B90AB910985E
:1003E000A8B102F00F053035641EEEB23A2E08DADD
:1003F000120942EA03721B090D5508BF002A02D1F7
:1004000005E02735F4E707980D19A842E9D3081944
:100410000790C4F13C0210980A92824209DABDF8B2
:100420004810821A4FF6EF7001400C92ADF8481058
:1004300095E7002893D59DF8480000F01400102897
:100440008DD1119B09990C985B1A1B1A9A1A002AD4
:1004500085DD0C9283E71499487820B14FF0FF3482
:100460000FF6001077E79DF84A00622862D06828EE
:1004700019D06A2840D06C2806D071284DD0742835
:100480002DD07A281ED064E0D9F8001051F8040B62
:10049000C9F8001020B94FF0FF340FF644405AE776
:1004A0000F9901605BE7D9F8001051F8040BC9F807
:1004B000001020B94FF0FF340FF624404BE70F999E
:1004C00001804CE7D9F8001051F8040BC9F800106E
:1004D0000028E5D14FF0FF340FF604403BE7D9F890
:1004E000001051F8040BC9F800100028D8D14FF0C3
:1004F000FF340FF6EC302EE7D9F8001051F8040B5A
:10050000C9F8001020B94FF0FF340FF6D43022E7BD
:100510000F9AD317C0E9002321E7D9F8001051F84A
:10052000040BC9F800100028F2D14FF0FF340FF689
:10053000B03010E7D9F8001051F8040BC9F80010DA
:1005400020B94FF0FF340FF6983004E70F9901708F
:1005500005E7D9F8001051F8040BC9F8001000287D
:100560009ED14FF0FF340FF67830F4E6D9F8002032
:10057000D21D22F00702C9F80020D2E9000108329A
:10058000C9F80020CDE90401C80F02D009982D2137
:100590000AE0BDF84800810702D509982B2103E045
:1005A000C00705D5099820211FAA1154401C0990A5
:1005B0001FA80999DDE9044543184BF02000612884
:1005C000079315AE0BD01098002802D50620109086
:1005D00005E001BF4BF02000672801211091DDE903
:1005E000040148004015401C0A4611D109030FD0F0
:1005F000ABF1610703201A2F0A9002D20FF6F821FF
:1006000001E00FF6F8210322184600F031FEA6E6BD
:1006100050B9120308D1ABF1610703201A2F0A90D9
:1006200018D30FF6E021EEE7DDE9040102AA00F09D
:100630002BFECDE904014BF02000612811D1079871
:1006400030210170821CBBF1610F07920CBF782131
:10065000582102E00FF6A821D5E741700998801CC7
:100660000990DDE9040120F0000231F0004308BFE9
:10067000002A02D10025002446E14BF02008B8F101
:10068000610F40F095801098002847BF2121039109
:10069000401C0390039F7F1C204629460022002314
:1006A000DDE9044500F028FE02998DF8542038BF9A
:1006B00085F00045091F002F02910DF1550034DD32
:1006C0000646204629460022002300F02FFE2BD2AA
:1006D0001C2200F045FE04460D4600F0DFFEFF1F21
:1006E000002F804609DD00F0F5FE02460B4620464D
:1006F000294600F0B7FF04460D46F01D0721B8F16A
:10070000000F0CDD491E5EBF08F00F0200F8012D3E
:100710004FEA2818F3D502E0002200F8012D491E07
:10072000FAD5C61D002FCCDC30460DF15501401A1C
:10073000039905468842C8BF0D46002D0DF15506A8
:100740002FD4854206DA0DF15500415D0829A8BF76
:100750000F2000DA0020294615AA0A4400E06D1E89
:1007600012F80139491E8342F9D00F2804D10DF146
:100770005500425C521C4254002904D50298001DC9
:1007800015AE6D1C0290681E0BD431180A783032F9
:10079000D3B23A2BA4BF5A443A3A401E01F8012979
:1007A000F4D51098002840F1AE80691E1091AAE09F
:1007B0000299DFF8EC2847F29750414391FBF2F29F
:1007C000029225F00045C2F10702002A04DD20460E
:1007D000294600F042FC0BE052420020DFF8C4182A
:1007E00000F03BFC02460B462046294600F0ACFFD9
:1007F0000446B8F1660F109806BF029F0A37062715
:100800003F18142FC8BF142730208DF854000D4610
:100810000020DFF89418CDE92E010DF15506002FC8
:1008200033DD2046294601F0B3F801460A4606F1B9
:10083000080304200A26B2FBF6F606EB860EA2EBAE
:100840004E02303203F8012C0A22B6FBF2F202EB20
:10085000820EA6EB4E063036401E03F8026DE9D13B
:10086000083F002F03F10806D9DD084601F0A2F881
:1008700002460B462046294600F0F4FEDDE92E2311
:1008800001F0A6F804460D46CBE70DF15500301AED
:100890000DF1550604E00299491E401E0291761C96
:1008A00031783029F7D0B8F1660F02D10299491C8E
:1008B00004E0B8F1650F0CBF01210021109D4D1916
:1008C000A842B8BF451E002D1DD4854204DA705DD4
:1008D0003428C8BF392000DC30202946721E531846
:1008E00000E06D1E13F80149491E8442F9D03928F1
:1008F00002D1705C401C7054002904D50298401C41
:1009000016466D1C0290029C00F046FC406A077877
:10091000DDF8408028B2002802DC01250FF2E876DD
:100920004BF02000662808BF641C16D0672846D10B
:1009300020B210F1040F48DB404546DA9DF848002C
:10094000641C010703D428B24045D8BF804620B2BA
:10095000B8EB000848BF4FF000080FFA84FB079877
:100960000A99BBF1000F00F3B3804A1C0A923023AE
:100970004354B8F1000F03DC9DF84800010704D58B
:100980000A98411C0A9107990F5418EB0B0FB8BF36
:10099000C8F1000424B260420D90A0442AB29045F0
:1009A000B8BF4546079B0A982DB20B952A4631469B
:1009B000184400F05DFCA8EB05000E90CCE0BBF104
:1009C000610F17D14FF0700B19E028B2404504DADF
:1009D0009DF848100A0758BF8046B8F1010848BF83
:1009E0004FF00008BBF1670F14BF4FF0450B4FF0FD
:1009F000650B04E0BBF1410F08BF4FF0500B0A98A4
:100A0000411C0A91B8F1000F079916F8012B0A54FE
:100A100003DC9DF8480001071AD50A98411C0A9189
:100A2000B8F1000F07990F5412DD6D1E28B28045F2
:100A300007980A9BB8BF45462AB23146184400F0D1
:100A400017FC0A992DB269180A91A8EB05000D90C0
:100A500007980A99084421B2002980F800B003D40D
:100A60002B224270821C04E02D2242700C46821C14
:100A7000644200212EAB20460AE004460A2094FB83
:100A8000F0F000EB8005A4EB450403F8014B491C92
:100A900000B20028F1DC012906DC4BF020006528BB
:100AA00004BF302002F8010B00292EAB08D1302002
:100AB00002F8010B06E0491E585C303002F8010BC9
:100AC0000029F8DC07990A980844121A0B9243E0AF
:100AD000084429B222B2914219DA2AB2314600F012
:100AE000C7FB0A992DB269180A91ABEB0500B8F162
:100AF000000F0D9003DC9DF84800020704D507980D
:100B000047540B99491C0B91CDF8388024E03146AD
:100B100000F0AEFB0A982D1B5844B8F1000F0A9064
:100B200003DC9DF848100A0703D5411C0A91079978
:100B30000F5428B2804507980A9BB8BF45462AB291
:100B400006EB0B01184400F093FB0A982DB228180D
:100B50000A90A8EB05000D909DF8480000F01400E5
:100B600010287FF4FCAB099A0A990D988A180B9902
:100B700082180E988A18821811988242BFF6EFAB3D
:100B8000821A66E49DF84A00622808D068280ED0D0
:100B90006A2814D06C281FD0712810D01CE0D9F816
:100BA000001051F8040BC9F80010C0B21AE0D9F8CF
:100BB000001051F8040BC9F8001080B212E0D9F807
:100BC0000020D21D22F00702C9F80020D2E900015E
:100BD0000832C9F8002006E0D9F8001051F8040BDB
:100BE000C9F800100021CDE904019DF84800010773
:100BF0005AD5DDE90423002B08BF002A54D04BF05E
:100C00002000782850D109981FA930220A54401C8E
:100C1000431C099301F800B046E09DF84A006228A1
:100C200008D068280ED06A2814D06C281FD07128EC
:100C300010D01CE0D9F8001051F8040BC9F80010CE
:100C400040B21AE0D9F8001051F8040BC9F80010AE
:100C500000B212E0D9F80020D21D22F00702C9F834
:100C60000020D2E900010832C9F8002006E0D9F8D6
:100C7000001051F8040BC9F80010C117CDE90401A8
:100C8000002902D509982D210AE0BDF84800810706
:100C900002D509982B2103E0C00705D5099820212A
:100CA0001FAA1154401C09901FA8099901440791DB
:100CB00004A8594600F04BF9FFF751BB9DF84A00D4
:100CC0006C280BD001210991D9F8000050F8041BC1
:100CD000C9F800008DF87C10FFF741BBD9F800007F
:100CE00050F8041BC9F8000002914FF0FF32109237
:100CF0000021039102AAFFF756BB25210122BBF177
:100D0000000F8DF87C1009923FF429AB8DF87DB06F
:100D10000221FFF7F7BA0000CBCCCC0C686A6C74E8
:100D20007A4C00007072696E74665F733A2062617B
:100D30006420256C7320617267756D656E740000A8
:100D40007072696E74665F733A2062616420257305
:100D500020617267756D656E740000000000000010
:100D6000000000007072696E74665F733A20256E31
:100D700020646973616C6C6F7765640033B0BDE8A3
:100D8000F08F2DE9FC410F46064690467A6B786954
:100D9000396ABC6A121AB869521A796A121AF86961
:100DA000521A121A97F83800141B41070FD420204A
:100DB000002C8DF800000ADD254601236A463946DD
:100DC000304600F075F900285DD16D1EF5D17B69C4
:100DD00042463946304600F06BF9002853D13020A6
:100DE0008DF800003D6A002D09DD01236A46394671
:100DF000304600F05DF9002845D16D1EF5D1BB6984
:100E0000FA683946304600F053F900283BD13020CB
:100E10008DF800007D6A002D08DD01236A46394601
:100E2000304600F045F970BB6D1EF6D1F868B9691F
:100E3000FB6942183946304600F03AF918BB3020B9
:100E40008DF80000BD6A002D08DD01236A46394691
:100E5000304600F02DF9B0B96D1EF6D197F8380084
:100E600041070DD52020002C8DF8000008DD01235E
:100E70006A463946304600F01BF920B9641EF6D1A7
:100E80000020BDE8F6814FF0FF30BDE8F6812DE986
:100E9000F8470D46A3B02F6B002F8246904648BFFF
:100EA0006FF0004700F069FE696B401801AA00214D
:100EB000C2E90011812828BF4FF0FF3044D2894693
:100EC0001EE0A74230DB6869201881280BD300217F
:100ED000696303AA29465046FFF753FF5FEA0009FA
:100EE00022D40020686103AB6E69224669469819D6
:100EF00000F0BEF9A6196E6158F8040BA0B13F1BB3
:100F0000002F11DDD8F8001001AA684600F042F960
:100F10000446002C05D4D8F800000028D1D1641E66
:100F2000CFD54FF0FF390EE0B9F1000F504604D194
:100F300003AA2946FFF725FF8146B9F1000F02D128
:100F4000002068616863484624B0BDE8F0872DE959
:100F5000FC4304466F29256908BF082605D041F0E7
:100F60002000782814BF0A2610263C27D4E9002345
:100F7000642918BF69299046994605D1002B03D5ED
:100F8000D8F1000869EB4909B9F1000F08BFB8F1C1
:100F9000000F0CD1206B50B9082E3AD194F83800CC
:100FA000010736D530203B2785F83B0031E08DF82E
:100FB0000010404649463246F31700F0E3FD303258
:100FC000D0B27F1E3A2801970EDAEA5540464946CC
:100FD0003246F31700F0D6FD80465FEA010908BFEC
:100FE000B8F1000F05D108E09DF800001218513A41
:100FF000EBE7E068E9198842DBD3082E09D194F8C1
:101000003800010705D5E85D302802D07F1E30206A
:10101000E855C7F13C02A261E919E160206B824208
:1010200008DA821A22624FF6EF70218F0140218781
:10103000BDE8F38300280ED594F8380000F01400C2
:10104000102808D1636B6169206A5B1A1B1A9A1A0F
:10105000002AC8BF2262BDE8F3832DE9D0430646CB
:101060000F4614464FF00008DFF8409012E0E0070A
:1010700007D542464B463046394600F0A9FC0646A5
:101080000F464046494642464B4600F0A1FC6410DC
:1010900080468946002CEAD130463946BDE8D083E7
:1010A000A08601000000F03F84D797410000244053
:1010B000F8B505460E4617461C4600205CB117F8E9
:1010C000011BB068A847B06030B1F06A401CF06204
:1010D0000020641EF3D1F2BD4FF0FF30F2BD0000DE
:1010E0007072696E74663A2062616420256E2061B8
:1010F0007267756D656E74006E616E004E414E00D4
:10110000696E6600494E46003000B1F5807F02D31B
:101110004FF0FF3070470170012070470078401E8B
:101120008041C043C00F70471C48704770B453687B
:10113000D41801E05B1C491E042B08DA00291FBFEC
:10114000057804F8015B10F8016B002EF2D15360B2
:1011500070BC704738B514461D4661B1FFF7E6FF15
:1011600061686A6B204690476FF00102811A02D0D5
:10117000491E01D001E003E005E00021616032BDBD
:101180006FF0010032BD4FF0FF3032BDDA6B104717
:10119000024BDFE7014BF9E701487047B801002037
:1011A00080010020C9B202788A421AB11CBF10F82F
:1011B000012FF9E718BF002070470268531C036035
:1011C0001170704780B500B906A005490B681BB1C6
:1011D00022220021984701E000F0ECFD222002BD10
:1011E00000120020636F6E73747261696E74206800
:1011F000616E646C65723A20626164206D65737320
:101200006167650000F1010310F8011B11B110F8CE
:10121000011BFBE7C01A7047C9B2830706D0521EF4
:1012200022D310F8013B9942F7D11FE0083A13D3BB
:1012300002F1040241EA012141EA014150F8043B74
:10124000121F21BF4B40A3F1013C2CEA030C1CF000
:10125000803FF3D0C9B2001F083210F8013B521E84
:1012600028BF91EA030FF8D818BF0120401E70472D
:101270004AB1000011F8013B521E00F8013B1CBFAF
:1012800011F8013BF8E7704710B5144600F002F87A
:10129000226010BDC1F30A5343B14A0012F5001F8A
:1012A00028D2A3F2FE32A1EB0251704750EA410C62
:1012B00020D001F0004C31EA0C01B1FA81F204BFF8
:1012C000B0FA80F3D2180B3AB2F120032CBF00FA27
:1012D00003F1914041EA0C013EBFC2F1200C20FA1B
:1012E0000CF319439040524240F2FD33D21A01EB05
:1012F000035170470022704741EA030C50EA4C0C3E
:1013000052EA0C0C4FF4001C09D307D01CEB410F20
:101310009CBF1CEB430F8B4208BF824270471CEB03
:10132000430FFBD8994208BF9042704741EA030C33
:1013300050EA4C0C52EA0C0C4FF4001C09D307D0B5
:101340001CEB410F9CBF1CEB430F994208BF90421E
:1013500070471CEB410FFBD88B4208BF824270479D
:10136000124254D440F2FF7C1CEA11530FD0634563
:1013700031D09B1863453CBF01EB0251704701F02F
:10138000004141EA0C510020AFF30080704750EA61
:10139000410320D001F0004C91EA0C011CD0B1FABD
:1013A00081F30B3B9A420DD9D21A994051EA0C01B4
:1013B000C3F1200C20FA0CFC61449840531C40F20D
:1013C000FF7CD7E7914041EA0C01C2F1200C20FAE2
:1013D0000CF3194390407047B0FA80F31533202B7B
:1013E000E0D3202AEED3203A203B9A4209D9D21AE0
:1013F00000FA03F141EA0C010020531C40F2FF7C8B
:10140000B8E700FA02F141EA0C01002070475242AD
:1014100040F2FF7C1CEA11530DD06345DBD0B2EBE8
:10142000030C3CBFA1EB025170470CF1010221EA11
:10143000035141F4801150EA410CCCD001F0004C32
:10144000352A27DC30B481EA0C01B2F1200309DA35
:10145000C2F12003044601FA03F5D0402843D140ED
:101460009C400CE0C3F12002450020FA03F418BFB1
:1014700044F0010421FA03F091400C43002174F17F
:10148000004550F1000051EB0C01244230BC7FF4C8
:101490007BAF70476146002076E72E00C1F30A5308
:1014A00040F21E42D31A0CDDCA0283F3070342EA5C
:1014B000505242F00042DA4002EBE17282EAE170FF
:1014C00070476FEAE17203F2E13008B182F0004048
:1014D0007047430010F0004160B148BF4042B0FA8D
:1014E00080F29040D21CC2F5846241EA025202EBC3
:1014F000D021400570470000841A71EB030604D226
:101500006E40001BB141121973414FF4001C1CEBDB
:10151000410F34BF7CEB430683E00C0DA4EB135664
:10152000362E00F37C80012E45EAC32341DC43EADA
:10153000525312BFD20292025B08240545EAC12130
:1015400041EA5051D2EBC020994125D407D1B0FADD
:1015500080F610FA06F162D00020203608E0B1FAD9
:1015600081F6B140C6F1200220FA02F21143B040E8
:101570004FEAF474B4EB465434F001064FEA7404B5
:101580000AD8D6F50016760D04F00044F04061FA52
:1015900006F25040F1404840C00A40EA415021F074
:1015A000004128BF5FEA500550F1000044EBD12113
:1015B00035E0DB0A45EAC121C90AB6F120050EDD96
:1015C00042EA0242120CC5F1200603FA06F6EB408D
:1015D00042EA06056D42984161F100010DE062FAB0
:1015E00006F5F240554063FA06FC82EA0C02F3402D
:1015F0005A406D42904161EB030111F4801F05D107
:10160000641E620502D06D004041494121F4801101
:10161000430875F1004350F1000041EB045170BCE8
:1016200070471CEB410F15D223F0004352EA4306EA
:101630000BD04FEA4C0CBCEB410F04D80C0D661ECE
:10164000342EB7DDEBE7801A994150EA410608BF16
:101650000021E4E708BF1CEB430F28BF6FF0000137
:10166000DDE7000070B491EA030F4FF000457FF50D
:1016700043AF6B40841A71EB030603D2001BB141E8
:10168000121973414FF4001C1CEB410F34BF7CEB6B
:10169000430442E00C0DA4EB1356352E4FDC45EA13
:1016A000C323DB0A45EAC121C912B6F120050DDDCD
:1016B00063FA05F6EB4086EA0305124218BF45F0CF
:1016C0000105C01851F100010CD213E062FA06F5D1
:1016D000F2405540F3415A40B340F3405A4080181D
:1016E000594107D349085FEA30005FEA350528BF52
:1016F00045F0010501F58011420875F1004250F1F5
:10170000000041EB04514E0016F5001F70BC38BFBD
:1017100070470020090D090570471CEB410F10D2DE
:1017200052EA43060BD0BCEB410F05D80C0DAB437E
:10173000661E342EB6DD02E0AB438018594170BC02
:10174000704770BC70470000F0B540F2FF7581EA49
:10175000030C0CF0004C15EA11541DBF15EA135789
:10176000AC42AF42E5E0BC41C1F31301C3F3130344
:10177000801A994143F4801304D2641E0018494131
:1017800080185941C90241EA5051B1FBF3F603FBFD
:101790001611A2FB0675D7EBC020A94102D2761E16
:1017A00080185941C90241EA5051B1FBF3FE03FBD5
:1017B0001E11A2FB0E75D7EBC020A94103D2AEF1DA
:1017C000010E80185941890241EA9051760546EA96
:1017D0008E2EB1FBF3F603FB1611A2FB0675D7EBB9
:1017E0008020A94102D2761E80185941C90241EADF
:1017F00050514EEA060EB1FBF3F603FB1611A2FBA5
:101800000675D7EBC020A94102D2761E8018594137
:10181000C90241EA5051B1FBF3F703FB1711A2FBD8
:101820000735D3EBC020A94167F100070CBF004288
:1018300047F0010766F3D5274FEA1E31B80814F5C3
:10184000806412DDBD0775F1004250EB0E5051EB84
:10185000045111F5801F5CBF41EA0C01F0BD4CF052
:101860007F6141F0E0410020F0BDBD076D0840EA16
:101870000E5041F48011D4F10104B4F120060ADACB
:10188000C4F120060200E04001FA06F3E1401843EB
:10189000B24015430EE0342C13DCC6F1200445EAB7
:1018A00040056D0820FA06F2154321FA06F0A14022
:1018B0000D43002175F1004250F1000051EB0C0185
:1018C000F0BD00205FEA0C01F0BDCFB992185B417A
:1018D000B3FA83F704BFB2FA82F6BF190B3FB7F130
:1018E00020062FBF02FA06F3BB40C7F1200622FAFA
:1018F00006F638BF3343BA401CB1E419641E33E71F
:101900007F4231F00041B1FA81F404BFB0FA80F6B1
:10191000A4190B3CB4F120062FBF00FA06F1A14038
:10192000C4F1200620FA06F638BF3143A0403C1B24
:101930001AE7AC421ABF05EA1357AF4212E050EA69
:1019400041061CBF52EA4306BFE750EA4107304652
:1019500061461CBF41EA0551F0BD52EA430C08BF85
:10196000C143F0BD00204FF4001616EB410F98BFA5
:1019700016EB430F08BF16EB410F24BFC14305E030
:1019800016EB430F0CBF61464CEA0551F0BD000059
:10199000400D40F21E4C40EAC120BCEB115C40F00F
:1019A000004003D48CF30701C84070476FEAE17030
:1019B0007047000050B1B0FA80F18840C91CC1F5F1
:1019C0008461090501EBD02140057047014670474D
:1019D00030B540F2FF7C1CEA11541DBF1CEA1355C0
:1019E000644565453FE0641981EA030C6FF35F537A
:1019F0000CF0004C43F48013C90241F0004141EA6D
:101A0000505EC5021100A5FB020200284FF0000045
:101A1000EEFB01204FF00001E3FB052118BF42F06F
:101A20000102401800214941E3FB0E01A4F5806446
:101A30000D0302D292184041494154F1010470DD76
:101A4000450872F1004250F1000051EB0451A1F53C
:101A5000801102D441EA0C0130BD40F2FF7E4CEA15
:101A60000E51002030BD0CEA1355644518BF654582
:101A700081EA030C0CF0004C41D050EA410E1CBF2F
:101A800052EA430E02E06146002030BD24422C445D
:101A90001BD15FEA050EF6D0090302BF0146002004
:101AA000AEF1140EB1FA81F5AEEB050401FA05FEB4
:101AB0000C35C5F1200100FA05F5C8404EEA000ECC
:101AC0006FF35F5343F480139CE733F00043B3FAA2
:101AD00083F504BFB2FA82FE75440B3D641BB5F179
:101AE000200E2FBF02FA0EF3AB40C5F1200E22FAF2
:101AF0000EFE38BF43EA0E03AA40641C7CE750EA9E
:101B0000410E14BF52EA430E6FF000014FF400156E
:101B100015EB430F8EBF194615EB410F9DE7B4D867
:101B200030BDD4F10104B4F120050FDAC4F1200571
:101B3000520828BF42F0010210FA05FE01FA05F52D
:101B40007244E2BFE0402843E1400FE0352C9ADCCC
:101B5000C5F1200452EA400220FA05F218BF42F013
:101B6000010231FA05F0A1400A43002172F100425E
:101B700050F1000051EB0C0130BD80B5FFF7D4FAF5
:101B8000006C02BDBBBBE1B1B2F5803F80F07E804E
:101B9000022A1ED98C46B1FBF2F102FB11C31B04D1
:101BA00043EA1043B3FBF2FC02FB1C3380B240EA71
:101BB0000343B3FBF2F002FB103240EA0C40002377
:101BC0007047022A05D98446B0FBF2F002FB10C22E
:101BD00070474AB105D100F0010249085FEA3000C0
:101BE000704700220023704700F0E8B80B000200A5
:101BF000002100207047904271EB030CF6D3B3F53F
:101C0000803F2FD2F0B5B3FA83F7B1FA81F4A7F190
:101C10000F0E3D1B5340CEF1200602FA0EF2F341A7
:101C20005340B5F10F0746D80F3C2C444140C4F156
:101C30002006A040F1414140B1FBF3F603FB161131
:101C4000A2FB0645001BA94102D2761E801859410D
:101C500080EA010221FA0EF362FA0EF200215A40E4
:101C60003046F0BD30B4B1FBF3FC03FB1C11A2FB0A
:101C70000C45001BA94103D2ACF1010C801859415D
:101C800030BC02460B46604600217047B2F1807FAF
:101C900065D3F0B5B2FA82F7B1FA81F4C7F10F0655
:101CA0003D1B22FA06F307F1110EF24120355A408E
:101CB000B5F10F07B8D94140C4F12006A040F14169
:101CC0004140B1FBF3FC03FB1C11A2FB0C45001BC4
:101CD000A94103D2BCF1010C801859410F2F12D336
:101CE0000F3FC90341EA5041B1FBF3F603FB161164
:101CF000A2FB0645D4EBC030A94102D2761E801863
:101D0000594146EACC3C07B34140C7F12006B840F0
:101D1000F1414140B1FBF3F603FB1611A2FB06456E
:101D2000001BA94102D2761E8018594180EA0102A7
:101D300021FA0EF3C7F1200462FA0EF20CFA07F052
:101D40005A402CFA04F13043F0BD80EA010221FA36
:101D50000EF3002162FA0EF260465A40F0BD8C4646
:101D6000B1FBF2F102FB11C31B0243EA1063B3FBA8
:101D7000F2FC02FB1C331B024CEA002043EA106316
:101D8000B3FBF2FC02FB1C331B024CEA002043EACB
:101D90001063B3FBF2FC02FB1C331B024CEA002075
:101DA00043EA1063B3FBF2FC02FB1C324CEA002056
:101DB00000237047012000F003B8000070470000C6
:101DC00080B5AFF30080024A11001820ABBEFBE7DC
:101DD0002600020078B5040085B045D004F52A75C8
:101DE000687820B900212970204600F0F1FC03201A
:101DF0006870206800F0F2FD83B000F048F80EBC77
:101E0000206800F0E1FD00282CD12068002100F0BE
:101E1000EBFD0021282000260AE000FB01F222440D
:101E20002832012353701170D181002300F028F86B
:101E300062689142F1D3002109E000FB01F22244E3
:101E400002F5B47200231170537000F019F8626843
:101E50009142F2D383B000F01AF80EBC206800F073
:101E6000C5FD18B102206870012007E084F8240045
:101E700001216970206801F069FA002006B070BD88
:101E8000491CD670136156619361C9B27047211D18
:101E900068462022FFF7ECB910B500F0B1FB01D184
:101EA000022010BD00F0A8FB206800F08FFD99E330
:101EB0000021204600F07DBD2DE9F84F064686B092
:101EC00000F01CFB000400F1BD8000F017FB400592
:101ED0000CD500F0FCFA4FF6FF3000F0F4FA304673
:101EE00000F0ADFC0021304600F08FFB00F006FB57
:101EF000400405D500F0EBFA4BF6FF7000F0E3FA72
:101F000000F0FCFA800405D500F0E1FA4DF6FF7010
:101F100000F0D9FA00F0F2FAC00418D53168B1F82F
:101F200040204FF6FB700240A1F840204FF6F770BA
:101F30003168B1F840200240A1F84020304600F05E
:101F40009EFC00F0C4FA4EF6FF7000F0BCFA00F000
:101F5000D5FA000544D5002001A9326832F82030B6
:101F600021F81030401C0828F7D33068B0F8402022
:101F700042F00102A0F840204FF6FE703268B2F83D
:101F800040300340A2F840303268B2F844004305C4
:101F9000FAD54FF6FF30B2F844400440A2F844406E
:101FA0000020336831F8102023F82020401C082836
:101FB000F7D33068B0F8401041F00801A0F84010A5
:101FC0004FF2FF7000F083FA00F07DFA3068B0F84D
:101FD000401041F00401A0F84010304600F041FCF0
:101FE00000F08CFA800508D500F071FA4FF6FF502A
:101FF00000F069FA304600F01EFC00F07FFAC005E0
:1020000005D500F064FA4FF6FF6000F05CFA07B007
:10201000BDE8F08F012802D100F04CFA13807961FD
:102020009BB27A89306801F09DF93168387831F8CF
:10203000202048F6BF731A4082F030024AEA0202BA
:1020400021F82020306800F144010A8813047FF54C
:102050003CAF0A8812F00F0548F2800A4BF68F7BDE
:1020600040F68F7448F60F7940F09880D2062BD452
:10207000018809EA010141F40041018006F12404CC
:102080003068B0F85010227901EBC20100EB41003A
:1020900000F204400088A169C0F3090020620844EE
:1020A000A0610021304600F0BDFB20780028C9D097
:1020B000E0690028C6D12178306841F08001A0F89D
:1020C0004C1000212170BDE70288130506F5B47598
:1020D00014D5898900F0E5F9EA88C3F30903EB61B7
:1020E00006F52C7101F050F9306801880C4044F07D
:1020F00080040480304600F085FBA3E71004A1D5DE
:1021000031680A88144044F080040C803068B0F8CC
:10211000501000F0C6F9C3F30903002BEB611CBF9C
:10212000696900290AD0EA8801F02EF96869E9692D
:10213000014469613046002100F06AFB3068018883
:102140000A05DAD4B0F850201118286901F20C41C0
:1021500048B9088848F2FF32104008800B8843F4E1
:1021600000430B8010E03F2805D24208C00748BF5B
:10217000521C900207E0420910F01F0F08BF521EC8
:10218000900240F400400880306801880BEA0101A9
:1021900081F440514AEA0101018053E730F82510EB
:1021A0000091282200986A4332440104059248F6BF
:1021B0008F7840F19680306830F825100C4044F05C
:1021C000800420F82540059901F5B477387B90B953
:1021D0003068B0F850103A7801EBC20100EB4103CF
:1021E00003F20C431C88C4F30904002C65D0FA8860
:1021F000796923465FE0F878022848F2C0022FD1BF
:10220000009B3468B96903F040005B043B78A44646
:10221000B4F8504004EBC3040CEB440C11D50CF2A1
:10222000044C00F038F92CBF091B0021B96109B931
:1022300000F067F908B100F070F9002C3DD03A8940
:1022400036E00CF20C4C00F026F92CBF091B0021E3
:10225000B96109B900F055F938BB00F05EF924E026
:1022600000F05BF938783168024631F822305904C1
:102270000FD53268B2F8501001EBC00102EB4100FB
:1022800000F204400488C4F30904002C15D03A89F4
:102290000EE03168B1F8502002EBC00201EB4200C1
:1022A00000F20C400488C4F30904002C05D07A899C
:1022B00023467969306801F067F8F8692018F861F9
:1022C0007A6922447A61B86938B13869844204D3A2
:1022D0003068394600F030FD03E03978304600F0D0
:1022E00097FA009801067FF5ADAE059800F1280732
:1022F000306830F8251009EA010141F4004120F866
:102300002510F878032818BF002800F0A1800228C3
:1023100003D10098C10540F19B803268B86997F8F5
:1023200000C000991346B2F8502001F480444906D9
:1023300002EBCC024CF2800503EB42034BD503F2D7
:1023400004431B88C3F30903834234BFC01A00202F
:102350000028B8610DD100F000F9002C08D03168D8
:10236000387831F8202008EA02022A4321F8202098
:102370005BE60CB100F0AFF897F824000128F7D124
:1023800000F0D5F8F0B900F0AFF84BB9028848F288
:10239000FF3422400280058845F40045058016E0A0
:1023A0003F2B05D25A08DC0748BF521C920207E0B7
:1023B0005A0913F01F0F08BF521E920242F4004246
:1023C000028004E0012802D100F08EF803807961D8
:1023D0009BB23A8926E603F20C431B88C3F3090338
:1023E00098422CBFC01A00200028B86104D100F028
:1023F000B4F8002CBCD1B2E70CB900F06CF897F837
:1024000024000128B4D100F092F8346800287FF449
:1024100001AE00F04FF84BB9108848F2FF3420406D
:102420001080158845F400451580F8E53F2B06D24D
:102430005808DC0748BF401C80021080EFE55809AF
:1024400013F01F0F08BF401E800240F40040F4E765
:1024500030683978B0F8502002EBC10200EB42003E
:1024600000F204400288B869C2F30902824234BF14
:10247000801A0020B86118B9304600F0D3F9E1E5C0
:10248000786910447861F9695218FA613946306800
:1024900000F052FCD6E5BCF80040C4F30904A142A8
:1024A00070472A7801EBC20100EB410303F20C43B1
:1024B0001B887047B4F8500002193C7802EB0412F4
:1024C00002F20C4270470240A1F844207047316884
:1024D000B1F844207047306830F82C1008EA010148
:1024E000294320F82C1070473068B0F850203C7811
:1024F000101800EB041000F204407047306800F040
:1025000027BF316831F823C00BEA0C0B8BF4005B5A
:102510004AEA0B0B21F823B070473168387831F85C
:10252000203008EA03031A4321F820207047FA6993
:1025300078699A18FA61C1183A69386A904203D3E7
:102540001346C01A386206E010B103460020386214
:10255000002287F8242078787047787888B9306826
:10256000B0F85020101800EB0C1000F2044048F2B4
:10257000FF32018811400180038843F40043038047
:102580000BE001282AD13068B0F85020101800EB79
:102590000C1000F20440002101803268787888B97C
:1025A000B2F8500081183A7801EB021101F20C41A7
:1025B00048F2FF320888104008800B8843F400433B
:1025C0000B800BE0012809D1B2F8500081183A784D
:1025D00001EB021101F20C410020088030463978ED
:1025E00000F020B90121FFF764FC206800F0ACFE88
:1025F000002084F8A80210BD012084F8A8027047CA
:10260000044694F8A8020128704710B5FFF7F8FFB8
:1026100001D1022010BDFFF7EFFF84F824102068DD
:1026200000F08CFEE4E738B5054601F007042820E9
:10263000444328190C0647BF00F12804012000F587
:10264000B474002001F00701607021702261E37012
:10265000607808B12178E181022B04BF002020714D
:1026600095F8A802012801D1022032BD012085F889
:10267000A8022146286800F0C5F970E010B50446AC
:1026800000F095F800F08CF801D1022010BD00F0A8
:1026900081F800F0CBFAABE738B501F00705282444
:1026A0006543441904F5B47401F007016261A36144
:1026B0000022E2616270217021461CE001F00701F6
:1026C000282251430844D0F88401704738B51C468D
:1026D00001F0070528235D43431928335A619C61A3
:1026E0001C620122002401F0070183F82420DC6130
:1026F0005A7019701946006800F01EFB002032BDA8
:1027000038B505460C46696804F00700814201D2DD
:10271000012032BD2821220605D54843284400F176
:102720002801012004E06143681800F5B47100201D
:10273000487001228A7004F007040C7095F8A80212
:10274000012801D1022032BD85F8A822286800F0B6
:102750009FFD24B9286805F52C7100F0FCFD0020D0
:1027600085F8A80232BD10B5044601F00F03606879
:10277000984201D2012010BD00F019F800238370A7
:1027800000F00EF801D1022010BD00F003F800F0B7
:1027900098FD2DE7012284F8A822014620687047A1
:1027A00001F00701017094F8A8120129704701F0A7
:1027B000070228204243A0180A0603D52830012327
:1027C0004370704700F5B4700022427070470000FB
:1027D00000687249884200D0704780B5704802682E
:1027E00042F4000202600022006800F40000009041
:1027F00000210098142000F0F5FDBDE802401420EF
:1028000000F00DBE00F52C71D0F8E80200F062BEB9
:102810000B4628225343C218D0F8E802D2F87C2194
:1028200000F082BE0B4628225343C218D0F8E802BB
:10283000D26B00F0BABED0F8E80200F04ABF10B583
:102840000446A068022818BF01F075F8D4F8E80221
:10285000012100F02AFFD4F8E802BDE8104000F0A2
:10286000FBBE10B50446D4F8E80200F021FFA069D1
:1028700020B14C48016841F00601016010BDD0F85C
:10288000E80200F01DBF10B5044647484349C0F8B0
:10289000E842C4F8C002016008220223002142601D
:1028A00083608161C1610162FFF794FA08B101F0B0
:1028B00042F8D4F8C00218230022002101F03DF8AC
:1028C000D4F8C00258230022802101F036F8D4F851
:1028D000C002C0230022812101F02FF8D4F8C002E9
:1028E0004FF488730022012101F027F8D4F8C002C8
:1028F0004FF480730022822101F01FF8002010BDE8
:1029000080B5D0F8C002FFF7C7FABDE8024051E039
:1029100010B51C461346D0F8C0022246FFF783FECE
:10292000BDE8104046E080B5D0F8C002FFF7A6FE33
:10293000EBE780B5D0F8C002FFF7E2FEE5E780B52F
:10294000D0F8C002FFF70FFFDFE7D0F8C02201F098
:102950007F0328204343D018090602D590F82A00A7
:10296000704790F86A01704780B5D0F8C002FFF751
:102970004CFECAE780B5D0F8C002FFF7A7FEC4E757
:1029800080B5D0F8C002FFF787FEBEE7D0F8C002DE
:10299000FFF794BE0548704700000000005C00404F
:1029A0001C10024010ED00E0D0090020800F002034
:1029B000704770470146002021B1022901D1012052
:1029C00070470220704700000EB417E0403000212D
:1029D00081804FF43F42028000207047B0F84020D1
:1029E00044F2FF0100F0B9BC002070470EB4012191
:1029F00020F8401F0022028082800282002003B063
:102A0000704700002DE9F0470B4602461C7832F86B
:102A10002460DD7848F68F1100200E40032D0CD87D
:102A2000DFE805F002080C0546F4007606E046F4FF
:102A3000C06603E046F4806600E0012048F28005AD
:102A40002E4322F8246048F68F7619780C4632F827
:102A5000247037403943294322F824104BF68F78ED
:102A6000197B93F800A000294CF2800C48F6BF7740
:102A700048F2C0095BD1D9884FF6FE740C405978F2
:102A80000029B2F8501011D0891801EB0A1101F594
:102A900080610C8000F0BCF8DB78012B32F821302B
:102AA00000F081801F4087F020077DE0891801EB4E
:102AB0000A1101F581610C80B2F850108C18197858
:102AC00004EB011E19690EF20C4E69B9BEF8004004
:102AD00048F2FF310C40AEF80040BEF8007047F4F9
:102AE0000047AEF8007011E03F2905D24C08C90735
:102AF00048BF641CA10207E04C0911F01F0F08BF7A
:102B0000641EA10241F40041AEF80010197832F8B9
:102B10002140640406D532F8214026404CEA0606DE
:102B200022F8216000F06EF883F440535BE032F845
:102B30002A10314041F4014141F0800122F82A106D
:102B4000B2F850401978B3F808A0A41804EB0114A7
:102B500004F580644FF6FE7101EA0A012180B2F8A3
:102B600050101C78891801EB041101F5816E598908
:102B70004FF6FE742140AEF8001059781C780029F9
:102B800032F8241012D100F033F800F041F832F896
:102B9000214008EA040484F440542C4322F82140E4
:102BA000197832F821301F403D431DE000F020F835
:102BB000197832F82140640606D532F821402640C3
:102BC00049EA060622F82160DC781978012C32F8EF
:102BD00021401ABF274087F0200727402F4322F8C3
:102BE000217000F00FF81D4322F82150BDE8F08756
:102BF000490406D532F8241031404CEA010122F88C
:102C000024107047197832F8213008EA030370471E
:102C1000197832F82140640606D532F82140264062
:102C200049EA060622F82160197870472DE9F0413B
:102C3000024691F800C048780B7B4BF68F7E4CF231
:102C4000800448F2800848F6BF7548F2C00648F68E
:102C50008F77ABB9002832F82C0008D0400636D563
:102C600032F82C0007403E4322F82C602FE040044D
:102C700056D532F82C0007403C4322F82C404FE058
:102C8000002832F82C0029D1400405D532F82C0058
:102C90003840044322F82C40087832F820305B0694
:102CA00005D532F820303B40334322F820300878F5
:102CB00032F820301F403E4322F82060087832F876
:102CC00020300EEA030348EA030322F82030087894
:102CD00032F820100D4048EA050128E0400405D5EF
:102CE00032F82C003840204322F82C00087832F8C3
:102CF00020305B0605D532F820303B401E4322F8D9
:102D00002060087832F820301F403C4322F82040F1
:102D1000087832F820301D4048EA050522F8205096
:102D2000087832F820100EEA010148EA010122F881
:102D300020100020BDE8F0812DE9F84F0E46054631
:102D40007278012A48F2800848F68F7140F03C8181
:102D5000B4693769307BA74238BF3C4628B9F2884E
:102D600000F087FA00F071FA25E196F803B06309E4
:102D7000620896F800E0D6F82090BBF1020F04F04C
:102D8000010048F2801A7CD14F456FD235F82E7081
:102D900039404AEA010125F82E1000F028FABE4613
:102DA00035F82E905FEA496E33D591B900F034FAC8
:102DB00014B900F012FA17E03F2C02D200F0FBF930
:102DC00005E014F01F0F08BF5B1E00F0F8F9088043
:102DD0000AE0012908D1B5F85000401900EB071EA0
:102DE0000EF20C4EAEF8004000F042FA00F0DCF9B2
:102DF00032BF001B0446002030627078002840F08B
:102E0000918000F011FA07F2044779D100F0DBF964
:102E10008CE091B900F0F8F914B900F0DEF90EE099
:102E20003F2C02D200F0C7F905E014F01F0F08BFD5
:102E30005B1E00F0C4F9088001E000F01EFA328940
:102E400000F017FA00F0B0F932BF001B0446002072
:102E500030627078002840F0A38000F0E5F907F2B6
:102E60000C4740F08B8000F0AEF99EE035F82E1054
:102E700048F68F60014048EA010125F82E104C46C3
:102E800052E035F82E7039404AEA010125F82E103B
:102E900000F0ADF9BE4635F82E905FEA496E48D590
:102EA00091B900F0B9F914B900F097F917E03F2C87
:102EB00002D200F080F905E014F01F0F08BF5B1E7E
:102EC00000F07DF908800AE0012908D1B5F850002A
:102ED000401900EB071E0EF20C4EAEF8004000F059
:102EE000C7F900F061F932BF001B04460020002C36
:102EF000306260D07078A8B900F07FF907F204471B
:102F00003F2C05D26008E10748BF401C800207E063
:102F1000600914F01F0F08BF401E800240F40040FB
:102F2000388003E0012801D100F08FF9A3B2328983
:102F30003DE091B900F068F914B900F04EF90EE0E7
:102F40003F2C02D200F037F905E014F01F0F08BF44
:102F50005B1E00F034F9088001E000F08EF9328940
:102F600000F087F900F020F932BF001B0446002072
:102F7000306204B3707898B900F071F93F2C05D233
:102F80006008E10748BF401C800207E0600914F0B8
:102F90001F0F08BF401E800240F40040388004E04C
:102FA000012802D100F05BF93C80A3B272897169FB
:102FB000284600F0D7F9317835F8212048F6BF705F
:102FC000024082F0300217E0307B00282DD1B16939
:102FD0003069884232BF091A08460021B16100F009
:102FE0002BF980B900F0EFF84BF68F70317835F897
:102FF0002120024082F4405248EA020025F82100D4
:103000000020BDE8F28F3F2806D24108C00748BF24
:10301000491C88023880E7E7410910F01F0F08BFFC
:10302000491E880240F40040F4E7F078022868D195
:103030001ABBB5F850203078521902EB00123069F3
:1030400002F2044248B9138848F2FF30034013806B
:10305000148844F4004414800FE03F2805D243084C
:10306000C00748BF5B1C980206E0430910F01F0F21
:1030700008BF5B1E00F0A3F81080707808BB00F05A
:10308000BCF8306907F20C4748B93A8848F2FF307B
:1030900002403A803B8843F400433B8019E03F28DC
:1030A00005D24208C00748BF521C900207E04209FF
:1030B00010F01F0F08BF521E900240F400403880ED
:1030C00007E0012805D1B5F85000326900F0C9F8D1
:1030D0003A80F069002887D0307835F8202044F213
:1030E000400303EA02049C4218BF1A4208D135F893
:1030F0002020114041F4004141F0C00125F820108A
:1031000072E701284ED1B1693069884232BF091A8D
:1031100008460021B161430900F0010144081ABBCF
:10312000B5F850C03278AC440CEB021C0CF2044CE5
:1031300048B9BCF8007048F2FF323A40ACF80020C1
:10314000BCF800200CE03F2804D2224601B1521CFA
:10315000920207E01A4610F01F0F08BF521E92029B
:1031600042F40042ACF800207278B2B9B5F85020B1
:103170005719327807EB0217002807F20C473FF483
:1031800031AF3F2803D201B1641CA00242E710F026
:103190001F0F08BF5B1E980244E7012AB0D100F060
:1031A0004BF837E701202CE77069316920447061E2
:1031B000306A8142704700B1521C900270479802F9
:1031C00040F400407047398848F2FF3001403980B0
:1031D0003A8842F400423A8070470A8848F2FF3049
:1031E00002400A800B8843F400430B807047A9EB30
:1031F00004013162377871787047B5F8500047198B
:10320000307807EB00177047B5F85010491901EBFB
:10321000071101F204417047B5F85010491901EB4C
:10322000071101F20C417047B5F85000471930788A
:1032300007EB0017002C7047B5F850104F19317884
:1032400007EB011707F20C477047B5F85000471914
:10325000307807EB001707F204473C807047B5F859
:1032600050004719307807EB001707F20C477047FA
:1032700072897169A3B2284674E0012907D1B5F8B3
:103280005000401900EB071000F204400480704722
:1032900010B50A78497830F82240002948F28003B6
:1032A00005D048F6BF710C4084F0100404E04BF6E2
:1032B0008F710C4084F48054234320F82230002086
:1032C00010BD30B50A7B002A36D14A780C78002A26
:1032D00030F8242048F2800348F68F7516D0520645
:1032E00008D530F82420154045F4004545F0C005C8
:1032F00020F82450CA78012A1ED00A7830F82240DB
:1033000048F6BF710C4084F0200412E0520408D546
:1033100030F82420154045F4404545F0800520F85C
:1033200024500A7830F822404BF68F710C4084F418
:103330004054234320F82230002030BD11B98021B1
:10334000A0F84C1000207047002070470020704704
:10335000B0F844007047002070470A40A0F84020B1
:103360000020704710B500EB42005B1C00F5806048
:103370005B0807E00A784C7842EA0422891C20F8AE
:10338000042B5B1EF6D110BD10B500EB420000F51A
:1033900080605A0806E030F8044B0C70240A4C7028
:1033A000891C521EF7D1DA0744BF0088087010BD8F
:1033B0000901020002D4294881547047284B02F0C9
:1033C0000F021A4402F8041C7047264B19684FF686
:1033D000FF020002114000F4E06008432249084364
:1033E0001860704770B51F4B1C68C4F3022301249A
:1033F000C3F10705052D2EBF0F2504FA05F56D1E37
:103400001E1D072E34BF0023DB1E2940994004FAFD
:1034100003F3BDE870405B1E1A401143C8E701008A
:1034200007D4012200F01F01104B8A40400943F8E5
:103430002020704710B5401EB0F1807F01D30120DD
:1034400010BD0B4C60600F214FF0FF30FFF7B0FF55
:103450000021A16007202060002010BD00E400E0F2
:1034600018ED00E00CED00E00000FA0500E100E0DE
:1034700010E000E038B508B9022032BD00F527742D
:10348000A3690BB10025A56101B161610121217022
:103490000270FFF7F8F9002032BD0246002011B19A
:1034A000C2F8B41270470220704780B5FFF728FABF
:1034B000002002BD10B5D0F8B42202241AB112685F
:1034C000904700B90024204610BD80B5D0F8B42242
:1034D00053680AE138B5044604F52A75284600F019
:1034E00034FC04F5257001210160428B017D4260AE
:1034F00011F01F0003D002280BD005D30EE029469F
:10350000204600F035FA0DE02946204600F066FB23
:1035100008E02946204600F087FB03E001F0800127
:1035200000F040F8002032BD38B5044610460A00CD
:1035300004F5257329D1196803291ED104F5B0714A
:103540004A680D68AA420BD2AD1A0D60954238BF89
:103550002A46014692B2204600F053FC002032BDBC
:10356000196A086928B1187A032802D10969204626
:103570008847204600F04DFCF0E70529EED10020F9
:103580001860002100F00EF8E8E71A6A906930B17F
:10359000187A032803D1926920469047DEE702207B
:1035A00032BD80212046FFF7C4B938B50446080073
:1035B000134604F5257543D12868022833D1226AC1
:1035C000616A914207D2521A2262194692B220468B
:1035D00000F005FC11E0E269B2FBF1F001FB102004
:1035E00090B98A4210D3686882420DD2002200212D
:1035F000204600F0F4FB0020686000230022002138
:103600002046FFF7BDF914E0296AC86828B1287A76
:10361000032802D1C96820468847FFF7C2FF204629
:1036200000F0FEFB05E0042818BF002801D1FFF7D9
:10363000B8FF287B012804BF00212973002032BD78
:103640002A6A506930B1287A032803D1526920468A
:103650009047F3E7022032BD38B5044640230022EC
:103660000021FFF755F904F5AC70012140220160FB
:10367000C2604023002280212046FFF749F9012043
:10368000402104F52572A061616210720021116071
:1036900061600025506A156128B1126A616853683B
:1036A000C9B220469847002032BD017400207047FF
:1036B00000F52770042201784170027000207047E5
:1036C00000F527700178042904BF417801700020BB
:1036D000704780B500F527710A78032A03D18969FC
:1036E000C96901B18847002002BD9847002002BD8A
:1036F00010B56A4C04F15400FDF784FD00F01DF88C
:103700000128F7D0012161A000F0B0FB0128F9D019
:1037100004F15400FDF776FD00F00FF80128F7D012
:1037200001215BA000F0A2FB0128F9D0012159A0E2
:1037300000F09CFB0128F9D010BD81B204F15400C7
:1037400000F094BB2DE9F8478BB000F0C7FB00F008
:10375000AFF801A800F0E8F85148504D0168514E0B
:1037600041F020010160026802F0200200920099FD
:10377000026842F004020260036803F0040300934D
:103780000099026842F0080202601021006800F00F
:10379000080000900098019102940121039101A971
:1037A000414C204600F0ACFB242102A800F088FC2C
:1037B00000210022CDE90012A960E9606961E96198
:1037C0004FF6FF70032102912861012104910392B9
:1037D00003210691059201210891079203210A9184
:1037E00009926E6002A9281D00F07CFC08B100F06F
:1037F000A2F8002100910191281D694600F054FDB6
:1038000008B100F098F800F081FD0021281D00F0BB
:10381000B5FC00270FF28008DFF8909047F6181AE1
:103820002CE048451BDC494415E07F1C1021204654
:1038300000F026FC0028F8D0BFB2B7F5967F02DB77
:1038400000207062286500276868426A296D10B2FE
:103850005045E6DB514429650020706200222A8031
:1038600012B2286D1218EA64414605F1540000F0C6
:1038700077FDFFF73DFF012000F092FD102120466B
:1038800000F0FEFB0028DFD1D0E700005F00000061
:103890000D0000000A00000025640000A0110020B7
:1038A0001810024000080040000C0140E886FFFFAD
:1038B00018B593B0282109A800F002FC142168462D
:1038C00000F0FEFB05A800F02FF8012109910B92F2
:1038D0004FF480310A911191012302224FF4E0113B
:1038E0000D931092129109A800F06EFD08B100F03E
:1038F00022F8022101910F204FF480610090039182
:10390000029404940221684600F0E8FE08B172B601
:10391000FEE710210591089405A800F0A1FF08B169
:1039200072B6FEE714B010BD00210022002300246F
:1039300080E81E00704772B6FEE730B528240D06F9
:1039400005D501F0070161430844283003E06143D5
:10395000084400F5B4701AB900210173C38004E073
:10396000038101211B0C01734381002030BD000045
:103970002DE9FC410E460546307810F0600005F553
:10398000277708D0202818BF402824D1BA69936827
:1039900028469847ACE0717809291CD8DFE811F077
:1039A000FD00120188000C0188008D000A008800CB
:1039B000E800AB000022ADF800207088010A012960
:1039C00070D0022961D003292CD0062922D00729E2
:1039D00004BF287C00286BD1B9690A6B6846904700
:1039E00007214170BDF8001081B1F188002910D085
:1039F000BDF80010F288914288BF1146ADF8001062
:103A00000146BDF80020284600F0E1F9F0880028C2
:103A10006ED19FE0287C00284AD1B9694A6B68467C
:103A20009047DFE7C0B2052842D8DFE800F0272042
:103A300019120B0378698269002A39D0287C6946FB
:103A40009047CFE77869426992B3287C69469047EE
:103A5000C8E7786902695AB3287C69469047C1E78C
:103A60007869C26822B3287C69469047BAE77869CA
:103A70008268EAB1287C69469047B3E77869426872
:103A8000B2B1287C69469047ACE7287CB969002828
:103A9000684604D1896A884702224270A2E7C96A4F
:103AA0008847F9E77A69287C13686946984799E757
:103AB0003146284600F05DF91AE0B088002804BFBE
:103AC000F0880028F4D17488802CF1D2387803284B
:103AD00004F07F04ECD0BC7021462846FEF744FF7A
:103AE000284600F096F9002C0CBF01200220387007
:103AF0000020BDE8F681DFF8E080708888F80000DB
:103B000098F8004021460229D2DA3878022818D0E5
:103B1000032823D134B90220387069602846FFF7A2
:103B2000D4FC17E069688C4214D0C9B22846FFF76C
:103B3000CCFC6C6021462846FFF7BCFC022809D16A
:103B4000B6E73CB16C60032038702846FFF7B2FC42
:103B50000228ADD0284600F05CF9C9E73146284676
:103B600000F007F998F800102846FFF7AEFCBFE711
:103B7000F08801289CD13978491E012907D9891E6E
:103B800096D10122291D284600F021F9B0E7002036
:103B9000A860012205F10801F5E73878401E0228E7
:103BA00086D8F288022A83D1B868012100B10321A6
:103BB000E96005F10C01E6E77088012898D1012140
:103BC000B960C7E73878401E0228ECD87288012A0D
:103BD0008ED10020B860BDE70512002038B50D4633
:103BE0000446287810F060001CBF2028402816D119
:103BF00004F527721078401E022810D82B79022B6A
:103C00000DDA92699368204698470146E8880028B3
:103C100008BF002906D1204600F0FBF802E020464C
:103C200000F0A7F8002032BDF8B50A7804460879FC
:103C300012F0600504F5277308D0202D18BF402D21
:103C400066D19A6993682046984764E002F0600262
:103C5000202A05D19A6993682046BDE8F4401847A8
:103C60004A7882B3012A11D0032A51D11B78022B42
:103C700012D0032B4CD14A880ABB002818BF8028D9
:103C80001DD0C988D9B900F05CF818E01A78022A6A
:103C900002D0032A0AD03BE0002818BF802837D082
:103CA00000F04FF8802100F04DF834E04A8892BBD4
:103CB00010F07F0103D001462046FEF740FE20466B
:103CC00000F0A7F827E0142600F07F021B7872436B
:103CD000A718022B07F5AA7500F0800202D0032B6B
:103CE0000FD015E0002818BF802811D10AB107F1C4
:103CF00014050020286002222946204600F067F8BB
:103D000009E000F00F035E43A31932B19A696AB962
:103D1000204600F02EF80020F2BDD3F85821002AEA
:103D2000F6D0002818BF802803D1E2E707F1140578
:103D3000F7E701462046FEF708FE0028DAD001200A
:103D4000D8E701462046FEF7F4BD0A7802704B78AA
:103D500043708A78CB7802EB032242804B790A7950
:103D600002EB032282808A79C97902EB0122C280A8
:103D7000704710B504468021FEF7DBFD2046BDE804
:103D800010400021FEF7D5BD00280B4600D170473A
:103D900070B50146002400E0641C11F8015B002DA1
:103DA000FAD12406E40DA41C1480117819700322A2
:103DB0005A70022207E010F8011BD4B2521C1955A8
:103DC000D6B2521C9D5501780029F4D170BD80B542
:103DD00013460222C0F89422C361036201E080B559
:103DE00013460A460021FEF7C5FD002002BD80B53E
:103DF00013460322C0F8942200F5AE72136053609C
:103E000001E080B513460A460021FEF7B9FD002007
:103E100002BD80B50421C0F8941200230022E1E71E
:103E200080B50521C0F8941200230022ECE70000C1
:103E300038B5244C244D002205F57A71204600F057
:103E4000AEFE2946204600F0B2FE002032BD002022
:103E500070470020704710B501461A4C204600F00C
:103E6000A6FE204600F0C1FE002010BDF8B5154C9E
:103E7000164B04F525752A7A032A02D12E68042EE2
:103E800002D1002018701BE01A7842B9104A0026AF
:103E9000166001270F4A16800F4A16601F700A46E7
:103EA0000146204600F07BFE287A032808D12968C5
:103EB000042905D0204600F080FE10B10128F3D07F
:103EC0000220F2BDBC0C00200002002004120020E1
:103ED000F0110020A01100202408004080B5074800
:103EE000016841F0100101600320FFF76EFA002025
:103EF00000F08EFE00F0ACFE002002BD002002406B
:103F00002DE9F8474FF0000E0024604A604BDFF8BF
:103F100084814FF00F0982460CE0D7683840D060AA
:103F200006E095604D68AD02F7D5D0680743D760CD
:103F30000EF1010E0F6837FA0EF000F09F8001209D
:103F400000FA0EF63740B742F2D1486838B301287C
:103F50001AD002281DD003282ED0112816D01228DE
:103F60001AD04D4DA8421CBF4C4DA84217D04C4D05
:103F7000A8421CBF4B4DA84211D04B4DA8421CBFBC
:103F80004A4DA8420BD018E0CC6816E0CC68241D3E
:103F900013E0CC68083410E0CC680C340DE088687D
:103FA00008B9042409E0012819BF0824CAF81460DC
:103FB0000824CAF8106000E00024B7F5807F03D21F
:103FC00050464FEA8E0C05E0AEF108050AF10400F8
:103FD0004FEA850C056809FA0CF6B54304FA0CF6AD
:103FE000354305604868C000A2D5D8F8000040F00D
:103FF0000100C8F80000D8F8005005F00105009550
:104000004FEA8E0500984FEA9E0053F8206005F0B5
:104010000C0C09FA0CF526EA0505254EB24508BF39
:1040200000260ED0234EB24508BF012609D0224EED
:10403000B24508BF022604D0204EB2450CBF03266D
:10404000042606FA0CF6354343F82050F8434D6831
:10405000ED0315684CBF3D43054015604D68AD0349
:1040600055684CBF3D43054055604D689668ED026C
:104070004CBF47EA060500EA060552E7BDE8F187AE
:104080008068084018BF0120C0B27047000401409A
:10409000080001401810024000001110000012102A
:1040A000000021100000221000003110000032102A
:1040B00000080140000C01400010014000140140C4
:1040C000002200F015BE00000846016841F0010121
:1040D00001607047002129702046704704F13C05BB
:1040E00068787047F8B504000E4601D10120F2BD92
:1040F000FFF7F4FF18B9FFF7EDFF00F0C6FD02204F
:1041000068702168DFF808018A6802408A60211D12
:10411000206800F083F82268DFF8F810936890694F
:10412000176A0140B0680843B16940EA0120DFF82E
:10413000E8100140F0680843F16940EA0121306964
:1041400041EA0010316A40EA013C7068716927F069
:10415000220707433068034347EA01179360216849
:10416000C1F818C0012120680762A972A970E9701E
:10417000A971E97169700020F2BD000070B500F00E
:1041800039F839B9012A08BF012D15D10221017072
:10419000017119E0042907D1012B08BF012E0BD1B1
:1041A00002214170417114E0012A08BF012B03D1A3
:1041B000012D08BF012E01D0012070BD00F014F8C0
:1041C00011B1042905D002E00122002103E000F032
:1041D00019F801220421206800F058F8FFE7206850
:1041E000FFF773FF002070BD02220270427002715F
:1041F00042717047044604F13E0002784378057925
:104200004679704720680122002100F03FB8000085
:10421000F8BFFFFFFCFCFFFF0303FFFF70B5174E65
:104220000368174C174DB04218BFB0F1804F03D050
:10423000A84218BFA04209D14A6823F07003134373
:10424000B0421CBFB0F1804FA84201D0A04203D1C0
:10425000CA6823F4407313434A6923F0800313436D
:104260000360B0428B68C3620A68826202D1096946
:10427000054A11600123436170BD0000002C01401C
:104280000008004000040040302C014010B501F04F
:104290001F01036A01248C40A343036202FA01F167
:1042A000036A1943016210BD70B500F13C031A782E
:1042B000012A01D1022070BD01221A7002245C7013
:1042C00005686E68AC680A6826F0700616436E6072
:1042D00002680C48824218BFB2F1804F05D00A48EC
:1042E00082421CBF064DAA4204D1486824F08004D3
:1042F00004439460012159700020187070BD0000C3
:1043000000080040002C01400004004010B5104C93
:10431000104900222046FFF7ADF808B1FFF70BFB6C
:104320000D492046FFF7B9F808B1FFF704FB0B4928
:10433000204600F02DFC08B1FFF7FDFA2046FFF7FC
:10434000B4F818B1BDE81040FFF7F5BA10BD00BFD2
:10435000BC0C0020300100201C00002020010020A7
:104360000CB430B583B00A4606A902910446002574
:104370000194009502AB01A9084878441E30FBF770
:10438000B5FE019A157000284EBF04460198041B23
:10439000204603B030BC5DF80CFB00BF1FCEFFFF12
:1043A00038B5044600F0BEFC14F1010F054602D0FA
:1043B00004490878041900F0B5FC401BA042FAD368
:1043C00031BD00BF000000202DE9F843040016D0E5
:1043D0002078DFF84C64C10713D5706800F00C003A
:1043E000042807D0706800F00C00082841D17068DC
:1043F000C1033ED53068810303D56068002800F012
:1044000064812078DFF82874810719D5706810F06E
:104410000C0F07D0706800F00C00082861D170689C
:10442000C1035ED43068810703D52069012840F0BC
:104430004C813168606921F0F80141EAC0013160C6
:104440002178080740F18180A069DFF8E81300288F
:1044500000F0A68001220A6000F064FC0546706A44
:10446000810763D400F05EFC401B0228F7D90320CB
:104470002EE16068B0F5803F04D1306840F48030B0
:10448000306014E008B930680AE0B0F5A02F306859
:1044900006D140F480203060316841F4803105E07D
:1044A00020F480303060316821F480213160606810
:1044B00058B100F037FC054630688103A1D400F004
:1044C00031FC401B6528F7D3D1E700F02BFC0546F3
:1044D0003068810395D500F025FC401B6528F7D393
:1044E000C5E72069A8B10121396000F01BFC054631
:1044F0003068810705D400F015FC401B0228F7D96D
:10450000B5E73068616920F0F80040EAC10030602A
:1045100096E7386000F006FC0546316888078FD5BD
:1045200000F000FC401B0228F7D9A0E7DFF8F402F6
:104530000168C9084FF47A72B1FBF2F2009200BF31
:104540000098411E00280091F9D1207841076ED5CE
:10455000F0690025C10009D4F06940F08050F06195
:104560000125F06900F0805000900098DFF8C882C3
:10457000D8F80000C10520D4D8F8000040F48070BD
:10458000C8F8000000F0CEFB8146D8F80000C10555
:1045900013D400F0C7FBA0EB09006528F5D366E74C
:1045A000086000F0BFFB0546706A8107CDD500F0BA
:1045B000B9FB401B0228F7D959E7E068012808D069
:1045C00008B9306A09E00528306A06D140F00400D5
:1045D0003062306A40F0010005E04008400030627F
:1045E000306A20F00400306241F28938E06860B13E
:1045F00000F098FB8146306A810713D400F092FBEB
:10460000A0EB09004045F6D331E700F08BFB814673
:10461000306A810706D500F085FBA0EB0900404514
:10462000F6D324E71DB1F06920F08050F061E06915
:1046300000284CD0716801F00C01082938D00228FC
:104640002AD100F047F805463068810105D500F011
:1046500069FB401B0228F7D909E7206AB0F5803FC3
:1046600005D17168A06821F400310143716072685E
:10467000206A616A22F4741202430A4372600120C4
:1046800000F029F804463068810120D400F04AFB8C
:10469000001B0228F7D9EAE600F01CF8044630684F
:1046A000810114D500F03EFB001B0228F7D9DEE69D
:1046B00001280AD07068226A00F48031914202BF5A
:1046C00000F47010616A884201D0012000E00020EF
:1046D000BDE8F2830020386600F024BB2DE9F041EC
:1046E000040088464ED0554E00F077F802D200F014
:1046F0006FF847D120684A4D810712D5400703D58E
:10470000696841F4E06169602078010703D5686851
:1047100040F4605068606968A06821F0F0010143CE
:1047200069602178C80725D56068012802D1296809
:104730008A0303E00228296802D18A0102D421E019
:104740008A071FD56968890840EA8100686000F01F
:10475000E9FA07466868616800F00C00B0EB810F69
:1047600008D000F0DFFAC01B41F289318842F1D352
:1047700003202BE0306800F00700804504D200F0F1
:1047800027F801D0012021E02078410705D56A688B
:10479000E06822F4E06202436A602178080706D5E7
:1047A0006968206921F4605141EAC001696000F044
:1047B00019F86A6822491B4BC2F30312895CC8408E
:1047C00018601A48006800F023FA0020BDE8F08164
:1047D0003168C90848EAC1013160306800F007005B
:1047E00040457047174910480A6802F00C03082B2F
:1047F00000D0704710B500BF14A4C2F38343D203A6
:10480000E35C08D50968584314A3C1F340415A5CDE
:10481000B0FBF2F010BD18460B49484310BD000034
:10482000001002400C00002000127A000800002056
:1048300000004242800442420070004000200240DA
:10484000285000080410024000093D00020304053E
:10485000060708090A0B0C0D0E0F101001020000CC
:104860002DE9FC410646354D3078C10750D5A86981
:104870000024C10009D4A86940F08050A861012437
:10488000A86900F08050009000982D4F3868C1054D
:1048900011D4386840F48070386000F043FA8046E4
:1048A0003868C10507D400F03DFAA0EB0800652880
:1048B000F6D303203FE0E86910F440701EBF716832
:1048C00001F44071884218D01E49E86901220A604B
:1048D000002320F440700B60E861C0070DD500F0A4
:1048E00021FA0746E869810707D400F01BFAC01BCC
:1048F00041F289318842F5D3DBE7EA69706822F436
:1049000040720243EA611CB1A86920F08050A8619E
:104910003078810705D52A68B06822F44042024306
:104920002A603178C80605D52968F06821F480012D
:10493000014329600020BDE8F68100000410024018
:10494000007000404004424270B505460026287CB5
:1049500040B94FF4807300F03AF80122EA624FF454
:10496000807305E0402300F032F80120E862402324
:10497000022201212846FDF7CBFF0120C5F86C017A
:104980000823032282212846FDF7C2FF0120286464
:104990004FF48E70FDF7FEFF040005F52E7008BF82
:1049A0000126046011D040680168884704F58270D0
:1049B000066146610268287C00280CBF4FF48073B2
:1049C000402301212846FDF7DBFF304670BD02225F
:1049D00081212846FDF79CBF10B504468121FDF7D3
:1049E000A2FF0022E26201212046FDF79CFF002089
:1049F000C4F86C0182212046FDF795FF0021216457
:104A000004F52E74206838B16068416888472068D2
:104A1000FDF7CEFF00202060002010BDF8B5044651
:104A200004F527730D46DE6900218DF80010ADF8FE
:104A300002100027297811F0600022D020283AD1F6
:104A4000EA88C2B1687809060AD51B6AD3F808C09B
:104A50003146E047EA8831462046FFF7B8F92FE0B3
:104A600006F580710870E88848703146EA8820466B
:104A7000FFF7BDF924E01B6A68789C682946A047C7
:104A80001EE0687820B10A2809D00B2810D012E067
:104A9000197803290FD102220DF1020104E01878E0
:104AA000032808D1012269462046FFF790F907E064
:104AB0001878032804D029462046FFF75AF9022720
:104AC0003846F2BDF8B5044604F52E7002688568D4
:104AD000DAB10E46142070432718F86980B12823F4
:104AE0005E43AB199B6BB0FBF3F503FB150038B9C4
:104AF0000026FE61002300222046FDF73BFF02E076
:104B00000023C2F814310020F2BD0220F2BD70B5BE
:104B100000F52E74256805F58276FDF737FFB06045
:104B2000206838B162683068D36805F586719847A7
:104B3000002070BD022070BD10B500F52E704368D6
:104B40000168002B1EBF01F580742078FF2804D077
:104B500062789B689847FF202070002010BD432199
:104B60000180074870474321018006487047432170
:104B70000180054870470A21018004487047000001
:104B80009800002054000020DC00002010000020CD
:104B90000246022011B1C2F8BC1200207047D0F8C2
:104BA000B80200F584700160826000207047D0F880
:104BB000B802C0F804110020704780B5D0F8B812D0
:104BC00089B101F58472D16859B90123D360916824
:104BD00001638121936812689BB2FDF7CBFE002030
:104BE00002BD012002BD022002BD80B5D0F8B8127E
:104BF00061B1D1F80421017C00290CBF4FF480730E
:104C000040230121FDF7BCFE002002BD022002BDB1
:104C100038B50D4D0D4B2A7804464FF47A7118685B
:104C2000B1FBF2F2B0FBF2F0FEF704FC50B9102C2D
:104C300008D2002221464FF0FF30FEF7D3FBAC60D4
:104C4000002032BD012032BD000000200C000020F9
:104C5000234881B0016841F001010160026802F05F
:104C6000010200920099426842F08052426040681E
:104C700000F08050009000981A48016821F0E0612F
:104C800041F00071016001B0704718B585B004466D
:104C90001022002101A800F04BF82168124881423F
:104CA0001CD10F48416841F004014160416801F0A6
:104CB000040100910099026842F008020260C021DC
:104CC000006800F008000090002200980748019159
:104CD00002920121039101A9FFF712F906B010BD5C
:104CE000181002400400014000080040000C014080
:104CF00000B500BF130096469446103928BFA0E8BF
:104D00000C50FAD85FEA417C28BF0CC048BF40F87D
:104D1000042BC90728BF20F8022B48BF00F8012B3D
:104D200000BD000001484068704700BF000000203F
:104D300010B5044610460A460146204600F002F827
:104D4000204610BD62F30F2262F31F42401810F09C
:104D5000030308D0C91A1FD3DB0748BF00F8012D91
:104D600028BF20F8022D130030B414461546103920
:104D700028BF20E93C00FAD8490728BF20E90C00E9
:104D800048BF40F8042D890028BF20F8022D48BFF5
:104D900000F8012D30BC7047C91818BF00F8012D6C
:104DA000CB0728BF00F8012D7047000012200880B3
:104DB0001A48704704200880194870472DE91040B0
:104DC00000F028F827A004E02DE9104000F022F8B8
:104DD0002AA02146FEF7D8FF204610BD38B51A207C
:104DE000088010494C68086889680F4D081809D078
:104DF0000822A91C00F022F8042205F11201204625
:104E000000F01CF8284632BD2DE9104000F002F8F1
:104E10001FA0DEE70A46054C704700004C01002049
:104E200060010020E8F7FF1F64010020A0100020AF
:104E30002DE91040FFF7EEFF18A0CAE730B50023B8
:104E40000CE0040F0A2C2CBF3734303401F8134027
:104E500001EB4305002400016C705B1C9342F0DB06
:104E600030BD000053544D33322056697274756161
:104E70006C20436F6D506F727400000053544D6985
:104E800063726F656C656374726F6E696373000043
:104E900043444320436F6E666967000043444320E8
:104EA000496E74657266616365000000F0B4024685
:104EB000106895681318506803EB5004C0071CD5A0
:104EC0004D441AE013F8017B05F8017B491EF9D126
:104ED00098B113F8011BC6F38106032E08BF13F81F
:104EE000016B01EB06214942801C294405D011F8D1
:104EF000016B05F8016B401EF9D1A3420ED013F8E7
:104F0000016B16F0030104BF13F8011BC91C300923
:104F10000F28DBD113F8010B0F30D7E7F0BC02F1FB
:104F20000C00704730B4002512E050F8042BD30772
:104F300044BF4A44521E091F042942F8045BFAD2B6
:104F400013468C0744BF15809B1CC90748BF1D70C2
:104F500050F8041B0029E8D130BC704710B5074950
:104F600079441831064C7C44163404E00A68081D64
:104F7000114488470146A142F8D110BD0800000045
:104F800024000000A1FFFFFF081000000002002025
:104F90000000000019FFFFFF5801000000020000A0
:104FA00000000020FEE7FEE7FEE7FEE7FEE77047B1
:104FB0007047704700F006B80148FCF77DBF00005D
:104FC000D009002002494A68087882184A60704770
:104FD0000000002000F00DF8002801D0FFF7BEFF10
:104FE000AFF300800020AFF30080FEF7ABFB00F0D2
:104FF00002F80120704700F001B80000074638466B
:10500000FCF7DEFEFBE700000548014603B46846F6
:1050100080F30988AFF30080AFF30080FFF7DAFF79
:10502000A5EDF5FE70470000000000000000000044
:1050300001020304060708090148804701480047A8
:105040002550000809500008FFF7FEBFFFF7FEBF1C
:10505000FFF7FEBFFFF7FEBFFFF7FEBFFFF7FEBF84
:10506000FFF7FEBFFFF7FEBFFFF7FEBFFFF7FEBF74
:10507000FFF7FEBFFFF7FEBFFFF7FEBFFFF7FEBF64
:10508000FFF7FEBFFFF7FEBFFFF7FEBFFFF7FEBF54
:10509000FFF7FEBFFFF7FEBFFFF7FEBFFFF7FEBF44
:1050A000FFF7FEBFFFF7FEBFFFF7FEBFFFF7FEBF34
:1050B000FFF7FEBFFFF7FEBFFFF7FEBFFFF7FEBF24
:1050C000FFF7FEBFFFF7FEBFFFF7FEBFFFF7FEBF14
:1050D000FFF7FEBFFFF7FEBFFFF7FEBFFFF7FEBF04
:1050E000FFF7FEBFFFF7FEBFFFF7FEBFFFF7FEBFF4
:1050F00043010001221008100524F4000A060002F2
:105100000B224018100349490008D90420021D4A07
:1051100000081F1003394B0008C50C430F4B1061EA
:1051200001126710125F04126F04127704100D0948
:10513000024300020100C0320904000001020B100A
:105140001E052400100105240100010424020205AB
:10515000240600010705820308001009040100026B
:105160000A4E100407050102000107228107F228F8
:105170000044224007228107200100090744F22C45
:1051800004441003313E00084F0412530412570424
:105190001003AD4D0008B50412C90412BD0412DDA0
:1051A000041003094E0008310412124310060202D3
:1051B00000408304405779130203C8F00508040334
:1051C00009041A030001F00207F61400080452FF54
:1051D00001F2009A1410010000D20C25A4F003166D
:1051E000800100200001471D11B8430B113C210133
:040000050800500996
:00000001FF
