:020000040800F2
:10000000E82B00206D6F0008756200087F62000811
:100010008162000883620008856200080000000019
:1000200000000000000000000000000087620008DF
:1000300089620008000000008B6200088D620008E1
:100040007D6F0008816F0008856F0008896F0008C8
:100050008D6F0008916F0008956F0008996F000878
:100060009D6F0008A16F0008A56F0008A96F000828
:10007000AD6F0008B16F0008916200089962000836
:10008000B56F0008B96F0008BD6F000800000000E0
:10009000000000000000000000000000C16F000828
:1000A000C56F0008A1620008C96F0008CD6F000885
:1000B000D16F0008D56F0008D96F0008DD6F000808
:1000C000E16F0008E56F0008E96F0008ED6F0008B8
:1000D000F16F0008F56F0008F96F000800000000DC
:1000E000FD6F0008017000080570000800000000A6
:1000F000000000000000000000000000097000087F
:10010000000000000D700008117000081570000854
:1001100000000000000000000000000000000000DF
:10012000197000081D700008217000082570000873
:10013000297000080000000000000000000000001E
:100140000000000000000000000000002D7000080A
:100150003170000835700008397000083D700008E3
:100160004170000845700008000000000000000019
:10017000000000000000000000000000000000007F
:1001800000000000497000080000000000000000AE
:100190004D70000851700008C178827842EA01224F
:1001A0004178007841EA022140EA0120704770B4AA
:1001B000494C0246206800230025A0B11668B042D1
:1001C00002BF60689668B04202BFA0685669B0423C
:1001D0000AD129B904EB05108189B1F5807F16D1C8
:1001E00070BC1020704701232069012578B1166882
:1001F000B04202BF60699668B04202BFA06952690E
:100200009042E6D01BB9022918BF122000D100206D
:1002100070BC70472DE9F0412F4ED6F800C0024661
:100220000023156857699468AC4501BF7068A04207
:10023000B068B84219D030690123A84201BFD6F88E
:1002400014E0A645D6F81880B8450ED00023BCF1BE
:10025000000F1CBF012300280CD106EB0310056022
:100260004460002452698260848106EB0312908905
:1002700031B110B10020BDE8F0814FF4807000E092
:10028000401C9081581CBDE8F081401E022814D209
:10029000000111490A189389B3F5807F18BF5FEAFE
:1002A000030C02D10023938103E05B1E93819BB278
:1002B0000BB900220A5000207047022070470649FF
:1002C0000A68824204BF00220A600A69824204BFAF
:1002D0000020086170470000E4240020F0B50646C5
:1002E00081B0F078002508B3776B707801233A4627
:1002F00006F1380102F02AF818B10125284601B0AC
:10030000F0BDF070B16A306A791A81420ED2B478C9
:10031000012C0BD9641E306AC719707801233A4644
:1003200006F1380102F012F8641EF4D1284601B03B
:10033000F0BD70B504460D46606B0026854210D0B6
:100340002046FFF7CBFF06000BD1607801232A4639
:1003500004F1380101F0EFFF10B14FF0FF35012635
:100360006563304670BD30B581B00446FFF7B6FF17
:10037000050053D12078032804BF2079012846D1F5
:10038000A08904F138010022401E01F8012BFBD1A5
:10039000552084F83602AA21522084F8380084F8C7
:1003A000390084F83712612084F83A004121722024
:1003B00084F81C0284F81D0284F83B10412084F864
:1003C0001E026121A069626A84F8200284F81F126B
:1003D000000A84F82102521C000A84F82202626397
:1003E000000A84F823020123606984F8240204F1DE
:1003F0003801000A84F82502000A84F82602000A5F
:1004000084F82702607801F0A1FF0020207100220B
:100410006078002101F0A5FF00B10125284601B058
:1004200030BDC269891E921E914201D300207047DF
:100430004289006B02FB0101084670472DE9F0413B
:100440000C460568022C72D3E86984426FD2297881
:1004500001294FF0FF3604D069D303294DD032D3A0
:1004600065E0A889A96A04EB5408B8FBF0F04118CC
:100470002846FFF75EFF00285AD1A88908F1010736
:10048000B8FBF0F100FB118805F13802A96A12F8F7
:100490000880B7FBF0F041182846FFF74AFF002814
:1004A00046D1A889B7FBF0F100FB117705F13800C0
:1004B000C25D48EA0226E00754BFC6F30B063609C0
:1004C0003046BDE8F081AA89A96A5208B4FBF2F06F
:1004D00041182846FFF72DFF50BBA8896400B4FBE4
:1004E000F0F100FB114405F1380020444278067811
:1004F00046EA02263046BDE8F081AA89A96A920838
:10050000B4FBF2F041182846FFF713FF80B9A88921
:10051000A400B4FBF0F100FB114405F138002044C5
:10052000FFF73AFE20F070463046BDE8F081012624
:100530003046BDE8F0812DE9F0430C460227022C3D
:1005400081B006461546C0F09F80F069844280F075
:100550009B803178012908D0C0F09680032967D0AC
:1005600047D3384601B0BDE8F083B089B16A04EBE7
:100570005409B9FBF0F041183046FFF7DAFE0028C5
:10058000074640F08180B08909F10108B9FBF0F11C
:1005900000FB119906F13800484414F001041DBF16
:1005A000017801F00F0141EA05112946017001208F
:1005B000F070B089B16AB8FBF0F041183046FFF72F
:1005C000B8FE002807465FD1B089B8FBF0F100FB08
:1005D000118806F13800404414B12D09057051E02E
:1005E00001782D0A01F0F00105F00F050D430570AB
:1005F00048E0B289B16A5208B4FBF2F041183046C3
:10060000FFF797FE002807463ED1B0896400B4FB8F
:10061000F0F100FB114406F138002044012105707F
:100620002D042D0E4570F170384601B0BDE8F08301
:10063000B289B16A9208B4FBF2F041183046FFF774
:1006400078FE074600BBB089A400B4FBF0F100FBC4
:10065000114006F138021044FFF79EFDB18925F0E4
:10066000704500F070400543B4FBF1F001FB10440D
:1006700006F13801081905702D0A45702D0A85709C
:100680002D0AC5700120F070384601B0BDE8F08336
:100690002DE9F04180460C00D8F8006006D175695C
:1006A00015B1F06985420ED301250CE0FFF7C6FEB7
:1006B000012898BF012041D910F1010F3ED0F16906
:1006C00088423BD325462F46F0697F1C874202D3E0
:1006D0000227012D29D939464046FFF7AFFE48B120
:1006E000012818BF10F1010F28D0AF42ECD1002033
:1006F000BDE8F0814FF0FF3239463046FFF71BFF6F
:10070000B0B92CB13A4621463046FFF714FF78B90C
:100710007761F169B069891E814224BF401EB061D2
:10072000307940F00100307107E00020BDE8F08131
:1007300001280CBF4FF0FF3701273846BDE8F08194
:100740000368C06AB3F80CC0021D5889B1FBFCF104
:10075000B1FBF0F003E0984218D3C01A08321168D8
:1007600091B1884212D352F8083F401A63B19842BF
:100770000CD352F8081FC01A31B1884206D352F880
:10078000083F401A002BE6D1002070475168081836
:1007900070472DE9F04105460E462F68B6F5001F5B
:1007A00030D216F01F0F2DD1AC686E6154B9387875
:1007B000032801DBFC6A2CB939897009884221D2EF
:1007C000F86A1BE07989B88900FB01F806E0022C81
:1007D00018D3F869844215D2A6EB0806464521468F
:1007E00009D32846FFF72AFE044614F1010FEED183
:1007F0000120BDE8F0813846FFF713FEE861AC61E7
:10080000E86910B90220BDE8F081B989B6FBF1F2C0
:100810001018E86101FB1266B81900F1380129626D
:100820000020BDE8F08102461278CB7E887E032A44
:1008300040EA032005D14A7D097D41EA022140EAD0
:100840000140704713041B0E8A76CB76007803288C
:1008500003D1120C0A75120A4A75704730B4024669
:10086000052112F8010B040612F8013BC00100EB50
:100870005460C018050612F8013BC00100EB556436
:10088000E018491EEFD130BCC0B270470000000034
:100890002DE9F04F064683B0376800257561B468CE
:1008A00044B93878022801DDFC6A1CB93889B8B32C
:1008B000F86A1DE07989B88900FB01F906E0022C8D
:1008C0002ED3F86984422BD2A5EB09054D4521466C
:1008D0000BD33046FFF7B2FD044614F1010FEED101
:1008E0000124204603B0BDE8F08F3846FFF799FD9C
:1008F000F061B461F06998B1B989B5FBF1F21018F3
:10090000F06101FB1255781900F138013162FF22C4
:1009100001924FF0FF3131630096FF250297C8E046
:100920000224204603B0BDE8F08F0F2957D100996B
:1009300091F82F20510679D4420607D5717B019199
:1009400000F0BF0000994A690A630546E9B288428F
:1009500002BF0198717B88423FD10298D0F8108085
:10096000F07EB17E51EA002137D137780FF27469F9
:1009700007F03F077F1E0D20474301205FF00D0465
:1009800099F8001031444A78097841EA022A0100B6
:1009900010D0FF2F21D2504601F020FD834638F8B9
:1009A000170001F01BFD7F1C834508BF504605D092
:1009B000FF253BE04FF6FF718A450ED1641E09F119
:1009C0000109DDD131784A0605D500281CBF38F869
:1009D0001700002801D16D1E28E0FF2526E0EDB2AA
:1009E0002DB9019D3046FFF739FF85427AD0009836
:1009F00090F82F10C80714D40098026A0B2100F158
:100A0000240315781878281A491E08D038B9567862
:100A10005D78701B9B1C921C491E0028F1D0002899
:100A200060D000994FF0FF30FF25086300984669B9
:100A3000C16904682036002953D0B6F5001F50D292
:100A4000A089B6FBF0F200FB126030BB0098491C95
:100A5000C1610099896939B92189700988421CD31B
:100A600000980021C1613CE06089401E024214D11F
:100A70000098FFF7E3FC01460229FFF451AF11F1A2
:100A8000010F3FF42DAFE0698142E9D2009A9161F4
:100A90002046FFF7C6FC0099C86100984661A0890E
:100AA000009AB6FBF0F100FB1166A11901F13800C4
:100AB00010620098C1690298FFF73BFC040011D155
:100AC0000098066A307860B1F17A009A01F03F012F
:100AD000E5289171A5D00A077FF527AF0F29A0D18E
:100AE00025E70424204603B0BDE8F08F2DE9F04F40
:100AF000044685B02068039094F82F1011F0A00FE1
:100B000018BF062040F06A820069B0F800104FF06C
:100B10000008A9B108F1010830F8182082B108F1E5
:100B2000010830F8181059B108F1010830F8182000
:100B3000002A1EBF08F1010830F818100029E9D179
:100B4000694604F12402032012F8013B01F8013B3D
:100B5000401E12F8013B01F8013B12F8013B01F87D
:100B6000013B12F8013B01F8013BEDD19DF80B0070
:100B7000C10740F18580402084F82F000126039DA5
:100B8000DFF8CCA803AF2A699DF8000004F1240324
:100B9000314603F8010B0DF1010C05201CF801EBA7
:100BA00003F801EB401E1CF801EB03F801EBF5D153
:100BB000052912D9108880B132F8023B5FF010008D
:100BC00003F0010C0CEB41015B085FEAC13C48BF3C
:100BD0008AEA0101401EF3D1ECE707200DF1130270
:100BE00001F00F0330335FFA83FCBCF13A0FA8BF6A
:100BF000DB1D401E090902F80139F1D17E2139546B
:100C000004F12402002101E0491C121D814214D28A
:100C10001378202B11D0491C81420ED25378202BFF
:100C20000BD0491C814208D29378202B05D0491C57
:100C3000814202D2D378202BE6D10A46511C0828E3
:100C400004F1240C3ABF3B5C401C20230CF802301A
:100C50000829F2D32046FFF71BFE010002D1761CC3
:100C6000642E90D38246642E039508BF072000F0BF
:100C7000B581042840F0B1819DF80B0084F82F0065
:100C80009DF80B00810709D508F10C08DFF8C4278F
:100C9000A8FB0220C00800F1010801E04FF00108A4
:100CA0004FF000092768C4F81490BA46A06848B904
:100CB0003978032901DBF86A20B9398989B3F96ADF
:100CC000E1611DE07E89B9894E43054606E0022DAB
:100CD00027D3F869854224D2A9EB0609B1452946F4
:100CE00009D32046FFF7AAFB054615F1010FEED107
:100CF0004FF0010A9FE03846FFF793FBE06128467A
:100D0000A061E06968B1B989B9FBF1F21018E0613E
:100D100001FB129907F13800484420620027D146B0
:100D200025E04FF0020A86E00121E9706863284659
:100D3000FFF7D4FA0028DBD1686B0BF1010B401CE4
:100D400069898B45F0D3A0EB0B006863C4F818A049
:100D500051462846FFF765FBE0616661A889B6FB4E
:100D6000F0F100FB116605F1380080192062484659
:100D7000E169FFF7DEFA010058D1206A0078E52822
:100D80001CBF0028002702D17F1C474552D066694E
:100D90002568E169203699B1B6F5001F10D2A889FF
:100DA000B6FBF0F200FB12600028D6D1491CE161CD
:100DB000A16941B9298970098842CED30020E06138
:100DC0004FF0070A37E06889401E0242C5D120462D
:100DD000FFF734FB8246BAF1020FA2D31AF1010FDA
:100DE00086D0E8698245B1D3A1692046FFF750FC5F
:100DF0005FEA000AE4D0BAF1010F92D01AF1010FB4
:100E00003FF476AF2846FFF769FA00287FF470AF09
:100E1000A88905F138010022401E01F8012BFBD101
:100E2000934651462846FFF7FCFA89E704288A468C
:100E3000C6D000E08A465FEA0A0040F0A480B8F11C
:100E4000010800F0A3806169A1EB48112046FFF77B
:100E5000A0FC5FEA000A40F0968004F12400FFF74E
:100E6000FDFC039F8DF80C000D224FF6FF7A0492D3
:100E7000E1693846FFF75DFA010040F08280D4F85E
:100E800020C0D7F810E09DF80C0000BF55A28CF8E8
:100E90000D000F2100208CF80C008CF81A008CF843
:100EA0001B0043468CF80B10DDB204986D1E4543C1
:100EB0005FF00D003EF815106D1C167866444FEA81
:100EC000112B317086F801B001B95146521C401EF9
:100ED00002D05145F1D0EDE751451ABF3EF815005B
:100EE000002843F040038CF800300120F870666958
:100EF000E16925682036002940D0B6F5001F3DD2B3
:100F0000A889B6FBF0F200FB1260E8B9491CE16168
:100F1000A16921B929897009884224D214E068891D
:100F2000401E024210D12046FFF788FA022822D341
:100F300010F1010F1CD0E969884214D2A06101466A
:100F40002846FFF76EFAE0616661A889B6FBF0F10A
:100F500000FB116605F138008019B8F10108206224
:100F600086D1039712E00020E0614FF0040A34E0DC
:100F70004FF0010A31E04FF0020A2EE04FF0040A70
:100F80002BE0039782465FEA0A0026D1E1690398C5
:100F9000FFF7CFF95FEA000A1FD1206A202101F094
:100FA0006DFA04F12402216A12F8010B01F8010B19
:100FB0005FF0050012F8013B01F8013B401E12F8FA
:100FC000013B01F8013BF5D194F82F00216A00F0B4
:100FD0001800087301200399C870504605B0BDE899
:100FE000F08F000001030507090E10121416181CDB
:100FF0001E0000002DE9F04F064683B0326800E085
:10100000491C08782F2818BF5C28F9D00020B06050
:101010000B78202B47D2802086F82F004FF0000855
:101020003768B468C6F8148064B93878032801DBDF
:10103000FC6A3CB9388918B9022003B0BDE8F08FCA
:10104000F86A1BE07D89B889454306E0022CF3D39A
:10105000F8698442F0D2A8EB0508A84521460AD3D6
:101060003046FFF7EBF9044614F1010FEED10120F1
:1010700003B0BDE8F08F3846FFF7D3F9F061B461F3
:10108000F0690028D8D0B989B8FBF1F21018F061E6
:1010900001FB128807EB080000F1380131620020E3
:1010A00003B0BDE8F08F019100921EE04907C4D45F
:1010B000B079C10640F15081009970698989B0FB0F
:1010C000F1F201FB1200009908443830C27E817EA3
:1010D00041EA0221009A1378032B05D1427D007D5D
:1010E00040EA022041EA0041B1603068DDF804A026
:1010F00004690FF26C2800270025A146D3461DE0A5
:10110000521C107890B188421CBF12F8010F0028C1
:101110000CD088421CBF12F8010F002806D088426C
:101120001EBF12F8010F00288842E9D1107800286C
:1011300041D129F8021B7F1C0AF1010A9AF800002C
:101140006D1C202815DB2F2818BF5C280BD0FF2F23
:1011500031D2012101F012F901002CD08029E8DA06
:101160004246CEE76D1C1BF805102F2918BF5C29DD
:10117000F8D00BEB0501202825460191ACBF4FF0BC
:10118000000B4FF0040B3C4600E0641E34B1A81E77
:1011900030F81400202818BF2E28F6D0002025F89B
:1011A000140044B120220B2106F1240001F06AF959
:1011B0000021284605E0062003B0BDE8F08F491C59
:1011C000801C0288202A18BF2E2AF8D009B14BF0C3
:1011D000030B2A462046931E33F810402E2C13D0C2
:1011E000401E1CBF33F810402E2C0DD0401E1CBFDB
:1011F00033F810402E2C07D0401E1CBF33F810309F
:101200002E2B01D0401EE6D10027BA460825DFF874
:10121000508A02920446894602E000BF4BF0030B5D
:10122000029830F81920002A09F1010962D0202A19
:10123000F4D02E2A01D1A145F0D1AA454AD2A14528
:1012400048D0802A15DB0021104601F097F84BF0BA
:10125000020B48B95F224BF0030B06F1240000F8A3
:101260000A200AF1010ADBE7404410F8802C002A2A
:10127000F0D000BF3DA100E0491C087890B1904239
:101280001CBF11F8010F00280CD090421CBF11F8B0
:10129000010F002806D090421EBF11F8010F002850
:1012A0009042E9D108780028D4D1A2F141011A294D
:1012B00038BF47F00207D0D3A2F161001A28CCD280
:1012C00006F12400203A00F80A2047F001070AF14D
:1012D000010AA5E70B2D0BD0A14518BF4BF0030B5E
:1012E0004C4507D3A1464FF0080A0B25BF0097E7EE
:1012F0004BF0030B96F82400E52804BF052186F87F
:101300002410082D08BFBF0007F00C000C281ABFDE
:1013100007F0030103294BF0020B5FEA8B700BD43B
:1013200007F00301012908BF4BF0100B07F00C0771
:10133000042F08BF4BF0080B86F82FB03046FFF79C
:10134000A7FA96F82F1002003FF4B0AE04287FF4FD
:1013500074AE49073FF571AE052003B0BDE8F08FCC
:10136000222A3A3C3E3F7C7F000000002B2C3B3D74
:101370005B5D000010B403684FF0FF3163B31C469F
:1013800000E0641C2278202A13D33A2A11D014F8E2
:10139000012F202A0DD33A2A0BD014F8012F202A2E
:1013A00007D33A2A05D014F8012F202A01D33A2A6C
:1013B000E7D122783A2A0ED113F8012B303A0A2AC3
:1013C0000AD2A34208BF002A06D1621C0021026093
:1013D000084610BC7047002110BC0846704710B585
:1013E000044600224FF0FF33E2706363FEF7A1FF73
:1013F00008B1042010BD94F8370294F8361241EA7F
:1014000000214AF65520814201D0032010BD94F8F6
:101410003800E92805D0EB2804BF94F83A0090285A
:1014200013D104F16E00FEF7B7FE20F07F40DFF825
:10143000001C884207D004F18A00FEF7ADFEDFF8F9
:10144000F41B884201D1002010BD022010BD000015
:10145000211001009ED8899D2DE9F047144684B0E3
:1014600000220A6002687AB3154600E06D1C2B78F2
:10147000202B13D33A2B11D015F8013F202B0DD37D
:101480003A2B0BD015F8013F202B07D33A2B05D070
:1014900015F8013F202B01D33A2BE7D12B783A2BBB
:1014A0000AD112F8013B303B0A2B0DD2AA4208BFE9
:1014B000002B09D16A1C0260DFF87C6B756A3DB9AC
:1014C0000C2004B0BDE8F0870B2004B0BDE8F08725
:1014D0000D6004F0FE04287850B1687800F00EFF2B
:1014E000C10705D4002C00F09D8140070DD499E17F
:1014F00000202870687000F00AFFC10748BF032071
:1015000000F191812CB1400703D50A2004B0BDE859
:10151000F087687805F10C02022100F022FF002814
:1015200040F09C80A889A0F5007140F601629142CC
:1015300080F09480411E084240F090800021E970C4
:101540004FF0FF3AC5F834A02846FEF7F2FE00241B
:10155000002840F0838095F8370295F836124AF655
:10156000552841EA0021414540F0158195F83800A1
:10157000E92805D0EB2804BF95F83A00902811D14E
:1015800005F16E00FEF708FE20F07F40DFF8A01A9C
:1015900088426AD005F18A00FEF7FEFDDFF8941A52
:1015A000884262D095F8FA0168B195F8010295F881
:1015B000001295F8FF2141EA002195F8FE0142EA68
:1015C000012240EA0220009095F80A0268B195F8DD
:1015D000110295F8101295F80F2241EA002195F8B2
:1015E0000E0242EA012240EA0220019095F81A0216
:1015F00068B195F8210295F8202295F81F3242EA49
:10160000002295F81E0243EA022340EA03200290DA
:1016100095F82A0268B195F8310295F8302295F8CC
:101620002F3242EA002295F82E0243EA022340EAD2
:1016300003200390A1466F463C6824B1214628460A
:10164000FFF7CDFE00E00320012805DD09F10109C7
:101650003F1DB9F1040FEFD3042803D1012004B0DA
:10166000BDE8F087012800F3968095F8440095F8CE
:10167000431041EA0021A889814240F08C8095F80E
:101680004F1095F84E0050EA012004BF05F15C00B0
:10169000FEF782FD95F848102862012918BF02293B
:1016A000A97078D101FB00F995F845006881010027
:1016B00071D0421E10426ED195F84A1095F849003B
:1016C00040EA0120A9892881490990FBF1F201FB38
:1016D000120000285FD195F84C0095F84B1051EAA4
:1016E000002104D105F15800FEF756FD014695F89A
:1016F000470095F8462052EA00224CD0AF8928894D
:101700007F0909EB020C90FBF7F39C44614542D33F
:101710006B89A1EB0C01B1FBF3F100293BD003274E
:101720004FF6F673994238BF022740F6F673994296
:1017300038BF0127891C1219A444032FE9616C6288
:10174000AA62C5F830C010D195F8631095F86220F0
:1017500052EA012208BF00281DD105F16400FEF7FE
:101760001BFDE862E86980000DE0A0B1A86A48446A
:10177000E862022FE8690FBF400000EB400100F073
:10178000010000EB5100A9894A1E1018B0FBF1F0CE
:10179000296A814203D20D2004B0BDE8F087802081
:1017A0002871C5F818A0C5F814A0032F01BF95F83B
:1017B000690095F8681041EA0021012927D1611CD0
:1017C0002846FEF7B6FD10BB287195F8371295F83C
:1017D000360240EA0120404519D105F13800FEF7F4
:1017E000DBFCDFF85818884211D105F50770FEF7C9
:1017F000D3FCDFF84C18884209D105F50870FEF7D4
:10180000CBFCA86105F50970FEF7C6FC68612F7076
:10181000308C401C3084E88006F12800286128467E
:10182000FEF74DFD002004B0BDE8F08770B504461A
:1018300009260D46002C1CBF216800290FD008780E
:1018400068B1A088CA88904209D1487800F056FD56
:10185000C00704D4206828600026304670BD0020F0
:101860002860304670BD2DE9F247002985B0044656
:1018700017463FD000E0491C0878202813D33A28A7
:1018800011D011F8010F20280DD33A280BD011F8F0
:10189000010F202807D33A2805D011F8010F20287E
:1018A00001D33A28E7D108783A2809D1059A12F8E5
:1018B000010B30380A281DD28A4208BF002819D1EE
:1018C000DFF87467756A25B12846FEF7F8FC00203A
:1018D000287024B90020706206B0BDE8F0870020AF
:1018E0002070012F746240F0B88105A8FFF742FD17
:1018F000040003D50B2006B0BDE8F08706F12400F4
:1019000050F824501DB90C2006B0BDE8F0872878A7
:1019100028B1687800F0F2FCC00740F19581002002
:1019200028706C70687800F0F2FCC00748BF032094
:1019300000F19381687805F10C02022100F011FD9D
:10194000002840F08981A889A0F5007140F6016265
:10195000914280F08181411E084240F07D8100214A
:10196000E9704FF0FF3AC5F834A02846FEF7E1FCD5
:101970000024002840F0708195F8370295F836125F
:101980004AF6552841EA0021414540F0618195F829
:101990003800E92805D0EB2804BF95F83A009028D4
:1019A00011D105F16E00FEF7F7FB20F07F40DFF864
:1019B0008016884267D005F18A00FEF7EDFBDFF85C
:1019C000741688425FD095F8FA0168B195F8010263
:1019D00095F8001295F8FF2141EA002195F8FE01E3
:1019E00042EA012240EA0220009095F80A0268B11A
:1019F00095F8110295F8101295F80F2241EA00218E
:101A000095F80E0242EA012240EA0220019095F880
:101A10001A0268B195F8210295F8202295F81F3234
:101A200042EA002295F81E0243EA022340EA03201C
:101A3000029095F82A0268B195F8310295F83022A3
:101A400095F82F3242EA002295F82E0243EA02234B
:101A500040EA03200390A1466F463C6824B121462A
:101A60002846FFF7BCFC00E00320012805DD09F152
:101A700001093F1DB9F1040FEFD3042800F0EC80F9
:101A8000012800F3E58095F8440095F8431041EAF9
:101A90000021A889814240F0DB8095F84F1095F82D
:101AA0004E0050EA012004BF05F15C00FEF774FB14
:101AB00095F848102862012918BF0229A97040F042
:101AC000C78001FB00F995F845006881010000F02E
:101AD000BF80421E104240F0BB8095F84A1095F836
:101AE000490040EA0120A9892881490990FBF1F2C7
:101AF00001FB1200002840F0AB8095F84C0095F8EF
:101B00004B1051EA002104D105F15800FEF744FBC7
:101B1000014695F8470095F8462052EA002200F069
:101B20009780AF8928897F0909EB020C90FBF7F3B6
:101B30009C446145C0F08C806B89A1EB0C01B1FB2A
:101B4000F3F1002900F0848003274FF6F6739942E1
:101B500038BF022740F6F673994238BF0127891C27
:101B60001219A444032FE9616C62AA62C5F830C05F
:101B700010D195F8631095F8622052EA012208BF4F
:101B8000002865D105F16400FEF706FBE862E8690C
:101B900080000EE000285BD0A86A4844E862022F6B
:101BA000E8690FBF400000EB400100F0010000EBCE
:101BB0005100A9894A1E1018B0FBF1F0296A814230
:101BC00046D380202871C5F818A0C5F814A0032FAB
:101BD00001BF95F8690095F8681041EA00210129D4
:101BE00027D1611C2846FEF7A4FB10BB287195F88D
:101BF000371295F8360240EA0120404519D105F127
:101C00003800FEF7C9FADFF83414884211D105F51F
:101C10000770FEF7C1FADFF82814884209D105F5EC
:101C20000870FEF7B9FAA86105F50970FEF7B4FA75
:101C300068612F70308C401C3084E88006F12800E9
:101C400028612846FEF73BFB002006B0BDE8F08780
:101C50000D2006B0BDE8F087012006B0BDE8F08792
:101C6000F06C00082DE9F24F06008EB008BF092085
:101C700000F0BA8002F03F02904669460EA8FFF7D6
:101C8000EBFB040040F0AD8000980E99019001A894
:101C9000FFF7B0F904000FD19DF83300010648BFEB
:101CA000062409D408F0FE00411E8941C943C90F2A
:101CB00001A8FEF77CFA044618F01C0F00F09B8187
:101CC000200000F08480042C40F08B80DFF8681343
:101CD000086800281EBF08690028122403D101A843
:101CE000FEF704FF0446200048F0080840F00B818E
:101CF0005FEA087040F10F8100F004FC099901F8D7
:101D00000E0F020A130A1D0A4A708B70CD700999D2
:101D100001F8160F4A708B70CD7020200999C87297
:101D2000099D00982946FEF77EFD82460098002115
:101D3000A976E9760078032804BF297569750998A2
:101D400000F81C1F41708170C17001200099BAF128
:101D5000000FC87000F0DA800098019FD0F834902E
:101D60005446012C40F24581F869844280F041815B
:101D7000214601A8FEF762FB050061D0012D00F0AD
:101D8000388115F1010F20D00220012C40F2BA80D9
:101D9000F9698C4280F0B6803A78012A74D002D377
:101DA000032A24D056D3010040F0AC80F869B96909
:101DB000821E914205D2491CB961397941F0010175
:101DC00039712C468442D3D33AE0012409E09DF8CE
:101DD0000A0010F0110F40F01E815FEA487087D5AD
:101DE00008240020306020460FB0BDE8F08FB8898D
:101DF000B96A8008B4FBF0F251183846FEF799FA38
:101E00000100D0D1B889A400B4FBF0F100FB11406F
:101E100007F138021044FEF7BFF9B989B4FBF1F2BB
:101E200001FB1244000E07F1380100F0F0002144DC
:101E30000023C8700B704B708B700120F870B5E7F1
:101E400000984946FEF775FA04460098AAF1010188
:101E5000416158E0B889B96A4008B4FBF0F2511802
:101E60003846FEF766FA01009DD1B8896400B4FBDC
:101E7000F0F100FB114407F1380020440022027009
:101E800042700120F87091E7B889B96A04EB540BED
:101E9000BBFBF0F041183846FEF74BFA010082D147
:101EA000B98914F001045846B0FBF1F201FB1200AD
:101EB00007F1380108441ABF017801F00F01002131
:101EC00001700120F8700BF1010BB889B96ABBFBF6
:101ED000F0F041183846FEF72CFA01007FF463AFAA
:101EE000B889BBFBF0F100FB11BB07F13800584487
:101EF000002C12BF0021017801F0F00101700120D7
:101F0000F87053E7044620007FF46BAF5FEA087077
:101F100048BF48F040080098416B716208F0FE012C
:101F20000998B062491E8941C943C90F01A8FEF74B
:101F300071F9002871D03061099D00982946FEF79B
:101F400072FCB06005F11C00FEF726F9F06000207D
:101F5000F062009931600098C188B18000207075EE
:101F60003062B06186F814804FF4805106F1300081
:101F700000F084FA5FEA88607FF535AFF568002DE0
:101F80003FF431AFB56100984189808900FB01F7CA
:101F9000B168AF420DD23046FEF750FA0146012932
:101FA0003ED911F1010F3ED0ED1B2000F1D0F161BF
:101FB00017E7F16100988089B5FBF0F200FB125041
:101FC00000283FF410AF0098FEF72BFA88B1009A72
:101FD0009189B5FBF1F1081830620246009840780B
:101FE000012306F1300100F0A6F900287FF4EDAEE0
:101FF000F9E60224F5E6200085D19DF80A00C10625
:1020000048BF04243FF5EDAE5FEA88717FF57EAFEF
:10201000C0077FF57BAF0724E3E602243061E0E6EA
:102020000224F161DDE64FF0FF300124F061D8E6D3
:102030004641540046415433E42400205252614149
:10204000727241612DE9F04715461F4682B00022A9
:1020500088463A6006466946FFF7E8FB010040F013
:10206000C180707D010040F0BD80307DC10758BF48
:10207000072040F1B780F068B469041BAC4240F21D
:1020800095802C4692E0F06A18B13046FEF758FB76
:1020900003E0F1693046FEF7D1F9022841D310F18F
:1020A000010F00F09980F0610098F569C169AD1EDB
:1020B000891E8D4235D2009940890A6B00FB0525A7
:1020C0007DB38A89B4FBF2FABAF1000F4D442DD0EA
:1020D0000AEB0901884238BFA0EB090A0098407852
:1020E00053462A46414600F026F9002874D1307D37
:1020F000010611D5306A451B55450DD200998889D6
:10210000454308EB050106F1300228B112F8013B06
:1021100001F8013B401EF9D1009881890AFB01F1C9
:102120003CE00220707502B0BDE8F087326AAA4236
:1021300018D0307D01060CD500984078012306F1B7
:10214000300100F003F9002846D1307D00F07F0017
:1021500030750123009840782A4606F1300100F0DE
:10216000EAF8C8BB35620099B3698A89B3FBF2F912
:1021700009FB02F5D01A28442146844288BF014653
:1021800006F1300C5B1B084642460CEB030328B1FA
:1021900013F8015B02F8015B401EF9D1B069081821
:1021A000B06188443A688A183A60641ACCB10098E1
:1021B000B1698089B1FBF0F900FB19100028D2D178
:1021C00000984289521E12EA09097FF46DAF002976
:1021D0007FF459AFB06860E70120707502B0BDE8C8
:1021E000F087002002B0BDE8F087000070B582B033
:1021F00004466946FFF71AFB010043D1217D4A06D8
:1022000040D508060FD50098226A4078012304F1D2
:10221000300100F09BF810B1012002B070BD207DAC
:1022200000F07F00207500F06DF90546616A0098A6
:10223000FEF77FF8010025D1A66AF07A40F0200071
:10224000F0723146A2682068FEF7FCFAE068307749
:10225000B575000A70772D0A000AF575B0772D0A5A
:10226000000A3576F0772D0A75760020B074F07488
:1022700001200099C8700098FEF775F8217D01F0E3
:10228000BF01217502B070BD10B582B00446FFF7E2
:10229000ADFF01000CD169462046FFF7C7FA0100E7
:1022A00006D12069FDF7F1FF010004BF0021216084
:1022B00002B010BD2DE9F041054682B090460024E1
:1022C0002F464E1EB44211DA01AB01226946404648
:1022D000FFF7B8FE0198012808D19DF800000D28ED
:1022E000F2D0641C0A2807F8010BEBD100203870EB
:1022F00004B90025284602B0BDE8F08101461E4A17
:10230000531802EB81014A68187A516808471A4B42
:1023100002460020995C002900D0704710B481B0BB
:1023200001249C5403EB82019C184A68207A1368AC
:1023300001B010BC184770B504460F4D2E1905EBBF
:1023400084046568307AAC68A04770BD70B50446F7
:10235000094D2E1905EB84046568307AEC68A047B6
:1023600070BD30B40346044CE51804EB83035C688D
:10237000287A236930BC1847CC2700200246802ADF
:102380002ADB59B1B2F5807F01DB00207047394864
:1023900000EB4201A1F5807210887047DFF8D4206D
:1023A000B2F800C060451EBF491CB2F802C06045CB
:1023B0001EBF491CB2F804C0604509D0B2F806C07F
:1023C000491C604504D0491C08328BB2802BE7DBE6
:1023D00001F1800000F0FF007047000070B4B0F51C
:1023E000805F254C05DB04F5FA7402E00AB904EBC2
:1023F0004504218800293AD0884238DB65882A02C2
:1024000005F0FF05241D120C6E18B042EEDA082A02
:102410002DD8DFE802F0050B12161A1E22262A001C
:10242000431A34F8130070BC80B27047411A70BC74
:1024300001F00101401A80B2704770BC103880B2C0
:10244000704770BC203880B2704770BC303880B2A2
:10245000704770BC1A3880B2704770BC083080B2C8
:10246000704770BC503880B27047A0F5E35070BC24
:1024700080B27047F06B000840690008002200F04D
:1024800005B8000062F30F2262F31F42401810F0FB
:10249000030308D0C91A1FD3DB0748BF00F8012D7A
:1024A00028BF20F8022D130030B414461546103909
:1024B00028BF20E93C00FAD8490728BF20E90C00D2
:1024C00048BF40F8042D890028BF20F8022D48BFDE
:1024D00000F8012D30BC7047C91818BF00F8012D55
:1024E000CB0728BF00F8012D7047000010B5034C42
:1024F0000348211D00F008F8207010BDD8270020E7
:10250000C82400200020704730B40E4C627A034685
:102510000120AAB9627A0020A0540022607A04EB5C
:1025200080056B60607A20440272607A421C62729D
:10253000303008702F223A2048708A700020C8700E
:1025400030BC7047CC2700202DE9F0410D461646DF
:102550000799069A9846C1EBC10102EB4202DFF8E7
:10256000683882FB03C313440446DA11DFF8583895
:10257000089881FB037E7144CF1107EBD77702EBFC
:10258000D2723F06D2B27F0D47EA821700EB4000BD
:10259000DFF8341880FB01210144C81100EBD07032
:1025A000C0B20743434632462946204600F011F8A0
:1025B0002C2000F07DF9A8EB0505341B6D1C641C74
:1025C0006C4304D0384600F0BAF9641EFAD1BDE875
:1025D000F081F0B5044681B00D4616461F462A200C
:1025E00000F066F9200A00F0AAF9204600F0A7F9E9
:1025F000300A00F0A4F9304600F0A1F92B2000F0D9
:1026000057F9280A00F09BF9284600F098F9380A93
:1026100000F095F9384601B0BDE8F0408FE110B503
:10262000DFF8A8476069000A0002606100224FF4E9
:102630008071204601F0F9F900224FF40071204624
:1026400001F0F3F900224FF48061204601F0EDF92A
:1026500000224FF48051204601F0E7F9322001F0CA
:10266000F9F901224FF48071204601F0DEF91120C2
:1026700000F0ECF8322001F0EDF9C02000F0E6F8AF
:102680000D2000F05CF90D2000F059F9C12000F098
:10269000DDF8432000F053F9002000F050F9C2208B
:1026A00000F0D4F8002000F04AF9C52000F0CEF880
:1026B000002000F044F9482000F041F9B62000F075
:1026C000C5F8002000F03BF9222000F038F93B204B
:1026D00000F035F9E02000F0B9F80F2000F02FF9F4
:1026E000242000F02CF91C2000F029F90A2000F029
:1026F00026F90F2000F023F9082000F020F94320EC
:1027000000F01DF9882000F01AF9322000F017F9C6
:102710000F2000F014F9102000F011F9062000F04D
:102720000EF90F2000F00BF9072000F008F9002047
:1027300000F005F9E12000F089F80F2000F0FFF823
:10274000382000F0FCF8302000F0F9F8092000F003
:10275000F6F80F2000F0F3F80F2000F0F0F84E200C
:1027600000F0EDF8772000F0EAF83C2000F0E7F800
:10277000072000F0E4F8102000F0E1F8052000F058
:10278000DEF8232000F0DBF81B2000F0D8F8002052
:1027900000F0D5F8202000F059F8002000F0CFF824
:1027A000362000F053F86A2000F0C9F83A2000F013
:1027B0004DF8552000F0C3F82A2000F047F800201B
:1027C00000F0BDF8002000F0BAF8012000F0B7F8E2
:1027D000DF2000F0B4F82B2000F038F8002000F0E3
:1027E000AEF8002000F0ABF8012000F0A8F83F2080
:1027F00000F0A5F8322001F02DF9292000F026F88C
:102800002C2000F023F82A2000F052F8002000F0DD
:1028100096F8002000F093F8012000F090F840F2C4
:10282000DF1000F08CF82B2000F042F8002000F0C0
:1028300086F8002000F083F8012000F080F840F2D4
:102840003F1000F07CF8BDE810402C2030B5044665
:10285000DFF8785581B000224FF48061284601F0FE
:10286000E4F800224FF40071284601F0DEF800225F
:102870004FF48051284601F0D8F86869000A000238
:10288000686101224FF48071284601F0CEF8686932
:10289000000A44EA00246C61012001F0DBF82846BC
:1028A00001B0BDE8304001224FF4806101F0BDB8B5
:1028B00030B50446DFF8145581B000224FF4806132
:1028C000284601F0B2F800224FF40071284601F0CA
:1028D000ACF800224FF48051284601F0A6F8686950
:1028E000000A0002686101224FF48071284601F05D
:1028F0009CF801224FF40071284601F096F800225E
:102900004FF40071284601F090F86869000A44EA23
:1029100000246C6101224FF48061284601F085F8A3
:1029200001224FF40071284601F07FF8284601B0DB
:10293000BDE8304000224FF4806101F076B830B538
:102940000446DFF88C04DFF8845402880480944243
:1029500081B023D06869000A0002686101224FF447
:102960000071284601F061F800224FF4806128468A
:1029700001F05BF801224FF48051284601F055F830
:1029800000224FF40071284601F04FF86869000AF0
:1029900004F0FF0444EA00246C6105E000224FF4D7
:1029A0000071284601F041F801224FF48061284669
:1029B00001F03BF801224FF40071284601F035F890
:1029C000284601B0BDE8304000224FF4806101F09C
:1029D0002CB800002DE9F04F064614468FB088460B
:1029E0001F46204601F04CF8C0B2002840F3B381E6
:1029F000DDF86890189DDDF864B009F0FF020C92D4
:102A0000214605EB45026C000BF0FF03521C641CD1
:102A10000B930A9209940D9704910390EB4C049840
:102A20000078C028B4BF20384030C0B2112DB9BFE3
:102A3000099948430A9A50430D990795014400208B
:102A4000ADF808808DF8605006960190DFF880633D
:102A50009DF8600000284FF0000800F06581069D99
:102A60000198BDF80870059142004519CDF8202065
:102A70004FEAA80008EB5070089A0599C010121888
:102A80000A4401235178A8EBC002934019424FEA4F
:102A9000074A00F09580681C7B1CADF80000ADF87B
:102AA00002302A20FFF704FF2804000EFFF747FF3B
:102AB000A8B2FFF744FFBDF80000000AFFF73FFF90
:102AC000BDF80000FFF73BFF2B20FFF7F1FE4FEAB8
:102AD0001A60FFF734FFB8B2FFF731FFBDF802000C
:102AE000000AFFF72CFFBDF80200FFF728FF0022C5
:102AF0004FF48061204600F098FF00224FF40071EF
:102B0000204600F092FF00224FF48051204600F052
:102B10008CFF6069000A0002606101224FF480713D
:102B2000204600F082FF01224FF40071204600F0A1
:102B30007CFF00224FF40071204600F076FF6069B0
:102B4000000A000240F02C00606101224FF4806115
:102B5000204600F06AFF01224FF40071204600F089
:102B600064FF00224FF48061204600F05EFF318850
:102B7000A6F800B08B4500F0B7806069000A00023B
:102B8000606101224FF40071204600F04EFF0022E8
:102B90004FF48061204600F048FF01224FF480513D
:102BA000204600F042FF00224FF40071204600F062
:102BB0003CFF60690B99000A41EA0020606199E0DE
:102BC000791C6A1CADF80210ADF800202A20FFF72E
:102BD0006FFE2804000EFFF7B2FEA8B2FFF7AFFEAB
:102BE000BDF80000000AFFF7AAFEBDF80000FFF7DD
:102BF000A6FE2B20FFF75CFE4FEA1A60FFF79FFE50
:102C0000B8B2FFF79CFEBDF80200000AFFF797FE7E
:102C1000BDF80200FFF793FE00224FF480612046CA
:102C200000F003FF00224FF40071204600F0FDFE8B
:102C300000224FF48051204600F0F7FE6069000A40
:102C40000002606101224FF48071204600F0EDFE29
:102C500001224FF40071204600F0E7FE00224FF4FD
:102C60000071204600F0E1FE6069000A000240F0B9
:102C70002C00606101224FF48061204600F0D5FEF7
:102C800001224FF40071204600F0CFFE00224FF4E5
:102C90008061204600F0C9FE3188A6F80090894581
:102CA00022D06069000A0002606101224FF40071C5
:102CB000204600F0BAFE00224FF48061204600F06A
:102CC000B4FE01224FF48051204600F0AEFE0022F7
:102CD0004FF40071204600F0A8FE60690C99000ACC
:102CE00041EA0020606105E000224FF400712046B7
:102CF00000F09BFE01224FF48061204600F095FE1B
:102D000001224FF40071204600F08FFE00224FF4A4
:102D10008061204600F089FE079808F101087F1CB9
:102D20008045FFF6A5AE05990198401C80B2019040
:102D3000019A08789042BFF68BAE069EBDF80880D7
:102D40009DF8605086190498411C03980491401E18
:102D500003907FF464AE0FB0BDE8F08F70B51646F7
:102D60001D46049C4B1C421C9BB292B289B280B29D
:102D7000FFF72FFC2C20FFF79BFD05EB45025200CF
:102D8000114B114806EB460682FB035386FB0010ED
:102D900013443044C111D81100EBD07001EBD17154
:102DA0000006C9B2400D40EA811004EB4404064914
:102DB00084FB01212144BDE87040C91101EBD171B0
:102DC000C9B20843BBE50000818080800004024056
:102DD000E02700202DE9F04F074640F23F108742E0
:102DE000A8BF4FF49F7791468242A8BF4FF49F79C6
:102DF00040F2DF100E468142A8BF4FF4EF769846AE
:102E0000804587B0A8BF4FF4EF784F45DDF844A068
:102E100018BF464510D19DF84C000290CDF800A097
:102E200043469DF8480001904A4631463846FFF730
:102E30008BFB07B0BDE8F08FA9EB07052DB2A8EB1F
:102E40000604002D24B205D56D424FF0FF312DB29E
:102E5000049101E001220492002C05D564424FF058
:102E6000FF3124B2039101E0012203926900620064
:102E70009DF84C0009B212B20291019200905246A4
:102E80009DF8483031463846FFF768FFDDF840B01E
:102E9000AC423ADA01989DF84880ADF81490451B91
:102EA0009DF84C90049C2DB2E719002D1AD45FEACE
:102EB000CB7007D5CDF8009043465246B1B2B8B2B8
:102EC000FFF74CFF039886195FEA8B7108D5B8B2FB
:102ED000CDF8009043465246B1B2001BFFF73EFFCB
:102EE00002982D1ACDF8009043465246B8B2019987
:102EF0004D19B1B2FFF732FFBDF81410B8B28842D5
:102F00002DB2D1D107B0BDE8F08F0298ADF8148092
:102F1000041B25B29DF848809DF84C90039CA6198F
:102F2000002D1BD45FEACB7007D5CDF80090434647
:102F30005246B1B2B8B2FFF711FF0498C7195FEA61
:102F40008B7108D5B1B2CDF8009043465246091BAB
:102F5000B8B2FFF703FF0198B5EB0005CDF800907C
:102F600043465246B8B202994D19B1B2FFF7F6FE88
:102F7000BDF81410B0B288422DB2D0D107B0BDE870
:102F8000F08F00002DE9FF4F8BB09DF86000DDF859
:102F900068B0DDF86C80DDF870900990012800F3CE
:102FA000DC80BDF83800BDF83470BDF83050ADF8A5
:102FB0000E00BDF82C00ADF80C00014640F23F10A9
:102FC0008142A4BF4FF49F72ADF80C208742A8BF86
:102FD0004FF49F7740F2DF118D42BDF80E00A8BF7D
:102FE0004FF4EF758842A4BF4FF4EF72ADF80E2096
:102FF000BDF80C00B8421CBFBDF80E20954200F091
:10300000A080BDF90C60BDF90E40BE1B36B2641B3A
:10301000002E24B243BF764236B24FF0FF3A4FF053
:10302000010A002C05D564424FF0FF3124B204910F
:1030300001E001220492700000B20290CDF80090ED
:10304000600000B201904346BDF80C005A46294684
:10305000FFF784FEB4423ADA8DF868B08DF86C80E0
:103060008DF87090BB46019ABDF80C70DDF81080A9
:10307000DDF80890961B36B21446002E57440FD444
:103080009DF870009DF86C309DF8682000904544D4
:10309000B8B2A9B2A0EB0A00FFF760FEA6EB0906E2
:1030A0009DF870009DF86C309DF868200090A9B2E2
:1030B000B8B2FFF753FEB8B2A619584536B2DCD104
:1030C0009DF868B09DF86C809DF8709045E0029A7C
:1030D0008DF868B0141B8DF86C8026B28DF8709056
:1030E000BDF80EB0BDF80C70DDF81080019C914663
:1030F000002E45440ED49DF870009DF86C309DF86C
:10310000682000905744A9B2A1EB0801B8B2FFF7BC
:1031100025FE361B9DF870009DF86C309DF86820E8
:103120000090A9B2B8B2FFF719FEA8B24E445845B4
:1031300036B2DDD19DF868B09DF86C809DF8709036
:103140000BE0BDF80E30CDF80890CDF80480CDF836
:1031500000B03A462946FFF7F7F9BDF82C0040F2D7
:103160003F139842A4BF4FF49F71ADF82C10BDF8E7
:1031700034009842A4BF4FF49F71ADF83410BDF8ED
:10318000300040F2DF16B042A4BF4FF4EF71ADF84B
:103190003010BDF83800B042A4BF4FF4EF71ADF865
:1031A0003810BDF93050BDF93400BDF92C2001278D
:1031B000821ABDF93800451B2DB2002D12B206D57A
:1031C0006D424FF0FF302DB20890002700E00897C5
:1031D000002A07D552424FF0FF3012B2079087F015
:1031E000010701E0012007906900199809B2540015
:1031F000059124B204949DF860104908022802D178
:103200000999491E02E0012808BF00219542C0F239
:1032100074813FB1079A09985242401E12B2411A76
:10322000079203E00898404200B20890651B09B27B
:103230002DB200290A952A4641DD089DBDF82C7063
:10324000BDF8340015FB01F57F1B451BC807ADF821
:103250002C70ADF8345010D5002A0CD4BDF8305085
:1032600007982D1AADF83050BDF838502D1AADF82A
:103270003850059D521BA21812B249081FD0BDF844
:1032800030E0BDF838400798059F049D002A03D41C
:10329000AEEB000E241AD21BAA1812B2002A03D4D5
:1032A000AEEB000E241AD21BAA18491E12B2EDD1A1
:1032B000ADF830E0ADF83840079005970495BDF8BB
:1032C0002C00BDF83810BDF83420BDF83070ADF8D2
:1032D0000C00ADF81810ADF80E209842A4BF4FF4C2
:1032E0009F70ADF80C00BDF80E009842A4BF4FF4DB
:1032F0009F71ADF80E10B742BDF81800A8BF4FF48B
:10330000EF77B042A4BF4FF4EF71ADF81810BDF8DD
:103310000C00BDF80E1088421CBFBDF81820974263
:1033200000F0A080BDF90E00BDF90C60BDF9184099
:10333000CDF80090861B36B2E41B002E24B243BFAA
:10334000764236B24FF0FF3A4FF0010A002C43BFED
:10335000644224B24FF0FF3501257100620009B2CA
:1033600012B2029101924346BDF80C005A4639460A
:10337000FFF7F4FCB4423CDA019A8DF868B08DF89E
:103380006C808DF87090961BBDF80EB0BDF80C8067
:10339000DDF8089036B21446002ED04410D49DF8C3
:1033A00070009DF86C309DF868200090EF191FFAAE
:1033B00088F0B9B2A0EB0A00FFF7D0FCA6EB090633
:1033C0009DF870009DF86C309DF868200090B9B2AF
:1033D0001FFA88F0FFF7C2FC1FFA88F0A6195845BB
:1033E00036B2D9D19DF868B09DF86C809DF8709088
:1033F00044E0029A8DF868B0141B8DF86C8026B2F8
:103400008DF87090BDF818B0BDF80C80019C914605
:10341000EF19002E0ED49DF870009DF86C309DF8C9
:1034200068200090D044B9B2491B1FFA88F0FFF71A
:1034300095FC361B9DF870009DF86C309DF8682057
:103440000090B9B21FFA88F0FFF788FCB8B24E447A
:10345000584536B2DCD19DF868B09DF86C809DF877
:1034600070900BE0BDF81830CDF808900A46CDF802
:103470000480CDF800B03946FFF766F809980A9A3B
:10348000022837DD8DF868B08DF86C808DF870906B
:10349000BDF82C50BDF83070BDF83440BDF8386030
:1034A000DDF820B0DDF81C80A0F1020A4FEA020925
:1034B000B9F1000F5D445C4404D405984744464488
:1034C000A9EB00099DF870000499039002229DF871
:1034D000680001900092B3B2A2B2A8B289449DF8EC
:1034E0006C1002910FFA89F9B9B2FFF773FCBAF1C7
:1034F000010ADDD10FB0BDE8F08F27B10898404236
:1035000000B2089006E0079D09986D42401E2DB25A
:10351000411A079509B20598821A12B200290A9237
:1035200041DD079DBDF83070BDF8380015FB01F591
:103530007F1B451BC807ADF83070ADF8385010D56B
:10354000002A0BD4BDF82C5008982D1AADF82C5039
:10355000121BBDF834502D1AADF83450059882185E
:1035600012B249081FD0BDF82CE0BDF834400898CD
:10357000059F049D002A03D4AEEB000E241A521BB3
:10358000BA1812B2002A03D4AEEB000E241A521B52
:10359000BA18491E12B2EDD1ADF82CE0ADF83440A6
:1035A000089005970495BDF82C00BDF83810BDF8BB
:1035B0003420BDF83070ADF80C00ADF81810ADF83F
:1035C0000E209842A4BF4FF49F70ADF80C00BDF8D8
:1035D0000E009842A4BF4FF49F71ADF80E10B74291
:1035E000BDF81800A8BF4FF4EF77B042A4BF4FF466
:1035F000EF71ADF81810BDF80C00BDF80E10884240
:103600001CBFBDF81820974200F0A080BDF90E0045
:10361000BDF90C40BDF91860CDF80090041B24B230
:10362000F61B002C36B243BF644224B24FF0FF3A7F
:103630004FF0010A002E43BF764236B24FF0FF35FD
:1036400001256100720009B212B202910192434653
:10365000BDF80C005A463946FFF780FBA6423CDA1B
:1036600001988DF868B08DF86C808DF87090041B0F
:1036700026B2BDF80EB0BDF80C80DDF80890044607
:10368000002ED04410D49DF870009DF86C309DF849
:1036900068200090EF191FFA88F0B9B2A0EB0A0079
:1036A000FFF75CFBA6EB09069DF870009DF86C30F7
:1036B0009DF868200090B9B21FFA88F0FFF74EFB22
:1036C0001FFA88F0A619584536B2D9D19DF868B0CE
:1036D0009DF86C809DF8709044E002988DF868B079
:1036E0008DF86C808DF87090861BBDF818B0BDF811
:1036F0000C80019C36B28146EF19002E0ED49DF845
:1037000070009DF86C309DF868200090D044B9B2EC
:10371000491B1FFA88F0FFF721FB361B9DF870004C
:103720009DF86C309DF868200090B9B21FFA88F0BF
:10373000FFF714FBB8B24E44584536B2DCD19DF8C1
:1037400068B09DF86C809DF870900BE0BDF8183063
:10375000CDF808900A46CDF80480CDF800B039467F
:10376000FEF7F2FE09980A9A02287FF7C3AE8DF899
:1037700068B08DF86C808DF87090BDF82C50BDF855
:103780003070BDF83440BDF83860DDF820B0DDF8A9
:103790001C80A0F1020A9146B9F1000F474446444B
:1037A00004D404985D445C44A9EB00099DF87000C2
:1037B0000599039002229DF8680001900092B3B22F
:1037C000A2B2A8B289449DF86C1002910FFA89F94F
:1037D000B9B2FFF7FFFABAF1010ADDD10FB0BDE8C7
:1037E000F08F2DE9F04F8046002087B0139F109C8A
:1037F000119D129E01908946F8B2009092469B4618
:103800000496039502941FFA89F392B289B21FFAC3
:1038100088F0FFF7B7FB049603950294002001900F
:103820001FFA8BF3F8B200901FFA88F21FFA89F1A1
:103830001FFA88F0FFF7A6FB0021019108EB0900B1
:10384000ADF81400F9B200910496039502941FFAA2
:103850008AF2BDF8143019461FFA88F0FFF792FB80
:1038600000200190FFB2BDF8142004960395029445
:1038700000971FFA8BF31FFA89F11046FFF782FBBE
:1038800007B0BDE8F08F00002DE9F04F03460C466D
:103890004FF0000881B0C146C246664866490F2213
:1038A0000125266805FA08F505EA060EAE4540F042
:1038B000A780032606FA09F66FEA060C6668012E51
:1038C00018BF022E03D0112E18BF122E11D19E68E0
:1038D000E7680CEA060607FA09F73E439E605E6851
:1038E00026EA05056668C6F3001606FA08F63543AB
:1038F0005D60DD68A6680CEA050506FA09F6354341
:10390000DD606568022D18BF122D10D14FEAD80571
:1039100003EB85050AF01C062F6A02FA06FB27EA6C
:103920000B07D4F810B00BFA06F63E432E621D6862
:103930000CEA0506257905F0030505FA09F5354376
:103940001D606568ED005BD5002600964FEA980C77
:103950000D6845F480450D600E6806F480460096BB
:10396000009D364E56F82C700AF00C0502FA05F64A
:1039700027EA0606324FBB4208BF002714D0314F5A
:10398000BB4208BF01270FD02F4FBB4208BF022701
:103990000AD02E4FBB4208BF032705D02C4FBB4295
:1039A0000CBF0427072700BF07FA05F53543234E50
:1039B00046F82C506FEA0E0C056866680CEA05059F
:1039C000F70348BF4EEA05050560456866680CEADE
:1039D0000505B70348BF4EEA05054560856866687A
:1039E0000CEA0505F70248BF4EEA05058560C56883
:1039F00066680CEA0505B60248BF4EEA0505C560D3
:103A000008F10108B8F10F0F0AF1040A09F10209DF
:103A10007FF646AF01B0BDE8F08F000000690140BD
:103A2000481E8041C043C00F704702B9090481613C
:103A300070470000003C0140443802400838014013
:103A4000000002400004024000080240000C024056
:103A50000010024030B581B0044600F02DF814F19A
:103A6000010F054602D005480178641800F024F8DB
:103A7000401BA042FAD301B030BD00BFB8240020E3
:103A800000F10103810704D010F8011B820781B106
:103A9000FAD10268A2F10131914311F0803104BFE3
:103AA00050F8042FF6E709BAB1FA81F100EBD10022
:103AB000401CC01A7047000001484068704700BFB2
:103AC000B8240020DFF814170968C8608868C207A6
:103AD000FCD5C868C0B27047DFF80017884204BF41
:103AE000084600F0AABF7047F0B5DFF8F04620683E
:103AF00081B0FF25C5608168CA07FCD5C068DFF8C2
:103B0000E0662068C5608168CA07FCD5C76831785F
:103B1000491C31700A20FFF79DFFF8B2FF2802D040
:103B200030781E28EDDBF8B201B0F0BDF0B50546E7
:103B3000280681B00E460BD500217720FFF7F6FF4F
:103B400007460A20FFF786FF022F05F07F056CDA93
:103B5000DFF890064FF4807101604FF080720260D0
:103B6000FFF7C2FFFF2818BFFF205FD1DFF86C46C8
:103B70002068C5608168CA07FCD5C0680A20FFF7C5
:103B800069FF2068310EC1608168CA07FCD5C06832
:103B90000A20FFF75FFF20683102090EC1608168CB
:103BA000CA07FCD5C0680A20FFF754FF206831041B
:103BB000090EC1608168CA07FCD5F6B2C0680A2048
:103BC000FFF748FF2068C6608168CA07FCD5C06857
:103BD0000A20FFF73FFF0120402D08BF952002D0AB
:103BE000482D08BF87202168C8608868C207FCD5B7
:103BF000FF26C8680A20FFF72DFF4C2D05D120684D
:103C0000C6608168CA07FCD5C0680A252068C660FE
:103C10008168CA07FCD5C7680A20FFF71BFF380672
:103C200003D56D1EE9B20029F0D1F8B201B0F0BDA4
:103C30002DE9F04FDFF8AC95DFF8A07581B04FF4B7
:103C4000807BC9F800B04FF080783868016821F0B7
:103C5000400101600024026822F038020260FF2562
:103C6000016841F0300101600A21026842F040021F
:103C70000260C9F80080C5608268D307FCD5491E80
:103C8000CBB2C268002BF6D100214020FFF74EFFD7
:103C9000012840F0A9804FF4D5714820FFF746FF76
:103CA000012840F08A80694604203A68D56093680C
:103CB000DB07FCD5401ED26801F8012BF5D19DF839
:103CC0000200012804BF9DF80300AA2840F08C8060
:103CD00000217720FFF72AFF06460A20FFF7BAFEE9
:103CE000012E4FDCC9F800B0C9F80080FFF7FCFED8
:103CF000FF28EDD138686921C1608168CA07FCD509
:103D0000C0680A20FFF7A6FE38684021C1608168BC
:103D1000CA07FCD5C0680A20FFF79CFE3868C4605B
:103D20008168CA07FCD5C0680A20FFF793FE38688F
:103D3000C4608168CA07FCD5C0680A20FFF78AFE04
:103D40003868C4608168CA07FCD54FF00A0AC068A9
:103D50000A20FFF77FFE0120FFF7B4FE0A20FFF7DD
:103D600079FE3868C5608168CA07FCD5C6680A2034
:103D7000FFF770FE300605D5AAF1010A5FFA8AF155
:103D80000029EED1F6B2002EA2D100217A20FFF751
:103D9000CDFE48BB694604203A68D5609368DC07CD
:103DA000FCD5401ED26801F8012BF5D19DF800002A
:103DB000410654BF04240C2416E00021E920FFF73B
:103DC000B5FE0128C7BF012441250224E9250021B1
:103DD0002846FFF7ABFE0028F9D14FF400715020C0
:103DE000FFF7A4FE00B10024DFF89C5A6C70C9F8FC
:103DF00000B0002C287817D000F0FE00287038683A
:103E0000016821F040010160026822F0380202607E
:103E1000016841F020010160026842F04002026046
:103E2000287801B0BDE8F08FC10705D4C9F800803B
:103E3000FFF75AFEC9F800B0287840F0010028705A
:103E4000287801B0BDE8F08FDFF83C0A00787047B1
:103E5000F0B50F461C0081B0114608BF042000F0E9
:103E6000C180DFF8240A0278D30748BF032000F19D
:103E7000B9804078020758BF4902012C53D1512024
:103E8000FFF754FE0028DFF8546340F0A380306849
:103E9000FF25C56030688168CA07FCD5C068C0B21C
:103EA000FF28F4D0FE2840F09580B16CF06C8DF8BE
:103EB0000050096800680A68520852000A600368E6
:103EC0005B085B00036000E000BF0A68D307FBD417
:103ED0000268D307F8D4026822F4007202603A46FE
:103EE000036843F4806303604FF40073086820F4B0
:103EF000C06008606946304600F00BFD00E000BF7E
:103F000096F851000128FAD13168CD603068816897
:103F1000CA07FCD5C168C56030688168CA07FCD58E
:103F2000C068002456E05220FFF700FE0028AB4E88
:103F300050D13068FF25C56030688168CA07FBD55D
:103F4000C068C0B2FF28F4D0FE283FD1B16CF06C3D
:103F50008DF80050096800680A68520852000A602B
:103F600003685B085B00036000E000BF0A68D307DA
:103F7000FBD40268D307F8D4026822F4007202600E
:103F80003A46036843F4806303604FF400730868A3
:103F900020F4C06008606946304600F0BAFC00E0DA
:103FA00000BF96F851000128FAD13168CD60306821
:103FB0008168CA07FCD5C168C56030688168CA07D6
:103FC000FCD5C068641E07F50077B2D100214C20F3
:103FD000FFF7ACFD83494FF480700860601E80419C
:103FE000C043C00F01B0F0BDF0B51C0081B00D465C
:103FF000164608BF042000F0EE80DFF88C08017838
:10400000CA0748BF032000F1E68001784A0748BF8D
:10401000022000F1E0804078010758BF7602012CB1
:104020005DD131465820FFF781FD002840F0CB805C
:10403000FFF75AFDFF2840F0C680684E3168FE2029
:10404000C86030688168CA07FCD5C068F06CB26C83
:10405000FF278DF800700168106803685B085B003B
:1040600003600A68520852000A6000E000BF03685B
:10407000DA07FBD40B68DA07F8D40B6823F4C063C3
:104080000B604FF40073016821F400710160294650
:10409000026842F48062026030466A4600F039FCF1
:1040A00000E000BF96F851000128FAD13168CF60D6
:1040B00030688168CA07FCD5C168C760306881680C
:1040C000CA07FCD5C168C76030688168CA07FCD5DB
:1040D000C06800F01F00052875D1002473E010F0BF
:1040E000060F03D02146D720FFF720FD3146592087
:1040F000FFF71CFD0028394F40F06580FFF7F4FC06
:10410000FF2852D13968FC20C86038688168CA0726
:10411000FBD5FF26C068F86CBA6C8DF800600168AA
:10412000106803685B085B0003600A68520852006D
:104130000A6000E000BF0368DA07FBD40B68DA0707
:10414000F8D40B6823F4C0630B604FF4007301686C
:1041500021F4007101602946026842F48062026025
:1041600038466A4600F0D5FB00E000BF97F85100E2
:104170000128FAD13968CE6038688168CA07FCD551
:10418000C168C66038688168CA07FCD5C168C66066
:1041900038688168CA07FCD5C06800F01F00052890
:1041A00003D1641E05F50075A8D1FFF79DFCFF281B
:1041B00008D13968FD20C86038688168CA07FBD516
:1041C000C06800E0012407494FF480700860601E59
:1041D0008041C043C00F01B0F0BD000000000020CE
:1041E000E2270020180002402DE9F043DFF898761E
:1041F00085B038781546C2074FF001082C4648BFF5
:10420000032000F13E830E2900F23483DFE811F031
:104210000F00170095009B00320332033203320374
:104220003203320380018501C001FA017102FFF7F8
:104230005BFCFF2840F020834FF000081CE30021C6
:104240004920FFF773FC0028DFF8407640F0148324
:104250003868FF24C46038688168CA07FCD5C06824
:10426000C0B2FF28F4D0FE2840F00683B96CF86C89
:104270008DF80040096800680A68520852000A6018
:1042800003685B085B00036000E000BF0A68D307B7
:10429000FBD40268D307F8D4026822F400720260EB
:1042A00001AA036843F4806303601023086820F4C4
:1042B000C06008606946384600F02BFB00E000BF94
:1042C00097F851000128FAD13968CC6038688168C4
:1042D000CA07FCD5C168C46038688168CA07FCD5C4
:1042E000C0689DF8043001A89B09017A427A012B2D
:1042F00008D102EB0120401C0004800928604FF027
:104300000008B9E2C37984799B00A40203EB911100
:104310004379807A04F4406403F00F03520061187B
:1043200003EBD01302F00602491CD21889B2D01F49
:10433000814029604FF000089EE24FF40070288011
:104340004FF0000898E2787841076BD50021CD2026
:10435000FFF7ECFB002840F08F82DFF830753868FB
:10436000FF24C46038688168CA07FCD5C068396812
:10437000CC6038688168CA07FCD5C068C0B2FF2825
:10438000F5D0FE2840F07882B96CF86C8DF80040CA
:10439000096800680A68520852000A6003685B08EE
:1043A0005B00036000E000BF0A68D307FBD402682B
:1043B000D307F8D4026822F40072026001AA0368ED
:1043C00043F4806303601023086820F4C060086031
:1043D0006946384600F09DFA00E000BF97F85100AA
:1043E0000128FAD13968CC6038688168CA07FCD5E1
:1043F000C168C46038688168CA07FCD5C0683020CD
:104400003968CC6039688A68D307FCD5C968401E12
:10441000F6D19DF80E1010200909884028604FF051
:10442000000829E200214920FFF780FB0028DFF87F
:104430005C6440F021823068FF24C4603068816889
:10444000CA07FCD5C068C0B2FF28F4D0FE2840F0EF
:1044500013828DF80040B16CF06C096800680A683E
:10446000520852000A6003685B085B00036000E0CA
:1044700000BF0A68D307FBD40268D307F8D40268E8
:1044800022F40072026001AA036843F480630360AF
:104490001023086820F4C06008606946304600F0C8
:1044A00038FA00E000BF96F851000128FAD13168CF
:1044B000CC6030688168CA07FCD5C168C4603068C8
:1044C0008168CA07FCD5C0687A7801A89307C17AC9
:1044D000807A0ED540009DF8112000F07E0000EBA0
:1044E000D1119209491C501E814029604FF00008EB
:1044F000C2E1CA0002F01802C0F3840002EB5111BD
:10450000401C491C11FB00F028604FF00008B3E18B
:10451000787820704FF00008AEE100214920FFF7C5
:1045200005FB0028DFF8647340F0A6813868FF259A
:10453000C56038688168CA07FCD5C068C0B2FF286A
:10454000F4D0FE2840F09881B96CF86C8DF80050DA
:10455000096800680A68520852000A6003685B082C
:104560005B00036000E000BF0A68D307FBD4026869
:10457000D307F8D4026822F400720260036843F49F
:10458000806303601023086820F4C060086056E16F
:1045900000214A20FFF7CAFA0028BC4F40F06C8186
:1045A0003868FF25C56038688168CA07FCD5C068CF
:1045B000C0B2FF28F4D0FE2840F05E81B96CF86CE0
:1045C0008DF80050096800680A68520852000A60B5
:1045D00003685B085B00036000E000BF0A68D30764
:1045E000FBD40268D307F8D4026822F40072026098
:1045F000036843F4806303601023086820F4C060FC
:1046000008601CE1A2484FF4807101604FF0807295
:104610000260FFF769FAFF2840F02E819B4D296860
:104620007A20C86028688168CA07FCD5C0680A205B
:10463000FFF710FA29680020C86028688168CA0757
:10464000FCD5C0680A20FFF705FA29680020C86079
:1046500028688168CA07FCD5C0680A20FFF7FAF904
:1046600029680020C86028688168CA07FCD5C0682E
:104670000A20FFF7EFF929680020C86028688168E0
:10468000CA07FCD5C0680A20FFF7E4F92968C1F819
:104690000C8028688168CA07FCD5C0680A20FFF72B
:1046A000D9F90A26FF272868C76028688168CA07E1
:1046B000FCD5D0F80C900A20FFF7CCF95FEA09602E
:1046C00003D5761EF1B20029EDD15FFA89F00028FA
:1046D00040F0D28004202968CF6029688A68D30717
:1046E000FCD5C96804F8011B401EF4D14FF0000846
:1046F000C2E000217720FFF719FA06460A20FFF7EB
:10470000A9F9012E60DC62484FF4807101604FF01E
:1047100080720260FFF7E8F9FF2840F0AD805B4D42
:1047200029684D20C86028688168CA07FCD5C06820
:104730000A20FFF78FF929680020C860286881687F
:10474000CA07FCD5C0680A20FFF784F92968002051
:10475000C86028688168CA07FCD5C0680A20FFF7CE
:1047600079F929680020C86028688168CA07FCD5E3
:10477000C0680A20FFF76EF929680020C860286821
:104780008168CA07FCD5C0680A20FFF763F9296869
:10479000C1F80C8028688168CA07FCD5C0680A2067
:1047A000FFF758F90A272968FF20C8602868816840
:1047B000CA07FCD5C6680A20FFF74CF9300603D5B6
:1047C0007F1EF9B20029EED1F6B2002E54D12F4F40
:1047D0003868FF25C56038688168CA07FCD5C0689D
:1047E0003968CD6038688168CA07FCD5C068C0B236
:1047F000FF28F5D0FE283FD1B96CF86C8DF8005039
:10480000096800680A68520852000A6003685B0879
:104810005B00036000E000BF0A68D307FBD40268B6
:10482000D307F8D4026822F400720260036843F4EC
:10483000806303604023086820F4C060086022465B
:104840006946384600F065F800E000BF97F851006F
:104850000128FAD13968CD6038688168CA07FCD56B
:10486000C168C56038688168CA07FCD5C0684FF068
:10487000000801E04FF0040805494FF4807008601B
:10488000404605B0BDE8F083E02400200000002091
:104890001800024010B5040001D1012010BD002114
:1048A000A16294F8510020B984F85010204600F01D
:1048B00059FA022084F851002068016821F0400173
:1048C00001606268A168E06823680A4321690243C5
:1048D00060690A43A169024301F40071E0690A4377
:1048E000216A0243A06A0A4302431A60A169606A0E
:1048F0002268090C01F00401014351602068C1697C
:1049000021F40061C16100206065012184F851102B
:1049100010BD70B50446002594F85000012801D15F
:10492000022070BD012084F8500094F85160012EDF
:104930000DD06068B0F5827F02BFA0680028042E09
:1049400005D0002084F850000225284670BD0029BB
:1049500018BF002A01D0180005D1002084F85000AB
:104960000125284670BD94F8510004281CBF052677
:1049700084F8516065652163A386E386A263A387FB
:10498000E38725646564E06C94F85110042905D12F
:104990000FF26D2202640FF2E90004E00FF26922C7
:1049A00002640FF25510E16CC863E16C0FF26120F4
:1049B000C864E16C0D65E38F2068A26B00F10C0107
:1049C000E06C00F0E1FAA8B92068416841F001010B
:1049D0004160A16C0D64A16CCD63A16CCD64A16C30
:1049E0000D65E38E2068216B00F10C02A06C00F0D5
:1049F000CBFA58B1606D40F010006065012584F875
:104A00005150002084F85000284670BD206801688D
:104A10004A0603D4016841F0400101602068416802
:104A200041F0200141602068416841F0020141608D
:104A3000002084F85000284670BD30B5044681B08F
:104A4000A06C002538B100F0E2FA20B1606D40F0B2
:104A5000100060650125E06C38B100F0D8FA20B193
:104A6000606D40F01000606501252068416889088C
:104A700089004160012084F8510001B0284630BD12
:104A800030B5054681B0AC6BFFF716F802462868D2
:104A90000168CB0529D42068416821F020014160DC
:104AA000A068002804BF6068B0F5827F04D1206848
:104AB00041688908890003E0206841684908490085
:104AC00041602046642100F0B3F808B12020606501
:104AD0000021E187012284F85120606D28B1204631
:104AE00001B0BDE8304000F0D9BB204601B0BDE8C0
:104AF000304000F0D4BB0000F0B5064681B0B46B86
:104B0000FEF7DAFF054630680168CA0571D42068EF
:104B1000DFF810324168DFF8107221F020014160A7
:104B2000DFF808020168A1FB03321209A2FB077635
:104B3000F60C4FF47A7010FB06F600966168B1F53A
:104B4000827F3AD12068816808063FD5FEF7B4FF1E
:104B5000401B6428F6D32068416821F0E0014160E1
:104B60006068B0F5827F0BD1A068B0F5004F18BF28
:104B7000B0F5806F04D12068016821F04001016028
:104B8000A06AB0F5005F09D12068016821F40051E6
:104B900001602068026842F400520260012084F83B
:104BA0005100002184F85010606D40F020006065D5
:104BB000606D40F02000606508E0009830B100981A
:104BC000401E0090216888680106F6D4206841687C
:104BD0008908890041600020E086E087012284F88E
:104BE0005120606D28B1204601B0BDE8F04000F0D2
:104BF00055BB204601B0BDE8F040FEF76DBF000098
:104C0000806B00F04DBB0000806B00F04ABB0000E1
:104C1000806B01684A68920892004A600122416DE7
:104C200041F01001416580F8512000F037BB0000D1
:104C300070B505460C466868B0F5827F16460BD104
:104C4000A868B0F5004F18BFB0F5806F08D128688C
:104C5000016821F0400101606868B0F5827F21D1D0
:104C6000A868B0F5806F0ED029688868010656D50F
:104C700014F1010FF8D0FEF71FFF801BA0421FD2D6
:104C8000002CF1D11CE028688168C80747D514F1D1
:104C9000010FF8D0FEF710FF801BA04210D2002CAD
:104CA000F1D10DE028688168C80738D514F1010FEB
:104CB000F8D0FEF701FF801BA04201D2002CF1D1F9
:104CC0002868416821F0E00141606868B0F5827FA2
:104CD0000BD1A868B0F5004F18BFB0F5806F04D1B4
:104CE0002868016821F040010160A86AB0F5005F02
:104CF00009D12868016821F4005101602868026820
:104D000042F400520260012085F85100002185F82C
:104D10005010686D40F020006865032070BD0020D1
:104D200070BD0000ABAAAAAA06BD3786C424002025
:104D300081B00020009000224948416841F4804140
:104D40004160416801F4804100910099009203683C
:104D500043F080530360006800F08050009000989A
:104D600001B07047F0B587B004461422002101A8B5
:104D700000F098FA21683B48814252D100223A481B
:104D80003A4E3B4D00924FF48067016941F48041F7
:104D90000161016901F480410091009900924FF492
:104DA0006041036843F0020303600222006800F0E0
:104DB0000200009000982F48019102920021039177
:104DC000032205210591049201A9FEF75DFD002053
:104DD0007060B060F0607061B061F061306270620C
:104DE00035603761304600F04DF808B100F08EFCB8
:104DF000E664B46305F118001F4E002130604022C4
:104E00007160B260F1607161B161F16131627162D2
:104E10003761304600F036F808B100F077FCA66440
:104E2000B46307B0F0BD00681449884200D07047F1
:104E300000B581B0002212480092016841F40031AF
:104E400001600021006800F40030009000981920F3
:104E500000F08FFC01B05DF804EB192000F0B6BC47
:104E60004038024000380040303802400C27002013
:104E700058600240000402406C27002000440140BA
:104E80004438024030B581B00446FEF715FE0546B1
:104E900014B9012001B030BD002084F83400022193
:104EA00084F83510206802685208520002602268B7
:104EB0001068C1070CD5FEF7FFFD401B0628F6D38E
:104EC00020206065032184F83510032001B030BD37
:104ED0001368DFF8B00361680340A0680B43E16822
:104EE000034320690B4361690343A0690B43E169F4
:104EF0000343206A0B43616A0343042903D1E16A37
:104F0000206B0B430343136023685A69606AD2081D
:104F1000042840EAC2020AD1A56AE16A2A4331B1F3
:104F2000A06998B9002D18BF022D24D018D35A615A
:104F3000204600F091F9E16D3F228A408260002016
:104F40006065012184F8351001B030BDB0F5005F17
:104F50000AD1032DEBD8DFE805F0100E1003E6E7C9
:104F6000B1F1C07FE3D108E0032DE0D8DFE805F020
:104F700005050503DBE7C801D9D54021616501209E
:104F800084F8350001B030BDF0B490F83460856D20
:104F90000024012E08BF022037D0012680F834609B
:104FA00090F83570012F2CD1022680F835604465C9
:104FB0000668376827F4802737600668736083685F
:104FC000402B04D10668B2600268D16003E0036838
:104FD00099600168CA603F22C16D8A40AA60016879
:104FE0000A6842F016020A60016C21B101680A6881
:104FF00042F008020A600068016841F001010160A6
:1050000002E080F8344002242046F0BC704770B5BE
:105010000446A56DFEF750FD064694F835000228BB
:1050200006D080216165002084F83400012070BD25
:105030002068016821F0160101602068416921F0B3
:1050400080014161206C002804BFA06C002804D0BE
:105050002068016821F008010160206801684908A2
:105060004900016020680168CA070DD5FEF724FDDC
:10507000801B0628F6D320206065002184F83410B8
:10508000032084F8350070BDE16D3F208840A860A2
:105090000121002084F8340084F8351070BDF0B58B
:1050A00081B0044600207949794B0090A66D0A68CA
:1050B0003768A2FB0330450BE06D082101FA00F0D0
:1050C00007420ED02068026853070AD5026822F012
:1050D00004020260E06D8140B160616D41F0010148
:1050E0006165E06D27FA00F1CA070BD521684A69AE
:1050F000110607D5012202FA00F0B060606D40F0A1
:10510000020060650421E06D01FA00F0074208D05A
:1051100021680A68930704D5B060606D40F0040010
:1051200060651021E06D01FA00F007421BD0216894
:105130000A68130717D5B060206801684A0307D5CD
:10514000006801030BD5A16C69B1204688470AE0CD
:105150000168CA0503D4016821F008010160216CCF
:1051600009B120468847E06D202101FA00F007428E
:105170004BD021680A68D30647D5B060206894F800
:105180003510052925D1026822F016020260206838
:10519000416921F080014161206C002804BFA06CAE
:1051A000002804D02068016821F0080101603F2236
:1051B000E06D8240B260002184F83410012084F850
:1051C0003500216D002943D0204601B0BDE8F040F4
:1051D000084701684A0307D50068010311D4616CD0
:1051E00099B12046884710E00168CA0509D40168D2
:1051F00021F010010160002084F83400012184F8BE
:105200003510E16B09B120468847606D00B3606DD1
:10521000C10716D5052084F83500206801684908C3
:105220004900016020680099491C8D42009102D319
:105230000168CA07F7D4002084F83400012184F8FB
:105240003510E16C21B1204601B0BDE8F0400847BF
:1052500001B0F0BD0000000070B401460A4C0868BF
:105260000CA500F0FF02103AA2FB04431A09800AC1
:10527000AE5CCE658002042A28BF001D886570BC24
:10528000704700003F8010F0ABAAAAAAC4240020F7
:10529000A80D74DA00061016000610167047704745
:1052A0007047704710B5044610460A46014620462E
:1052B000FDF7E8F8204610BD2DE9F04FADF5005D93
:1052C000B9B000F0ABFA00F0B3F901A80021002258
:1052D00000230EC006C0DFF80C44DFF80C54DFF8E2
:1052E0000C64009141F2FF77206840F004002060D8
:1052F000216801F0040100910021009800912268CA
:1053000042F080022260206800F080000090009847
:105310000091226842F001022260206800F0010042
:105320000090009800913946226842F00202226003
:105330000022206800F00200009000982846FEF746
:1053400074FB00224FF4F8513046FEF76EFBF82054
:105350000021019002910222039201A93046FEF73A
:1053600093FA01210291002203920492019701A96C
:105370002846FEF789FA4FF4F851019101220021E5
:1053800003910491029201A93046FEF77DFA0020B4
:1053900000900022216841F4001121600021206862
:1053A000D34C00F40010009000980E2000F0E1F9BA
:1053B0000E2000F00BFA002200210F2000F0D9F996
:1053C0000F2000F003FACB4820604FF482711820C0
:1053D000E06161600A2000224FF40071E062A26087
:1053E000E26022616261A16122626262A262204681
:1053F000FFF750FA08B172B6FEE7FDF777F8BE483E
:10540000A06542F20F71E165002020666421A0666C
:105410002067616604F1580000F01CFA08B172B60A
:10542000FEE704F1580000F02FFAFDF7F8F8FF222C
:1054300000200021009240F23F1B029001915B4648
:1054400040F2DF12FDF780F8A1A741F2A800012287
:1054500039466844FCF707FA4FF6FF7658B1C0208A
:10546000102102900091019604F19803A8A2322124
:105470003220FDF7AFFA0122ABA11EA8FCF7F2FB28
:1054800058B1C020102102900091019604F19803B8
:10549000A7A232213220FDF79DFA1EAA1E2105A8DF
:1054A000FCF708FF58B9C020102102900091019626
:1054B00004F19803A3A232213220FDF78BFA1EA833
:1054C000FCF7E2FE002239460020FCF7CCF941F25D
:1054D0008830FEF7BFFA40F2CB1740F2D11840F205
:1054E00031190FF2F01A93E0C020102102900196BA
:1054F000009104F1980315E0472808D1C02010213D
:1055000002900196009104F1980373A20AE07628B4
:105510007A4AE9D1C020102102900196009104F14D
:1055200098036EA2C821C820FDF754FAFF2004900A
:105530000390029000230520019300900223012292
:1055400064213220FDF71EFD41F678502044C02131
:105550000E2203900291009201960F21039B684A4C
:105560000520FDF737FA00254FF478400E21029010
:10557000009101965246039B4946A8B2FDF72AFACC
:105580006D1CA8B24045EFDB00250020E9B2029077
:1055900001900091B8234FF484728621D620FCF745
:1055A000D3FF6D1CE8B2FF28EFD100250020029048
:1055B0000021E8B201900091B8234FF48472862153
:1055C000D620FCF7C1FF6D1CE8B2FF28EED1002504
:1055D000E8B2029000210020019000915B464FF458
:1055E000EB723846FCF7B0FF6D1CE8B2FF28EFD134
:1055F000032100220391029001920092642364220D
:1056000032213220FEF7EDF84FF4FA70FEF722FA5D
:105610003A480078002889D046287FF46DAFC02032
:10562000102102900196009104F198032CA279E7D1
:1056300000B593B0302106A800F02CFA01A8002193
:10564000002200230EC006C02E4800914FF4803384
:10565000026842F080520260006800F080500090C2
:10566000009829480091026842F4404202600122F9
:10567000006800F44040009006A8009906920221BC
:105680004FF480020C910D920C2160220E910F922A
:105690000221042207931091119200F0FFF908B142
:1056A00072B6FEE7022102910F204FF48051019063
:1056B0000022049103920592032101A800F0A0FBAF
:1056C00008B172B6FEE700F029FC13B000BD00007F
:1056D00000000000E000000046320000560000001C
:1056E0004631000030380240000402400000024011
:1056F000000000200038004000440140DC2400206D
:10570000E86D0008403802400070004072B6FEE7C5
:1057100043616E2774206D6F756E7420534420634F
:105720006172642121210000312E74787400000020
:1057300043616E2774206F70656E2066696C652109
:105740002121000043616E27742072656164206628
:10575000696C6521212100002A4B19684FF6FF0270
:105760000002114000F4E060084327490843186034
:10577000704730B4234B1C68C4F30223C3F1070500
:10578000052D28BF0F2405D20125C3F1070405FA12
:1057900004F4641E1D1D072D34BF0023DB1E2140B1
:1057A0009940012404FA03F35B1E1A4011430901D6
:1057B000020003D41548815430BC7047144B02F0EA
:1057C0000F021A4402F8041C30BC7047010007D4D1
:1057D000012200F01F010F4B8A40400943F82020AE
:1057E0007047401EB0F1807F01D3012070470A4905
:1057F0004860F02081F8130D00228A6007200860BD
:10580000002070470CED00E00000FA0500E400E025
:1058100018ED00E000E100E010E000E000B50C4809
:1058200081B0016841F400710160026842F4806255
:105830000260016841F4807101600320FFF78CFF72
:10584000002000F085FBFFF773FA002001B000BDD7
:10585000003C024010B5040001D1012010BD94F8B5
:105860003D0028B9002184F83C102046FFF7DBFA00
:10587000022084F83D00211D206800F0BAF80120C4
:1058800084F83D00002010BD0068C16841F00101AE
:10589000C160816801F00701062903D0016841F069
:1058A000010101600020704710B5044620680169BD
:1058B0008A0716D5C1688A0713D56FF00201016106
:1058C00001222277806910F0030F204602D000F0F9
:1058D00063FB04E000F061FB204600F05FFB00206A
:1058E0002077206801694A0716D5C1684A0713D591
:1058F0006FF00401016102222277806910F4407F79
:10590000204602D000F048FB04E000F046FB2046B1
:1059100000F044FB00202077206801690A0716D5B3
:10592000C1680A0713D56FF00801016104222277CC
:10593000C06910F0030F204602D000F02DFB04E0F8
:1059400000F02BFB204600F029FB00202077206888
:105950000169CA0616D5C168CA0613D56FF01001D1
:10596000016108222277C06910F4407F204602D0EE
:1059700000F012FB04E000F010FB204600F00EFBEC
:105980000020207720680169CA0708D5C168CA07C6
:1059900005D56FF001010161204600F000FB206891
:1059A00001690A0608D5C1680A0605D56FF08001AD
:1059B0000161204600F0F4FA206801694A0608D522
:1059C000C1684A0605D56FF040010161204600F02C
:1059D000E8FA206801698A060AD5C1688A0607D5EF
:1059E0006FF0200101612046BDE8104000F0DABAF6
:1059F00010BD30B41F4B0468984218BFB0F1804FFF
:105A000007D01D4A90421FBF1C4DA8421C4A90421D
:105A10000ED14A6824F070041443984218BFB0F1C4
:105A2000804F11D0144A90421CBF144DA8420BD095
:105A3000134A90421CBF134DA84205D0124A90420F
:105A40001CBF124DA84203D1CA6824F44074144309
:105A50004A6924F080041443046098428C68C4624C
:105A60000A68826202D10969094A1160012343610F
:105A700030BC7047000001400004004000080040B6
:105A8000000C00400040014000440140004801403B
:105A900030000140002200F087BA00002DE9F041FB
:105AA000040082B000F09E812078DFF84863C107CF
:105AB00013D5B06800F00C00042807D0B06800F0DF
:105AC0000C00082841D1706841023ED5306881033E
:105AD00003D56068002800F085812178880719D5F2
