:020000040800F2
:10000000E0240020FDB0000855A400085FA400080B
:1000100061A4000863A4000865A4000800000000B3
:1000200000000000000000000000000067A40008BD
:1000300069A40008000000006BA400086DA400087B
:100040000DB1000811B1000815B1000819B1000880
:100050001DB1000821B1000825B1000829B1000830
:100060002DB1000831B1000835B1000839B10008E0
:100070003DB1000841B1000871A4000879A400084E
:1000800045B1000849B100084DB10008000000006A
:1000900000000000000000000000000051B1000856
:1000A00055B1000881A4000859B100085DB10008ED
:1000B00061B1000865B1000869B100086DB10008C0
:1000C00071B1000875B1000879B100087DB1000870
:1000D00081B1000885B1000889B100080000000066
:1000E0008DB1000891B1000895B100080000000032
:1000F00000000000000000000000000099B10008AE
:10010000000000009DB10008A1B10008A5B10008E1
:1001100000000000000000000000000000000000DF
:10012000A9B10008ADB10008B1B10008B5B100082F
:10013000B9B100080000000000000000000000004D
:10014000000000000000000000000000BDB1000839
:10015000C1B10008C5B10008C9B10008CDB100089F
:10016000D1B10008D5B10008000000000000000077
:10017000000000000000000000000000000000007F
:1001800000000000D9B100080000000000000000DD
:10019000DDB10008E1B10008C178827842EA0122AD
:1001A0004178007841EA022140EA0120704770B4AA
:1001B000494C0246206800230025A0B11668B042D1
:1001C00002BF60689668B04202BFA0685669B0423C
:1001D0000AD129B904EB05108189B1F5807F16D1C8
:1001E00070BC1020704701232069012578B1166882
:1001F000B04202BF60699668B04202BFA06952690E
:100200009042E6D01BB9022918BF122000D100206D
:1002100070BC70472DE9F0412F4ED6F800C0024661
:100220000023156857699468AC4501BF7068A04207
:10023000B068B84219D030690123A84201BFD6F88E
:1002400014E0A645D6F81880B8450ED00023BCF1BE
:10025000000F1CBF012300280CD106EB0310056022
:100260004460002452698260848106EB0312908905
:1002700031B110B10020BDE8F0814FF4807000E092
:10028000401C9081581CBDE8F081401E022814D209
:10029000000111490A189389B3F5807F18BF5FEAFE
:1002A000030C02D10023938103E05B1E93819BB278
:1002B0000BB900220A5000207047022070470649FF
:1002C0000A68824204BF00220A600A69824204BFAF
:1002D0000020086170470000DC1D0020F0B50646D4
:1002E00081B0F078002508B3776B707801233A4627
:1002F00006F1380102F056F918B10125284601B07F
:10030000F0BDF070B16A306A791A81420ED2B478C9
:10031000012C0BD9641E306AC719707801233A4644
:1003200006F1380102F03EF9641EF4D1284601B00E
:10033000F0BD70B504460D46606B0026854210D0B6
:100340002046FFF7CBFF06000BD1607801232A4639
:1003500004F1380102F01BF910B14FF0FF3501260E
:100360006563304670BD30B581B00446FFF7B6FF17
:10037000050053D12078032804BF2079012846D1F5
:10038000A08904F138010022401E01F8012BFBD1A5
:10039000552084F83602AA21522084F8380084F8C7
:1003A000390084F83712612084F83A004121722024
:1003B00084F81C0284F81D0284F83B10412084F864
:1003C0001E026121A069626A84F8200284F81F126B
:1003D000000A84F82102521C000A84F82202626397
:1003E000000A84F823020123606984F8240204F1DE
:1003F0003801000A84F82502000A84F82602000A5F
:1004000084F82702607802F0CDF8002020710022E5
:100410006078002102F0D1F800B10125284601B032
:1004200030BDC269891E921E914201D300207047DF
:100430004289006B02FB0101084670472DE9F0413B
:100440000C460568022C72D3E86984426FD2297881
:1004500001294FF0FF3604D069D303294DD032D3A0
:1004600065E0A889A96A04EB5408B8FBF0F04118CC
:100470002846FFF75EFF00285AD1A88908F1010736
:10048000B8FBF0F100FB118805F13802A96A12F8F7
:100490000880B7FBF0F041182846FFF74AFF002814
:1004A00046D1A889B7FBF0F100FB117705F13800C0
:1004B000C25D48EA0226E00754BFC6F30B063609C0
:1004C0003046BDE8F081AA89A96A5208B4FBF2F06F
:1004D00041182846FFF72DFF50BBA8896400B4FBE4
:1004E000F0F100FB114405F1380020444278067811
:1004F00046EA02263046BDE8F081AA89A96A920838
:10050000B4FBF2F041182846FFF713FF80B9A88921
:10051000A400B4FBF0F100FB114405F138002044C5
:10052000FFF73AFE20F070463046BDE8F081012624
:100530003046BDE8F0812DE9F0430C460227022C3D
:1005400081B006461546C0F09F80F069844280F075
:100550009B803178012908D0C0F09680032967D0AC
:1005600047D3384601B0BDE8F083B089B16A04EBE7
:100570005409B9FBF0F041183046FFF7DAFE0028C5
:10058000074640F08180B08909F10108B9FBF0F11C
:1005900000FB119906F13800484414F001041DBF16
:1005A000017801F00F0141EA05112946017001208F
:1005B000F070B089B16AB8FBF0F041183046FFF72F
:1005C000B8FE002807465FD1B089B8FBF0F100FB08
:1005D000118806F13800404414B12D09057051E02E
:1005E00001782D0A01F0F00105F00F050D430570AB
:1005F00048E0B289B16A5208B4FBF2F041183046C3
:10060000FFF797FE002807463ED1B0896400B4FB8F
:10061000F0F100FB114406F138002044012105707F
:100620002D042D0E4570F170384601B0BDE8F08301
:10063000B289B16A9208B4FBF2F041183046FFF774
:1006400078FE074600BBB089A400B4FBF0F100FBC4
:10065000114006F138021044FFF79EFDB18925F0E4
:10066000704500F070400543B4FBF1F001FB10440D
:1006700006F13801081905702D0A45702D0A85709C
:100680002D0AC5700120F070384601B0BDE8F08336
:100690002DE9F04180460C00D8F8006006D175695C
:1006A00015B1F06985420ED301250CE0FFF7C6FEB7
:1006B000012898BF012041D910F1010F3ED0F16906
:1006C00088423BD325462F46F0697F1C874202D3E0
:1006D0000227012D29D939464046FFF7AFFE48B120
:1006E000012818BF10F1010F28D0AF42ECD1002033
:1006F000BDE8F0814FF0FF3239463046FFF71BFF6F
:10070000B0B92CB13A4621463046FFF714FF78B90C
:100710007761F169B069891E814224BF401EB061D2
:10072000307940F00100307107E00020BDE8F08131
:1007300001280CBF4FF0FF3701273846BDE8F08194
:100740000368C06AB3F80CC0021D5889B1FBFCF104
:10075000B1FBF0F003E0984218D3C01A08321168D8
:1007600091B1884212D352F8083F401A63B19842BF
:100770000CD352F8081FC01A31B1884206D352F880
:10078000083F401A002BE6D1002070475168081836
:1007900070472DE9F04105460E462F68B6F5001F5B
:1007A00030D216F01F0F2DD1AC686E6154B9387875
:1007B000032801DBFC6A2CB939897009884221D2EF
:1007C000F86A1BE07989B88900FB01F806E0022C81
:1007D00018D3F869844215D2A6EB0806464521468F
:1007E00009D32846FFF72AFE044614F1010FEED183
:1007F0000120BDE8F0813846FFF713FEE861AC61E7
:10080000E86910B90220BDE8F081B989B6FBF1F2C0
:100810001018E86101FB1266B81900F1380129626D
:100820000020BDE8F08102461278CB7E887E032A44
:1008300040EA032005D14A7D097D41EA022140EAD0
:100840000140704713041B0E8A76CB76007803288C
:1008500003D1120C0A75120A4A75704730B4024669
:10086000052112F8010B040612F8013BC00100EB50
:100870005460C018050612F8013BC00100EB556436
:10088000E018491EEFD130BCC0B270470000000034
:100890002DE9F04F064683B0376800257561B468CE
:1008A00044B93878022801DDFC6A1CB93889B8B32C
:1008B000F86A1DE07989B88900FB01F906E0022C8D
:1008C0002ED3F86984422BD2A5EB09054D4521466C
:1008D0000BD33046FFF7B2FD044614F1010FEED101
:1008E0000124204603B0BDE8F08F3846FFF799FD9C
:1008F000F061B461F06998B1B989B5FBF1F21018F3
:10090000F06101FB1255781900F138013162FF22C4
:1009100001924FF0FF3131630096FF250297C8E046
:100920000224204603B0BDE8F08F0F2957D100996B
:1009300091F82F20510679D4420607D5717B019199
:1009400000F0BF0000994A690A630546E9B288428F
:1009500002BF0198717B88423FD10298D0F8108085
:10096000F07EB17E51EA002137D137780FF27469F9
:1009700007F03F077F1E0D20474301205FF00D0465
:1009800099F8001031444A78097841EA022A0100B6
:1009900010D0FF2F21D2504601F04CFE834638F88C
:1009A000170001F047FE7F1C834508BF504605D065
:1009B000FF253BE04FF6FF718A450ED1641E09F119
:1009C0000109DDD131784A0605D500281CBF38F869
:1009D0001700002801D16D1E28E0FF2526E0EDB2AA
:1009E0002DB9019D3046FFF739FF85427AD0009836
:1009F00090F82F10C80714D40098026A0B2100F158
:100A0000240315781878281A491E08D038B9567862
:100A10005D78701B9B1C921C491E0028F1D0002899
:100A200060D000994FF0FF30FF25086300984669B9
:100A3000C16904682036002953D0B6F5001F50D292
:100A4000A089B6FBF0F200FB126030BB0098491C95
:100A5000C1610099896939B92189700988421CD31B
:100A600000980021C1613CE06089401E024214D11F
:100A70000098FFF7E3FC01460229FFF451AF11F1A2
:100A8000010F3FF42DAFE0698142E9D2009A9161F4
:100A90002046FFF7C6FC0099C86100984661A0890E
:100AA000009AB6FBF0F100FB1166A11901F13800C4
:100AB00010620098C1690298FFF73BFC040011D155
:100AC0000098066A307860B1F17A009A01F03F012F
:100AD000E5289171A5D00A077FF527AF0F29A0D18E
:100AE00025E70424204603B0BDE8F08F2DE9F04F40
:100AF000044685B02068039094F82F1011F0A00FE1
:100B000018BF062040F06A820069B0F800104FF06C
:100B10000008A9B108F1010830F8182082B108F1E5
:100B2000010830F8181059B108F1010830F8182000
:100B3000002A1EBF08F1010830F818100029E9D179
:100B4000694604F12402032012F8013B01F8013B3D
:100B5000401E12F8013B01F8013B12F8013B01F87D
:100B6000013B12F8013B01F8013BEDD19DF80B0070
:100B7000C10740F18580402084F82F000126039DA5
:100B8000DFF8CCA803AF2A699DF8000004F1240324
:100B9000314603F8010B0DF1010C05201CF801EBA7
:100BA00003F801EB401E1CF801EB03F801EBF5D153
:100BB000052912D9108880B132F8023B5FF010008D
:100BC00003F0010C0CEB41015B085FEAC13C48BF3C
:100BD0008AEA0101401EF3D1ECE707200DF1130270
:100BE00001F00F0330335FFA83FCBCF13A0FA8BF6A
:100BF000DB1D401E090902F80139F1D17E2139546B
:100C000004F12402002101E0491C121D814214D28A
:100C10001378202B11D0491C81420ED25378202BFF
:100C20000BD0491C814208D29378202B05D0491C57
:100C3000814202D2D378202BE6D10A46511C0828E3
:100C400004F1240C3ABF3B5C401C20230CF802301A
:100C50000829F2D32046FFF71BFE010002D1761CC3
:100C6000642E90D38246642E039508BF072000F0BF
:100C7000B581042840F0B1819DF80B0084F82F0065
:100C80009DF80B00810709D508F10C08DFF8C4278F
:100C9000A8FB0220C00800F1010801E04FF00108A4
:100CA0004FF000092768C4F81490BA46A06848B904
:100CB0003978032901DBF86A20B9398989B3F96ADF
:100CC000E1611DE07E89B9894E43054606E0022DAB
:100CD00027D3F869854224D2A9EB0609B1452946F4
:100CE00009D32046FFF7AAFB054615F1010FEED107
:100CF0004FF0010A9FE03846FFF793FBE06128467A
:100D0000A061E06968B1B989B9FBF1F21018E0613E
:100D100001FB129907F13800484420620027D146B0
:100D200025E04FF0020A86E00121E9706863284659
:100D3000FFF7D4FA0028DBD1686B0BF1010B401CE4
:100D400069898B45F0D3A0EB0B006863C4F818A049
:100D500051462846FFF765FBE0616661A889B6FB4E
:100D6000F0F100FB116605F1380080192062484659
:100D7000E169FFF7DEFA010058D1206A0078E52822
:100D80001CBF0028002702D17F1C474552D066694E
:100D90002568E169203699B1B6F5001F10D2A889FF
:100DA000B6FBF0F200FB12600028D6D1491CE161CD
:100DB000A16941B9298970098842CED30020E06138
:100DC0004FF0070A37E06889401E0242C5D120462D
:100DD000FFF734FB8246BAF1020FA2D31AF1010FDA
:100DE00086D0E8698245B1D3A1692046FFF750FC5F
:100DF0005FEA000AE4D0BAF1010F92D01AF1010FB4
:100E00003FF476AF2846FFF769FA00287FF470AF09
:100E1000A88905F138010022401E01F8012BFBD101
:100E2000934651462846FFF7FCFA89E704288A468C
:100E3000C6D000E08A465FEA0A0040F0A480B8F11C
:100E4000010800F0A3806169A1EB48112046FFF77B
:100E5000A0FC5FEA000A40F0968004F12400FFF74E
:100E6000FDFC039F8DF80C000D224FF6FF7A0492D3
:100E7000E1693846FFF75DFA010040F08280D4F85E
:100E800020C0D7F810E09DF80C0000BF55A28CF8E8
:100E90000D000F2100208CF80C008CF81A008CF843
:100EA0001B0043468CF80B10DDB204986D1E4543C1
:100EB0005FF00D003EF815106D1C167866444FEA81
:100EC000112B317086F801B001B95146521C401EF9
:100ED00002D05145F1D0EDE751451ABF3EF815005B
:100EE000002843F040038CF800300120F870666958
:100EF000E16925682036002940D0B6F5001F3DD2B3
:100F0000A889B6FBF0F200FB1260E8B9491CE16168
:100F1000A16921B929897009884224D214E068891D
:100F2000401E024210D12046FFF788FA022822D341
:100F300010F1010F1CD0E969884214D2A06101466A
:100F40002846FFF76EFAE0616661A889B6FBF0F10A
:100F500000FB116605F138008019B8F10108206224
:100F600086D1039712E00020E0614FF0040A34E0DC
:100F70004FF0010A31E04FF0020A2EE04FF0040A70
:100F80002BE0039782465FEA0A0026D1E1690398C5
:100F9000FFF7CFF95FEA000A1FD1206A202101F094
:100FA00099FB04F12402216A12F8010B01F8010BEC
:100FB0005FF0050012F8013B01F8013B401E12F8FA
:100FC000013B01F8013BF5D194F82F00216A00F0B4
:100FD0001800087301200399C870504605B0BDE899
:100FE000F08F000001030507090E10121416181CDB
:100FF0001E0000002DE9F04F064683B0326800E085
:10100000491C08782F2818BF5C28F9D00020B06050
:101010000B78202B47D2802086F82F004FF0000855
:101020003768B468C6F8148064B93878032801DBDF
:10103000FC6A3CB9388918B9022003B0BDE8F08FCA
:10104000F86A1BE07D89B889454306E0022CF3D39A
:10105000F8698442F0D2A8EB0508A84521460AD3D6
:101060003046FFF7EBF9044614F1010FEED10120F1
:1010700003B0BDE8F08F3846FFF7D3F9F061B461F3
:10108000F0690028D8D0B989B8FBF1F21018F061E6
:1010900001FB128807EB080000F1380131620020E3
:1010A00003B0BDE8F08F019100921EE04907C4D45F
:1010B000B079C10640F15081009970698989B0FB0F
:1010C000F1F201FB1200009908443830C27E817EA3
:1010D00041EA0221009A1378032B05D1427D007D5D
:1010E00040EA022041EA0041B1603068DDF804A026
:1010F00004690FF26C2800270025A146D3461DE0A5
:10110000521C107890B188421CBF12F8010F0028C1
:101110000CD088421CBF12F8010F002806D088426C
:101120001EBF12F8010F00288842E9D1107800286C
:1011300041D129F8021B7F1C0AF1010A9AF800002C
:101140006D1C202815DB2F2818BF5C280BD0FF2F23
:1011500031D2012101F03EFA01002CD08029E8DAD9
:101160004246CEE76D1C1BF805102F2918BF5C29DD
:10117000F8D00BEB0501202825460191ACBF4FF0BC
:10118000000B4FF0040B3C4600E0641E34B1A81E77
:1011900030F81400202818BF2E28F6D0002025F89B
:1011A000140044B120220B2106F1240001F09AFA28
:1011B0000021284605E0062003B0BDE8F08F491C59
:1011C000801C0288202A18BF2E2AF8D009B14BF0C3
:1011D000030B2A462046931E33F810402E2C13D0C2
:1011E000401E1CBF33F810402E2C0DD0401E1CBFDB
:1011F00033F810402E2C07D0401E1CBF33F810309F
:101200002E2B01D0401EE6D10027BA460825DFF874
:10121000508A02920446894602E000BF4BF0030B5D
:10122000029830F81920002A09F1010962D0202A19
:10123000F4D02E2A01D1A145F0D1AA454AD2A14528
:1012400048D0802A15DB0021104601F0C3F94BF08D
:10125000020B48B95F224BF0030B06F1240000F8A3
:101260000A200AF1010ADBE7404410F8802C002A2A
:10127000F0D000BF3DA100E0491C087890B1904239
:101280001CBF11F8010F00280CD090421CBF11F8B0
:10129000010F002806D090421EBF11F8010F002850
:1012A0009042E9D108780028D4D1A2F141011A294D
:1012B00038BF47F00207D0D3A2F161001A28CCD280
:1012C00006F12400203A00F80A2047F001070AF14D
:1012D000010AA5E70B2D0BD0A14518BF4BF0030B5E
:1012E0004C4507D3A1464FF0080A0B25BF0097E7EE
:1012F0004BF0030B96F82400E52804BF052186F87F
:101300002410082D08BFBF0007F00C000C281ABFDE
:1013100007F0030103294BF0020B5FEA8B700BD43B
:1013200007F00301012908BF4BF0100B07F00C0771
:10133000042F08BF4BF0080B86F82FB03046FFF79C
:10134000A7FA96F82F1002003FF4B0AE04287FF4FD
:1013500074AE49073FF571AE052003B0BDE8F08FCC
:10136000222A3A3C3E3F7C7F000000002B2C3B3D74
:101370005B5D000010B403684FF0FF3163B31C469F
:1013800000E0641C2278202A13D33A2A11D014F8E2
:10139000012F202A0DD33A2A0BD014F8012F202A2E
:1013A00007D33A2A05D014F8012F202A01D33A2A6C
:1013B000E7D122783A2A0ED113F8012B303A0A2AC3
:1013C0000AD2A34208BF002A06D1621C0021026093
:1013D000084610BC7047002110BC0846704710B585
:1013E000044600224FF0FF33E2706363FEF7A1FF73
:1013F00008B1042010BD94F8370294F8361241EA7F
:1014000000214AF65520814201D0032010BD94F8F6
:101410003800E92805D0EB2804BF94F83A0090285A
:1014200013D104F16E00FEF7B7FE20F07F40DFF825
:10143000001C884207D004F18A00FEF7ADFEDFF8F9
:10144000F41B884201D1002010BD022010BD000015
:10145000211001009ED8899D2DE9F047144684B0E3
:1014600000220A6002687AB3154600E06D1C2B78F2
:10147000202B13D33A2B11D015F8013F202B0DD37D
:101480003A2B0BD015F8013F202B07D33A2B05D070
:1014900015F8013F202B01D33A2BE7D12B783A2BBB
:1014A0000AD112F8013B303B0A2B0DD2AA4208BFE9
:1014B000002B09D16A1C0260DFF87C6B756A3DB9AC
:1014C0000C2004B0BDE8F0870B2004B0BDE8F08725
:1014D0000D6004F0FE04287850B1687801F03AF805
:1014E000C10705D4002C00F09D8140070DD499E17F
:1014F00000202870687001F036F8C10748BF03204B
:1015000000F191812CB1400703D50A2004B0BDE859
:10151000F087687805F10C02022101F04EF80028EE
:1015200040F09C80A889A0F5007140F601629142CC
:1015300080F09480411E084240F090800021E970C4
:101540004FF0FF3AC5F834A02846FEF7F2FE00241B
:10155000002840F0838095F8370295F836124AF655
:10156000552841EA0021414540F0158195F83800A1
:10157000E92805D0EB2804BF95F83A00902811D14E
:1015800005F16E00FEF708FE20F07F40DFF8A01A9C
:1015900088426AD005F18A00FEF7FEFDDFF8941A52
:1015A000884262D095F8FA0168B195F8010295F881
:1015B000001295F8FF2141EA002195F8FE0142EA68
:1015C000012240EA0220009095F80A0268B195F8DD
:1015D000110295F8101295F80F2241EA002195F8B2
:1015E0000E0242EA012240EA0220019095F81A0216
:1015F00068B195F8210295F8202295F81F3242EA49
:10160000002295F81E0243EA022340EA03200290DA
:1016100095F82A0268B195F8310295F8302295F8CC
:101620002F3242EA002295F82E0243EA022340EAD2
:1016300003200390A1466F463C6824B1214628460A
:10164000FFF7CDFE00E00320012805DD09F10109C7
:101650003F1DB9F1040FEFD3042803D1012004B0DA
:10166000BDE8F087012800F3968095F8440095F8CE
:10167000431041EA0021A889814240F08C8095F80E
:101680004F1095F84E0050EA012004BF05F15C00B0
:10169000FEF782FD95F848102862012918BF02293B
:1016A000A97078D101FB00F995F845006881010027
:1016B00071D0421E10426ED195F84A1095F849003B
:1016C00040EA0120A9892881490990FBF1F201FB38
:1016D000120000285FD195F84C0095F84B1051EAA4
:1016E000002104D105F15800FEF756FD014695F89A
:1016F000470095F8462052EA00224CD0AF8928894D
:101700007F0909EB020C90FBF7F39C44614542D33F
:101710006B89A1EB0C01B1FBF3F100293BD003274E
:101720004FF6F673994238BF022740F6F673994296
:1017300038BF0127891C1219A444032FE9616C6288
:10174000AA62C5F830C010D195F8631095F86220F0
:1017500052EA012208BF00281DD105F16400FEF7FE
:101760001BFDE862E86980000DE0A0B1A86A48446A
:10177000E862022FE8690FBF400000EB400100F073
:10178000010000EB5100A9894A1E1018B0FBF1F0CE
:10179000296A814203D20D2004B0BDE8F087802081
:1017A0002871C5F818A0C5F814A0032F01BF95F83B
:1017B000690095F8681041EA0021012927D1611CD0
:1017C0002846FEF7B6FD10BB287195F8371295F83C
:1017D000360240EA0120404519D105F13800FEF7F4
:1017E000DBFCDFF85818884211D105F50770FEF7C9
:1017F000D3FCDFF84C18884209D105F50870FEF7D4
:10180000CBFCA86105F50970FEF7C6FC68612F7076
:10181000308C401C3084E88006F12800286128467E
:10182000FEF74DFD002004B0BDE8F08770B504461A
:1018300009260D46002C1CBF216800290FD008780E
:1018400068B1A088CA88904209D1487800F082FE29
:10185000C00704D4206828600026304670BD0020F0
:101860002860304670BD2DE9F247002985B0044656
:1018700017463FD000E0491C0878202813D33A28A7
:1018800011D011F8010F20280DD33A280BD011F8F0
:10189000010F202807D33A2805D011F8010F20287E
:1018A00001D33A28E7D108783A2809D1059A12F8E5
:1018B000010B30380A281DD28A4208BF002819D1EE
:1018C000DFF87467756A25B12846FEF7F8FC00203A
:1018D000287024B90020706206B0BDE8F0870020AF
:1018E0002070012F746240F0B88105A8FFF742FD17
:1018F000040003D50B2006B0BDE8F08706F12400F4
:1019000050F824501DB90C2006B0BDE8F0872878A7
:1019100028B1687800F01EFEC00740F195810020D4
:1019200028706C70687800F01EFEC00748BF032066
:1019300000F19381687805F10C02022100F03DFE70
:10194000002840F08981A889A0F5007140F6016265
:10195000914280F08181411E084240F07D8100214A
:10196000E9704FF0FF3AC5F834A02846FEF7E1FCD5
:101970000024002840F0708195F8370295F836125F
:101980004AF6552841EA0021414540F0618195F829
:101990003800E92805D0EB2804BF95F83A009028D4
:1019A00011D105F16E00FEF7F7FB20F07F40DFF864
:1019B0008016884267D005F18A00FEF7EDFBDFF85C
:1019C000741688425FD095F8FA0168B195F8010263
:1019D00095F8001295F8FF2141EA002195F8FE01E3
:1019E00042EA012240EA0220009095F80A0268B11A
:1019F00095F8110295F8101295F80F2241EA00218E
:101A000095F80E0242EA012240EA0220019095F880
:101A10001A0268B195F8210295F8202295F81F3234
:101A200042EA002295F81E0243EA022340EA03201C
:101A3000029095F82A0268B195F8310295F83022A3
:101A400095F82F3242EA002295F82E0243EA02234B
:101A500040EA03200390A1466F463C6824B121462A
:101A60002846FFF7BCFC00E00320012805DD09F152
:101A700001093F1DB9F1040FEFD3042800F0EC80F9
:101A8000012800F3E58095F8440095F8431041EAF9
:101A90000021A889814240F0DB8095F84F1095F82D
:101AA0004E0050EA012004BF05F15C00FEF774FB14
:101AB00095F848102862012918BF0229A97040F042
:101AC000C78001FB00F995F845006881010000F02E
:101AD000BF80421E104240F0BB8095F84A1095F836
:101AE000490040EA0120A9892881490990FBF1F2C7
:101AF00001FB1200002840F0AB8095F84C0095F8EF
:101B00004B1051EA002104D105F15800FEF744FBC7
:101B1000014695F8470095F8462052EA002200F069
:101B20009780AF8928897F0909EB020C90FBF7F3B6
:101B30009C446145C0F08C806B89A1EB0C01B1FB2A
:101B4000F3F1002900F0848003274FF6F6739942E1
:101B500038BF022740F6F673994238BF0127891C27
:101B60001219A444032FE9616C62AA62C5F830C05F
:101B700010D195F8631095F8622052EA012208BF4F
:101B8000002865D105F16400FEF706FBE862E8690C
:101B900080000EE000285BD0A86A4844E862022F6B
:101BA000E8690FBF400000EB400100F0010000EBCE
:101BB0005100A9894A1E1018B0FBF1F0296A814230
:101BC00046D380202871C5F818A0C5F814A0032FAB
:101BD00001BF95F8690095F8681041EA00210129D4
:101BE00027D1611C2846FEF7A4FB10BB287195F88D
:101BF000371295F8360240EA0120404519D105F127
:101C00003800FEF7C9FADFF83414884211D105F51F
:101C10000770FEF7C1FADFF82814884209D105F5EC
:101C20000870FEF7B9FAA86105F50970FEF7B4FA75
:101C300068612F70308C401C3084E88006F12800E9
:101C400028612846FEF73BFB002006B0BDE8F08780
:101C50000D2006B0BDE8F087012006B0BDE8F08792
:101C6000D0AE00082DE9F24F06008EB008BF092063
:101C700000F0BA8002F03F02904669460EA8FFF7D6
:101C8000EBFB040040F0AD8000980E99019001A894
:101C9000FFF7B0F904000FD19DF83300010648BFEB
:101CA000062409D408F0FE00411E8941C943C90F2A
:101CB00001A8FEF77CFA044618F01C0F00F09B8187
:101CC000200000F08480042C40F08B80DFF8681343
:101CD000086800281EBF08690028122403D101A843
:101CE000FEF704FF0446200048F0080840F00B818E
:101CF0005FEA087040F10F8100F034FD099901F8A6
:101D00000E0F020A130A1D0A4A708B70CD700999D2
:101D100001F8160F4A708B70CD7020200999C87297
:101D2000099D00982946FEF77EFD82460098002115
:101D3000A976E9760078032804BF297569750998A2
:101D400000F81C1F41708170C17001200099BAF128
:101D5000000FC87000F0DA800098019FD0F834902E
:101D60005446012C40F24581F869844280F041815B
:101D7000214601A8FEF762FB050061D0012D00F0AD
:101D8000388115F1010F20D00220012C40F2BA80D9
:101D9000F9698C4280F0B6803A78012A74D002D377
:101DA000032A24D056D3010040F0AC80F869B96909
:101DB000821E914205D2491CB961397941F0010175
:101DC00039712C468442D3D33AE0012409E09DF8CE
:101DD0000A0010F0110F40F01E815FEA487087D5AD
:101DE00008240020306020460FB0BDE8F08FB8898D
:101DF000B96A8008B4FBF0F251183846FEF799FA38
:101E00000100D0D1B889A400B4FBF0F100FB11406F
:101E100007F138021044FEF7BFF9B989B4FBF1F2BB
:101E200001FB1244000E07F1380100F0F0002144DC
:101E30000023C8700B704B708B700120F870B5E7F1
:101E400000984946FEF775FA04460098AAF1010188
:101E5000416158E0B889B96A4008B4FBF0F2511802
:101E60003846FEF766FA01009DD1B8896400B4FBDC
:101E7000F0F100FB114407F1380020440022027009
:101E800042700120F87091E7B889B96A04EB540BED
:101E9000BBFBF0F041183846FEF74BFA010082D147
:101EA000B98914F001045846B0FBF1F201FB1200AD
:101EB00007F1380108441ABF017801F00F01002131
:101EC00001700120F8700BF1010BB889B96ABBFBF6
:101ED000F0F041183846FEF72CFA01007FF463AFAA
:101EE000B889BBFBF0F100FB11BB07F13800584487
:101EF000002C12BF0021017801F0F00101700120D7
:101F0000F87053E7044620007FF46BAF5FEA087077
:101F100048BF48F040080098416B716208F0FE012C
:101F20000998B062491E8941C943C90F01A8FEF74B
:101F300071F9002871D03061099D00982946FEF79B
:101F400072FCB06005F11C00FEF726F9F06000207D
:101F5000F062009931600098C188B18000207075EE
:101F60003062B06186F814804FF4805106F1300081
:101F700000F0B0FB5FEA88607FF535AFF568002DB3
:101F80003FF431AFB56100984189808900FB01F7CA
:101F9000B168AF420DD23046FEF750FA0146012932
:101FA0003ED911F1010F3ED0ED1B2000F1D0F161BF
:101FB00017E7F16100988089B5FBF0F200FB125041
:101FC00000283FF410AF0098FEF72BFA88B1009A72
:101FD0009189B5FBF1F1081830620246009840780B
:101FE000012306F1300100F0D2FA00287FF4EDAEB3
:101FF000F9E60224F5E6200085D19DF80A00C10625
:1020000048BF04243FF5EDAE5FEA88717FF57EAFEF
:10201000C0077FF57BAF0724E3E602243061E0E6EA
:102020000224F161DDE64FF0FF300124F061D8E6D3
:102030004641540046415433DC1D00205252614158
:10204000727241612DE9F04715461F4682B00022A9
:1020500088463A6006466946FFF7E8FB010040F013
:10206000C180707D010040F0BD80307DC10758BF48
:10207000072040F1B780F068B469041BAC4240F21D
:1020800095802C4692E0F06A18B13046FEF758FB76
:1020900003E0F1693046FEF7D1F9022841D310F18F
:1020A000010F00F09980F0610098F569C169AD1EDB
:1020B000891E8D4235D2009940890A6B00FB0525A7
:1020C0007DB38A89B4FBF2FABAF1000F4D442DD0EA
:1020D0000AEB0901884238BFA0EB090A0098407852
:1020E00053462A46414600F052FA002874D1307D0A
:1020F000010611D5306A451B55450DD200998889D6
:10210000454308EB050106F1300228B112F8013B06
:1021100001F8013B401EF9D1009881890AFB01F1C9
:102120003CE00220707502B0BDE8F087326AAA4236
:1021300018D0307D01060CD500984078012306F1B7
:10214000300100F02FFA002846D1307D00F07F00EA
:1021500030750123009840782A4606F1300100F0DE
:1021600016FAC8BB35620099B3698A89B3FBF2F9E4
:1021700009FB02F5D01A28442146844288BF014653
:1021800006F1300C5B1B084642460CEB030328B1FA
:1021900013F8015B02F8015B401EF9D1B069081821
:1021A000B06188443A688A183A60641ACCB10098E1
:1021B000B1698089B1FBF0F900FB19100028D2D178
:1021C00000984289521E12EA09097FF46DAF002976
:1021D0007FF459AFB06860E70120707502B0BDE8C8
:1021E000F087002002B0BDE8F08700002DE9F04F35
:1021F0001446984681B000228946C8F80020074658
:102200006946FFF713FB010040F0CD80787D0100A7
:1022100040F0C980387D810758BF072040F1C38056
:10222000B869211881420AD24FF0FF32141A06E031
:10223000F860641AD8F800000818C8F80000002CEC
:1022400000F0AC800098B9698089B1FBF0FA00FB1E
:102250001A10002840F0CB8000984289521E12EAE2
:102260000A0A4CD1002940F0A180B86800283AD170
:102270003D686E6916B1E869864200D30126B3460F
:10228000E8690BF1010B834504D3012E4FF0020BDB
:1022900040F2848059463846FEF7D0F838B101281C
:1022A00018BF10F1010F20D0B345E9D176E04FF00F
:1022B000FF3259462846FEF73EF968B9C5F814B012
:1022C000E969A869891E814224BF401EA861287956
:1022D00040F00100287105E001280CBF4FF0FF3BE2
:1022E0004FF0010B5846002858D0012869D010F152
:1022F000010F00F0A280B968F86101B9B860387DBB
:1023000001060ED500983A6A4078012307F13001A2
:1023100000F048F9002840F09080387D00F07F0000
:1023200038750098FD69C169AD1E891E8D4248D27D
:10233000009940890A6B00FB0525002D41D08A8950
:10234000B4FBF2F6002E554440D006EB0A01884259
:1023500038BFA0EB0A060098407833462A46494623
:1023600000F020F9002868D1386A451BB54211D227
:1023700000998889454307F1300109EB050228B12E
:1023800012F8013B01F8013B401EF9D1387D00F005
:102390007F00387500988189714345E0387D40F0B1
:1023A00040003875002001B0BDE8F08FF86A18B120
:1023B0003846FEF7C5F996E7F9693846FEF768F939
:1023C00091E70220787501B0BDE8F08F386AA84225
:1023D0000CD0B969F868814208D20098407801238E
:1023E0002A4607F1300100F0D2F830BB3D62009977
:1023F000BA698B89B2FBF3F65E43981A301821460E
:10240000844207F1300388BF0146921B1A440846F4
:102410004B4628B113F8016B02F8016B401EF9D14D
:10242000387D40F0800038758944B869FA6808182A
:10243000B861824228BF1046FAE60120787501B0E3
:10244000BDE8F08F70B582B004466946FFF7EEF93B
:10245000010043D1217D4A0640D508060FD50098DA
:10246000226A4078012304F1300100F09BF810B19A
:10247000012002B070BD207D00F07F00207500F0CB
:1024800071F90546616A0098FDF753FF010025D1F7
:10249000A66AF07A40F02000F0723146A268206807
:1024A000FEF7D0F9E0683077B575000A70772D0A2D
:1024B000000AF575B0772D0A000A3576F0772D0AF7
:1024C00075760020B074F07401200099C8700098EF
:1024D000FDF749FF217D01F0BF01217502B070BDFC
:1024E00010B582B00446FFF7ADFF01000CD169467C
:1024F0002046FFF79BF9010006D12069FDF7C5FED4
:10250000010004BF0021216002B010BD2DE9F0419F
:10251000054682B0904600242F464E1EB44211DA82
:1025200001AB012269464046FFF78CFD0198012866
:1025300008D19DF800000D28F2D0641C0A2807F885
:10254000010BEBD10020387004B90025284602B0F9
:10255000BDE8F08101461E4A531802EB81014A682A
:10256000187A516808471A4B02460020995C0029E6
:1025700000D0704710B481B001249C5403EB820159
:102580009C184A68207A136801B010BC184770B5CF
:1025900004460F4D2E1905EB84046568307AAC684B
:1025A000A04770BD70B50446094D2E1905EB840493
:1025B0006568307AEC68A04770BD30B40346044CBF
:1025C000E51804EB83035C68287A236930BC18475C
:1025D000C42000200246802A2ADB59B1B2F5807F50
:1025E00001DB00207047394800EB4201A1F5807201
:1025F00010887047DFF8D420B2F800C060451EBFD5
:10260000491CB2F802C060451EBF491CB2F804C0A4
:10261000604509D0B2F806C0491C604504D0491C89
:1026200008328BB2802BE7DB01F1800000F0FF0065
:102630007047000070B4B0F5805F254C05DB04F5F1
:10264000FA7402E00AB904EB4504218800293AD063
:10265000884238DB65882A0205F0FF05241D120C2C
:102660006E18B042EEDA082A2DD8DFE802F0050B2A
:1026700012161A1E22262A00431A34F8130070BCC0
:1026800080B27047411A70BC01F00101401A80B25B
:10269000704770BC103880B2704770BC203880B270
:1026A000704770BC303880B2704770BC1A3880B246
:1026B000704770BC083080B2704770BC503880B230
:1026C0007047A0F5E35070BC80B27047D0AD0008F1
:1026D00020AB0008002200F009B80268531C036018
:1026E0001170704762F30F2262F31F42401810F01E
:1026F000030308D0C91A1FD3DB0748BF00F8012D18
:1027000028BF20F8022D130030B4144615461039A6
:1027100028BF20E93C00FAD8490728BF20E90C006F
:1027200048BF40F8042D890028BF20F8022D48BF7B
:1027300000F8012D30BC7047C91818BF00F8012DF2
:10274000CB0728BF00F8012D70472E0010B5034CB1
:102750000348211D00F008F8207010BDD020002093
:10276000881D00200020704730B40E4C627A03466A
:102770000120AAB9627A0020A0540022607A04EBFA
:1027800080056B60607A20440272607A421C62723B
:10279000303008702F223A2048708A700020C870AC
:1027A00030BC7047C420002041424344454647485E
:1027B000494A4B4C4D4E4F50515253545556575811
:1027C000595A6162636465666768696A6B6C6D6EAD
:1027D0006F707172737475767778797A0000000083
:1027E00000101320E00000000000000000000000C6
:1027F00000000000000000000000000000000000D9
:1028000000000000000000000000000000000000C8
:10281000000000040004000400040004000400049C
:10282000000400040000000400000000000000009C
:102830000000000000000000000A000A000A000A70
:102840000000000000000000000000000000000088
:102850000000000000000000000000000000004830
:1028600000480048002400FF0024002400FF00125C
:102870000012001200000000000000000000000034
:1028800000000008003C004A004A000A000C001842
:1028900000280048004A004A003C000800000000F0
:1028A000000000000000000000000006020901090D
:1028B00001890049002606200910090809040904B5
:1028C0000600000000000000000000000000000002
:1028D00000000000000000000000000000000000F8
:1028E00000000000000000000000000000000000E8
:1028F00000000000000000020002000200020000D0
:1029000000000000000000000000000000000000C7
:10291000000000000000000000000000001000089F
:102920000004000400020002000200020002000293
:102930000004000400080010000000000000000077
:102940000000000100020004000400080008000864
:102950000008000800080004000400020001000054
:102960000000000000000000001000D60038003811
:1029700000D6001000000000000000000000000071
:102980000000000000000000000000000000000047
:10299000001000100010001000FF011000100010C7
:1029A0000010000000000000000000000000000017
:1029B0000000000000000000000000000000000017
:1029C00000000000000000000006000400020000FB
:1029D00000000000000000000000000000000000F7
:1029E0000000000000000000001E000000000000C9
:1029F00000000000000000000000000000000000D7
:102A000000000000000000000000000000000000C6
:102A100000000000000200000000000000000000B4
:102A2000000000000000000800080004000400048A
:102A3000000200020002000200010001000000008C
:102A4000000000000000000000000000001800244A
:102A50000042004200420042004200420042002484
:102A6000001800000000000000000000000000004E
:102A700000000010001C00100010001000100010DA
:102A800000100010001000380000000000000000DE
:102A90000000000000000000001C00220042004076
:102AA000004000200010000800040042007E0000EA
:102AB0000000000000000000000000000000003CDA
:102AC000004200400020001000380040004000405C
:102AD0000020001E000000000000000000000000B8
:102AE0000000000000200030002800280024002200
:102AF0000021007F002000200020000000000000D6
:102B00000000000000000000000000780004000445
:102B1000001E002000400040004000400020001E39
:102B200000000000000000000000000000000000A5
:102B30000070000800040004001A00260042004251
:102B40000042002400180000000000000000000007
:102B5000000000000000007E004100400020002036
:102B60000020001000100010000800080000000005
:102B7000000000000000000000000000003C0042D7
:102B8000004200420024001800240042004200429B
:102B9000003C0000000000000000000000000000F9
:102BA0000000001C00240042004200420064005863
:102BB00000200020001800060000000000000000B7
:102BC0000000000000000000000000000000000005
:102BD00000020000000000000000000000020000F1
:102BE00000000000000000000000000000000000E5
:102BF00000000000000000020000000000000000D3
:102C000000000006000400020000000000000000B8
:102C1000000000000000000000800070000C0002B6
:102C2000000C0070008000000000000000000000A8
:102C30000000000000000000000000000000000094
:102C4000000000FF0100000000FF01000000000084
:102C50000000000000000000000000000000000074
:102C6000000000000002001C006000800060001CEA
:102C70000002000000000000000000000000000052
:102C8000000000000000001C0022002200200010B4
:102C90000010000800080008000000080000000004
:102CA00000000000000000000000000000C007302D
:102CB000080810842544262222222212231211926F
:102CC000197247042008101008E0070000000000F7
:102CD00000000020002000500050005000880088B4
:102CE00000F800040104018F07000000000000004C
:102CF0000000000000000000003F00440084008449
:102D00000044007C0084000401040184007F000072
:102D1000000000000000000000000000000000F0C3
:102D20000208030402020202000200020002000480
:102D3000020801F000000000000000000000000098
:102D400000000000007F008400040104020402046B
:102D50000204020402040184007F0000000000005D
:102D60000000000000000000000000FF00840004DC
:102D700000040044007C004400040004018400FFBF
:102D80000000000000000000000000000000000043
:102D900000FF0084000400040044007C00440004A0
:102DA00000040004001F00000000000000000000FC
:102DB00000000000000000F002080304020200020C
:102DC0000082070202020204020802F00100000071
:102DD00000000000000000000000000000DF070409
:102DE00001040104010401FC0104010401040104C3
:102DF00001DF0700000000000000000000000000EC
:102E00000000001F0004000400040004000400048B
:102E1000000400040004001F000000000000000087
:102E20000000000000000000003E0008000800084C
:102E3000000800080008000800080009000700005A
:102E4000000000000000000000000000000000DFA3
:102E50000304018400440024001C00240044008476
:102E60000004019F070000000000000000000000B7
:102E700000000000001F000400040004000400041F
:102E8000000400040004018400FF000000000000B2
:102E9000000000000000000000000007380C0C0CCF
:102EA0000C140A140A240A24092409C40884089F5B
:102EB0003E000000000000000000000000000000D4
:102EC00000870F04020C021402240244024402840C
:102ED00002040304021F02000000000000000000C2
:102EE00000000000000000F00008010402020402DB
:102EF0000402040204020404020801F000000000BD
:102F0000000000000000000000000000003F00443E
:102F10000084008400840044003C00040004000499
:102F2000001F000000000000000000000000000082
:102F3000000000F00008010402020402040204027E
:102F400004020404020801F00040008001000600B1
:102F50000000000000000000003F004400840084E6
:102F60000044003C0024004400440084001F03008F
:102F7000000000000000000000000000000000B899
:102F800000C400820002000C00300040008000827B
:102F90000046003A000000000000000000000000B1
:102FA0000000000000FF01110111011000100010CD
:102FB0000010001000100010007C00000000000055
:102FC0000000000000000000000000DF0704010412
:102FD00001040104010401040104010401880070DA
:102FE00000000000000000000000000000000000E1
:102FF000008F070401040104018800880088005044
:103000000050005000200000000000000000000000
:1030100000000000000000EF798410841088100880
:103020000988095009500A500A20042004000000B1
:10303000000000000000000000000000009F0704E6
:10304000018800500050002000500050008800040B
:10305000018F0700000000000000000000000000D9
:103060000000009E0708018800900050002000200A
:1030700000200020002000F80000000000000000F8
:10308000000000000000000000FE0042004200209E
:1030900000100010000800040002018200FF000080
:1030A0000000000000000000000000000000000E12
:1030B0000002000200020002000200020002000200
:1030C0000002000200020002000E000000000000EA
:1030D00000000000000100010002000200020002E6
:1030E00000040004000400080008000000000000C4
:1030F00000000000000000000000000E00080008B2
:10310000000800080008000800080008000800087F
:1031100000080008000E0000000000000000000091
:10312000001800240024004200420081000000003A
:10313000000000000000000000000000000000008F
:10314000000000000000000000000000000000007F
:10315000000000000000000000000000000000006F
:1031600000FF00000000000000000000000200045A
:10317000000400000000000000000000000000004B
:10318000000000000000000000000000000000003F
:1031900000000000000000000000001C00220030C1
:1031A000002C00220032006E000000000000000031
:1031B0000000000000000000000200030002000206
:1031C000001A00260042004200420022001C0000BB
:1031D00000000000000000000000000000000000EF
:1031E000000000000000001C00220002000200029B
:1031F0000022001C00000000000000000000000091
:1032000000000000004000600040004000580064E2
:1032100000420042004200E40058000000000000AC
:10322000000000000000000000000000000000009E
:103230000000001C0022003E000200020022001CD0
:10324000000000000000000000000000000000007E
:10325000001C002200020002000F00020002000217
:1032600000020002000F000000000000000000004B
:103270000000000000000000000000000000007CD2
:10328000002200220022001C0002003E00410041FA
:10329000003E0000000000000000000000020003EB
:1032A00000020002001A0026002200220022002252
:1032B0000077000000000000000000000000000097
:1032C00000000002000000000000000200030002F5
:1032D00000020002000200070000000000000000E1
:1032E00000000000000000000004000000000000DA
:1032F00000040006000400040004000400040004AC
:1033000000040003000000000000000000000002B4
:1033100000030002000200720012000A000E0012F8
:10332000001200E7000000000000000000000000A4
:103330000000000000020003000200020002000280
:10334000000200020002000200070000000000006E
:10335000000000000000000000000000000000006D
:103360000000009A01670222022202220222027752
:103370000700000000000000000000000000000046
:103380000000000000000000001A002700220022B8
:103390000022002200770000000000000000000072
:1033A0000000000000000000000000000000001805
:1033B00000240042004200420024001800000000E7
:1033C00000000000000000000000000000000000FD
:1033D00000000000001A00270042004200420026C0
:1033E000001A0002000200070000000000000000B8
:1033F00000000000000000000000005800640042CF
:10340000004200420062005C0040004000E000001A
:1034100000000000000000000000000000000000AC
:10342000001A00070002000200020002000700006C
:10343000000000000000000000000000000000008C
:10344000000000000000001C00120002000C001030
:103450000012000E0000000000000000000000004C
:10346000000000000000000000020002000F000247
:10347000000200020002000A000600000000000036
:10348000000000000000000000000000000000003C
:103490000000003300220022002200220072002CD3
:1034A000000000000000000000000000000000001C
:1034B000000000000000000000770022002200143D
:1034C00000140014000800000000000000000000CC
:1034D0000000000000000000000000000000007775
:1034E000072202220254015401CC0088000000008F
:1034F00000000000000000000000000000000000CC
:1035000000000000007700220014000800140022D0
:103510000077000000000000000000000000000034
:1035200000000000000000000000007700220022E0
:103530000014001400180008000800040003000034
:10354000000000000000000000000000000000007B
:10355000003E00120008000400040022003F0000AA
:10356000000000000000000000000000000000203B
:103570000010000800080008000800040008000807
:1035800000080008000800100020000000000000F3
:10359000000000000002000200020002000200021F
:1035A000000200020002000200020002000200020B
:1035B00000020000000000000000000200040008FB
:1035C00000080008000800100008000800080008B3
:1035D00000080004000200000000000000000000DD
:1035E000000000000000000000000000000E01F1DB
:1035F00000000000000000000000000000000000CB
:1036000000000000000000000007000500050005A4
:10361000000500050005000500070000000000008F
:1036200000000000000000000000000000FE00920A
:103630000010001000D0013002100410041004101B
:10364000047C030000000000000000400020002077
:10365000000000FF01040104000400040004000451
:10366000000400040004001F00000000000000002F
:10367000000000000000000000000000000000004A
:103680000000000000000000000000000006000430
:103690000002000000000000000000000000001018
:1036A000000800080000001F0022000200020002C3
:1036B0000002000700000000000000000000000001
:1036C00000000000000000000000000000000000FA
:1036D0000000000000000000001B001200090000B4
:1036E00000000000000000000000000000000000DA
:1036F0000000000000000000000000000000008446
:1037000010000000000000000000000000000000A9
:10371000000800080008007F0008000800080008F2
:103720000008000800080008000800080000000069
:10373000000000000000000800080008003E00082B
:1037400000080008000800080008003E0008000803
:103750000008000000000000000000000078008465
:1037600000820002007F0002003F0002000200848D
:1037700000780000000000000000000000000000D1
:1037800000000006018900890049002900A6315087
:103790004A484A484A444A8231000000000000007A
:1037A000000000000000000000FE03880088008880
:1037B00000880088078808881088108508E70700B7
:1037C00000000000000000000000000000000000F9
:1037D00000000000000000080004000400020004D3
:1037E00000040008000000000000000000000000CD
:1037F0000000000000EF038400840084008400FCCB
:10380000078408841084108408EF0700000000007B
:1038100000000040002000200000009F03440244FC
:1038200000440024001C0014002400440084009F75
:103830000300000000000000000000000000000085
:1038400000FE00920010001000D0013002100210A3
:103850000210021002BC0F00000000000000000077
:1038600000000000000000DF07040104010401045F
:103870000104010401040104010401FF07200020E8
:103880000020000000000000000000000003000213
:10389000001F0002001A002600220022002200223F
:1038A000002700100010000C0000000000000000C5
:1038B00000000004000200060000000000000000FC
:1038C00000000000000000000000000000000000F8
:1038D00000000000000000000006000400020000DC
:1038E00000000000000000000000000000000000D8
:1038F00000000000000000000000000000000012B6
:103900000009001B00000000000000000000000093
:1039100000000000000000000000000000000000A7
:1039200000000000001B0012000900000000000061
:103930000000000000000000000000000000000087
:103940000000000000000000000000000000000077
:103950000000000C001E001E000C00000000000013
:103960000000000000000000000000000000000057
:1039700000000000000000000000000000FF000048
:103980000000000000000000000000000000000037
:103990000000000000000000000000000000000027
:1039A000000000FFFF000000000000000000000019
:1039B0000000000000000000000000000000000007
:1039C00000000000000000000000000000000000F7
:1039D00000000000000000000000000000000000E7
:1039E000000000BEC1086308530855085D08499CE3
:1039F000EB000000000000000000000000000000DC
:103A000000000000000000000000000000000000B6
:103A100000FC0048004800C80348044904E70300CC
:103A20000000000000000000000000000000000096
:103A30000000000000000002000400040008000470
:103A40000004000200000000000000000000000070
:103A500000000000000000000000000000EE004434
:103A6000004400FC0344044404EE03000000000092
:103A70000000000000000000000000100008000826
:103A80000000006700120012000E000A001200671A
:103A90000000000000000000000000000000000026
:103AA00000030002001F0002001A0026002200226C
:103AB000002200220077000000000000000000004B
:103AC000000000000000000000000000000000EE08
:103AD0000044004400440044004400FE0010001074
:103AE00000000000000000000000000000000000D6
:103AF00000000000000000000000000000000000C6
:103B00000000000000000000000000880088007035
:103B10000000008F070401080188009000A000A0A9
:103B2000004000400020001C0000000000000000D9
:103B30000000000000000000000000440038000009
:103B400000E700420044002400280018001000088C
:103B50000008000700000000000000000000003E18
:103B60000008000800080008000800080008000815
:103B70000009000700000000000000000000000035
:103B8000000000000000000000BD00420081008134
:103B900000810081004200BD000000000000000024
:103BA00000000000000000400040007F000400040E
:103BB0000004000400040004000400040004001FCA
:103BC00000000000000000000000000000000000F5
:103BD00000020002000200020002000200000000D9
:103BE00000000002000200020002000200020000C9
:103BF0000000000000000038002400040004001C45
:103C0000002200420042004400280010002000244E
:103C1000001C0000000000000028000000FF0084DD
:103C2000000400040044007C0044000400040184FB
:103C300000FF000000000000000000000000000085
:103C4000000000F0010802E40512090A080A080A47
:103C5000081209E4040802F001000000000000005E
:103C6000000000000000000000F00208030402024F
:103C70000202003E000200020004020801F00000FF
:103C80000000000000000000000000000000000034
:103C900000000000000000240012001200090012C1
:103CA00000120024000000000000000000000000DE
:103CB00000000000000000000000000000FF008085
:103CC0000080000000000000000000000000000074
:103CD00000000000000000000000000000000000E4
:103CE0000000000000000000001E000000000000B6
:103CF00000000000000000000000000000000000C4
:103D000000F0010802FC0412091209F208920812DC
:103D1000093C060802F0010000000000000000005D
:103D20000000000A0000001F00040004000400045A
:103D300000040004000400040004001F0000000050
:103D4000000000000000000000000000001C002235
:103D500000220022001C0000000000000000000003
:103D60000000000000000000000000000000000053
:103D700000000000001000100010001000FF0110F3
:103D80000010001000FF0100000000000000000013
:103D90000000000000000000001F000400040004F8
:103DA000000400040004000400040004001F0000DC
:103DB0000000000000000000000000000000000201
:103DC00000000000000000020003000200020002E8
:103DD00000020007000000000000000000000000DA
:103DE000000000000000000000000020003E000471
:103DF0000004000400040004000E000000000000A5
:103E000000000000000000000000000000000000B2
:103E10000000002200220022002200220022007E58
:103E2000000200020002000000000000000000008C
:103E3000007E002F002F002F002F002E00280028CA
:103E40000028002800280028002800280000000082
:103E50000000000000000000000000000000000062
:103E6000000400000000000000000000000000004E
:103E70000000000000000000000000000000000042
:103E800000140000001C0022003E0002000200227C
:103E9000001C000000000000000000000000000006
:103EA000000000070E0C0D0C011439146524454464
:103EB0004D443984010501037D000000000000002D
:103EC00000000000000000000000000000000000F2
:103ED000002C00320002001E00020042003C0000E4
:103EE00000000000000000000000000000000000D2
:103EF000000000000000000900120012002400125F
:103F00000012000900000000000000000000000096
:103F10000000000000040000000000000004000693
:103F20000004000400040004000400040004000372
:103F30000000000000000000000000B800C4008283
:103F40000002000C00300040008000820046003A71
:103F50000000000000000000000000000000000061
:103F60000000000000000000001C00120002000C15
:103F700000100012000E0000000000000000000011
:103F8000000000000000000000000005000000022A
:103F9000000300020002000200020007000000000F
:103FA00000000000000000000000000000200020D1
:103FB0000050005000500088008800F80004010400
:103FC000018F07000000000000000000000000005A
:103FD000000000FF0084000400040004007C008452
:103FE000000401040184007F0000000000000000C4
:103FF0000000000000000000003F00440084008436
:104000000044007C0084000401040184007F00005F
:10401000000000000000000000000000000000FFA1
:10402000010401040004000400040004000400046E
:104030000004001F0000000000000000000000005D
:104040000000000000FC0710011001100110011019
:10405000010801080108010401FE03020202020234
:104060000200000000000000000000FF00840004C7
:1040700000040044007C004400040004018400FFAC
:104080000000000000000000000000000000000030
:1040900000E7738808880890049004E00390029079
:1040A0000488088808E77300000000000000000092
:1040B000000000000000003A004600420020001806
:1040C00000200040004000410022001C00000000D1
:1040D00000000000000000000000000000DF0704F6
:1040E00001040184014401240114010C01040104B0
:1040F00001DF07000000000000000004018C01F84F
:10410000000000DF070401040184014401240114BC
:10411000010C0104010401DF0700000000000000A1
:104120000000000000000000009F0344024400441F
:104130000024001C0014002400440084009F03009D
:10414000000000000000000000000000000000FC73
:1041500007100110011001100110011001100110D1
:10416000010A01CE0700000000000000000000006E
:10417000000000000007380C0C0C0C140A140A2470
:104180000A24092409C40884089F3E000000000096
:104190000000000000000000000000DF0704010430
:1041A0000104010401FC010401040104010401DF14
:1041B00007000000000000000000000000000000F8
:1041C00000F00008010402020402040204020402D6
:1041D0000404020801F000000000000000000000DC
:1041E00000000000000000FF0704010401040104B6
:1041F0000104010401040104010401DF07000000BF
:10420000000000000000000000000000003F00442B
:104210000084008400840044003C00040004000486
:10422000001F00000000000000000000000000006F
:10423000000000F002080304020202020002000271
:1042400000020004020801F000000000000000006D
:10425000000000000000000000FF0111011101102A
:10426000001000100010001000100010007C000072
:104270000000000000000000000000000000008FAF
:10428000070401080188009000A000A00040004041
:104290000020001C000000000000000000000000E2
:1042A0000000000000F0014000F80344044208420E
:1042B0000842084404F8034000F001000000000038
:1042C00000000000000000000000009F07040188BB
:1042D0000050005000200050005000880004018F62
:1042E00007000000000000000000000000000000C7
:1042F00000DF0704010401040104010401040104B6
:104300000104010401FF0100060004000400000094
:1043100000000000000000EF03840084008400849B
:1043200000C400B800800080008000E003000000AE
:1043300000000000000000000000000000EF7B848F
:1043400010841084108410841084108410841084CD
:1043500010FF7F00000000000000000000000000CF
:10436000000000EF7B84108410841084108410847B
:1043700010841084108410FF1F00300020002000E3
:104380000000000000000000007E0012001000107D
:10439000001000F0011002100410041002FC0100D3
:1043A0000000000000000000000000000000001FEE
:1043B0003E04080408040804087C0884080409046E
:1043C0000984087F3E00000000000000000000009B
:1043D00000000000001F0004000400040004007C32
:1043E0000084000401040184007F0000000000003C
:1043F00000000000000000000000007A00860002BB
:104400000102020002E003000200020201840078BF
:10441000000000000000000000000000000000009C
:10442000001F0F84104420244024403C402440249A
:1044300040442084101F0F00000000000000000016
:1044400000000000000000E0071001080108011052
:1044500001E0012001100108010801C60700000069
:10446000000000000000000000000000000000004C
:1044700000000000001C00220030002C002200324E
:10448000006E0000000000000000000000000000BE
:1044900000000078000400020002001A002600421A
:1044A000004200420024001800000000000000004C
:1044B00000000000000000000000000000000000FC
:1044C000003F00420042003E00420042003F000028
:1044D00000000000000000000000000000000000DC
:1044E000000000000000001F002200020002000285
:1044F00000020007000000000000000000000000B3
:10450000000000000000000000000000007E002409
:104510000024002400240022007F0041004100000C
:10452000000000000000000000000000000000008B
:104530000000001C0022003E000200020022001CBD
:10454000000000000000000000000000000000006B
:1045500000000000000000000076032401A80070A5
:1045600000A8002401760300000000000000000005
:104570000000000000000000000000000000000D2E
:1045800000130010000C00100011000E00000000CD
:10459000000000000000000000000000000000001B
:1045A0000000000000EE004400640054004C004491
:1045B00000EE00000000000000000000000000000D
:1045C0000000000000440038000000EE00440064D9
:1045D0000054004C004400EE000000000000000009
:1045E00000000000000000000000000000000000CB
:1045F000006700120012000E000A0012006700009F
:1046000000000000000000000000000000000000AA
:10461000000000000000007E00240024002400248C
:1046200000250073000000000000000000000000F2
:10463000000000000000000000000000008E038C5D
:10464000015401540154012401AE03000000000094
:10465000000000000000000000000000000000005A
:10466000000000EE00440044007C0044004400EEE2
:10467000000000000000000000000000000000003A
:10468000000000000000000000180024004200426A
:10469000004200240018000000000000000000009C
:1046A000000000000000000000000000000000FE0C
:1046B0000044004400440044004400EE00000000B8
:1046C00000000000000000000000000000000000EA
:1046D00000000000001A00270042004200420026AD
:1046E000001A0002000200070000000000000000A5
:1046F00000000000000000000000001C002200027A
:10470000000200020022001C000000000000000067
:104710000000000000000000000000000000000099
:10472000003E00490008000800080008001C0000C6
:104730000000000000000000000000000000000079
:104740000000000000000077002200220014001486
:10475000001800080008000400030000000000002A
:10476000000000000010001800100010007C0092F3
:104770000092009200920092007C0010001000381D
:104780000000000000000000000000000000000029
:1047900000000077002200140008001400220077B7
:1047A0000000000000000000000000000000000009
:1047B000000000000000000000EE0044004400443F
:1047C00000440044007E00800080000000000000E3
:1047D0000000000000000000000000000000007762
:1047E00000220022003E0020002000700000000097
:1047F00000000000000000000000000000000000B9
:104800000000000000770722022202220222022278
:1048100002FF070000000000000000000000000090
:1048200000000000000000000000007707220222C4
:1048300002220222022202FF0300060004000000FE
:104840000000000000000000000000000000000068
:10485000000E00050004003C00440044003E00003F
:104860000000000000000000000000000000000048
:10487000000000000000008E03040104013C01441C
:10488000014401BE03000000000000000000000021
:10489000000000000000000000000000000700020F
:1048A0000002001E00220022001F00000000000085
:1048B00000000000000000000000000000000000F8
:1048C0000000001A00260020003C00200011000E0D
:1048D00000000000000000000000000000000000D8
:1048E000000000000000000000C701220212041EA8
:1048F0000412042202C701000000000000000000B2
:104900000000000000000000000000000000007C2B
:1049100000220022003C002400220073000000005E
:1049200000000000000000002DE9F0410D46164691
:104930000799069A9846C1EBC10102EB4202DFF8E3
:10494000643882FB03C313440446DA11DFF8543899
:10495000089881FB037E7144CF1107EBD77702EBF8
:10496000D2723F06D2B27F0D47EA821700EB4000B9
:10497000DFF8301880FB01210144C81100EBD07032
:10498000C0B20743434632462946204600F011F89C
:104990002C2000F07DF9A8EB0505341B6D1C641C70
:1049A0006C4304D0384600F0BAF9641EFAD1BDE871
:1049B000F081F0B5044681B00D4616461F462A2008
:1049C00000F066F9200A00F0AAF9204600F0A7F9E5
:1049D000300A00F0A4F9304600F0A1F92B2000F0D5
:1049E00057F9280A00F09BF9284600F098F9380A90
:1049F00000F095F9384601B0BDE8F0408FE110B500
:104A0000DFF8A4476069000A0002606100224FF4E9
:104A10008071204601F069FB00224FF400712046AE
:104A200001F063FB00224FF48061204601F05DFB42
:104A300000224FF48051204601F057FB322001F054
:104A400069FB01224FF48071204601F04EFB1120DA
:104A500000F0ECF8322001F05DFBC02000F0E6F839
:104A60000D2000F05CF90D2000F059F9C12000F094
:104A7000DDF8432000F053F9002000F050F9C22087
:104A800000F0D4F8002000F04AF9C52000F0CEF87C
:104A9000002000F044F9482000F041F9B62000F071
:104AA000C5F8002000F03BF94A2000F038F93B201F
:104AB00000F035F9E02000F0B9F80F2000F02FF9F0
:104AC000242000F02CF91C2000F029F90A2000F025
:104AD00026F90F2000F023F9082000F020F94320E8
:104AE00000F01DF9882000F01AF9322000F017F9C3
:104AF0000F2000F014F9102000F011F9062000F04A
:104B00000EF90F2000F00BF9072000F008F9002043
:104B100000F005F9E12000F089F80F2000F0FFF81F
:104B2000382000F0FCF8302000F0F9F8092000F0FF
:104B3000F6F80F2000F0F3F80F2000F0F0F84E2008
:104B400000F0EDF8772000F0EAF83C2000F0E7F8FC
:104B5000072000F0E4F8102000F0E1F8052000F054
:104B6000DEF8232000F0DBF81B2000F0D8F800204E
:104B700000F0D5F8202000F059F8002000F0CFF820
:104B8000362000F053F86A2000F0C9F83A2000F00F
:104B90004DF8552000F0C3F82A2000F047F8002017
:104BA00000F0BDF8002000F0BAF8012000F0B7F8DE
:104BB000DF2000F0B4F82B2000F038F8002000F0DF
:104BC000AEF8002000F0ABF8012000F0A8F83F207C
:104BD00000F0A5F8322001F09DFA292000F026F817
:104BE0002C2000F023F82A2000F052F8002000F0DA
:104BF00096F8002000F093F8012000F090F840F2C1
:104C0000DF1000F08CF82B2000F042F8002000F0BC
:104C100086F8002000F083F8012000F080F840F2D0
:104C20003F1000F07CF8BDE810402C2030B5044661
:104C3000DFF8745581B000224FF48061284601F0FE
:104C400054FA00224FF40071284601F04EFA002277
:104C50004FF48051284601F048FA6869000A0002C2
:104C6000686101224FF48071284601F03EFA6869BC
:104C7000000A44EA00246C61012001F04BFA284646
:104C800001B0BDE8304001224FF4806101F02DBA3F
:104C900030B50446DFF8105581B000224FF4806132
:104CA000284601F022FA00224FF40071284601F054
:104CB0001CFA00224FF48051284601F016FA686968
:104CC000000A0002686101224FF48071284601F059
:104CD0000CFA01224FF40071284601F006FA002276
:104CE0004FF40071284601F000FA6869000A44EAAE
:104CF00000246C6101224FF48061284601F0F5F92F
:104D000001224FF40071284601F0EFF9284601B066
:104D1000BDE8304000224FF4806101F0E6B930B5C3
:104D20000446DFF88804DFF8805402880480944247
:104D300081B023D06869000A0002686101224FF443
:104D40000071284601F0D1F900224FF48061284615
:104D500001F0CBF901224FF48051284601F0C5F94A
:104D600000224FF40071284601F0BFF96869000A7B
:104D700004F0FF0444EA00246C6105E000224FF4D3
:104D80000071284601F0B1F901224FF480612846F4
:104D900001F0ABF901224FF40071284601F0A5F9AA
:104DA000284601B0BDE8304000224FF4806101F098
:104DB0009CB900002DE9F04F064614468DB0884698
:104DC0001F46204601F0BCF9C0B2002840F3AB8179
:104DD000169DDDF86090DDF85CB021466C0009F0AE
:104DE000FF030BF0FF02641C0B930A9209940C97CB
:104DF00004910390EC4C049800780795C028B4BF48
:104E000020384030099A0C99ADF80880C0B2504360
:104E1000014400208DF8585006960190DFF88C630D
:104E20009DF8580000284FF0000800F06581069DAD
:104E30000198BDF80870059142004519CDF8202071
:104E40004FEAA80008EB5070089A0599C010121894
:104E50000A4401235178A8EBC002934019424FEA5B
:104E6000074A00F09580681C7B1CADF80000ADF887
:104E700002302A20FFF70CFF2804000EFFF74FFF37
:104E8000A8B2FFF74CFFBDF80000000AFFF747FF8C
:104E9000BDF80000FFF743FF2B20FFF7F9FE4FEAB4
:104EA0001A60FFF73CFFB8B2FFF739FFBDF8020008
:104EB000000AFFF734FFBDF80200FFF730FF0022C1
:104EC0004FF48061204601F010F900224FF4007188
:104ED000204601F00AF900224FF48051204601F0EB
:104EE00004F96069000A0002606101224FF48071D8
:104EF000204601F0FAF801224FF40071204601F03B
:104F0000F4F800224FF40071204601F0EEF86069D9
:104F1000000A000240F02C00606101224FF4806121
:104F2000204601F0E2F801224FF40071204601F022
:104F3000DCF800224FF48061204601F0D6F8318879
:104F4000A6F800B08B4500F0B7806069000A000247
:104F5000606101224FF40071204601F0C6F8002282
:104F60004FF48061204601F0C0F801224FF48051D7
:104F7000204601F0BAF800224FF40071204601F0FB
:104F8000B4F860690A99000A41EA0020606199E07A
:104F9000791C6A1CADF80210ADF800202A20FFF73A
:104FA00077FE2804000EFFF7BAFEA8B2FFF7B7FE9F
:104FB000BDF80000000AFFF7B2FEBDF80000FFF7E1
:104FC000AEFE2B20FFF764FE4FEA1A60FFF7A7FE44
:104FD000B8B2FFF7A4FEBDF80200000AFFF79FFE7B
:104FE000BDF80200FFF79BFE00224FF480612046CF
:104FF00001F07BF800224FF40071204601F075F8B3
:1050000000224FF48051204601F06FF86069000AD9
:105010000002606101224FF48071204601F065F8C2
:1050200001224FF40071204601F05FF800224FF496
:105030000071204601F059F86069000A000240F052
:105040002C00606101224FF48061204601F04DF890
:1050500001224FF40071204601F047F800224FF47E
:105060008061204601F041F83188A6F8009089451A
:1050700022D06069000A0002606101224FF40071D1
:10508000204601F032F800224FF48061204601F002
:105090002CF801224FF48051204601F026F800221E
:1050A0004FF40071204601F020F860690B99000A66
:1050B00041EA0020606105E000224FF400712046C3
:1050C00001F013F801224FF48061204601F00DF841
:1050D00001224FF40071204601F007F800224FF43E
:1050E0008061204601F001F8079808F101087F1C53
:1050F0008045FFF6A5AE05990198401C80B201904D
:10510000019A08789042BFF68BAE069EBDF80880E3
:105110009DF8585086190498411C03980491401E2C
:1051200003907FF468AE0DB0BDE8F08FF0B581B0AC
:10513000C2EBC2021B4D069C82FB0565154403EBC6
:105140004303184AED1183FB027205EBD5751A442F
:105150004B1C9BB289B2C4EBC404EDB2D611114A08
:1051600084FB02EC421C92B280B206EBD676A444D9
:10517000F6B24FEAEC14FFF71CFC2C20FFF788FD79
:10518000680140EA453004EBD47440EAC620E4B23A
:1051900040EAC60040EA04200443A0B201B0BDE8E2
:1051A000F040BCE58180808000040240DC200020CB
:1051B0002DE9F04F074640F23F108742A8BF4FF459
:1051C0009F7791468242A8BF4FF49F7940F2DF104B
:1051D0000E468142A8BF4FF4EF769846804587B0CF
:1051E000A8BF4FF4EF784F45DDF844A018BF4645FF
:1051F00010D19DF84C000290CDF800A043469DF8D8
:10520000480001904A4631463846FFF78DFB07B00B
:10521000BDE8F08FA9EB07052DB2A8EB0604002D21
:1052200024B205D56D424FF0FF312DB2049101E05B
:1052300001220492002C05D564424FF0FF3124B2C4
:10524000039101E001220392690062009DF84C0085
:1052500009B212B202910192009052469DF8483074
:1052600031463846FFF762FFDDF840B0AC423ADA2B
:1052700001989DF84880ADF81490451B9DF84C901E
:10528000049C2DB2E719002D1AD45FEACB7007D524
:10529000CDF8009043465246B1B2B8B2FFF746FF90
:1052A000039886195FEA8B7108D5B8B2CDF80090E3
:1052B00043465246B1B2001BFFF738FF02982D1A41
:1052C000CDF8009043465246B8B201994D19B1B29B
:1052D000FFF72CFFBDF81410B8B288422DB2D1D11F
:1052E00007B0BDE8F08F0298ADF81480041B25B21A
:1052F0009DF848809DF84C90039CA619002D1BD466
:105300005FEACB7007D5CDF8009043465246B1B264
:10531000B8B2FFF70BFF0498C7195FEA8B7108D585
:10532000B1B2CDF8009043465246091BB8B2FFF720
:10533000FDFE0198B5EB0005CDF8009043465246BE
:10534000B8B202994D19B1B2FFF7F0FEBDF81410D2
:10535000B0B288422DB2D0D107B0BDE8F08F0000C6
:105360002DE9FF4F8BB09DF86000DDF868B0DDF8E7
:105370006C80DDF870900990012800F3DC80BDF8A6
:105380003800BDF83470BDF83050ADF80E00BDF8EF
:105390002C00ADF80C00014640F23F108142A4BF42
:1053A0004FF49F72ADF80C208742A8BF4FF49F774F
:1053B00040F2DF118D42BDF80E00A8BF4FF4EF752B
:1053C0008842A4BF4FF4EF72ADF80E20BDF80C0078
:1053D000B8421CBFBDF80E20954200F0A080BDF978
:1053E0000C60BDF90E40BE1B36B2641B002E24B209
:1053F00043BF764236B24FF0FF3A4FF0010A002C1D
:1054000005D564424FF0FF3124B2049101E001223E
:105410000492700000B20290CDF80090600000B2DB
:1054200001904346BDF80C005A462946FFF77EFE20
:10543000B4423ADA8DF868B08DF86C808DF87090CF
:10544000BB46019ABDF80C70DDF81080DDF80890BD
:10545000961B36B21446002E57440FD49DF87000A8
:105460009DF86C309DF8682000904544B8B2A9B210
:10547000A0EB0A00FFF75AFEA6EB09069DF87000A4
:105480009DF86C309DF868200090A9B2B8B2FFF783
:105490004DFEB8B2A619584536B2DCD19DF868B0B9
:1054A0009DF86C809DF8709045E0029A8DF868B088
:1054B000141B8DF86C8026B28DF87090BDF80EB07C
:1054C000BDF80C70DDF81080019C9146002E45441B
:1054D0000ED49DF870009DF86C309DF86820009007
:1054E0005744A9B2A1EB0801B8B2FFF71FFE361B63
:1054F0009DF870009DF86C309DF868200090A9B26E
:10550000B8B2FFF713FEA8B24E44584536B2DDD10B
:105510009DF868B09DF86C809DF870900BE0BDF828
:105520000E30CDF80890CDF80480CDF800B03A46A2
:105530002946FFF7F9F9BDF82C0040F23F139842D5
:10554000A4BF4FF49F71ADF82C10BDF83400984201
:10555000A4BF4FF49F71ADF83410BDF8300040F295
:10556000DF16B042A4BF4FF4EF71ADF83010BDF8B4
:105570003800B042A4BF4FF4EF71ADF83810BDF958
:105580003050BDF93400BDF92C200127821ABDF935
:105590003800451B2DB2002D12B206D56D424FF0DA
:1055A000FF302DB20890002700E00897002A07D5A9
:1055B00052424FF0FF3012B2079087F0010701E02E
:1055C000012007906900199809B25400059124B28E
:1055D00004949DF860104908022802D10999491ED7
:1055E00002E0012808BF00219542C0F274813FB15A
:1055F000079A09985242401E12B2411A079203E0DC
:105600000898404200B20890651B09B22DB20029EB
:105610000A952A4641DD089DBDF82C70BDF834007E
:1056200015FB01F57F1B451BC807ADF82C70ADF8C5
:10563000345010D5002A0CD4BDF8305007982D1ADC
:10564000ADF83050BDF838502D1AADF83850059DE2
:10565000521BA21812B249081FD0BDF830E0BDF8A5
:1056600038400798059F049D002A03D4AEEB000E36
:10567000241AD21BAA1812B2002A03D4AEEB000ED1
:10568000241AD21BAA18491E12B2EDD1ADF830E08F
:10569000ADF83840079005970495BDF82C00BDF88B
:1056A0003810BDF83420BDF83070ADF80C00ADF8FE
:1056B0001810ADF80E209842A4BF4FF49F70ADF8BB
:1056C0000C00BDF80E009842A4BF4FF49F71ADF8D6
:1056D0000E10B742BDF81800A8BF4FF4EF77B042E4
:1056E000A4BF4FF4EF71ADF81810BDF80C00BDF871
:1056F0000E1088421CBFBDF81820974200F0A08011
:10570000BDF90E00BDF90C60BDF91840CDF8009050
:10571000861B36B2E41B002E24B243BF764236B25B
:105720004FF0FF3A4FF0010A002C43BF644224B20D
:105730004FF0FF3501257100620009B212B20291EB
:1057400001924346BDF80C005A463946FFF7EEFC7D
:10575000B4423CDA019A8DF868B08DF86C808DF80F
:105760007090961BBDF80EB0BDF80C80DDF8089067
:1057700036B21446002ED04410D49DF870009DF827
:105780006C309DF868200090EF191FFA88F0B9B2CC
:10579000A0EB0A00FFF7CAFCA6EB09069DF8700013
:1057A0009DF86C309DF868200090B9B21FFA88F01F
:1057B000FFF7BCFC1FFA88F0A619584536B2D9D1BC
:1057C0009DF868B09DF86C809DF8709044E0029A56
:1057D0008DF868B0141B8DF86C8026B28DF870902F
:1057E000BDF818B0BDF80C80019C9146EF19002E51
:1057F0000ED49DF870009DF86C309DF868200090E4
:10580000D044B9B2491B1FFA88F0FFF78FFC361B52
:105810009DF870009DF86C309DF868200090B9B23A
:105820001FFA88F0FFF782FCB8B24E44584536B2F2
:10583000DCD19DF868B09DF86C809DF870900BE00D
:10584000BDF81830CDF808900A46CDF80480CDF8A0
:1058500000B03946FFF768F809980A9A022837DD40
:105860008DF868B08DF86C808DF87090BDF82C5074
:10587000BDF83070BDF83440BDF83860DDF820B0B8
:10588000DDF81C80A0F1020A4FEA0209B9F1000F0D
:105890005D445C4404D4059847444644A9EB0009A0
:1058A0009DF870000499039002229DF86800019011
:1058B0000092B3B2A2B2A8B289449DF86C100291D2
:1058C0000FFA89F9B9B2FFF773FCBAF1010ADDD119
:1058D0000FB0BDE8F08F27B10898404200B20890A1
:1058E00006E0079D09986D42401E2DB2411A0795AA
:1058F00009B20598821A12B200290A9241DD079D69
:10590000BDF83070BDF8380015FB01F57F1B451B55
:10591000C807ADF83070ADF8385010D5002A0BD458
:10592000BDF82C5008982D1AADF82C50121BBDF85C
:1059300034502D1AADF834500598821812B2490827
:105940001FD0BDF82CE0BDF834400898059F049D99
:10595000002A03D4AEEB000E241A521BBA1812B25E
:10596000002A03D4AEEB000E241A521BBA18491EAB
:1059700012B2EDD1ADF82CE0ADF8344008900597A7
:105980000495BDF82C00BDF83810BDF83420BDF8E2
:105990003070ADF80C00ADF81810ADF80E2098423C
:1059A000A4BF4FF49F70ADF80C00BDF80E009842F4
:1059B000A4BF4FF49F71ADF80E10B742BDF81800A8
:1059C000A8BF4FF4EF77B042A4BF4FF4EF71ADF82A
:1059D0001810BDF80C00BDF80E1088421CBFBDF8B1
:1059E0001820974200F0A080BDF90E00BDF90C40D0
:1059F000BDF91860CDF80090041B24B2F61B002CF2
:105A000036B243BF644224B24FF0FF3A4FF0010A6E
:105A1000002E43BF764236B24FF0FF3501256100BC
:105A2000720009B212B2029101924346BDF80C0015
:105A30005A463946FFF77AFBA6423CDA01988DF8C0
:105A400068B08DF86C808DF87090041B26B2BDF89C
:105A50000EB0BDF80C80DDF808900446002ED0444E
:105A600010D49DF870009DF86C309DF8682000906F
:105A7000EF191FFA88F0B9B2A0EB0A00FFF756FB46
:105A8000A6EB09069DF870009DF86C309DF8682023
:105A90000090B9B21FFA88F0FFF748FB1FFA88F0B0
:105AA000A619584536B2D9D19DF868B09DF86C80DA
:105AB0009DF8709044E002988DF868B08DF86C8085
:105AC0008DF87090861BBDF818B0BDF80C80019C55
:105AD00036B28146EF19002E0ED49DF870009DF865
