:020000040800F2
:10000000000F0020998700085181000853810008E3
:100010005581000857810008598100080000000040
:100020000000000000000000000000005B810008EC
:100030005D810008000000005F8100086181000808
:1000400065880008698800086D88000871880008C4
:1000500075880008798800087D8800088188000874
:1000600085880008898800088D8800089188000824
:1000700095880008998800089D880008A1880008D4
:10008000A5880008A9880008AD88000800000000C5
:10009000000000000000000000000000B18800081F
:1000A000B5880008B9880008BD880008C188000824
:1000B000658100086B8100088B810008C5880008F5
:1000C000C9880008CD880008D1880008338200085C
:1000D000D5880008D9880008DD88000800000000E5
:1000E000E1880008E5880008E988000800000000B1
:1000F000000000000000000000000000ED88000883
:1001000000000000F1880008F5880008F988000860
:1001100000000000000000000000000000000000DF
:10012000FD88000801890008398200080589000857
:100130000989000800000000000000000000000025
:100140000000000000000000000000000D89000811
:100150001189000815890008198900081D890008FF
:100160002189000825890008000000000000000027
:10017000000000000000000000000000000000007F
:1001800000000000298900080000000000000000B5
:100190002D8900083189000800F5E070026891425D
:1001A00003D280680028F9D1704743681A4491420D
:1001B000F7D270471749086880B94FF480504860FB
:1001C0004FF480324FF0FF30C86008610420124BBA
:1001D0008A604861C3F8BC0110480860012070477C
:1001E00001F1080313F0070F0EBF0023C3F108034A
:1001F00003F007031944D21A8161C26042F001037F
:100200004B60091D4FF0280C41F802C0014A1369E8
:10021000C361704738090020B80400206859883C41
:100220002DE9F84F84B00646AFF30080F52E1E4D41
:1002300080F013820B2E31BF10260B36F608F60025
:100240002868F408E04010F0030F4AD0C04300F0E3
:100250000100041905F1280000EBC408E700D8F8F4
:1002600008607068C008C000B84218BF01F0FEF90D
:10027000D6F80890464508BF01F0F8F94E4508BF8A
:1002800001F0F4F97068C008C000B84218BF01F06E
:10029000EDF9C8450AD12868012101FA04F420EAE1
:1002A00004042C6010E000BFB804002028698145D8
:1002B00008D3D9F80C10B14204D1C8F80890C9F895
:1002C0000C8001E001F0D2F947F00300311D7060AD
:1002D000301DCA5942F00102C25106F1080800F06F
:1002E00024BFA968B14280F0AA83002800F0A28050
:1002F0004FF0010808FA04F1490000FA04F44842FA
:1003000001430C4060420440641E200B00F01000CA
:10031000C440610901F00801CC40A20802F00402C7
:10032000D440630803F002030818DC401018C4F33B
:10033000400718183818FC40241805F1280000EB75
:10034000C40AE700DAF80890D9F80400C008C00031
:10035000B84218BF01F08AF9D9F808B0D14508BFF2
:1003600001F084F9D94508BF01F080F9D9F80400FB
:10037000C008C000B84218BF01F078F9DA4506D1CC
:10038000286808FA04F420EA04042C600DE02969C6
:100390008B4508D3DBF80C00484504D1CAF808B0F7
:1003A000CBF80CA001E001F061F9BF1B46F003009F
:1003B00009F10402C9F8040047F00101915109EB69
:1003C00006020192D751AC684FEAD40ABAF11F0F66
:1003D00088BF01F04BF934B3CDF800A005F1280037
:1003E0006E6900EBCA0AD346102C38BF01F03EF903
:1003F0002968009821FA00F2D30704D408FA00F023
:100400000843286007E0DAF80800296988422CBF11
:10041000834601F02BF9CAF80860CBF80C60C6F8E7
:1004200008B0C6F80CA0AF6009F10808019868612F
:1004300000F07BBE6868002800F02383414208403A
:10044000401E010B01F01001C840420902F00802F1
:10045000D040830803F00403D840440804F00204A9
:100460005118E0405918C0F34007611805F5987815
:100470007918F840401858F820104868C008C000A3
:100480008A46A0EB060B08E001464868C008C00099
:10049000801B58453CBF83468A4608690028F3D133
:1004A00049690029F1D128698245C0F0D380DAF882
:1004B0000410C90806EB0B09C900494518BF01F033
:1004C000D5F80AEB06008245019080F0C380DAF887
:1004D0000C40DAF8187054450DD0DAF80800296994
:1004E000884223D3C268524504BFA16851451DD13B
:1004F000C460A0601CE00AF114010C6834B90AF170
:1005000010010C68A4B101E011460C6804F114025A
:100510001068002802BF04F1100210680028F3D10F
:100520002869814202D300220A6001E001F09EF8AE
:10053000002F38D0DAF81C0008EB80010A689245D9
:100540000AD11CBB6A68012303FA00F022EA00000A
:1005500068600020086026E029698F4213D338695B
:10056000504514BF7C613C61ECB129698C4218D3C1
:10057000A761DAF8100058B1884226BF2061846173
:1005800001F074F804E001F071F8EDE70C60ECE7BD
:10059000DAF8140038B12969884202D360618461B5
:1005A00001E001F063F8BBF1100F0ED249F0030037
:1005B0000AF10401CAF804000AF1040051F8092004
:1005C00042F0010240F809203EE046F003010AF142
:1005D0000402CAF804104BF001009051019941F84F
:1005E0000BB0A8680090C4081F2C88BF01F03EF82B
:1005F000009828B305F1280000996F6900EBC40842
:10060000C146102938BF01F031F8286820FA04F1FA
:10061000CA0705D4012101FA04F404432C6007E061
:10062000D8F80800296988422CBF814601F01EF8DD
:10063000C8F80870C9F80C70C7F80890C7F80C80A3
:10064000C5F808B0019868611AF1080800F0F78150
:1006500000F06BBD01F00AF8F1E116F1400F28BF80
:100660004FF0FF3680F0EB810B36F6086B68F60032
:10067000002B00F0E4810027300AC6F1000908BF12
:10068000002423D0B0F5803F28BF1F241ED2A0F540
:100690008071090C01F008018840A0F58052120C0D
:1006A00002F004029040A0F58044240CC1F10E0138
:1006B00004F00204891A091BA04001EBD031C81DC7
:1006C00026FA00F404F0010404EB410405F59878DF
:1006D00058F8240040B31F2C0FBFB4464FEA540C07
:1006E000CCF1190C06FA0CFCBE46494601E04FEA73
:1006F0004C0C4268D208D200921B8A4207D342694E
:1007000010304FEADC7950F829003AB103E01100CB
:100710000746F4D105E0824218BF96460028E6D18C
:1007200070468946A8BBB7BB012101FA04F46400F6
:1007300060420443234000F08281584203405B1E24
:10074000180B00F01000C340590901F00801CB401C
:100750009A0802F00402D3405C0804F0020408186E
:10076000E3401018C3F3400C2018604423FA0CF344
:100770001B1858F823000CE008464168C908C90056
:10078000891B49453CBF8946074601690029F3D1C9
:1007900040690028F1D1002F00F05181A868801B2A
:1007A000814580F04C8129698F42FFF453AF78680E
:1007B000C008C00006EB0901884218BF00F056FFD0
:1007C00007EB060B5F45BFF445AFFC68D7F818A0F0
:1007D000BC420CD0B8682969884223D3C268BA42A7
:1007E00004BFA168B9421DD1C460A0601CE007F13C
:1007F00014010C6834B907F110010C68A4B101E0D0
:1008000011460C6804F114021068002802BF04F1BC
:10081000100210680028F3D12869814202D3002217
:100820000A6001E000F022FFBAF1000F39D0F86948
:1008300008EB80010A6897420AD134BB6A68012339
:1008400003FA00F022EA000068600020086028E057
:1008500029698A4516D3DAF81000B84214BFCAF8DD
:100860001440CAF81040E4B129698C4217D3C4F887
:1008700018A0386958B1884226BF2061846100F011
:10088000F5FE04E000F0F2FEEDE70C60ECE77869BD
:1008900038B12969884202D36061846101E000F0C7
:1008A000E5FEB9F1100F0CD2B14449F00300391D37
:1008B0007860381D51F8092042F0010240F8092003
:1008C000B9E046F003013A1D796049F0010090510A
:1008D0004FEAD9004BF809901F2822D805F12801CA
:1008E00001EBC004296821FA00F2D307A04605D421
:1008F000012202FA00F00843286006E0A068296996
:1009000088422CBF804600F0B1FEC4F808B007F161
:100910000800C8F80CB040F8068007F10C018C51B3
:1009200089E05FEA192008BF002123D0B0F5803F9D
:1009300028BF1F211ED2A0F58072120C02F00802FF
:100940009040A0F58051090C01F004018840A0F509
:1009500080431B0CC2F10E0203F00203521AD21A9A
:10096000984002EBD032D01D29FA00F101F00101CC
:1009700001EB420107F11403CBF81C1000229A513D
:1009800007F1100308EB81009A516A6822FA01F31B
:10099000DC0711D4012303FA01F111436960C0F8A7
:1009A00000B0CBF8180007F1080107F10C0040F87F
:1009B00006B041F806B03EE002681F291DBF490895
:1009C000C1F1190109FA01F1494600E002465068F7
:1009D000C008C000484518D002F11003C80F03EB4F
:1009E0008003490018680028F0D12869834220D389
:1009F000C3F800B007F10C01CBF8182041F806B09D
:100A000007F1080040F806B015E0296990688A42AD
:100A100028BF88420DD3C0F80CB007F10801C2F816
:100A200008B0885107F10C0082510022CBF8182041
:100A300001E000F01BFE17F1080840F07683A8687B
:100A4000B0421ED3811B6A6910290AD3141DA96004
:100A500041F001009319A051595046F00306566029
:100A60000BE00021A96040F00304111D5460141D27
:100A70000E5846F00106265000236B6102F108086B
:100A800053E3E8688642C0F04083DFF8D89BD9F88A
:100A9000000008B9FFF78EFBD9F8081088192F302D
:100AA000491E20EA01018E4280F03D8305F5D8778A
:100AB000B86838B13A6889188A4280F0348388422D
:100AC000C0F0318300F0E4FD00281CBFD0F80080A6
:100AD00010F1010F00F027833968AC694144396097
:100AE000D5F8B021D5F8B4118A4238BF0A467A60E9
:100AF00004BB296909B1884200D22861002138610C
:100B0000C7F81480F9614FF0FF31D9F800206A620C
:100B1000296205F1280200219260D26002F10803E7
:100B200053611361891C10321F29F5D9A8F12802DD
:100B300001461DE005F5E0710A46814600E0926835
:100B4000D2B11068536803449945F8D1107B03076C
:100B500012D413689C420FD3D2F804C063449C4261
:100B60000AD2C444C2F804C02146E86808EB000277
:100B70002846FFF735FBC5E22869814538BFC5F82F
:100B8000109009EB080000E08968002900F0C1819D
:100B90000A688242F8D1087B020700F1BA8108682E
:100BA000C1F800904A6842444A6009F1080111F016
:100BB000070F08BFCDF8049006D0C1F1080101F07D
:100BC000070109EB0102019200F1080111F0070F82
:100BD00004D0C1F1080101F00701084480460198E2
:100BE000A8EB00018419A1EB060B274646F003068B
:100BF0004660474528BF00F039FD98F80400C1075A
:100C000058BF00F033FDBBF1100F38BF00F02EFDD0
:100C1000A869804508D1E9688B44C5F80CB0AF617C
:100C20004BF00100786070E1686980450AD1A968DD
:100C30006F618B44C5F808B04BF00100786047F84D
:100C40000BB062E1D8F8040000F00301012940F084
:100C5000BC80C008C000C1081F29039040D8D8F844
:100C600008200092D8F80C600291B04508BF00F04F
:100C7000FDFC0098804508BF00F0F8FCD8F804009F
:100C80000299C008C000B0EBC10F18BF00F0EEFC25
:100C90000299009A05F1280000EBC100824208D0B9
:100CA00011462A699142C0F08B80CA68424540F0E3
:100CB000878000998E4206D102982A6801238340DA
:100CC0009A432A607EE0864205D029698E4277D316
:100CD000B068404574D10098C6600099B16071E079
:100CE000D8F818000090D8F80C6046450DD0D8F818
:100CF00008002969884223D3C268424504BFB1680D
:100D000041451DD1C660B0601CE008F114010E68B9
:100D100036B908F110010E68A6B101E011460E685F
:100D200006F114021068002802BF06F110021068D4
:100D30000028F3D12869814202D300220A6001E031
:100D400000F094FC009800283CD0D8F81C0005F571
:100D5000987101EB80010A6890450AD12EBB6A6840
:100D6000012303FA00F022EA000068600020086016
:100D700028E000992869814214D30869404514BFCE
:100D80004E610E61F6B129698E4219D30098B061A7
:100D9000D8F8100058B1884226BF3061866100F053
:100DA00065FC04E000F062FCECE70E60EBE7D8F8CD
:100DB000140038B12969884202D37061866101E06C
:100DC00000F054FC039988448B44D8F80410490877
:100DD0004900C8F804104BF0010078604FEADB06C8
:100DE00047F80BB01F2E22D805F1280000EBC604EF
:100DF000A146BBF1100F38BF00F038FC286820FA7C
:100E000006F1CA0705D4012101FA06F606432E6051
:100E100006E0A068296988422CBF814600F026FCC4
:100E2000A760C9F80C70C7F80890FC606DE05FEA35
:100E30001B2008BF002123D0B0F5803F28BF1F2111
:100E40001ED2A0F58072120C02F008029040A0F5AC
:100E50008051090C01F004018840A0F580431B0C6F
:100E6000C2F10E0203F00203521AD21A984002EBAA
:100E7000D032D01D2BFA00F101F0010101EB42014B
:100E8000F961002305F598727B6102EB81003B61FB
:100E90006A6822FA01F3DE0707D4012303FA01F19D
:100EA000114369600760B8611DE002681F291DBF1A
:100EB0004908C1F119010BFA01F1594600E0024657
:100EC0005068C008C000584510D002F11003C80F88
:100ED00003EB8003490018680028F0D12869834299
:100EE00011D31F60BA61FF60BC600EE02969906891
:100EF0008A4228BF884206D3C7609760B860FA600C
:100F00000020B86101E000F0B1FB019800F1080891
:100F10000BE121462846FFF73FF901684068084485
:100F20000090A0F1270111F0070000980EBF0021EA
:100F3000C1F1080101F007010844A0F12F0B04F1F1
:100F400010018B4538BFA3460BF118020021029215
:100F50000191A8F1280249462846FFF741F90BF113
:100F6000080010F0070F18BF00F080FB1B20CBF823
:100F7000040005F5E07292E809500BF1080181E8E0
:100F8000095000210BF10800F961B861009A02983C
:100F90000199C7F81090C7F81480072300E0001DDE
:100FA000491C00F1080797424360F8D30129D8BFD4
:100FB00000F05CFBA34500F0A580ABEB040B201D0B
:100FC000221D50F80B104908490042F80B104BF055
:100FD000010060604FEADB0944F80BB0B9F11F0F64
:100FE00022D805F1280000EBC907B846BBF1100F65
:100FF00038BF00F03BFB286820FA09F1CA0705D486
:10100000012101FA09F10843286006E0B86829695E
:1010100088422CBF804600F029FBBC60C8F80C4019
:10102000C4F80880E7606DE05FEA1B2008BF00217C
:1010300023D0B0F5803F28BF1F211ED2A0F58072BB
:10104000120C02F008029040A0F58051090C01F04A
:1010500004018840A0F580431B0CC2F10E0203F08E
:101060000203521AD21A984002EBD032D01D2BFA4A
:1010700000F101F0010101EB420105F59872002336
:1010800002EB8100E161636123616A6822FA01F386
:10109000DF0707D4012303FA01F1114369600460FB
:1010A000A0611DE002681F291DBF4908C1F1190197
:1010B0000BFA01F1594600E002465068C008C00032
:1010C000584510D002F11003C80F03EB800349000C
:1010D00018680028F0D12869834211D31C60A261EE
:1010E000E460A4600EE0296990688A4228BF8842C3
:1010F00006D3C4609460A060E2600020A06101E0BB
:1011000000F0B4FAE86886420DD2801BA969E86055
:101110008A19AA6140F00100506046F003064E6053
:1011200001F1080801E04FF00008AFF300804046ED
:1011300005B0BDE8F08F002800D170472DE9F047D9
:10114000A0F10805AFF30080DFF81C6531698D421E
:10115000C0F08482686800F00302012A00F07E82F9
:10116000C2084FEAC209C20705EB090839D42C6846
:1011700010F0030F00F06E82604205448D42A144DE
:10118000C0F06C827069854200F0DE80E408202C9B
:1011900072D2D5F80CA0AF68554508BF00F066FACA
:1011A000BD4208BF00F062FA6868C008C000B0EB3A
:1011B000C40F18BF00F05AFA06F1280000EBC40073
:1011C000874205D031698F4253D3FA68AA4250D181
:1011D000BA4540D13068012101FA04F420EA040440
:1011E0003460454580F03A82D8F80440E00740F189
:1011F0003582A10700F18381B069804540F0B78056
:10120000F168B5618944C6F80C9049F00100686046
:1012100071698D4202D100207061B060F169494569
:1012200080F01882DFF83C24106808B9FEF7C2FF8E
:10123000B169002900F00E82F068292824BF3046E9
:10124000FEF7AAFFF069F168884280F003824FF050
:10125000FF30F061FEE1824506D03069824508D357
:10126000DAF80810A94204D1C7F80CA0CAF808702F
:10127000B7E700F0FBF9B4E7EC68AF69AC420BD01C
:10128000A868884222D3C168A94204BFA268AA42C2
:101290001CD1C460A0601BE005F11402146834B9CD
:1012A00005F1100214689CB101E01A46146804F1BB
:1012B00014031868002802BF04F1100318680028FE
:1012C000F3D18A4202D30021116001E000F0CEF98F
:1012D000002F86D0E86906F5987101EB80010A6855
:1012E00095420AD124BB7268012303FA00F022EA76
:1012F000000070600020086073E731698F4214D3EA
:101300003869A84214BF7C613C61002C3FF469AF8E
:1013100031698C42ADD3A761286958B1884226BF94
:101320002061846100F0A2F904E000F09FF9ECE78D
:101330000C60EDE7686900283FF453AF31698842DB
:1013400097D3606184614CE798F8040000F00300D3
:1013500003287FF446AFC6F8089049F00101D8F899
:10136000040040084000C8F8040069600AE07069A1
:1013700080450AD1B16875618944C6F8089049F082
:101380000100686045F8099064E1E408E400A144C4
:10139000E408202C3AD2D8F80CA0D8F80870D04530
:1013A00008BF00F063F9B84508BF00F05FF9D8F84E
:1013B0000400C008C000B0EBC40F18BF00F056F91D
:1013C00006F1280000EBC400874207D031698F4244
:1013D000C0F08880FA68424540F08480BA4507D161
:1013E0003068012101FA04F420EA040434607BE04F
:1013F000824506D03069824574D3DAF80810414539
:1014000070D1C7F80CA0CAF808706DE0D8F80C408D
:10141000D8F8187044450DD0D8F8080031698842D2
:1014200023D3C268424504BFA16841451DD1C460B1
:10143000A0601CE008F114010C6834B908F1100137
:101440000C68A4B101E011460C6804F114021068A4
:10145000002802BF04F1100210680028F3D130699F
:10146000814202D300220A6001E000F0FFF8002F61
:101470003AD0D8F81C0006F5987101EB80010A6893
:1014800090450AD11CBB7268012303FA00F022EADE
:10149000000070600020086026E031698F4213D39D
:1014A0003869404514BF7C613C61ECB131698C42C4
:1014B00018D3A761D8F8100058B1884226BF206120
:1014C000846100F0D3F804E000F0D0F8EDE70C60A0
:1014D000ECE7D8F8140038B13169884202D3606172
:1014E000846101E000F0C2F849F00100686045F84D
:1014F000099071698D420BD1C6F80890AAE0640882
:101500006400C8F8044049F00100686045F809909B
:101510004FEAD907202F22D206F1280000EBC7049A
:10152000A046B9F1100F38BF00F0A0F8306820FADB
:1015300007F1CA0705D4012101FA07F7074337600D
:1015400006E0A068316988422CBF804600F08EF822
:10155000A560C8F80C50C5F80880EC607AE05FEA36
:10156000192008BF002123D0B0F5803F28BF1F21DC
:101570001ED2A0F58072120C02F008029040A0F575
:101580008051090C01F004018840A0F580431B0C38
:10159000C2F10E0203F00203521AD21A984002EB73
:1015A000D032D01D29FA00F101F0010101EB420116
:1015B00006F59872002302EB8100E9616B612B61F3
:1015C000726822FA01F3DC0707D4012303FA01F160
:1015D000114371600560A8611DE002681F291DBFED
:1015E0004908C1F1190109FA01F1494600E0024632
:1015F0005068C008C000484510D002F11003C80F61
:1016000003EB8003490018680028F0D13069834259
:1016100011D31D60AA61ED60AD600EE03169906884
:101620008A4228BF884206D3C5609560A860EA60F8
:101630000020A86101E000F019F8306A401E08D1CE
:101640003062D6F8C80100E080680028FCD14FF075
:10165000FF303062AFF30080BDE8F08700F006F89D
:10166000F8E7000038090020B8040020012000F04D
:1016700025B8B1F5807F02D34FF0FF30704701707D
:10168000012070470078401E8041C043C00F704762
:101690000749086808B1002070470648C008C00024
:1016A00008600549C908C900091A0160704700BFF0
:1016B0005C090020070F00200011002080B5AFF367
:1016C0000080024A11001820ABBEFBE72600020092
:1016D000000000000000000000000000000000000A
:1016E00000000000000000000000000000000000FA
:1016F00000000000000000000000000000000000EA
:1017000000000000E003E003E003E003E003E00387
:10171000E003E003C003C003C001C001C001C00179
:10172000C001000000000000E003E003E00300004F
:1017300000000000000000003C1E3C1E3C1E3C1E41
:101740003C1E3C1E3C1E000000000000000000008B
:101750000000000000000000000000000000000089
:10176000000000000000000000000000CE01CE03D9
:10177000DE039E039C039C07FF3FFF7F3807380F63
:10178000780F780F780EFFFFFFFFF01EF01CE01CB3
:10179000E03CE03DE03900000000000000000000F7
:1017A000FC03FE0FEE1FE01EE01EE01EE01EE01F29
:1017B000E00FE007F003FC01FE01FE01FE01FE0167
:1017C000FE01FE01FE3DFC3FF00FE001E0010000E4
:1017D00000000000033E07F78FE78EE79EE3BCE3BF
:1017E000B8E7F8E7F0F7E03FC001FF03FF07F307B2
:1017F000F30FF31EF33CF338F3787FF03FE0000083
:101800000000000000000000E007F80F780F781FCC
:10181000781F781F780FF00FE00F801FC37FC3FB86
:10182000E7F3F7F1F7F0FFF07FF03EF87F7CFF3F42
:10183000EF1F00000000000000000000E003E003D4
:10184000E003E003E003C003C0010000000000006B
:101850000000000000000000000000000000000088
:101860000000000000000000000000000000000078
:101870003F007C00F001E001C003C0078007800743
:10188000800F000F000F000F000F000F000F800FE0
:1018900080078007C007C003E001F0017C003F0023
:1018A0000F000000007E001FC007C003E001F00130
:1018B000F000F000F80078007800780078007800F8
:1018C0007800F800F000F000F001E001C003C0076C
:1018D000001F007E00780000E003C003C001CE3985
:1018E000FF3F7F3F20037003F807780F3C1F380647
:1018F00000000000000000000000000000000000E8
:1019000000000000000000000000000000000000D7
:101910000000000000000000C001C001C001C001C3
:10192000C001C001C001FFFFFFFFC001C001C00135
:10193000C001C001C0010000000000000000000064
:101940000000000000000000000000000000000097
:101950000000000000000000000000000000000087
:101960000000E003E003E003E003E001E001E00148
:10197000C001800300000000000000000000000023
:1019800000000000000000000000FE3FFE3F0000DD
:101990000000000000000000000000000000000047
:1019A0000000000000000000000000000000000037
:1019B0000000000000000000000000000000000027
:1019C00000000000000000000000E003E003E0036E
:1019D000E003000000000000000000000F000F0006
:1019E0001E001E003C003C0078007800F000F00073
:1019F000E001E001C003C00380078007000F000F73
:101A0000001E001E003C003C0078007800F0000042
:101A1000F007F80F7C1F3E3E1E3C1F7C1F7C0F789A
:101A20000F780F780F780F780F780F781F7C1F7C56
:101A30001E3C3E3E7C1FF80FF00700000000000037
:101A400000000000F000F007F03FF03FF001F0016F
:101A5000F001F001F001F001F001F001F001F001FE
:101A6000F001F001F001F001F001FF3FFF3F000045
:101A70000000000000000000E00FF83F7C3C3C004C
:101A80003E003E003E003C003C007C00F800F001BF
:101A9000E003C0078007000F001E003E003CFE3F31
:101AA000FE3F00000000000000000000F00FF81FE3
:101AB0007C1C3E003E003E003C003C00F800F00F65
:101AC000F80F7C003E001E001E001E001E003E009F
:101AD0007C1CF81FE01F0000000000000000000058
:101AE0007800F800F800F801F803F807F807780F15
:101AF000781E781E783C78787878FFFFFFFF7800B2
:101B0000780078007800780078000000000000007D
:101B100000000000FC1FFC1FFC1F001E001E001E1A
:101B2000001E001EE01FF81FFC007C003E003E006F
:101B30001E003E003E003C007C1CF81FE01F000021
:101B40000000000000000000FC01FE078E0F001FD7
:101B5000001E003E003C003CF83DFC3F3E7F1F7EE7
:101B60000F3C0F3C0F3C0F3C0F3E1F1E3E1FFC0F57
:101B7000F00300000000000000000000FF3FFF3FF6
:101B8000FF3F0F001E001E003C0038007800F000F0
:101B9000F000E001E001C003C0038007800F800F68
:101BA000000F001F001F00000000000000000000E8
:101BB000F807FC0F3E1F1E1E1E3E1E3E1E1E3C1F33
:101BC000F80FF007F80FFC1E3E3E1F3C1F7C0F7CF9
:101BD0000F7C1F3C3E3FFC1FF00700000000000090
:101BE00000000000F007F80F7C1E3E3C1E3C1F7CEE
:101BF0001F7C1F7C1F7C1F3C3F3EFF1FEF071F0009
:101C00001E001E003E003C00F838F03FE01F0000C0
:101C100000000000000000000000000000000000C4
:101C200000000000E003E003E003E0030000000028
:101C300000000000000000000000E003E003E003FB
:101C4000E0030000000000000000000000000000B1
:101C50000000000000000000E003E003E003E003F8
:101C60000000000000000000000000000000E00391
:101C7000E003E003E003E001E001E001C0038003D2
:101C800000000000000000000000000003000F0042
:101C90003F00FC00F003C00F003F00FE003FC00FFC
:101CA000F003FC003F000F000300000000000000F4
:101CB0000000000000000000000000000000000024
:101CC0000000000000000000FFFFFFFF0000000018
:101CD0000000FFFFFFFF0000000000000000000008
:101CE00000000000000000000000000000000000F4
:101CF0000000000000E000F8007E801FE007F8010F
:101D00007E001F007E00F801E007801F007E00F8C3
:101D100000E000000000000000000000F01FFC3F99
:101D20003E381F381F381E001E003C007800F000AF
:101D3000E001C003C003C007C007000000000000AE
:101D4000C007C007C007000000000000000000003E
:101D5000F803FE0F1E1F0F3E7F3CFF78EF79C7731D
:101D6000C7F38FF38FF38FF39FF39FF3FF73FF7B23
:101D7000F779003C1C1FFC0FF80300000000000076
:101D800000000000000000000000E003E003F00796
:101D9000F007F007780F780F7C0E3C1E3C1E3E3C8F
:101DA000FE3FFF3F1F780F780FF007F007F00000AD
:101DB0000000000000000000000000000000F83FEC
:101DC000FC3F3E3C1E3C1E3C1E3C3E3C7C3CF03FEF
:101DD000F83F7E3C1F3C1F3C0F3C0F3C1F3CFE3F2E
:101DE000F83F0000000000000000000000000000BC
:101DF0000000FF01FF07871F003E003C007C0078C9
:101E00000078007800780078007C007C003E003F7D
:101E1000831FFF07FF01000000000000000000001A
:101E2000000000000000F07FFC7F7E781F781F78A4
:101E30000F780F780F780F780F780F780F780F786A
:101E40001F781E787E78F87FE07F00000000000099
:101E500000000000000000000000FF3FFF3F003EC8
:101E6000003E003E003E003E003EFE3FFE3F003E84
:101E7000003E003E003E003E003EFF3FFF3F0000B0
:101E80000000000000000000000000000000FF1F34
:101E9000FF1F001E001E001E001E001E001EFF1F52
:101EA000FF1F001E001E001E001E001E001E001E42
:101EB000001E000000000000000000000000000004
:101EC0000000FE03FF0F871F003E007C007C0078AF
:101ED00000F800F87FF87FF80F780F7C0F7C0F3E3A
:101EE0008F1FFF0FFE030000000000000000000035
:101EF0000000000000001F7C1F7C1F7C1F7C1F7CDB
:101F00001F7C1F7C1F7CFF7FFF7F1F7C1F7C1F7C33
:101F10001F7C1F7C1F7C1F7C1F7C000000000000BA
:101F200000000000000000000000FF3FFF3FE00352
:101F3000E003E003E003E003E003E003E003E00389
:101F4000E003E003E003E003E003FF3FFF3F0000A6
:101F50000000000000000000000000000000FC1F66
:101F6000FC1F7C007C007C007C007C007C007C00F2
:101F70007C007C007C007C0078007800F838F03F22
:101F8000C03F000000000000000000000000000052
:101F900000001F3C1E3C3C3C783CF03CE03DE03FF8
:101FA000C03F803FC03FE03FF03DF03C783C7C3C90
:101FB0003E3C1F3C0F3C0000000000000000000001
:101FC000000000000000003E003E003E003E003EDB
:101FD000003E003E003E003E003E003E003E003E11
:101FE000003E003E003EFF3FFF3F000000000000BB
:101FF000000000000000000000001FF81FFC1FFC94
:102000003FFE3FFE3FFE7FFF77FF77FFF7F7E7F7E3
:10201000E7F3E7F3C7F307F007F007F007F0000076
:1020200000000000000000000000000000000F7C25
:102030000F7C0F7E0F7F0F7F8F7F8F7FCF7FEF7B98
:10204000EF79FF79FF78FF787F783F783F781F78C6
:102050001F780000000000000000000000000000E9
:102060000000F007FC1F3E3E1F7C0F780F780FF832
:102070000FF80FF80FF80FF80FF80F780F781F7C94
:102080003E3EFC1FF00700000000000000000000C2
:10209000000000000000FC3FFF3F1F3E0F3E0F3ED0
:1020A0000F3E0F3E1F3E3F3EFC3FF03F003E003ED6
:1020B000003E003E003E003E003E000000000000EA
:1020C00000000000000000000000F007FC1F3E3E82
:1020D0001F7C0F780F780FF80FF80FF80FF80FF834
:1020E0000FF80F780F781F7C3E3EFC1FF8077C002E
:1020F0003F000F0003000000000000000000F03F60
:10210000FC3F7E3C3E3C1E3C1E3C3E3C3C3CFC3C82
:10211000F03FE03FF03DF83C7C3C3E3C1E3C1F3C29
:102120000F3C000000000000000000000000000064
:102130000000FC07FE1F0E3E003C003C003C003E41
:10214000C01FF80FFE037F001F000F000F001F20AD
:102150003E3CFC3FF01F00000000000000000000BB
:10216000000000000000FFFFFFFFE003E003E003CA
:10217000E003E003E003E003E003E003E003E00347
:10218000E003E003E003E003E003000000000000E0
:10219000000000000000000000000F7C0F7C0F7C9E
:1021A0000F7C0F7C0F7C0F7C0F7C0F7C0F7C0F7CD7
:1021B0000F7C0F7C1E3C1E3C3E3EFC1FF0070000C7
:1021C000000000000000000000000000000007F018
:1021D00007F007F80F780F7C1E3C1E3C1E3E3C1E8D
:1021E0003C1F781F780FF80FF007F007F007E003A7
:1021F000E0030000000000000000000000000000FC
:10220000000003E003F003F007F0E7F3E7F3E7F380
:10221000E773F77BF77FFF7F7F7F7F7F7E7F7E3F48
:102220003E3E3E3E3E3E000000000000000000003A
:1022300000000000000007F80F7C1E3E3E3E3C1FE1
:10224000F80FF007E007E003E003F007F80F7C0F5A
:102250007C1E3E3C1F780F780FF00000000000004D
:102260000000000000000000000007F807780F7C65
:102270001E3C1E3E3C1F780FF80FF007E003E00302
:10228000E003E003E003E003E003E003E003000019
:102290000000000000000000000000000000FF7FC0
:1022A000FF7F0F001F003E007C00F800F000E001FF
:1022B000E003C007800F000F001E003E007CFF7F80
:1022C000FF7F00000000000000000000FF07800703
:1022D00080078007800780078007800780078007C6
:1022E00080078007800780078007800780078007B6
:1022F00080078007800780078007FF07FF0700002F
:1023000000780078003C003C001E001E000F000F0B
:1023100080078007C003C003E001E001F000F00087
:10232000780078003C003C001E001E000F000F00EB
:1023300007000000F07FF000F000F000F000F00077
:10234000F000F000F000F000F000F000F000F0000D
:10235000F000F000F000F000F000F000F000F000FD
:10236000F000F07FF07F0000C000C001C001E0037A
:10237000E003F007F0077807780F380F3C1E3C1E8B
:102380001E3C1E3C0F380F7807780000000000004C
:10239000000000000000000000000000000000003D
:1023A000000000000000000000000000000000002D
:1023B000000000000000000000000000000000001D
:1023C000000000000000FFFFFFFF00000000000011
:1023D000F00000000000000000000000000000000D
:1023E00000000000000000000000000000000000ED
:1023F00000000000000000000000000000000000DD
:1024000000000000000000000000000000000000CC
:10241000F80FFC3F7C3C3E003E003E00FE07FE1FE6
:102420003E3E3E7C3E783E7C7E7CFF3FCF1F0000E0
:102430000000000000000000003C003C003C003CAC
:10244000003C003CF83DFE3F3E3F1F3E0F3C0F3C32
:102450000F3C0F3C0F3C0F3C1F3C1E3C3E3FFC3FE3
:10246000F03B000000000000000000000000000041
:102470000000000000000000FE03FF0F871F003E69
:10248000003E003C007C007C007C003C003E003EA6
:10249000871FFF0FFE030000000000000000000087
:1024A0001F001F001F001F001F001F00FF07FF1F4E
:1024B0003F3E1F3C1F7C1F7C1F7C1F781F781F7CAA
:1024C0001F7C3F3C7F3EFF1FDF0F0000000000002D
:1024D00000000000000000000000000000000000FC
:1024E000F803FC0F3E1F1E3E1F3C1F7CFF7FFF7F3B
:1024F000007C007C003C003E071FFF0FFE03000035
:102500000000000000000000FF01E103C003C0075D
:10251000C007C007FF7FFF7FC007C007C007C00715
:10252000C007C007C007C007C007C007C007C00773
:10253000C0070000000000000000000000000000D4
:102540000000000000000000EF07FF1F7F3E1F3C5F
:102550001F7C1F7C1F781F781F781F7C1F7C3F3CCF
:102560007F3EFF1FDF0F1E001E001E007C38F83F5D
:10257000003C003C003C003C003C003CFC3DFE3F7D
:102580009E3F1F3F1F3E1F3C1F3C1F3C1F3C1F3CEC
:102590001F3C1F3C1F3C1F3C1F3C00000000000074
:1025A00000000000F001F001000000000000000049
:1025B000E07FE07FE001E001E001E001E001E00117
:1025C000E001E001E001E001E001E001E0010000E4
:1025D0000000000000000000F800F800000000000B
:1025E00000000000F83FF83FF800F800F800F8009D
:1025F000F800F800F800F800F800F800F800F8001B
:10260000F800F800F800F000F071E07F003C003CBA
:10261000003C003C003C003C1F3C3E3C7C3CF83C09
:10262000F03DE03DC03FC03FE03FF03DF83C7C3C2A
:102630003E3C1F3C1F3C000000000000000000006A
:10264000F07FF001F001F001F001F001F001F00184
:10265000F001F001F001F001F001F001F001F001F2
:10266000F001F001F001F001F001000000000000B5
:10267000000000000000000000000000000000005A
:102680009EF7FFFFFFFFFFFFE7FBE7F9C7F1C7F189
:10269000C7F1C7F1C7F1C7F1C7F1C7F1C7F1000032
:1026A000000000000000000000000000000000002A
:1026B00000000000FC3DFE3F9E3F1F3F1F3E1F3CB1
:1026C0001F3C1F3C1F3C1F3C1F3C1F3C1F3C1F3C32
:1026D0001F3C00000000000000000000000000009F
:1026E0000000000000000000F007FC1F3E3E1F3C01
:1026F0001F7C0F780F780F780F780F781F7C1F3CA6
:102700003E3EFC1FF007000000000000000000003B
:10271000000000000000000000000000F83DFE3F47
:102720003E3F1F3E0F3C0F3C0F3C0F3C0F3C0F3C0D
:102730001F3C1E3E3E3FFC3FF83F003C003C003C3F
:10274000003C003C00000000000000000000000011
:10275000EE07FE1F7E3E1E3C1E7C1E781E781E78F5
:102760001E781E781E7C3E7C7E3EFE1FDE0F1E0005
:102770001E001E001E001E000000000000000000E1
:10278000000000007F1FFF1FE71FC71F871F001FDC
:10279000001F001F001F001F001F001F001F001F41
:1027A000001F00000000000000000000000000000A
:1027B0000000000000000000FC07FE1F0E1E003E8F
:1027C000003E003FE01FFC07FE003E001E001E0012
:1027D0003E3CFC3FF01F0000000000000000000035
:1027E000000000000000800780078007FF7FFF7F58
:1027F00080078007800780078007800780078007A1
:1028000080078007C007FF03FF01000000000000F1
:1028100000000000000000000000000000000000B8
:102820001E3C1E3C1E3C1E3C1E3C1E3C1E3C1E3CD8
:102830001E3C1E3C3E3C7E3CFE3EFE1FDE0F00006A
:102840000000000000000000000000000000000088
:102850000000000007F00F780F781E3C1E3C1E3E63
:102860003C1E3C1E780F780FF00FF007F007E003D6
:10287000E003000000000000000000000000000075
:10288000000000000000000003F0E3F1E3F3E7F3D1
:10289000F7F3F7F3F77F777F7F7F7F7F7F7F3E3E82
:1028A0003E3E3E3E3E3E00000000000000000000B4
:1028B0000000000000000000000000000F7C1E3E31
:1028C0003C3E3C1FF80FF007F007E003F007F80765
:1028D000F80F7C1E3E3E1F3C1F78000000000000E9
:1028E00000000000000000000000000000000000E8
:1028F00007F80F780F7C1E3C1E3C3C1E3C1E3C1F04
:10290000780FF80FF007F007E003E003C003C003FF
:10291000C0038007800F007F00000000000000005F
:1029200000000000FF3FFF3F1F003E007C00F8005A
:10293000F001E003C007800F001F001E003CFF7F76
:10294000FF7F00000000000000000000FE01E00327
:10295000C003C003C003C003E001E001E001C00107
:10296000C003803F803FC003C001E001E001E001FF
:10297000C003C003C003C003E003FE017E000000EB
:10298000C001C001C001C001C001C001C001C0013F
:10299000C001C001C001C001C001C001C001C0012F
:1029A000C001C001C001C001C001C001C001C0011F
:1029B000C0010000C03FE003E001E001E001E001F0
:1029C000C001C003C003C001E001FE00FE00E00141
:1029D000C001C003C003C001E001E001E001E0016B
:1029E000E003C03F003F00000000000000000000C6
:1029F0000000000000000000000000000000073F91
:102A0000C77FE773FFF17EF00000000000000000C8
:102A10000000000000000000000000002DE9F14F60
:102A2000B2B09946924600230691CDE900333C9A14
:102A30000F930DF14A0114914A7011E0329E5746EE
:102A40002C4617F8011B0698B0470028069000F0A6
:102A500026810F98401C641E0F90F2D13296AA4432
:102A60009AF80000252808D10021002209910A9235
:102A70000B910C920D910E920FE06A464FF0FF31D0
:102A8000504601F013F8050002D10F9800F00EBE79
:102A9000D4D50125E3E741F001011AF8010F202800
:102AA000F9D023280CD02B2804D02D2805D030288D
:102AB00009D00BE041F00201EFE741F00401ECE73F
:102AC00041F00801E9E741F01001E6E72A280FD1BB
:102AD000D9F8002052F8040BC9F800200028119002
:102AE00003D54042119041F004010AF1010A14E0BB
:102AF0001192DFF8543B0AE01198984205DA00EB96
:102B0000800402EB4402303A11920AF1010A9AF869
:102B10000020A2F130000A28EED39AF800002E28F7
:102B200003D04FF0FF32109229E01AF8010F2A2843
:102B300009D1D9F8000050F8042BC9F80000109210
:102B40000AF1010A1BE02D280CBF0AF1010A00203E
:102B500000221092DFF8F02A0BE040B9109B93425C
:102B600005DA03EB830504EB4504303C10940AF1CD
:102B7000010A9AF80040A4F130030A2BEDD3ADF816
:102B800048100FF6C8209AF8001000F099FF08B11D
:102B90001AF8010B8DF84A009DF84A00682805D103
:102BA0009AF8000068280CD1622106E06C2804BF66
:102BB0009AF800006C2804D171218DF84A100AF1AE
:102BC000010A1FA808901AF801BBBBF125012DD0FE
:102BD0001C3900F06381091F022940F25F810E3920
:102BE0002AD0491F00F06684093900F05781891EF8
:102BF00000F0FC84491E00F0A884491E022940F21E
:102C00004D81091F00F0A184491F00F0BC80491EBE
:102C100000F05084491E65D0C91E21D0891E00F0E5
:102C20004984C91E00F0468400F0FFBC25238DF8BE
:102C30007C30012109912AE06C208DF84A00D9F8F6
:102C4000000050F8042BC9F80000002A43D1149961
:102C5000487800283DD04FF0FF340FF6F81012E00E
:102C60009DF84A006C28EAD0D9F8000050F8044BCF
:102C7000C9F800000794D4B91499487898B14FF076
:102C8000FF340FF6EC1000F027FF201A07D132981E
:102C90001FAA04A900F00DFD00287FF5E1AE4FF05A
:102CA000FF3000F003BD0FF6E4100790EFE7109D32
:102CB000002D04D5204600F02FFF044607E02A46E9
:102CC000204600F033FF002814BF041B2C460A9452
:102CD000DDE70FF6BC12329804A900F070FD002861
:102CE000D5D5DCE7D9F8001051F8040BC9F800106D
:102CF00020F00004002121F0FF351FABCDE9044591
:102D00000793DDE9042308993C2413B90AB9109804
:102D1000A8B102F00F053035641EEEB23A2E08DA83
:102D2000120942EA03721B090D5508BF002A02D19D
:102D300005E02735F4E707980D19A842E9D30819EB
:102D40000790C4F13C0210980A92824209DABDF859
:102D50004810821A4FF6EF7001400C92ADF84810FF
:102D600095E7002893D59DF8480000F0140010283E
:102D70008DD1119B09990C985B1A1B1A9A1A002A7B
:102D800085DD0C9283E71499487820B14FF0FF3429
:102D90000FF6001077E79DF84A00622862D0682895
:102DA00019D06A2840D06C2806D071284DD07428DC
:102DB0002DD07A281ED064E0D9F8001051F8040B09
:102DC000C9F8001020B94FF0FF340FF644405AE71D
:102DD0000F9901605BE7D9F8001051F8040BC9F8AE
:102DE000001020B94FF0FF340FF624404BE70F9945
:102DF00001804CE7D9F8001051F8040BC9F8001015
:102E00000028E5D14FF0FF340FF604403BE7D9F836
:102E1000001051F8040BC9F800100028D8D14FF069
:102E2000FF340FF6EC302EE7D9F8001051F8040B00
:102E3000C9F8001020B94FF0FF340FF6D43022E764
:102E40000F9AD317C0E9002321E7D9F8001051F8F1
:102E5000040BC9F800100028F2D14FF0FF340FF630
:102E6000B03010E7D9F8001051F8040BC9F8001081
:102E700020B94FF0FF340FF6983004E70F99017036
:102E800005E7D9F8001051F8040BC9F80010002824
:102E90009ED14FF0FF340FF67830F4E6D9F80020D9
:102EA000D21D22F00702C9F80020D2E90001083241
:102EB000C9F80020CDE90401C80F02D009982D21DE
:102EC0000AE0BDF84800810702D509982B2103E0EC
:102ED000C00705D5099820211FAA1154401C09904C
:102EE0001FA80999DDE9044543184BF0200061282B
:102EF000079315AE0BD01098002802D5062010902D
:102F000005E001BF4BF02000672801211091DDE9A9
:102F1000040148004015401C0A4611D109030FD096
:102F2000ABF1610703201A2F0A9002D20FF6F821A5
:102F300001E00FF6F8210322184600F023FEA6E672
:102F400050B9120308D1ABF1610703201A2F0A9080
:102F500018D30FF6E021EEE7DDE9040102AA00F044
:102F600065FECDE904014BF02000612811D10798DE
:102F700030210170821CBBF1610F07920CBF7821D8
:102F8000582102E00FF6A821D5E741700998801C6E
:102F90000990DDE9040120F0000231F0004308BF90
:102FA000002A02D10025002446E14BF02008B8F1A8
:102FB000610F40F095801098002847BF21210391B0
:102FC000401C0390039F7F1C2046294600220023BB
:102FD000DDE9044500F062FE02998DF8542038BF07
:102FE00085F00045091F002F02910DF1550034DDD9
:102FF0000646204629460022002300F069FE2BD217
:103000001C2200F07FFE04460D4600F019FFFF1F52
:10301000002F804609DD00F02FFF02460B462046B8
:10302000294600F0F1FF04460D46F01D0721B8F1D6
:10303000000F0CDD491E5EBF08F00F0200F8012DE5
:103040004FEA2818F3D502E0002200F8012D491EAE
:10305000FAD5C61D002FCCDC30460DF15501401AC3
:10306000039905468842C8BF0D46002D0DF155064F
:103070002FD4854206DA0DF15500415D0829A8BF1D
:103080000F2000DA0020294615AA0A4400E06D1E30
:1030900012F80139491E8342F9D00F2804D10DF1ED
:1030A0005500425C521C4254002904D50298001D70
:1030B00015AE6D1C0290681E0BD431180A783032A0
:1030C000D3B23A2BA4BF5A443A3A401E01F8012920
:1030D000F4D51098002840F1AE80691E1091AAE046
:1030E0000299DFF8EC2847F29750414391FBF2F246
:1030F000029225F00045C2F10702002A04DD2046B5
:10310000294600F042FC0BE052420020DFF8C418D0
:1031100000F03BFC02460B462046294600F0E6FF45
:103120000446B8F1660F109806BF029F0A370627BB
:103130003F18142FC8BF142730208DF854000D46B7
:103140000020DFF89418CDE92E010DF15506002F6F
:1031500033DD2046294601F0EDF801460A4606F126
:10316000080304200A26B2FBF6F606EB860EA2EB55
:103170004E02303203F8012C0A22B6FBF2F202EBC7
:10318000820EA6EB4E063036401E03F8026DE9D1E2
:10319000083F002F03F10806D9DD084601F0DCF8EE
:1031A00002460B462046294600F02EFFDDE92E237D
:1031B00001F0E0F804460D46CBE70DF15500301A5A
:1031C0000DF1550604E00299491E401E0291761C3D
:1031D00031783029F7D0B8F1660F02D10299491C35
:1031E00004E0B8F1650F0CBF01210021109D4D19BD
:1031F000A842B8BF451E002D1DD4854204DA705D7B
:103200003428C8BF392000DC30202946721E5318EC
:1032100000E06D1E13F80149491E8442F9D0392897
:1032200002D1705C401C7054002904D50298401CE7
:1032300016466D1C0290029C00F03CFC406A077828
:10324000DDF8408028B2002802DC01250FF2E87684
:103250004BF02000662808BF641C16D0672846D1B2
:1032600020B210F1040F48DB404546DA9DF84800D3
:10327000641C010703D428B24045D8BF804620B261
:10328000B8EB000848BF4FF000080FFA84FB07981E
:103290000A99BBF1000F00F3B3804A1C0A92302355
:1032A0004354B8F1000F03DC9DF84800010704D532
:1032B0000A98411C0A9107990F5418EB0B0FB8BFDD
:1032C000C8F1000424B260420D90A0442AB2904597
:1032D000B8BF4546079B0A982DB20B952A46314642
:1032E000184400F04FFCA8EB05000E90CCE0BBF1B9
:1032F000610F17D14FF0700B19E028B2404504DA86
:103300009DF848100A0758BF8046B8F1010848BF29
:103310004FF00008BBF1670F14BF4FF0450B4FF0A3
:10332000650B04E0BBF1410F08BF4FF0500B0A984A
:10333000411C0A91B8F1000F079916F8012B0A54A5
:1033400003DC9DF8480001071AD50A98411C0A9130
:10335000B8F1000F07990F5412DD6D1E28B2804599
:1033600007980A9BB8BF45462AB23146184400F078
:1033700009FC0A992DB269180A91A8EB05000D9075
:1033800007980A99084421B2002980F800B003D4B4
:103390002B224270821C04E02D2242700C46821CBB
:1033A000644200212EAB20460AE004460A2094FB2A
:1033B000F0F000EB8005A4EB450403F8014B491C39
:1033C00000B20028F1DC012906DC4BF02000652862
:1033D00004BF302002F8010B00292EAB08D13020A9
:1033E00002F8010B06E0491E585C303002F8010B70
:1033F0000029F8DC07990A980844121A0B9243E056
:10340000084429B222B2914219DA2AB2314600F0B8
:10341000B9FB0A992DB269180A91ABEB0500B8F116
:10342000000F0D9003DC9DF84800020704D50798B3
:1034300047540B99491C0B91CDF8388024E0314654
:1034400000F0A0FB0A982D1B5844B8F1000F0A9019
:1034500003DC9DF848100A0703D5411C0A9107991F
:103460000F5428B2804507980A9BB8BF45462AB238
:1034700006EB0B01184400F085FB0A982DB22818C2
:103480000A90A8EB05000D909DF8480000F014008C
:1034900010287FF4FCAB099A0A990D988A180B99A9
:1034A00082180E988A18821811988242BFF6EFABE4
:1034B000821A66E49DF84A00622808D068280ED077
:1034C0006A2814D06C281FD0712810D01CE0D9F8BD
:1034D000001051F8040BC9F80010C0B21AE0D9F876
:1034E000001051F8040BC9F8001080B212E0D9F8AE
:1034F0000020D21D22F00702C9F80020D2E9000105
:103500000832C9F8002006E0D9F8001051F8040B81
:10351000C9F800100021CDE904019DF84800010719
:103520005AD5DDE90423002B08BF002A54D04BF004
:103530002000782850D109981FA930220A54401C35
:10354000431C099301F800B046E09DF84A00622848
:1035500008D068280ED06A2814D06C281FD0712893
:1035600010D01CE0D9F8001051F8040BC9F8001075
:1035700040B21AE0D9F8001051F8040BC9F8001055
:1035800000B212E0D9F80020D21D22F00702C9F8DB
:103590000020D2E900010832C9F8002006E0D9F87D
:1035A000001051F8040BC9F80010C117CDE904014F
:1035B000002902D509982D210AE0BDF848008107AD
:1035C00002D509982B2103E0C00705D509982021D1
:1035D0001FAA1154401C09901FA809990144079182
:1035E00004A8594600F04BF9FFF751BB9DF84A007B
:1035F0006C280BD001210991D9F8000050F8041B68
:10360000C9F800008DF87C10FFF741BBD9F8000025
:1036100050F8041BC9F8000002914FF0FF321092DD
:103620000021039102AAFFF756BB25210122BBF11D
:10363000000F8DF87C1009923FF429AB8DF87DB016
:103640000221FFF7F7BA0000CBCCCC0C686A6C748F
:103650007A4C00007072696E74665F733A20626122
:103660006420256C7320617267756D656E7400004F
:103670007072696E74665F733A20626164202573AC
:1036800020617267756D656E7400000000000000B7
:10369000000000007072696E74665F733A20256ED8
:1036A00020646973616C6C6F7765640033B0BDE84A
:1036B000F08F2DE9FC410F46064690467A6B7869FB
:1036C000396ABC6A121AB869521A796A121AF86908
:1036D000521A121A97F83800141B41070FD42020F1
:1036E000002C8DF800000ADD254601236A46394684
:1036F000304600F075F900285DD16D1EF5D17B696B
:1037000042463946304600F06BF9002853D130204C
:103710008DF800003D6A002D09DD01236A46394617
:10372000304600F05DF9002845D16D1EF5D1BB692A
:10373000FA683946304600F053F900283BD1302072
:103740008DF800007D6A002D08DD01236A463946A8
:10375000304600F045F970BB6D1EF6D1F868B969C6
:10376000FB6942183946304600F03AF918BB302060
:103770008DF80000BD6A002D08DD01236A46394638
:10378000304600F02DF9B0B96D1EF6D197F838002B
:1037900041070DD52020002C8DF8000008DD012305
:1037A0006A463946304600F01BF920B9641EF6D14E
:1037B0000020BDE8F6814FF0FF30BDE8F6812DE92D
:1037C000F8470D46A3B02F6B002F8246904648BFA6
:1037D0006FF0004700F0A3FE696B401801AA0021BA
:1037E000C2E90011812828BF4FF0FF3044D289463A
:1037F0001EE0A74230DB6869201881280BD3002126
:10380000696303AA29465046FFF753FF5FEA0009A0
:1038100022D40020686103AB6E692246694698197C
:1038200000F0B0F9A6196E6158F8040BA0B13F1B67
:10383000002F11DDD8F8001001AA684600F038F911
:103840000446002C05D4D8F800000028D1D1641E0D
:10385000CFD54FF0FF390EE0B9F1000F504604D13B
:1038600003AA2946FFF725FF8146B9F1000F02D1CF
:10387000002068616863484624B0BDE8F0872DE900
:10388000FC4304466F29256908BF082605D041F08E
:103890002000782814BF0A2610263C27D4E90023EC
:1038A000642918BF69299046994605D1002B03D594
:1038B000D8F1000869EB4909B9F1000F08BFB8F168
:1038C000000F0CD1206B50B9082E3AD194F8380073
:1038D000010736D530203B2785F83B0031E08DF8D5
:1038E0000010404649463246F31700F01DFE3032C4
:1038F000D0B27F1E3A2801970EDAEA554046494673
:103900003246F31700F010FE80465FEA010908BF57
:10391000B8F1000F05D108E09DF800001218513AE7
:10392000EBE7E068E9198842DBD3082E09D194F867
:103930003800010705D5E85D302802D07F1E302011
:10394000E855C7F13C02A261E919E160206B8242AF
:1039500008DA821A22624FF6EF70218F0140218728
:10396000BDE8F38300280ED594F8380000F0140069
:10397000102808D1636B6169206A5B1A1B1A9A1AB6
:10398000002AC8BF2262BDE8F3832DE9D043064672
:103990000F4614464FF00008DFF8409012E0E007B1
:1039A00007D542464B463046394600F0E3FC064612
:1039B0000F464046494642464B4600F0DBFC641049
:1039C00080468946002CEAD130463946BDE8D0838E
:1039D000A08601000000F03F84D7974100002440FA
:1039E000F8B505460E4617461C4600205CB117F890
:1039F000011BB068A847B06030B1F06A401CF062AB
:103A00000020641EF3D1F2BD4FF0FF30F2BD000084
:103A10007072696E74663A2062616420256E20615E
:103A20007267756D656E74006E616E004E414E007A
:103A3000696E6600494E460030000268531C036000
:103A4000117070471C48704770B45368D41801E077
:103A50005B1C491E042B08DA00291FBF057804F8F7
:103A6000015B10F8016B002EF2D1536070BC7047FF
:103A700038B514461D4661B1FFF7E6FF61686A6B11
:103A8000204690476FF00102811A02D0491E01D0F2
:103A900001E003E005E00021616032BD6FF001004C
:103AA00032BD4FF0FF3032BDDA6B1047024BDFE71B
:103AB000014BF9E701487047500000201800002032
:103AC000C9B202788A421AB11CBF10F8012FF9E777
:103AD00018BF002070472E0080B500B906A0054928
:103AE0000B681BB122220021984701E0FDF7BEFDC3
:103AF000222002BD58090020636F6E7374726169E1
:103B00006E742068616E646C65723A206261642034
:103B10006D6573736167650000F1010310F8011BA7
:103B200011B110F8011BFBE7C01A7047C9B2830737
:103B300006D0521E22D310F8013B9942F7D11FE064
:103B4000083A13D302F1040241EA012141EA01419A
:103B500050F8043B121F21BF4B40A3F1013C2CEA5B
:103B6000030C1CF0803FF3D0C9B2001F083210F8DC
:103B7000013B521E28BF91EA030FF8D818BF01205D
:103B8000401E704762B38B0708D0521E11F8013BEC
:103B900000F8013B00F024808B07F6D1830740F04A
:103BA000208000BF103A07D330B4B1E83810103A83
:103BB000A0E83810F9D230BC530724BFB1E8081090
:103BC000A0E8081044BF51F8043B40F8043BD2077A
:103BD00024BF31F8022B20F8022B44BF0B7803706E
:103BE0007047121F17D35B0009D151F8043B20F82E
:103BF000023B1B0C121F20F8023BF6D20BE051F8DF
:103C0000043B00F8013B1B0A20F8023B1B0C121F6F
:103C100000F8013BF3D238BF121D521E24BF11F829
:103C2000013B00F8013BF8D87047430010B514463B
:103C300000F002F8226010BDC1F30A5343B14A00FC
:103C400012F5001F28D2A3F2FE32A1EB02517047F9
:103C500050EA410C20D001F0004C31EA0C01B1FADD
:103C600081F204BFB0FA80F3D2180B3AB2F120030C
:103C70002CBF00FA03F1914041EA0C013EBFC2F1B2
:103C8000200C20FA0CF319439040524240F2FD33CD
:103C9000D21A01EB035170470022704741EA030C2E
:103CA00050EA4C0C52EA0C0C4FF4001C09D307D01C
:103CB0001CEB410F9CBF1CEB430F8B4208BF8242A1
:103CC00070471CEB430FFBD8994208BF90427047E6
:103CD00041EA030C50EA4C0C52EA0C0C4FF4001C65
:103CE00009D307D01CEB410F9CBF1CEB430F99423B
:103CF00008BF904270471CEB410FFBD88B4208BFB6
:103D000082427047124254D440F2FF7C1CEA1153A5
:103D10000FD0634531D09B1863453CBF01EB025186
:103D2000704701F0004141EA0C510020AFF30080E0
:103D3000704750EA410320D001F0004C91EA0C0199
:103D40001CD0B1FA81F30B3B9A420DD9D21A99409B
:103D500051EA0C01C3F1200C20FA0CFC614498409C
:103D6000531C40F2FF7CD7E7914041EA0C01C2F1BD
:103D7000200C20FA0CF3194390407047B0FA80F3FE
:103D80001533202BE0D3202AEED3203A203B9A4251
:103D900009D9D21A00FA03F141EA0C010020531CA0
:103DA00040F2FF7CB8E700FA02F141EA0C01002082
:103DB0007047524240F2FF7C1CEA11530DD063451C
:103DC000DBD0B2EB030C3CBFA1EB025170470CF10E
:103DD000010221EA035141F4801150EA410CCCD098
:103DE00001F0004C352A27DC30B481EA0C01B2F135
:103DF000200309DAC2F12003044601FA03F5D0409A
:103E00002843D1409C400CE0C3F12002450020FA39
:103E100003F418BF44F0010421FA03F091400C436D
:103E2000002174F1004550F1000051EB0C012442D7
:103E300030BC7FF47BAF70476146002076E77600A8
:103E4000C1F30A5340F21E42D31A0CDDCA0283F3B7
:103E5000070342EA505242F00042DA4002EBE172BC
:103E600082EAE17070476FEAE17203F2E13008B173
:103E700082F000407047000010F0004160B148BF80
:103E80004042B0FA80F29040D21CC2F5846241EA0E
:103E9000025202EBD021400570470000841A71EBFA
:103EA000030604D26E40001BB141121973414FF456
:103EB000001C1CEB410F34BF7CEB430683E00C0D70
:103EC000A4EB1356362E00F37C80012E45EAC32363
:103ED00041DC43EA525312BFD20292025B0824052E
:103EE00045EAC12141EA5051D2EBC020994125D485
:103EF00007D1B0FA80F610FA06F162D00020203621
:103F000008E0B1FA81F6B140C6F1200220FA02F2CF
:103F10001143B0404FEAF474B4EB465434F0010658
:103F20004FEA74040AD8D6F50016760D04F0004462
:103F3000F04061FA06F25040F1404840C00A40EAC1
:103F4000415021F0004128BF5FEA500550F10000C8
:103F500044EBD12135E0DB0A45EAC121C90AB6F1BB
:103F600020050EDD42EA0242120CC5F1200603FADA
:103F700006F6EB4042EA06056D42984161F1000108
:103F80000DE062FA06F5F240554063FA06FC82EA5B
:103F90000C02F3405A406D42904161EB030111F471
:103FA000801F05D1641E620502D06D004041494169
:103FB00021F48011430875F1004350F1000041EBFA
:103FC000045170BC70471CEB410F15D223F0004325
:103FD00052EA43060BD04FEA4C0CBCEB410F04D81D
:103FE0000C0D661E342EB7DDEBE7801A994150EABE
:103FF000410608BF0021E4E708BF1CEB430F28BFC0
:104000006FF00001DDE7000070B491EA030F4FF09C
:1040100000457FF543AF6B40841A71EB030603D272
:10402000001BB141121973414FF4001C1CEB410FEE
:1040300034BF7CEB430442E00C0DA4EB1356352E49
:104040004FDC45EAC323DB0A45EAC121C912B6F1B8
:1040500020050DDD63FA05F6EB4086EA0305124202
:1040600018BF45F00105C01851F100010CD213E052
:1040700062FA06F5F2405540F3415A40B340F3402E
:104080005A408018594107D349085FEA30005FEA77
:10409000350528BF45F0010501F58011420875F18D
:1040A000004250F1000041EB04514E0016F5001F94
:1040B00070BC38BF70470020090D090570471CEB24
:1040C000410F10D252EA43060BD0BCEB410F05D88A
:1040D0000C0DAB43661E342EB6DD02E0AB438018F8
:1040E000594170BC704770BC70470000F0B540F299
:1040F000FF7581EA030C0CF0004C15EA11541DBF4A
:1041000015EA1357AC42AF42E5E0BC41C1F31301DD
:10411000C3F31303801A994143F4801304D2641E3D
:104120000018494180185941C90241EA5051B1FB78
:10413000F3F603FB1611A2FB0675D7EBC020A941CD
:1041400002D2761E80185941C90241EA5051B1FB92
:10415000F3FE03FB1E11A2FB0E75D7EBC020A94195
:1041600003D2AEF1010E80185941890241EA905103
:10417000760546EA8E2EB1FBF3F603FB1611A2FB81
:104180000675D7EB8020A94102D2761E80185941CE
:10419000C90241EA50514EEA060EB1FBF3F603FBA9
:1041A0001611A2FB0675D7EBC020A94102D2761EDC
:1041B00080185941C90241EA5051B1FBF3F703FBA2
:1041C0001711A2FB0735D3EBC020A94167F1000707
:1041D0000CBF004247F0010766F3D5274FEA1E31B6
:1041E000B80814F5806412DDBD0775F1004250EB8C
:1041F0000E5051EB045111F5801F5CBF41EA0C01D8
:10420000F0BD4CF07F6141F0E0410020F0BDBD0702
:104210006D0840EA0E5041F48011D4F10104B4F16C
:1042200020060ADAC4F120060200E04001FA06F393
:10423000E1401843B24015430EE0342C13DCC6F1C4
:10424000200445EA40056D0820FA06F2154321FADC
:1042500006F0A1400D43002175F1004250F100002D
:1042600051EB0C01F0BD00205FEA0C01F0BDCFB9AD
:1042700092185B41B3FA83F704BFB2FA82F6BF1912
:104280000B3FB7F120062FBF02FA06F3BB40C7F180
:10429000200622FA06F638BF3343BA401CB1E419AF
:1042A000641E33E77F4231F00041B1FA81F404BF6C
:1042B000B0FA80F6A4190B3CB4F120062FBF00FA27
:1042C00006F1A140C4F1200620FA06F638BF3143BA
:1042D000A0403C1B1AE7AC421ABF05EA1357AF4295
:1042E00012E050EA41061CBF52EA4306BFE750EA1B
:1042F0004107304661461CBF41EA0551F0BD52EA14
:10430000430C08BFC143F0BD00204FF4001616EB6C
:10431000410F98BF16EB430F08BF16EB410F24BFA8
:10432000C14305E016EB430F0CBF61464CEA055153
:10433000F0BD0000400D40F21E4C40EAC120BCEB35
:10434000115C40F0004003D48CF30701C840704773
:104350006FEAE1707047000050B1B0FA80F1884018
:10436000C91CC1F58461090501EBD02140057047E6
:104370000146704730B540F2FF7C1CEA11541DBF66
:104380001CEA1355644565453FE0641981EA030C56
:104390006FF35F530CF0004C43F48013C90241F0FB
:1043A000004141EA505EC5021100A5FB020200284F
:1043B0004FF00000EEFB01204FF00001E3FB052170
:1043C00018BF42F00102401800214941E3FB0E01F1
:1043D000A4F580640D0302D292184041494154F182
:1043E000010470DD450872F1004250F1000051EB0C
:1043F0000451A1F5801102D441EA0C0130BD40F214
:10440000FF7E4CEA0E51002030BD0CEA1355644586
:1044100018BF654581EA030C0CF0004C41D050EA0E
:10442000410E1CBF52EA430E02E06146002030BD3F
:1044300024422C441BD15FEA050EF6D0090302BFCB
:1044400001460020AEF1140EB1FA81F5AEEB050481
:1044500001FA05FE0C35C5F1200100FA05F5C8404A
:104460004EEA000E6FF35F5343F480139CE733F082
:104470000043B3FA83F504BFB2FA82FE75440B3DE4
:10448000641BB5F1200E2FBF02FA0EF3AB40C5F14D
:10449000200E22FA0EFE38BF43EA0E03AA40641C27
:1044A0007CE750EA410E14BF52EA430E6FF0000160
:1044B0004FF4001515EB430F8EBF194615EB410F56
:1044C0009DE7B4D830BDD4F10104B4F120050FDA72
:1044D000C4F12005520828BF42F0010210FA05FE7F
:1044E00001FA05F57244E2BFE0402843E1400FE0E5
:1044F000352C9ADCC5F1200452EA400220FA05F27C
:1045000018BF42F0010231FA05F0A1400A43002130
:1045100072F1004250F1000051EB0C0130BD80B54A
:10452000FFF790FA006C02BDD3BBD9B1B2F5803F62
:104530005BD2022A1ED98C46B1FBF2F102FB11C3F9
:104540001B0443EA1043B3FBF2FC02FB1C3380B2B2
:1045500040EA0343B3FBF2F002FB103240EA0C40A6
:1045600000237047022A05D98446B0FBF2F002FB13
:1045700010C270474AB105D100F0010249085FEA54
:104580003000704700220023704700F051B80B0044
:104590000200002100207047F7D30022002370475B
:1045A000904271EB030CF2D370B5B1FA81F4B3FA17
:1045B00083F52C1BA340C4F1200532FA05F63343E2
:1045C000A2405FF00046E64002E05B085FEA32028C
:1045D000841A71EB030524BF204629467641F4D3A3
:1045E00002000B003000002170BD70B5B1FA81F4FB
:1045F000B2FA82F5C4F120046419B4F12006DAD3CA
:10460000B2405FF00044F440002502E052085FEA47
:104610003303C61A71EB020E24BF30467146644163
:104620006D41F3D302000B002000290070BD000093
:104630007047000000231DE001231BE0022319E066
:104640000146087A68B9487A08B9B02070474A68C4
:10465000121D401E4A604872042052F8043D0B604F
:104660000872087A421E0A720A68100E12020A6064
:10467000704700002DE9F94F87B090460022049260
:104680000C460798002818BF012810D0022840F0D7
:104690008E81A06BA064E66B276C089802280FD16E
:1046A0003D68002D46D0D7F804B008370EE094F8E6
:1046B0005000E66CC1073DD40898002833D1371D5F
:1046C0003D88002D36D0B7F802B03F1D4FEA4B00B1
:1046D00000F0020005F0010108430328DDD8DFE8FF
:1046E00010F005004800BD006601D6E707980028D5
:1046F0003DD0A06C834405A8009000230F22002128
:10470000404600F0F1FA0598584530D35D44A84280
:104710002DD2A06CA063E663391D2164204600F011
:10472000BFFCF0B943E13168301DC1F3074100EB34
:104730008107B2E730680190321D08980292002884
:1047400040F0078100218DF80D1003220199090224
:10475000019145469DF813809DF812908DF80C202C
:1047600019E13868400007EB60070497DDE03F1D62
:1047700093E7079800284CD1A06C05A900918344C9
:1047800000230F220021404600F0AEFA059858455C
:1047900062D35D446D1EA8425ED2786810F1020FAC
:1047A00000F0058110F1010F10D104F158000590BF
:1047B00004A9009100230D220021404600F094FA44
:1047C00004982062E762059860627FE03A680146DB
:1047D00005ABD20F204600F0DAFC00283CD00228BE
:1047E000E6D104A8009000230D220021404600F0ED
:1047F0007BFA04982062E76204F128010598A06220
:104800006162042204F1580104F12800AFF3008032
:104810005CE005A8009000230D220021404600F036
:1048200063FA206A0599884204BFE26ABA4213D14A
:104830003968490007EB61000490002304A8009048
:104840000F220021404600F039FA04A80494009099
:104850000023002200216DE008371EE7D7F800A0F2
:1048600007982AF0004998BBA06C05A9584400910C
:10487000A0F1010B00230F220021404600F034FA82
:10488000059858455BD35D44A84258D20025B9F13C
:10489000000F07F1040B0CD05BF8041B6B460022E1
:1048A000204600F074FC10B96D1C4D45F4D34D4505
:1048B00045D104A8009000230D220021404600F0BD
:1048C00013FA04982062E762002060620620F1E19A
:1048D00005A8009000230D220021404600F004FAB4
:1048E000206A0599884204BFE06AB84227D10021B6
:1048F000E1620420391DCA45C4F828902063616331
:1049000003D101208DF811001BE001EB8905002384
:1049100028680494400005EB600504A8009000227C
:104920000021404600F0CAF9049504A80090002335
:104930000F220021404600F0C1F90720BAE1CA4524
:1049400001D1002000E00420391D00EB89000F1880
:10495000A3E601980199000C09048DF80D0001915E
:104960000222F6E6402E40DA05A8009000230D2230
:104970000021284600F0B8F9B600059806F0FC06BC
:10498000361D3618059605A8009000230D2200213B
:10499000284600F093F901A8FFF752FE0646B02E14
:1049A000E0D1B8F1000F19D1B9F1000F01D1092000
:1049B00080E105A8009000230E220021284600F087
:1049C00093F90598069006A9009100230F22002173
:1049D000284600F073F901208DF810009DF81100B1
:1049E000002840F03D81082064E17F2E0EDC05A800
:1049F000009000230D220021284600F075F9B60032
:104A0000059806F0FC06361D861BBBE7902E19DACA
:104A100001A83603FFF714FE06F4704656EA0016A6
:104A2000C5D0002332460021284600F073F9002843
:104A3000BDD1300448BF4FF001087004ABD54FF032
:104A40000109A8E7A02E11DA06F00F060D2E18BFF7
:104A50000F2EACD005A80090002332460021284636
:104A600000F042F90599009105918CE7B02E16DA15
:104A700006F007020120521C00FA02F2521E120137
:104A8000300744BF42F480424FF001090023002167
:104A9000284600F03FF900283FF47DAF87E7B82EA5
:104AA00064DAB12E12D101A8FFF7CAFD00283FF445
:104AB0007EAF0F283FF67BAF024600230021284639
:104AC00000F028F900283FF466AF70E7B22E36D127
:104AD0000026002100E0C91D9DF80C0080B99DF85A
:104AE0000D0058B1401E8DF80D0002980268019229
:104AF000031D042202938DF80C2001E0B02009E090
:104B00009DF80C00421E8DF80C20019A01981202AB
:104B1000000E019200F07F028A4016430006DAD4AC
:104B200005A9009100230D220021284600F0DCF8A1
:104B3000059800EB860000F50170059023E7B32E81
:104B40007FF435AF01A8FFF77BFD010300F00F00F4
:104B500001F47021401C40EA010201230121284692
:104B600000F0D8F800283FF416AF20E7C02E0DDA89
:104B700006F00706761C012346F400220121284690
:104B800000F0C8F800283FF406AF10E7C82E38DA66
:104B9000C72E12D101A8FFF753FD00283FF407AF3D
:104BA0000F283FF604AF024600230421284600F0F8
:104BB000B1F800283FF4EFAEF9E6C62E13D101A8F4
:104BC000FFF73EFD010300F00F0001F47021401CCF
:104BD00040EA010203230321284600F09BF8002845
:104BE0003FF4D9AEE3E606F00706761C032346F44D
:104BF00020220321284600F08DF800283FF4CBAE98
:104C0000D5E618BFC92E17D101A8FFF719FD01037A
:104C100000F00F0001F47021401C0843C82E08BFAB
:104C200000F58010024605230121284600F072F8A5
:104C300000283FF4B0AEBAE6D02EFFF6B8AED82EBC
:104C4000BFF6B5AE06F00706761C052346F4002233
:104C50000121284600F05EF800283FF49CAEA6E64D
:104C600005A800900594002300220021284600F0AA
:104C700025F89DF8100088B904A9009100230F229F
:104C80000021284600F030F80498059005A900910D
:104C900000230E220021284600F010F8044804905A
:104CA00004A9009100230F220021284643E60000BA
:104CB0000000000009B0BDE8F08F0000042910D802
:104CC000DFE801F0030D0F0D0D0053B9102A08D2D3
:104CD0000099096800EB82004160002070470120C4
:104CE0007047022070470000042910D8DFE801F067
:104CF000030D0F0D0D0053B9102A08D200EB8200EE
:104D0000009942680A600020704701207047022025
:104D1000704700002DE9F0470429C0B00746164649
:104D2000984660D8DFE801F003175F6C6C00B8F1BB
:104D3000000F58D1B86B391DB6B2320006E0F30748
:104D400044BF50F8044B0C60091D7608F7D191045C
:104D500054D4B86352E04FEA164ABAF1100F1FFA62
:104D600086F9AD41ED0F09EB0A00102894BF00242D
:104D70000124B8F1010F34D0B8F1050F33D1212847
:104D800031D245B13878012805D10021397007F1B9
:104D9000480000F0B9FA44B17878012805D1002123
:104DA000797007F1C80000F0B3FA15B1684600F059
:104DB000ABFA14B120A800F0ABFABB6B30040BD0F7
:104DC0006A4602EBCA064A46D3E90001C6E9000179
:104DD00008330836521EF7D1B8F1010F05D11B1D5B
:104DE00003E0002CCDD002200BE0BB6315B1684678
:104DF00000F090FA14B120A800F090FA002000E032
:104E0000012040B0BDE8F087324A0068D2F804C003
:104E100001F108036244934206D08B6801F1080255
:104E20005B0002EB630201E04FF0FF320B685B00B6
:104E300001EB6301884202D24FF0FF30704790428D
:104E40008041C043C00F704733B581B0044621484C
:104E5000016842680144024402981F4D0095801E7B
:104E60000290521AD210082302A800F097FA20B339
:104E70000168490000EB6102A264416801291CD06D
:104E8000002902D5001D012104E0001D490000EBAE
:104E900061000021E0642165E06C0168002911D502
:104EA000C1F3036008B90D480FE0012808BF0C48A2
:104EB0000BD0022808BF0B4807D00020606103B068
:104EC000092030BD490000EB6100606103B00020A3
:104ED00030BD000038880008094E0008354600083B
:104EE000394600083D4600082DE9F04D0446D2B091
:104EF000E0680D4610B90121E1601DE05820FBF784
:104F00008FF9002860D004F10C0292E8C85000F13B
:104F10000C0100F1200881E8C85004F1200797E84F
:104F20004E0C88E84E0C04F1380797E80C5000F15D
:104F3000380181E80C50E060291DE86B28644022AC
:104F400001A8FEF72FFE01218DF800108DF8011049
:104F500010992046FFF778FF40B963696A462146F9
:104F60009847062811D00828F2D01FE09DF80000CD
:104F700010B912A800F0CEF99DF8010010B932A8BE
:104F800000F0CCF900F03FFA1EE09DF8000010B9E7
:104F900012A800F0BFF99DF8010010B932A800F086
:104FA000BDF92946204600F013F80EE000F02BFA78
:104FB0009DF8000010B912A800F0ACF99DF80100AE
:104FC00010B932A800F0AAF9092052B0BDE8F08D5E
:104FD00038B504460D4602E0281D00F0AFF9296CF3
:104FE0002046FFF731FF08B1FCF740FB286C6369EE
:104FF00020612A462146012098470728ECD008283E
:10500000EDD0FCF733FBEAE738B504460D462369DB
:105010002B642A466369214602209847072804D159
:10502000281DBDE8324000F089B9082804D129467E
:105030002046BDE83440CBE7BDE83140FCF716BB65
:105040002DE9F04E0446E06808B9FCF70FFBE06874
:10505000012803D10020E060BDE8F08E00F10C02D1
:1050600092E8E81004F10C0104F1200E81E8E81048
:1050700000F1200595E80E0E8EE80E0E00F13805C1
:1050800095E8C210383484E8C210BDE8F04E00F054
:10509000CFB901468A68002A1CBF0120104770471B
:1050A00038B5044600F0D2F90546204600F006FA6D
:1050B000022807D1A869214600F024FA016A491C98
:1050C000016201E0A4F12800016A012902D1A96965
:1050D000C161A861012032BD70B500F0B7F9054685
:1050E000AC690CB900F02CFA04F12806304600F047
:1050F000E5F902280DD1206A6668012806D1E06929
:10510000A86104F1800000F02AFA07E0401E206246
:1051100004E0206A012804BFE069A861304670BD40
:1051200010B50C4600F092F9A4F12002116951B9B2
:10513000116811B104F15800884704F15800BDE826
:10514000104000F00CBA9169491E91610268521E2C
:10515000026010BD70B504460D46164600F03EF9DB
:10516000A4F1800061490163456001210162016091
:10517000866000F06BF9583C0168491C01602046CC
:1051800000F0EAF82046BDE8704000F00FBA2DE9C3
:10519000F04F85B08246894616461F4600F08EF9CC
:1051A000022800F09F80AAF1280B0024DBF80400FD
:1051B00001900AF15805504600F080F9012808BF17
:1051C000DBF800504A4A0295009204974FF001081C
:1051D000019F06E0FF68D9F80C90029808B10168B9
:1051E00002914946384600F0EBF9002856D138467E
:1051F00000F0FCF98246484600F0F8F98346009931
:10520000384600F0DDF938BB3A49504600F0D8F98D
:1052100078B35946504600F0DDF9002862D13000DD
:105220002ED13449504600F0CBF978B399F80820D4
:10523000397A641C02F0030201F0030131EA020032
:1052400050D132EA010102D05FEA08004AD0D0070B
:10525000C0D44FF00008BDE73000D5D125495846ED
:1052600000F0AEF9D0B92449584600F0A9F9A8B920
:10527000CAE72049584600F0A3F90028D1D0C8E772
:105280004946384600F0A6F960BBCAE7012C08D1B0
:105290001A49484600F094F918B11EBB04980560FD
:1052A0001CE01CB1012C08BF002E1BD11449504634
:1052B00000F086F920B91349504600F081F988B111
:1052C0000020019000904B463A4603A902A800F046
:1052D000B9FA38B10499039808600CB9012002E0CA
:1052E000022000E0002005B0BDE8F08F2151000849
:1052F00050880008088800081488000848880008BA
:10530000E4870008F087000880EC200B704700005D
:105310007047000090EC200B7047000070470000C1
:105320004DF808ED0DF1080E4DF804ED2DE9FF1FC5
:10533000002102B4694681B0FFF766BE85460D982C
:10534000DDF838E00F9B5DF8042B20E90C009DE8A8
:10535000FE1F854601BD00004DF808ED0DF1080E59
:105360004DF804ED2DE9FF1F002102B4694681B01C
:10537000FFF7BAFDDDF840E012B07047FEB44246D8
:105380004B4654465D463EB4FFF7A6FE3EBC9046F3
:105390009946A246AB46FEBCFFF7C2FF2DE9F04797
:1053A000089F81460E461546984600E0254695B171
:1053B0006C0804FB08F006EB000A51464846B84763
:1053C0000028F3D41EBF0AEB08062D1B6D1EEED17C
:1053D0005046BDE8F0870020BDE8F0870F48007810
:1053E000002800D1704700B5842189021820ABBE87
:1053F00000BD0B480078002800D1704700B509496E
:105400001820ABBE00BD08480078002800D17047C6
:1054100000B506491820ABBE00BD00006809002099
:1054200069090020011002006A0900200210020030
:10543000FBF781BE80B500F03FFA14490844BDE88F
:105440000240883000F04CBAFCF710B938B500F0D3
:1054500033FA0F4D0446605D60B90C49214401F1F7
:10546000880000F039FA0B4A0B48002100F040FA9E
:1054700001206055094A0A49A05C28B9034B651808
:105480002344EB610120A054601832BD18080020AD
:105490006B09002064090020355400086C090020C5
:1054A0009800002002680B689A4202BF4068496871
:1054B000884201D101207047002070470BA201688B
:1054C0001368994202BFD0F804C05268944501D1D4
:1054D0000020704708A21368994202BF40685168D3
:1054E000884201D101207047022070474941520093
:1054F000432B2B000000000049415200432B2B019D
:105500000000000038B504000D4609D004F1280061
:10551000FFF7C8FF20B16068A84201D1204632BD24
:10552000002000F029FA8038D5E9002300F1280195
:10553000C1E900230022456002628261426132BDFE
:1055400080B5FFF783FF016919B100220261884726
:1055500001E080688047BDE80140FCF787B810B5DE
:105560000446FFF773FF803CC069214600F03FFA14
:1055700020B92046BDE81040FFF75ABF10BD38B52E
:105580000446FFF763FF05460CB9A86807E020460C
:10559000FFF794FF02280CBFA86854F8180C286184
:1055A00001202873BDE83140FFF7CABF10B50400E1
:1055B00018BF00F026FA2046BDE81040DFE70000E3
:1055C00088421EBF40684968884201D10120704767
:1055D0000020704788421EBF40684968884201D059
:1055E00001207047002070474068704710B50400E4
:1055F00001D100F02EFA206850F8040C10BD000014
:105600002DE9F04F834615468DB088461C464FF075
:1056100000092846FFF7EAFF0794DDF858A0179E17
:10562000189C1A9FDFF88812FFF7CAFF08BB2846AC
:10563000FFF7DCFFDFF87C12FFF7C2FF002800F065
:10564000FA804FEA5A0101F0010181F001010B914A
:10565000CDF824B00AF0010181F001010A9105F1B1
:1056600010000C951A97CDF858A0189405461B9F6A
:10567000C6E0A8680799884208D0FFF7B5FF0090F8
:105680000798FFF7B1FF0099814215D1D8F80000C3
:10569000002818BF584540F0AA803978022900F048
:1056A000A6803068002840F0A280012139701B9844
:1056B0000460C8F800B09FE01B9819990590049702
:1056C000039102940196CDF800A0079BAA68414679
:1056D0005846FFF795FF0100306808BF002800F02A
:1056E000AA80002840F0A7804FF00109A3E000EB5A
:1056F000212A189800281ABF481000F0010B4FF01B
:10570000000B28680799884225D1D8F800000028A6
:1057100018BF82456BD16968C80703D51A9A1378F8
:10572000012B64D03068002861D1C8071A9954BF92
:10573000012002200870C7F800B0C8F800A04FF0A0
:105740000109386800285AD0002C0CBF0A980B9821
:10575000002854D06FE0FFF747FF00900798FFF74D
:1057600043FF00998142D0D0002108918DF8181094
:1057700006A9169A009208A8059704910390CDF8FF
:1057800008B00196079B2A6841465046FFF738FF4C
:10579000002804BF3068002831D03168002948D182
:1057A000089820B92879C10744BF286808901A983A
:1057B000007860B19DF81810022908BF022806D0B1
:1057C0001998006800283AD00899884237D11A9968
:1057D0009DF8180008704FF00109199908980860A1
:1057E000386860B1002C14BF0B980A9806E00120BD
:1057F00030600021C8F8001089461CE0D8B908358F
:105800000C9800F11001C06801EBC0018D4212D26A
:105810006968099801F0010440B1002C3FF467AFBA
:1058200002680B12D25800EB020A62E74FF0000A3E
:105830005FE74FF0000948460DB0BDE8F08F01204A
:105840003060F6E72DE9F0418AB098460024012344
:105850000D4609940793002816460CBF00270768D9
:105860002C603046FFF7C2FE1249FFF7A9FE002860
:1058700006A80CBF0321B168049007AA08AB0894DE
:105880008DF81840059203930120029009AA019215
:1058900000914346324629463846FFF7B1FE0028BC
:1058A0001EBF07980028012420460AB0BDE8F081F9
:1058B000E4870008F08700080020704710B500E07A
:1058C00010B5044600F0C8F801482060204610BD1D
:1058D000C886000810B504E010B5F2E710B5F0E78F
:1058E00010B5044600F0C0F8204610BD00000000CE
:1058F000F8B505460E461746AFF300801A4908680A
:1059000000B91A481A4A90422EBF002404460C30AF
:105910000860AFF300800CB90120F2BD266065601D
:10592000A7600020F2BD80B50F49124800F001F8D1
:1059300001BDF8B50E46054637683C0004D1F1BDFF
:1059400088470DE007463C46AC42F8D00C3C616805
:105950000800F9D02068002200286260F0D0884753
:1059600030688742F0D0EDE7600900207009002020
:10597000FC0A00207009002070B50646FFF766FD9E
:10598000054680363046FAF74BFC040008D1E8693A
:10599000314600F021F8040004BF0020FFF7EFFDBE
:1059A0000AA004F12801D0E90023C1E90023002264
:1059B00022636263A2616261E2612262A96821617D
:1059C0006868E06004F1800070BD00004941520049
:1059D000432B2B0000000000892902D208B1017876
:1059E00009B100207047012100F8081B704718B169
:1059F00000F10802914201D000207047002101709F
:105A0000704770B50446FFF7F4FC656AFFF71EFDAA
:105A100006462046FFF752FD022805D1706921464F
:105A2000FFF770FD014607E0A4F12801086A401E57
:105A300008623268521E32608869401C8861486979
:105A400010B97069486171612046FFF7F9FA28467C
:105A500070BD00F02DB8000001E0000000BF01495A
:105A600001607047DC860008704700001CB568467E
:105A7000FFF732FF0420FFF77FFF04466946FFF778
:105A80002DFF144A14492046FFF764FB00BF1CB5E4
:105A9000684600F02BF80420FFF76EFF04466946C5
:105AA00000F02EF80D4A0E492046FFF753FB00BFC9
:105AB0001CB5684600F02EF80420FFF75DFF044691
:105AC000694600F031F8074A07492046FFF742FBD4
:105AD00000BF0000E1580008C087000821880008C6
