:020000040800F2
:1000000008050020A91B0008351A00083D1A000841
:100010003F1A0008411A0008431A000800000000B7
:10002000000000000000000000000000451A000869
:10003000471A000800000000491A00084B1A00087F
:10004000C91B0008CD1B0008D11B0008D51B0008E8
:10005000D91B0008DD1B0008E11B0008E51B000898
:10006000E91B0008ED1B0008F11B0008F51B000848
:10007000F91B0008FD1B0008011C0008051C0008F6
:10008000091C00080D1C00084F1A000800000000A1
:10009000000000000000000000000000111C00082B
:1000A000151C0008191C0008551A00081D1C000822
:1000B000211C0008251C0008291C00082D1C000814
:1000C000311C0008351C0008391C00083D1C0008C4
:1000D000411C0008451C0008491C000800000000E5
:1000E0004D1C0008511C0008551C000800000000B1
:1000F000000000000000000000000000591C000883
:10010000000000005D1C0008611C0008651C000860
:1001100000000000000000000000000000000000DF
:100120005B1A0008691C00086D1C0008711C00089F
:10013000751C000800000000000000000000000026
:10014000000000000000000000000000791C000812
:100150007D1C0008811C0008851C0008891C000803
:100160008D1C0008911C0008000000000000000029
:10017000000000000000000000000000000000007F
:1001800000000000951C00080000000000000000B6
:10019000991C00089D1C000870B5044600250CB988
:1001A000012070BD04F13006306920B9204600F00E
:1001B000F5FA756135733069C10600F192803069D6
:1001C000DFF8D81420F4885040F00200306108684D
:1001D00020F4403008600A68606802430A602068C2
:1001E000416821F48071416020684168226941EAD8
:1001F000022141602068416821F04071416021681E
:100200004A68A06802434A602068816821F400615E
:10021000816021688A68E06802438A602068A16A78
:10022000DFF87C249142816821F0706181600CD0FC
:1002300021688A68A06A02438A6000F05BF821683E
:100240008A68E06A02438A6001E000F053F820689F
:10025000816821F0020100F049F8227E41EA420162
:10026000816094F820002168002848680FD040F48D
:10027000006048602068416821F460414160206866
:100280004168626A521E41EA4231416002E020F454
:10029000006048602068C16A21F47001C162206872
:1002A000C16AE269521E41EA0251C1622068816856
:1002B00021F4007100F01AF8327841EA422100F08E
:1002C00015F821F4806100F011F8626941EA822199
:1002D00081607561316921F0020141F001013161F4
:1002E00000E0012500203073284670BD8160206841
:1002F000816870472068816821F0405181607047B3
:10030000016841F0804101607047816841F080419F
:100310008160704770B50446206805684668A80784
:100320002BD5B10629D5206CC10603D4206C40F42E
:1003300000702064206800F079F804BF207E002857
:1003400014D12168C86A10F4700F02D0896848057A
:100350000CD42168486820F020004860206C20F40C
:1003600080702064206CC10400F064F8204600F026
:1003700082FB21686FF012000860680731D53106F2
:100380002FD5206CC10603D4206C40F400502064AB
:100390002168886810F4401F1CD1886B10F4401F3E
:1003A00002D08868420515D44868420512D488688E
:1003B00010F0405F04BF207E00280BD1486820F079
:1003C00080004860206C20F480502064206CC105BF
:1003D00000F030F8204600F06BFB21686FF00C0055
:1003E0000860E80710D571060ED520680268D107AD
:1003F0000AD5206C40F480302064204600F059FB80
:1004000021686FF001000860A8060ED571010CD5B7
:10041000606C40F0020060646FF0200520680560A9
:10042000204600F047FB21680D6070BD816811F027
:10043000405F704703D4206C40F001002064704797
:10044000F8B50446002004F13C0300901D78012D0E
:1004500001D10220F2BD0120187020688568EE07E6
:100460000DD48568924E45F0010585609148056878
:10047000B5FBF6F606EB4606009600F007F9206895
:100480008568EE0503D5856825F480758560256847
:10049000A868C6074FD55F688448074047F480774F
:1004A0005F606868450505D5586820F4005040F441
:1004B000805058605868C50446BF986820F0060010
:1004C0000020986000251D70A36B0FF2F110D86317
:1004D000A36B0FF251201864A36B0FF25120D86464
:1004E0006FF02200256828602068436843F080632D
:1004F000436013462068856845F4807585600A4628
:10050000206800F14C01A06B00F04DFB206800F06A
:100510001CF805D1FFF78AFF15D1FFF7F6FE12E0B0
:100520006049884202BF6048026812F0405F0AD109
:10053000FFF7E6FE07E0586840F010005860986842
:1005400040F0010098600020F2BD54490A6812F0A2
:100550001F0F704778B502460020009092F83C309B
:10056000012B01D1022072BD012082F83C0007243A
:100570000B6810680A2B12D30A3BC56803EB4303D0
:100580009C4025EA0404C460C3680D688C68A5F12A
:100590000A0606EB4606B4402343C3600FE0056934
:1005A00003EB430304FA03F325EA0303036103693E
:1005B0000D688C6805EB4505AC40234303611F249F
:1005C0004B68072B0CD25B1E456B00F059F8446357
:1005D000436B4D680C886E1E00F04DF843631BE0C2
:1005E0000D2B0CD2DB1F056B00F04AF80463036B84
:1005F0004D680C88EE1F00F03EF803630CE00D3BE5
:10060000C56A00F03DF8C462C36A4D680C88A5F164
:100610000D0600F030F8C362224B984226D10C68D8
:100620001E48122C07D1036823F4000303600468FA
:1006300044F4800404600B681F4CA34218BF112BC4
:1006400014D1036823F480030360056845F40005B2
:1006500005600868A04209D11649154C0B68B3FB28
:10066000F4F40A204443009400F010F8002182F8CA
:100670003C10002072BD06EB8606B4402343704751
:1006800003EB83039C4025EA0404704702E00098D2
:10069000401E009000980028F9D1704704230140C3
:1006A0000100000F0020014008200140FEF9FFFF7B
:1006B00040420F000C00002012000010816B0A6CF9
:1006C00012F0500F24D1086C40F4007008640A68DE
:1006D000906810F0405F04BF087E002815D1D06AF2
:1006E00010F4700F02D0906843050ED4506820F0CB
:1006F00020005060086C20F480700864086CC2040C
:1007000003D4086C40F001000864084600F0B3B957
:100710000A6CD30644BF084600F0CCB9896BCA6C9A
:1007200010470000806B00F077BB0000806B402119
:100730000164426C42F00402426400F0BBB90EE076
:1007400002684368024408305FEAC37C44BF4B44FC
:100750005B1E52F804CB43F804CB091FF9D150F8C3
:10076000041B0029ECD1704781B0002000900022CA
:100770004148416841F480414160416801F4804151
:10078000009100990092036843F080530360006871
:1007900000F080500090009801B0704738B586B0E6
:1007A00004461422002101A800F037FB21683348D9
:1007B000814243D100223248324D0092416941F4D6
:1007C00080714161416901F480710091009900924A
:1007D0000121036843F0010303600322006800F075
:1007E0000100009000982848019102920021039195
:1007F00001A900F01DFB00216960E9604FF48061F0
:100800002248286029614FF40060002268614FF49B
:100810000051AA60A961EA612A626A62284600F072
:100820004BF908B100F042F9A563AC630022002146
:10083000122000F0FDFB122000F017FC07B030BDC5
:1008400000681449884200D0704780B500221048E3
:100850000092016841F4802101600121006800F4E8
:100860008020009000981A2000F0E2FBBDE80240D2
:100870001A2000F0FABB000040380240002001407E
:1008800030380240A4000020000002401064024002
:10089000443802400048014038B586B000F010FCF2
:1008A00000F096F800F0E2F80020784C784D0090C7
:1008B000216841F0800121600021206800F0800063
:1008C000009000980091226842F0010222602068A6
:1008D00000F001000090009800914FF480512268D0
:1008E00042F0020222600022206800F00200009024
:1008F0000098284600F06DFB4FF4805101910122D1
:100900000292002103910222049201A9284600F0DC
:100910008FFA002000900022216841F480012160BC
:10092000002120685B4C00F48000009004F1300549
:100930000098382000F07CFB382000F096FB5648E9
:10094000A8619F21E961002028624FF22341A8623B
:100950002863696204F1480000F0CCFB08B100F0A4
:10096000A5F810220021684600F057FA4B48206095
:100970004FF480314A48A0626160012000220121C9
:10098000E06128706061A2602261217684F82020F5
:10099000E262E2602046FFF7FFFB08B100F086F854
:1009A0000020012100900191072202926946204611
:1009B000FFF7D0FD08B100F079F8012204F19001B1
:1009C0002046FFF73DFD04F1480000F0A0FBFEE7E4
:1009D00080B592B03022002106A800F01EFA00F087
:1009E00045F8002000904FF480332E48016841F014
:1009F000805101600021006800F080500090009854
:100A000029480091026842F44042026001220068D5
:100A100000F44040009006A80099069202214FF48D
:100A200080020C910D920C2160220E910F920221F6
:100A3000042207931091119200F0B2FC08B172B633
:100A4000FEE7022102910F204FF480510190002215
:100A5000049103920592032101A800F02FFE08B132
:100A600072B6FEE700F0B0FE13B000BD1422002104
:100A700001A800F0D2B900680849884205D10548AC
:100A8000012200F19001FFF7DBBC704730380240D3
:100A900000040240100000200048014000200140F6
:100AA0000100000F403802400070004072B6FEE7BF
:100AB000704770477047000070B5044600F0A0FE14
:100AC00006460CB9012070BD04F13405022068709F
:100AD00000212970206802685208520002602268D2
:100AE0001068C1070AD500F08BFE801B0628F6D3DC
:100AF0002020286203216970032070BD1368DFF88D
:100B0000900261680340A0680B43E16803432069D9
:100B10000B4361690343A0690B43E1690343206A06
:100B20000B43616A0343042903D1E16A206B0B4341
:100B30000343136023685A69606AD208042840EAB4
:100B4000C2020AD1A66AE16A324331B1A06988B90A
:100B5000002E18BF022E1FD016D35A61204600F077
:100B600043F9A96A3F228A4082600020286201215D
:100B7000697070BDB0F5005F0AD1032EEDD8DFE8D3
:100B800006F00D0B0D03E8E7B1F1C07FE5D105E0FC
:100B9000022E03D9F61EE0D1C801DED5402129621C
:100BA0000120687070BDF8B5044604F134060025D4
:100BB0003078776A012801D10220F2BD012030701F
:100BC000707801281CD1022070703562204600F038
:100BD000FBF8B06A3F2101FA00F0B86020680168B4
:100BE00041F016010160F06820B12068016841F011
:100BF000080101602068016841F00101016001E025
:100C0000357002252846F2BD2DE9FC41044604F169
:100C1000340600205F4900904FF41650776A0A6846
:100C20003D68B2FBF0F8B06A082100F0B6F80ED0CB
:100C30002068026853070AD5026822F004020260A5
:100C4000B06A8140B960316A41F001013162B06A35
:100C500025FA00F1CA070BD521684A69110607D5A4
:100C6000012202FA00F0B860306A40F002003062FF
:100C7000042100F091F808D021680A68930704D590
:100C8000B860306A40F004003062102100F084F84F
:100C90001BD021680A68130717D5B860206801685F
:100CA0004A0307D5006801030BD5716969B1204675
:100CB00088470AE00168CA0503D4016821F00801E9
:100CC0000160F16809B120468847B06A202100F030
:100CD00064F83FD021680A68D3063BD5B860206825
:100CE000717805291CD1026822F01602026000F01A
:100CF00058F8F068002804BF7069002801D000F09F
:100D00005CF83F22B06A8240BA6001217170002015
:100D1000F1693070002939D02046BDE8FC41084710
:100D200001684A0307D5006801030FD4316989B10E
:100D3000204688470EE00168CA0507D4016821F003
:100D4000100101600120707000213170B16809B19B
:100D500020468847306AC8B1306AC10710D50520DF
:100D6000707000F024F80098401C8045009003D378
:100D700020680168CA07F6D4012070700021317024
:100D8000B16919B12046BDE8FC410847BDE8F381CF
:100D90003F8010F00C000020B06A01FA00F005421C
:100DA00070472068416921F08001416170472068E7
:100DB000016849084900016070472068016821F016
:100DC000080101607047000030B50468256825F40B
:100DD0008025256063608068402802D1A260E160C0
:100DE00030BDA160E26030BD30B50146182308680F
:100DF00007A400F0FF02103AB2FBF3F2800AA55CF0
:100E0000CD658002042A28BF001D886530BD000022
:100E10000006101600061016704710B5044610465E
:100E20000A460146204600F0F1FC204610BD0000B5
:100E30002DE9F84F0D4600266849694A0F230446FC
:100E400001202F68B04000EA0708804540F0BB80D1
:100E50004FEA460C032707FA0CF76FEA070E6F6894
:100E600007F00309B9F1010F1CBF07F00307022FB8
:100E700012D1A768D5F80C900EEA070709FA0CF909
:100E800049EA0707A760676827EA00006F68C7F3A9
:100E90000017B74038436060B0002F7907F00307B0
:100EA000032F21D0E768D5F808900EEA070709FA62
:100EB0000CF949EA0707E7602F7907F00307022FCB
:100EC00012D1F70804EB870700F01C09D7F820A01F
:100ED00003FA09FB2AEA0B0AD5F810B00BFA09F954
:100EE00049EA0A09C7F8209027680EEA070E2F7909
:100EF00007F0030707FA0CF747EA0E0727606F6849
:100F000017F4403F5FD0002700974FEA960C176810
:100F100047F48047176000F00C00176807F480471B
:100F2000009703FA00FE009F2E4F57F82C7027EA17
:100F30000E0E2D4FBC4208BF002713D02B4FBC42D2
:100F400008BF01270ED02A4FBC4208BF022709D094
:100F5000284FBC4208BF032704D0274FBC420CBF18
:100F60000427072707FA00F01E4F40EA0E0047F853
:100F70002C006FEA08008F6800EA070C6F68FF0218
:100F800048BF48EA0C0CC1F808C0CF6800EA070C5B
:100F90006F68BF0248BF48EA0C0CC1F80CC04F682C
:100FA00000EA070C6F68BF0348BF48EA0C0CC1F8A1
:100FB00004C00F6800EA070C6868C00348BF48EA2D
:100FC0000C0CC1F800C0761C0F2E7FF639AFBDE8BF
:100FD000F18F02B90904816170470000003C0140B3
:100FE000443802400838014000000240000402403A
:100FF00000080240000C02400010024009010200FB
:1010000002D4294881547047284B02F00F021A4439
:1010100002F8041C7047264B19684FF6FF020002C5
:10102000114000F4E060084322490843186070470B
:1010300070B51F4B1C68C4F302230124C3F10705DC
:10104000052D2EBF0F2504FA05F56D1E1E1D072E5A
:1010500034BF0023DB1E2940994004FA03F3BDE8A6
:1010600070405B1E1A401143C8E7010007D40122FB
:1010700000F01F01104B8A40400943F820207047C0
:1010800010B5401EB0F1807F01D3012010BD0B4C84
:1010900060600F214FF0FF30FFF7B0FF0021A1602B
:1010A00007202060002010BD00E400E018ED00E003
:1010B0000CED00E00000FA0500E100E010E000E0C7
:1010C00080B50B48016841F400710160026842F488
:1010D00080620260016841F4807101600320FFF7C3
:1010E0009AFF0F2000F0C6FBFFF73EFB002002BD79
:1010F000003C024038B5040001D1012032BD00F0AF
:1011000055F818B900F0FAF8FFF79AFB31E090F8BB
:101110003D10012901D001207047022180F83D10C7
:101120000168CA6842F00102CA600168DFF86820FD
:10113000914218BFB1F1804F0FD0DFF8602091428B
:101140001CBFDFF85C30994207D0DFF8582091428D
:101150001CBFDFF85430994205D1896801F00701BE
:10116000062904D001680A6842F001020A600020E2
:10117000704702206870211D206800F0C3F801202C
:10118000A872A870E87028716871A871E871287257
:1011900068726870002032BD000001400004004009
:1011A00000080040000C00400040014004F13C05F4
:1011B0006878704710B50446206801698A0715D51C
:1011C000C1688A0712D56FF00201016101222277FE
:1011D000806910F0030F204602D000F06BFB03E0A3
:1011E00000F069FB00F087F8002020772068016993
:1011F0004A0715D5C1684A0712D56FF0040101618D
:1012000002222277806910F4407F204602D000F04D
:1012100051FB03E000F04FFB00F06DF80020207759
:10122000206801690A0715D5C1680A0712D56FF051
:101230000801016104222277C06910F0030F2046E3
:1012400002D000F037FB03E000F035FB00F053F86C
:101250000020207720680169CA0615D5C168CA0632
:1012600012D56FF01001016108222277C06910F4D5
:10127000407F204602D000F01DFB03E000F01BFB86
:1012800000F039F80020207720680169CA0708D5E6
:10129000C168CA0705D56FF001010161204600F061
:1012A0000BFB206801690A0608D5C1680A0605D546
:1012B0006FF080010161204600F0FFFA20680169AB
:1012C0004A0608D5C1684A0605D56FF0400101619C
:1012D000204600F0F3FA206801698A060AD5C16841
:1012E0008A0607D56FF0200101612046BDE8104055
:1012F00000F0E5BA10BD204600F0E2BA00212970E6
:1013000020467047F0B51E4B04681E4D1E4E1F4F01
:10131000984218BFB0F1804F04D0B8421CBFB04211
:10132000A8420CD14A6824F070041443984218BFB4
:10133000B0F1804F0ED0B84218BFB0420AD0A842D8
:101340001CBF134A904205D0124DA8421CBF124A3E
:10135000904203D1CA6824F4407414434A6924F0CB
:1013600080041443046098428C68C4620A688262F4
:1013700002D10969094A116001234361F0BD0000EF
:1013800000000140000C0040000800400004004044
:10139000004001400044014000480140300001404D
:1013A0002DE9F843040016D02078DFF80063C10768
:1013B00013D5B06800F00C00042807D0B06800F026
:1013C0000C0008283DD1706841023AD5306881038D
:1013D00003D56068002800F063812078B44F81074E
:1013E00019D5B06810F00C0F07D0B06800F00C00F1
:1013F00008285BD17068410258D43068810703D552
:10140000E068012840F04C813168206921F0F80142
:1014100041EAC00131602178080779D56069A549A2
:10142000002868D001220A6000F0EAF90546706FD2
:1014300081076DD400F0E4F9401B0228F7D903209E
:1014400031E16068B0F5803F04D1306840F480300D
:10145000306011E0B0F5A02F306806D140F4802054
:101460003060316841F4803105E020F48030306034
:10147000316821F480213160606858B100F0C0F912
:10148000054630688103A8D400F0BAF9401B6528EE
:10149000F7D3D4E700F0B4F90546306881039CD552
:1014A00000F0AEF9401B6528F7D3C8E7E068A8B1A3
:1014B0000121396000F0A4F905463068810705D4A0
:1014C00000F09EF9401B0228F7D9B8E7306821697F
:1014D00020F0F80040EAC10030609CE7386000F07E
:1014E0008FF905463168880795D500F089F9401BCA
:1014F0000228F7D9A3E7086000F082F90546706F6B
:10150000810705D500F07CF9401B0228F7D996E742
:10151000207841075FD5306C0025C1000AD40095C2
:101520000125316C41F080513164306C00F0805005
:1015300000900098DFF88081D8F80000C10513D42E
:10154000D8F8000040F48070C8F8000000F058F9A6
:101550008146D8F80000C10506D400F051F9A0EB8F
:1015600009000228F5D96AE7A068012805D00528F6
:10157000306F06D140F004003067306F40F001005A
:1015800005E0400840003067306F20F0040030670D
:1015900041F28938A06860B100F032F98146306FBD
:1015A000810713D400F02CF9A0EB09004045F6D3D5
:1015B00045E700F025F98146306F810706D500F038
:1015C0001FF9A0EB09004045F6D338E71DB1306C98
:1015D00020F080503064A069002863D0B16801F029
:1015E0000C0108293AD002282AD10020386600F0E0
:1015F00007F905463068810105D500F001F9401B67
:101600000228F7D91BE7E069216A626A0843A16AE8
:10161000490840EA8210491E40EA0140E16A40EA76
:10162000016070600120386600F0EAF80446306816
:10163000810137D400F0E4F8001B0228F7D9FEE658
:101640000020386600F0DCF804463068810129D5B6
:1016500000F0D6F8001B0228F7D9F0E601281FD0C9
:101660007068E26900F48001914202BF00F03F011E
:10167000226A914201BF47F6C0710140626AB1EB34
:10168000821F0DD1A26A520800F44031521EB1EB04
:10169000024F02BF00F07060E16AB0EB016F01D051
:1016A000012000E00020BDE8F28300BF00380240C6
:1016B00000004742800E4742007000402DE9F04193
:1016C00004000F4654D0474E306800F00700B8427F
:1016D00002D200F073F84BD12068434D810712D538
:1016E000400703D5A96841F4E051A96020780107BB
:1016F00003D5A86840F46040A860A968A06821F0FC
:10170000F0010143A9602178C80729D56068012844
:1017100002D129688A0305E0022818BF032803D1F3
:1017200029688A0103D423E029688A0720D5A9689B
:10173000890840EA8100A86000F062F88046A86845
:10174000616800F00C00B0EB810F09D000F058F890
:10175000A0EB080041F289318842F0D303202BE04E
:10176000306800F00700874204D200F027F801D06B
:10177000012021E02078410705D5AA68E06822F41D
:10178000E0520243AA602178080706D5A9682069BB
:1017900021F4604141EAC001A96000F093F8AA6811
:1017A0001249134BC2F30312895CC84018601148F8
:1017B000006800F05FF80020BDE8F0813770316804
:1017C00001F00701B94270470B49012008607047DA
:1017D00010B50A4C2068010603D500F0A3F880205C
:1017E000A07010BD003C024000380240341B0008CD
:1017F0000C000020080000204C0047420C3802403A
:1018000001484068704700BF0000002062F30F22CB
:1018100062F31F42401810F0030308D0C91A1FD307
:10182000DB0748BF00F8012D28BF20F8022D130068
:1018300030B414461546103928BF20E93C00FAD8C8
:10184000490728BF20E90C0048BF40F8042D890053
:1018500028BF20F8022D48BF00F8012D30BC70478A
:10186000C91818BF00F8012DCB0728BF00F8012DBB
:101870007047000038B50D4D0D4B2A7804464FF4E3
:101880007A711868B1FBF2F2B0FBF2F0FFF7F8FBE7
:1018900050B9102C08D2002221464FF0FF30FFF73C
:1018A000C7FBAC60002032BD012032BD000000202B
:1018B0000C000020704770477047704770477047B2
:1018C0007047000030B5144C606800F00C0004282C
:1018D00002D0082802D01DE0104830BD22682068E0
:1018E0000023410202F03F0204D525680B49C5F3ED
:1018F000881003E020680A49C0F38810A1FB0001AA
:1019000000F012F82168C1F30141491C4900B0FB05
:10191000F1F030BD024830BD0438024040787D010E
:101920000024F40070470000D3BBD9B1B2F5803F6A
:101930005BD2022A1ED98C46B1FBF2F102FB11C325
:101940001B0443EA1043B3FBF2FC02FB1C3380B2DE
:1019500040EA0343B3FBF2F002FB103240EA0C40D2
:1019600000237047022A05D98446B0FBF2F002FB3F
:1019700010C270474AB105D100F0010249085FEA80
:101980003000704700220023704700F051B80B0070
:101990000200002100207047F7D300220023704787
:1019A000904271EB030CF2D370B5B1FA81F4B3FA43
:1019B00083F52C1BA340C4F1200532FA05F633430E
:1019C000A2405FF00046E64002E05B085FEA3202B8
:1019D000841A71EB030524BF204629467641F4D3CF
:1019E00002000B003000002170BD70B5B1FA81F427
:1019F000B2FA82F5C4F120046419B4F12006DAD3F6
:101A0000B2405FF00044F440002502E052085FEA73
:101A10003303C61A71EB020E24BF3046714664418F
:101A20006D41F3D302000B002000290070BD0000BF
:101A30007047000080B5FFF7CBFEFEE7FEE7FEE74C
:101A4000FEE7FEE770477047704700F00FB80448A4
:101A5000FEF760BC0348FFF7ADBB0348FFF7D4B8FF
:101A60001000002058000020A40000200248416817
:101A700002788A18426070470000002030B40025C8
:101A800012E050F8042BD30744BF4A44521E091FEA
:101A9000042942F8045BFAD213468C0744BF158030
:101AA0009B1CC90748BF1D7050F8041B0029E8D1D2
:101AB00030BC704710B5074979441831064C7C4456
:101AC000163404E00A68081D114488470146A14203
:101AD000F8D110BD2C0000004C0000004EF68851DB
:101AE000CEF20001086840F470000860BFF34F8F29
:101AF000BFF36F8F4FF00070E1EE100A70470000E7
:101B00007DFFFFFFF4000000100000200000000037
:101B10002FECFFFF10000000A000000000000020DC
:101B2000000000000248016841F470010160704744
:101B300088ED00E000000000000000000102030446
:101B40000607080900F00DF8002801D0FFF7B2FFE2
:101B5000AFF300800020AFF30080FEF79DFE00F0A1
:101B600002F80120704700F001B80000074638462F
:101B700000F002F8FBE7000080B5AFF30080024AF6
:101B800011001820ABBEFBE7260002000548014605
:101B900003B4684680F30988AFF30080FFF79EFF27
:101BA000FFF7D0FFA5EDF5FE01488047014800474B
:101BB000251B00088D1B000801000000000000002C
:101BC000100000000024F400FFF7FEBFFFF7FEBF87
:101BD000FFF7FEBFFFF7FEBFFFF7FEBFFFF7FEBF39
:101BE000FFF7FEBFFFF7FEBFFFF7FEBFFFF7FEBF29
:101BF000FFF7FEBFFFF7FEBFFFF7FEBFFFF7FEBF19
:101C0000FFF7FEBFFFF7FEBFFFF7FEBFFFF7FEBF08
:101C1000FFF7FEBFFFF7FEBFFFF7FEBFFFF7FEBFF8
:101C2000FFF7FEBFFFF7FEBFFFF7FEBFFFF7FEBFE8
:101C3000FFF7FEBFFFF7FEBFFFF7FEBFFFF7FEBFD8
:101C4000FFF7FEBFFFF7FEBFFFF7FEBFFFF7FEBFC8
:101C5000FFF7FEBFFFF7FEBFFFF7FEBFFFF7FEBFB8
:101C6000FFF7FEBFFFF7FEBFFFF7FEBFFFF7FEBFA8
:101C7000FFF7FEBFFFF7FEBFFFF7FEBFFFF7FEBF98
:101C8000FFF7FEBFFFF7FEBFFFF7FEBFFFF7FEBF88
:101C9000FFF7FEBFFFF7FEBFFFF7FEBFFFF7FEBF78
:0400000508001B8D47
:00000001FF
