:020000040800F2
:1000000088040020B5130008B5120008BD120008CE
:10001000BF120008C1120008C3120008000000004F
:10002000000000000000000000000000C5120008F1
:10003000C712000800000000C9120008CB12000817
:10004000D5130008D9130008DD130008E1130008D8
:10005000E5130008E9130008ED130008F113000888
:10006000F5130008F9130008FD1300080114000837
:1000700005140008091400080D14000811140008E4
:1000800015140008191400081D140008CF120008E8
:1000900021140008D1120008DD1200082514000800
:1000A000291400082D140008311400083514000824
:1000B000391400083D1400084114000845140008D4
:1000C000491400084D140008511400085514000884
:1000D000591400085D140008611400086514000834
:1000E000691400086D1400087114000838B5040084
:1000F00022D094F8200010B9204600F04CFB00F00C
:1001000008F9054620684168C80705D400F09AFB45
:10011000401B0B28F6D30DE000F0F5F800F092FB41
:10012000054620684168880708D500F08BFB401B16
:100130000B28F6D300F0DFF8012032BD207E012825
:1001400005D12168086840F08000086004E020685C
:10015000016821F080010160607E00F03DF80CBF75
:1001600041F0400121F040010160A07E00F034F830
:100170000CBF41F0200121F020010160E07E00F081
:100180002BF80CBF21F0100141F010010160207F1D
:1001900000F022F80CBF41F0080121F008010160D5
:1001A000607F00F019F80CBF41F0040121F0040158
:1001B0000160A268E0682169024360690A436168DE
:1001C00002432068491E0A43C26100216162012086
:1001D00084F82000002032BD0128206801687047A3
:1001E000F0B5066890F82020012A18BF022A51D1E4
:1001F00006F500720124106840F00100106006F559
:1002000011750B7DD06903F01F0304FA03F3DC437F
:100210002040D06106F51076C86970B9D0682040DA
:10022000D0604868CF6800F039F80F688868BFB2BE
:1002300047EA0047486945F83070C86901280ED17F
:10024000D0681843D06048680F6800F027F8CE687F
:100250008868B6B246EA0046486945F83060886961
:10026000002850680CBF20401843506008690028DF
:10027000506907BF0440546118435061086A01285F
:1002800002D1D0690343D3610020116849084900B5
:100290001160F0BD416A41F48021A3E080B240EAE0
:1002A00007404F6946F83700704738B5044694F860
:1002B0002000012819D1022184F82010206802684A
:1002C00052085200026000F0BDFA054620684168FD
:1002D000C80707D500F0B6FA401B0B28F6D300F08C
:1002E0000AF806E00020606232BD606A40F4002037
:1002F0006062012032BD606A40F400306062052116
:1003000084F8201070472068016821F00201016024
:1003100070472068016841F00101016000F092BA65
:10032000F0B590F820400568AD68012C18BF022C8C
:1003300055D115F0E05F4ED0C5F30164032C03D313
:10034000416A41F400014DE00125A5401D602401F2
:100350000368CE6803F5C0758B681BB90B6846EA65
:10036000435603E04F6843EAC7031E432E51056816
:100370000B6905F5C2763351097D012906D1036861
:1003800003F5C2710D5945F480750D519379D179FA
:1003900055791B0443EA0163117943EA0523056893
:1003A00025440B43C5F88C319378D17855781B04DC
:1003B00043EA01631178026843EA052322440B43B0
:1003C000C2F88831006800F5C070015941F00101A0
:1003D00001510020F0BD416A41F4001102E0416A80
:1003E00041F4802141620120F0BD416A41F4802145
:1003F0004162012070470146002091F82020012A27
:1004000018BF022A0CD109688A6853018A68896872
:1004100048BF0120130148BF401CCA0048BF401C10
:100420007047F0B590F82040012C18BF022C66D11F
:100430000029046801D1E56800E0256915F0030F83
:1004400003D1416A41F400115CE00D0104F5D87656
:10045000745914F004049460066806F5D87603D144
:100460007459640D146002E07659F6085660046809
:1004700004F5D876775907F00207D76000F043F803
:1004800006F00F06166100F03EF8C6F307249461EB
:1004900000F039F8360C566102682A44D2F8B841A7
:1004A0001C7006682E44D6F8B821120A5A700468E7
:1004B0002C44D4F8B821120C9A7004682C44D4F857
:1004C000B821120EDA7000F023F81A7100F020F84B
:1004D000120A5A7100F01CF8120C9A7100F018F808
:1004E000120EDA71006821B9C16841F02001C160C3
:1004F00003E0016941F0200101610020F0BD416A83
:1005000041F480216EE704682C44D4F8B46170474C
:1005100004682C44D4F8BC21704790F82020012AAC
:1005200018BF022A03D100684269114300E05CE76A
:100530004161002070472DE9F84F05464FF0000853
:1005400028684669D0F804B08468D0F80C90D0F8D8
:1005500010A08769F10745D5E20713D50121816015
:10056000A00703D5284600F073F90BE0600748BFE9
:100570004FF4006806D420074EBF4FF48058284639
:1005800000F067F9E00515D52A684FF48071A005E1
:10059000916003D5284600F05DF90BE0600548BF87
:1005A00048F4005806D420054EBF48F48048284639
:1005B00000F051F9E00315D52A684FF48031A0030B
:1005C000916003D5284600F047F90BE0600348BF6F
:1005D00048F4004806D420034EBF48F4803828462B
:1005E00000F03BF9300748BF5FEAC96104D52968CC
:1005F000102048F40078C860700748BF5FEA0971AE
:1006000005D52A680820D060284600F027F9B007F1
:1006100007D52968C86810F0030F1CBF284600F0F2
:100620001EF9700648BF5FEACA6104D52968102028
:1006300048F480680861B00648BF5FEA0A7105D5D2
:100640002A6808201061284600F00AF9F00607D54C
:100650002968086910F0030F1CBF284600F002F952
:10066000B00348BF5FEACB6105D52A68102050600F
:10067000284600F0D8F9F00348BF5FEA0B7105D5B2
:100680002A6808205060284600F0CEF9300440D592
:100690005FEA4B713AD5F00503D5F90748BF48F03A
:1006A0000108B00503D5B90748BF48F00208700536
:1006B00003D5790748BF48F00408300526D517F060
:1006C000700F23D007F07007102F0CD0202F0DD003
:1006D000302F0ED0402F0FD0502F10D0602F08BFDA
:1006E00048F480780DE048F008080AE048F0100867
:1006F00007E048F0200804E048F0400801E048F036
:1007000080082868816921F07001816104202968CE
:100710004860B8F1000F08D0686A48EA00006862D3
:100720002846BDE8F24F00F0ADB8BDE8F18F406A51
:1007300070470EE002684368024408305FEAC37CF9
:1007400044BF4B445B1E52F804CB43F804CB091F53
:10075000F9D150F8041B0029ECD17047354881B01D
:10076000016841F001010160026802F0010200929B
:100770000099426842F080524260406800F0805028
:10078000009000982C48016821F0E06141F0007170
:10079000016001B0704718B585B0044610220021F1
:1007A000684600F042F921682448814240D121483E
:1007B000234C416841F000714160416801F00071D3
:1007C00004910499026842F0040202604FF400614F
:1007D000006800F004000490002204980091019247
:1007E00002926946204600F02BF94FF48050022116
:1007F00000900191032203926946204600F020F9FF
:1008000000220021132000F017FA132000F031FA23
:1008100000220021152000F00FFA152000F029FA1F
:1008200000220021162000F007FA162000F021FA1D
:1008300006B010BD181002400400014000640040E2
:100840000008014001484068704700BF00000020D8
:1008500070477047704770477047704770477047E0
:100860007047000080B54B4A02F11C030121FFF7DD
:10087000D8FD30B9BDE804404FF40051464800F0BF
:100880009FB901BDFFF753BF70B58AB000F01CFAE5
:1008900000F092F84148424C016841F020010160AB
:1008A000026802F020020092009902683D4942F07D
:1008B000040202600422006800F004000090009826
:1008C00021604FF04040A0600021E1604FF44020E3
:1008D00020614FF480116161002020760121608346
:1008E00020776260617661772046FFF7FFFB08B1F1
:1008F00000F097F800200121059006900122009059
:100900000190029003900491089107926946204655
:10091000FFF766FC08B100F084F82046FFF7C5FC3D
:1009200048F610412046FFF7F8FD002004F12805A5
:100930004FF45E76686100210820A861AE602961ED
:10094000002000F10A012954401C0828F9DB5A2034
:100950002870AE602046FFF74EFD28622046FFF764
:100960004AFD0028FAD000F01FF84FF4FA7000F0AA
:10097000BDF94FF493706421A86029702046FFF7F9
:100980003AFD0028FAD000F00FF84FF4FA7000F0AA
:10099000ADF9DCE7600000200010014018100240B3
:1009A000100000200064004004F14C032A4604F1CA
:1009B00030012046FFF7B4BC00B58FB028220021DB
:1009C00005A800F032F814220021684600F02DF846
:1009D0004FF480310022069107920D91012005907D
:1009E000099002224FF4C0110C920E9105A800F05C
:1009F00091F908B172B6FEE7022101910F204FF480
:100A000080610090002203910292049202216846C4
:100A100000F00AFB08B172B6FEE700F089FB0FB0E8
:100A200000BD72B6FEE77047704710B50446104629
:100A30000A460146204600F0CBFB204610BD0000D0
:100A40002DE9F8474FF0000E0024614A614BDFF8B2
:100A500088814FF00F0982460CE0D7683840D0609B
:100A600006E095604D68AD02F7D5D0680743D760C2
:100A70000EF1010E0F6837FA0EF000F09F80012092
:100A800000FA0EF63740B742F2D1486838B3012871
:100A90001AD002281DD003282ED0112816D01228D3
:100AA0001AD04E4DA8421CBF4D4DA84217D04D4DF7
:100AB000A8421CBF4C4DA84211D04C4DA8421CBFAF
:100AC0004B4DA8420BD018E0CC6816E0CC68241D32
:100AD00013E0CC68083410E0CC680C340DE0886872
:100AE00008B9042409E0012819BF0824CAF81460D1
:100AF0000824CAF8106000E00024B7F5807F03D214
:100B000050464FEA8E0C05E0AEF108050AF10400EC
:100B10004FEA850C056809FA0CF6B54304FA0CF6A1
:100B2000354305604868C000A2D5D8F8000040F001
:100B30000100C8F80000D8F8005005F00105009544
:100B40004FEA8E0500984FEA9E0053F8206005F0AA
:100B50000C0C09FA0CF526EA0505264EB24508BF2D
:100B600000260ED0244EB24508BF012609D0234EE0
:100B7000B24508BF022604D0214EB2450CBF032661
:100B8000042606FA0CF6354343F82050F8434D6826
:100B9000ED0315684CBF3D43054015604D68AD033E
:100BA00055684CBF3D43054055604D689668ED0261
:100BB0004CBF47EA060500EA060552E7BDE8F187A3
:100BC000C26801EA0203914341EA034101617047AF
:100BD00000040140080001401810024000001110FC
:100BE000000012100000211000002210000031103F
:100BF0000000321000080140000C014000100140CC
:100C0000001401400901020002D4294881547047B0
:100C1000284B02F00F021A4402F8041C7047264BBE
:100C200019684FF6FF020002114000F4E06008432B
:100C3000224908431860704770B51F4B1C68C4F305
:100C400002230124C3F10705052D2EBF0F2504FA49
:100C500005F56D1E1E1D072E34BF0023DB1E294027
:100C6000994004FA03F3BDE870405B1E1A4011433B
:100C7000C8E7010007D4012200F01F01104B8A4091
:100C8000400943F82020704710B5401EB0F1807F26
:100C900001D3012010BD0B4C60600F214FF0FF30DD
:100CA000FFF7B0FF0021A16007202060002010BDE9
:100CB00000E400E018ED00E00CED00E00000FA05B3
:100CC00000E100E010E000E080B50748016841F075
:100CD000100101600320FFF7A2FF0F2000F0ACFA23
:100CE000FFF73CFD002002BD0020024038B504465D
:100CF000FFF7A8FD14F1010F054602D0044908785A
:100D00000419FFF79FFD401BA042FAD331BD00BF7D
:100D1000000000202DE9F843040016D02078DFF809
:100D20006864C10713D5706800F00C00042807D070
:100D3000706800F00C00082841D17068C1033ED5EE
:100D40003068810303D56068002800F06481207852
:100D5000DFF84474810719D5706810F00C0F07D0C4
:100D6000706800F00C00082861D17068C1035ED47F
:100D70003068810703D52069012840F04C81316833
:100D8000606921F0F80141EAC0013160217808076B
:100D900040F18180A069DFF80414002800F0A680EB
:100DA00001220A60FFF74EFD0546706A810763D491
:100DB000FFF748FD401B0228F7D903202EE16068A9
:100DC000B0F5803F04D1306840F48030306014E0EA
:100DD00008B930680AE0B0F5A02F306806D140F4B9
:100DE00080203060316841F4803105E020F48030AB
:100DF0003060316821F480213160606858B1FFF7BC
:100E000021FD054630688103A1D4FFF71BFD401B7F
:100E10006528F7D3D1E7FFF715FD05463068810354
:100E200095D5FFF70FFD401B6528F7D3C5E720696F
:100E3000A8B101213960FFF705FD0546306881073B
:100E400005D4FFF7FFFC401B0228F7D9B5E730684F
:100E5000616920F0F80040EAC100306096E7386030
:100E6000FFF7F0FC0546316888078FD5FFF7EAFCED
:100E7000401B0228F7D9A0E7DFF810030168C90872
:100E80004FF47A72B1FBF2F2009200BF0098411E5B
:100E900000280091F9D1207841076ED5F06900252E
:100EA000C10009D4F06940F08050F0610125F0697B
:100EB00000F0805000900098DFF8E482D8F800003D
:100EC000C10520D4D8F8000040F48070C8F80000B4
:100ED000FFF7B8FC8146D8F80000C10513D4FFF72E
:100EE000B1FCA0EB09006528F5D366E70860FFF7C1
:100EF000A9FC0546706A8107CDD5FFF7A3FC401B0E
:100F00000228F7D959E7E068012808D008B9306A03
:100F100009E00528306A06D140F004003062306AEA
:100F200040F0010005E0400840003062306A20F0E7
:100F30000400306241F28938E06860B1FFF782FC5A
:100F40008146306A810713D4FFF77CFCA0EB0900CF
:100F50004045F6D331E7FFF775FC8146306A8107DB
:100F600006D5FFF76FFCA0EB09004045F6D324E758
:100F70001DB1F06920F08050F061E06900284CD08C
:100F8000716801F00C01082938D002282AD100F03C
:100F900047F805463068810105D5FFF753FC401B33
:100FA0000228F7D909E7206AB0F5803F05D17168BA
:100FB000A06821F40031014371607268206A616A9F
:100FC00022F4741202430A437260012000F029F8EF
:100FD00004463068810120D4FFF734FC001B02284E
:100FE000F7D9EAE600F01CF804463068810114D510
:100FF000FFF728FC001B0228F7D9DEE601280AD0FB
:101000007068226A00F48031914202BF00F47010CF
:10101000616A884201D0012000E00020BDE8F2832F
:1010200000203866FFF70EBC2DE9F0410400884629
:101030004ED05C4E00F077F802D200F06FF847D146
:101040002068514D810712D5400703D5696841F4E6
:10105000E06169602078010703D5686840F460505A
:1010600068606968A06821F0F00101436960217837
:10107000C80725D56068012802D129688A0303E0E2
:101080000228296802D18A0102D421E08A071FD5EB
:101090006968890840EA81006860FFF7D3FB07466A
:1010A0006868616800F00C00B0EB810F08D0FFF7B2
:1010B000C9FBC01B41F289318842F1D303202BE0E8
:1010C000306800F00700804504D200F027F801D016
:1010D000012021E02078410705D56A68E06822F404
:1010E000E06202436A602178080706D569682069D2
:1010F00021F4605141EAC001696000F01DF86A689E
:101100002949224BC2F30312895CC8401860214868
:10111000006800F091F80020BDE8F0813168C9084E
:1011200048EAC1013160306800F00700404570476F
:101130001F490120086070471C4915480A6802F0E1
:101140000C03082B00D0704710B500BF1BA4C2F3DE
:101150008343D203E35C08D5096858431BA3C1F35A
:1011600040415A5CB0FBF2F010BD184611494843AB
:1011700010BD10B5104C2068010603D500F07CF8B6
:101180008020A07010BD0000001002400C00002064
:1011900000127A000800002000004242800442420F
:1011A0000070004000200240A41300080410024018
:1011B0004C00424200093D000810024002030405B1
:1011C000060708090A0B0C0D0E0F10100102000093
:1011D00062F30F2262F31F42401810F0030308D09D
:1011E000C91A1FD3DB0748BF00F8012D28BF20F81C
:1011F000022D130030B414461546103928BF20E9DB
:101200003C00FAD8490728BF20E90C0048BF40F845
:10121000042D890028BF20F8022D48BF00F8012DB9
:1012200030BC7047C91818BF00F8012DCB0728BF84
:1012300000F8012D7047000038B50D4D0D4B2A7890
:1012400004464FF47A711868B1FBF2F2B0FBF2F089
:10125000FFF71AFD50B9102C08D2002221464FF09A
:10126000FF30FFF7E9FCAC60002032BD012032BD49
:10127000000000200C000020704730B4002512E070
:1012800050F8042BD30744BF4A44521E091F0429B7
:1012900042F8045BFAD213468C0744BF15809B1CAE
:1012A000C90748BF1D7050F8041B0029E8D130BCA5
:1012B0007047000080B5FFF75CFFFEE7FEE7FEE742
:1012C000FEE7FEE770477047704700F009B800E09E
:1012D00000BF0148FFF72FB910000020F9E7000018
:1012E00002494A68087882184A6070470000002066
:1012F00010B5074979441831064C7C44163404E093
:101300000A68081D114488470146A142F8D110BD62
:10131000080000002800000063FFFFFF74000000C9
:1013200010000020000000000BF4FFFF1000000080
:1013300094000000000000200000000000F00DF804
:10134000002801D0FFF7D4FFAFF300800020AFF3F7
:101350000080FFF799FA00F002F80120704700F0D2
:1013600001B800000746384600F002F8FBE700002D
:1013700080B5AFF30080024A11001820ABBEFBE736
:10138000260002000548014603B4684680F3098838
:10139000AFF30080AFF30080FFF7D0FFA5EDF5FEBF
:1013A000704700000000000000000000010203047C
:1013B000060708090148804701480047A1130008B3
:1013C000851300080100000000000000100000006C
:1013D0000024F400FFF7FEBFFFF7FEBFFFF7FEBFDC
:1013E000FFF7FEBFFFF7FEBFFFF7FEBFFFF7FEBF31
:1013F000FFF7FEBFFFF7FEBFFFF7FEBFFFF7FEBF21
:10140000FFF7FEBFFFF7FEBFFFF7FEBFFFF7FEBF10
:10141000FFF7FEBFFFF7FEBFFFF7FEBFFFF7FEBF00
:10142000FFF7FEBFFFF7FEBFFFF7FEBFFFF7FEBFF0
:10143000FFF7FEBFFFF7FEBFFFF7FEBFFFF7FEBFE0
:10144000FFF7FEBFFFF7FEBFFFF7FEBFFFF7FEBFD0
:10145000FFF7FEBFFFF7FEBFFFF7FEBFFFF7FEBFC0
:10146000FFF7FEBFFFF7FEBFFFF7FEBFFFF7FEBFB0
:04147000FFF7FEBFC5
:040000050800138557
:00000001FF
