:020000040800F2
:10000000000A002001510008694F00086B4F0008EA
:100010006D4F00086F4F0008714F0008000000008E
:10002000000000000000000000000000734F000806
:10003000754F000800000000774F0008794F000856
:100040001151000815510008195100081D510008F0
:100050002151000825510008295100082D510008A0
:100060003151000835510008395100083D51000850
:100070004151000845510008495100084D51000800
:100080005151000855510008595100080000000066
:100090000000000000000000000000005D510008AA
:1000A0007D4F000861510008655100086951000842
:1000B0006D51000871510008755100087951000810
:1000C0007D5100088151000885510008AB4F0008A0
:1000D000895100088D51000891510008000000006E
:1000E00095510008995100089D510008000000003A
:1000F000000000000000000000000000A151000806
:1001000000000000A5510008A9510008AD510008E9
:1001100000000000000000000000000000000000DF
:10012000B1510008B5510008B14F0008B95100089D
:10013000BD510008000000000000000000000000A9
:10014000000000000000000000000000C151000895
:10015000C5510008C9510008CD510008D15100080F
:10016000D5510008D951000800000000000000002F
:10017000000000000000000000000000000000007F
:1001800000000000DD510008000000000000000039
:10019000E1510008E55100080000000000000000E7
:1001A000000000000000000000000000000000004F
:1001B000000000000000000000000000000000003F
:1001C000000000000000000000000000E003E00369
:1001D000E003E003E003E003E003E003C003C00347
:1001E000C001C001C001C001C0010000000000004A
:1001F000E003E003E0030000000000000000000056
:100200003C1E3C1E3C1E3C1E3C1E3C1E3C1E000078
:1002100000000000000000000000000000000000DE
:1002200000000000000000000000000000000000CE
:1002300000000000CE01CE03DE039E039C039C075A
:10024000FF3FFF7F3807380F780F780F780EFFFFDA
:10025000FFFFF01EF01CE01CE03CE03DE039000038
:100260000000000000000000FC03FE0FEE1FE01E77
:10027000E01EE01EE01EE01FE00FE007F003FC01BF
:10028000FE01FE01FE01FE01FE01FE01FE3DFC3FFE
:10029000F00FE001E001000000000000033E07F75E
:1002A0008FE78EE79EE3BCE3B8E7F8E7F0F7E03FBF
:1002B000C001FF03FF07F307F30FF31EF33CF3380E
:1002C000F3787FF03FE00000000000000000000035
:1002D000E007F80F780F781F781F781F780FF00F5E
:1002E000E00F801FC37FC3FBE7F3F7F1F7F0FFF0E8
:1002F0007FF03EF87F7CFF3FEF1F00000000000012
:1003000000000000E003E003E003E003E003C003BB
:10031000C00100000000000000000000000000001C
:1003200000000000000000000000000000000000CD
:1003300000000000000000003F007C00F001E00130
:10034000C003C00780078007800F000F000F000F59
:10035000000F000F000F800F80078007C007C00349
:10036000E001F0017C003F000F000000007E001F54
:10037000C007C003E001F001F000F000F8007800D1
:1003800078007800780078007800F800F000F0003D
:10039000F001E001C003C007001F007E00780000EC
:1003A000E003C003C001CE39FF3F7F3F200370034D
:1003B000F807780F3C1F380600000000000000001E
:1003C000000000000000000000000000000000002D
:1003D000000000000000000000000000000000001D
:1003E000C001C001C001C001C001C001C001FFFFC8
:1003F000FFFFC001C001C001C001C001C001000079
:1004000000000000000000000000000000000000EC
:1004100000000000000000000000000000000000DC
:1004200000000000000000000000E003E003E00323
:10043000E003E001E001E001C001800300000000F2
:1004400000000000000000000000000000000000AC
:100450000000FE3FFE3F0000000000000000000022
:10046000000000000000000000000000000000008C
:10047000000000000000000000000000000000007C
:10048000000000000000000000000000000000006C
:100490000000E003E003E003E003000000000000D0
:1004A000000000000F000F001E001E003C003C007A
:1004B00078007800F000F000E001E001C003C00324
:1004C00080078007000F000F001E001E003C003C4C
:1004D0000078007800F00000F007F80F7C1F3E3E27
:1004E0001E3C1F7C1F7C0F780F780F780F780F78D9
:1004F0000F780F781F7C1F7C1E3C3E3E7C1FF80F40
:10050000F00700000000000000000000F000F0070D
:10051000F03FF03FF001F001F001F001F001F001D7
:10052000F001F001F001F001F001F001F001F00143
:10053000F001FF3FFF3F000000000000000000004E
:10054000E00FF83F7C3C3C003E003E003E003C009B
:100550003C007C00F800F001E003C0078007000FBA
:10056000001E003E003CFE3FFE3F00000000000079
:1005700000000000F00FF81F7C1C3E003E003E0013
:100580003C003C00F800F00FF80F7C003E001E001D
:100590001E001E001E003E007C1CF81FE01F000015
:1005A00000000000000000007800F800F800F801EA
:1005B000F803F807F807780F781E781E783C7878EB
:1005C0007878FFFFFFFF78007800780078007800E7
:1005D000780000000000000000000000FC1FFC1F6D
:1005E000FC1F001E001E001E001E001EE01FF81F44
:1005F000FC007C003E003E001E003E003E003C0031
:100600007C1CF81FE01F000000000000000000003C
:10061000FC01FE078E0F001F001E003E003C003C48
:10062000F83DFC3F3E7F1F7E0F3C0F3C0F3C0F3CD4
:100630000F3E1F1E3E1FFC0FF003000000000000D5
:1006400000000000FF3FFF3FFF3F0F001E001E00A5
:100650003C0038007800F000F000E001E001C00349
:10066000C0038007800F800F000F001F001F0000D5
:100670000000000000000000F807FC0F3E1F1E1ED7
:100680001E3E1E3E1E1E3C1FF80FF007F80FFC1EFC
:100690003E3E1F3C1F7C0F7C0F7C1F3C3E3FFC1FDF
:1006A000F00700000000000000000000F007F80F55
:1006B0007C1E3E3C1E3C1F7C1F7C1F7C1F7C1F3C05
:1006C0003F3EFF1FEF071F001E001E003E003C00C4
:1006D000F838F03FE01F00000000000000000000BC
:1006E000000000000000000000000000E003E00344
:1006F000E003E00300000000000000000000000034
:100700000000E003E003E003E0030000000000005D
:1007100000000000000000000000000000000000D9
:10072000E003E003E003E00300000000000000003D
:10073000000000000000E003E003E003E003E0014C
:10074000E001E001C00380030000000000000000A1
:100750000000000003000F003F00FC00F003C00F8A
:10076000003F00FE003FC00FF003FC003F000F0001
:100770000300000000000000000000000000000076
:100780000000000000000000000000000000000069
:10079000FFFFFFFF000000000000FFFFFFFF000061
:1007A0000000000000000000000000000000000049
:1007B00000000000000000000000000000E000F861
:1007C000007E801FE007F8017E001F007E00F80118
:1007D000E007801F007E00F800E00000000000003D
:1007E00000000000F01FFC3F3E381F381F381E007D
:1007F0001E003C007800F000E001C003C003C00709
:10080000C007000000000000C007C007C0070000CC
:100810000000000000000000F803FE0F1E1F0F3E46
:100820007F3CFF78EF79C773C7F38FF38FF38FF3B4
:100830009FF39FF3FF73FF7BF779003C1C1FFC0FB6
:10084000F8030000000000000000000000000000AD
:100850000000E003E003F007F007F007780F780FDF
:100860007C0E3C1E3C1E3E3CFE3FFF3F1F780F7837
:100870000FF007F007F0000000000000000000008B
:10088000000000000000F83FFC3F3E3C1E3C1E3CC8
:100890001E3C3E3C7C3CF03FF83F7E3C1F3C1F3CF6
:1008A0000F3C0F3C1F3CFE3FF83F000000000000E3
:1008B00000000000000000000000FF01FF07871F8C
:1008C000003E003C007C00780078007800780078DA
:1008D000007C007C003E003F831FFF07FF010000FB
:1008E0000000000000000000000000000000F07F99
:1008F000FC7F7E781F781F780F780F780F780F783D
:100900000F780F780F780F781F781E787E78F87F31
:10091000E07F000000000000000000000000000078
:100920000000FF3FFF3F003E003E003E003E003E15
:10093000003EFE3FFE3F003E003E003E003E003EC9
:10094000003EFF3FFF3F00000000000000000000ED
:10095000000000000000FF1FFF1F001E001E001E01
:10096000001E001E001EFF1FFF1F001E001E001E97
:10097000001E001E001E001E001E000000000000E1
:1009800000000000000000000000FE03FF0F871FB2
:10099000003E007C007C007800F800F87FF87FF8CB
:1009A0000F780F7C0F7C0F3E8F1FFF0FFE030000A0
:1009B00000000000000000000000000000001F7C9C
:1009C0001F7C1F7C1F7C1F7C1F7C1F7C1F7CFF7F6C
:1009D000FF7F1F7C1F7C1F7C1F7C1F7C1F7C1F7C5C
:1009E0001F7C00000000000000000000000000006C
:1009F0000000FF3FFF3FE003E003E003E003E0030C
:100A0000E003E003E003E003E003E003E003E003CE
:100A1000E003FF3FFF3F0000000000000000000077
:100A2000000000000000FC1FFC1F7C007C007C001C
:100A30007C007C007C007C007C007C007C007C00D6
:100A400078007800F838F03FC03F00000000000058
:100A5000000000000000000000001F3C1E3C3C3C69
:100A6000783CF03CE03DE03FC03F803FC03FE03F8E
:100A7000F03DF03C783C7C3C3E3C1F3C0F3C000091
:100A80000000000000000000000000000000003E28
:100A9000003E003E003E003E003E003E003E003E66
:100AA000003E003E003E003E003E003E003EFF3F56
:100AB000FF3F0000000000000000000000000000F8
:100AC00000001FF81FFC1FFC3FFE3FFE3FFE7FFFA4
:100AD00077FF77FFF7F7E7F7E7F3E7F3C7F307F0F9
:100AE00007F007F007F00000000000000000000021
:100AF0000000000000000F7C0F7C0F7E0F7F0F7F37
:100B00008F7F8F7FCF7FEF7BEF79FF79FF78FF7843
:100B10007F783F783F781F781F7800000000000042
:100B200000000000000000000000F007FC1F3E3E37
:100B30001F7C0F780F780FF80FF80FF80FF80FF8E9
:100B40000FF80F780F781F7C3E3EFC1FF007000067
:100B50000000000000000000000000000000FC3F5A
:100B6000FF3F1F3E0F3E0F3E0F3E0F3E1F3E3F3EDC
:100B7000FC3FF03F003E003E003E003E003E003E97
:100B8000003E000000000000000000000000000027
:100B90000000F007FC1F3E3E1F7C0F780F780FF817
:100BA0000FF80FF80FF80FF80FF80F780F781F7C79
:100BB0003E3EFC1FF8077C003F000F0003000000D2
:100BC000000000000000F03FFC3F7E3C3E3C1E3C2D
:100BD0001E3C3E3C3C3CFC3CF03FE03FF03DF83CE2
:100BE0007C3C3E3C1E3C1F3C0F3C000000000000D3
:100BF00000000000000000000000FC07FE1F0E3E89
:100C0000003C003C003C003EC01FF80FFE037F008C
:100C10001F000F000F001F203E3CFC3FF01F000094
:100C20000000000000000000000000000000FFFFC6
:100C3000FFFFE003E003E003E003E003E003E00381
:100C4000E003E003E003E003E003E003E003E0038C
:100C5000E0030000000000000000000000000000B1
:100C600000000F7C0F7C0F7C0F7C0F7C0F7C0F7CB7
:100C70000F7C0F7C0F7C0F7C0F7C0F7C1E3C1E3C7E
:100C80003E3EFC1FF00700000000000000000000D6
:100C900000000000000007F007F007F80F780F7C55
:100CA0001E3C1E3C1E3E3C1E3C1F781F780FF80F5A
:100CB000F007F007F007E003E00300000000000089
:100CC0000000000000000000000003E003F003F05B
:100CD00007F0E7F3E7F3E7F3E773F77BF77FFF7FCF
:100CE0007F7F7F7F7E7F7E3F3E3E3E3E3E3E0000DA
:100CF000000000000000000000000000000007F8F5
:100D00000F7C1E3E3E3E3C1FF80FF007E007E0035D
:100D1000E003F007F80F7C0F7C1E3E3C1F780F7835
:100D20000FF00000000000000000000000000000C4
:100D3000000007F807780F7C1E3C1E3E3C1F780F12
:100D4000F80FF007E003E003E003E003E003E00353
:100D5000E003E003E00300000000000000000000EA
:100D6000000000000000FF7FFF7F0F001F003E001B
:100D70007C00F800F000E001E003C007800F000FE6
:100D8000001E003E007CFF7FFF7F0000000000008F
:100D900000000000FF0780078007800780078007AA
:100DA000800780078007800780078007800780070B
:100DB00080078007800780078007800780078007FB
:100DC0008007FF07FF07000000780078003C003C28
:100DD000001E001E000F000F80078007C003C00325
:100DE000E001E001F000F000780078003C003C00F9
:100DF0001E001E000F000F0007000000F07FF00033
:100E0000F000F000F000F000F000F000F000F00062
:100E1000F000F000F000F000F000F000F000F00052
:100E2000F000F000F000F000F000F07FF07F000034
:100E3000C000C001C001E003E003F007F00778073D
:100E4000780F380F3C1E3C1E1E3C1E3C0F380F789E
:100E50000778000000000000000000000000000013
:100E60000000000000000000000000000000000082
:100E70000000000000000000000000000000000072
:100E80000000000000000000000000000000FFFF64
:100E9000FFFF000000000000F00000000000000064
:100EA0000000000000000000000000000000000042
:100EB0000000000000000000000000000000000032
:100EC0000000000000000000000000000000000022
:100ED0000000000000000000F80FFC3F7C3C3E00DA
:100EE0003E003E00FE07FE1F3E3E3E7C3E783E7CBE
:100EF0007E7CFF3FCF1F00000000000000000000CC
:100F0000003C003C003C003C003C003CF83DFE3F07
:100F10003E3F1F3E0F3C0F3C0F3C0F3C0F3C0F3C35
:100F20001F3C1E3C3E3FFC3FF03B00000000000029
:100F300000000000000000000000000000000000B1
:100F4000FE03FF0F871F003E003E003C007C007C3C
:100F5000007C003C003E003E871FFF0FFE030000A8
:100F600000000000000000001F001F001F001F0005
:100F70001F001F00FF07FF1F3F3E1F3C1F7C1F7C01
:100F80001F7C1F781F781F7C1F7C3F3C7F3EFF1F0C
:100F9000DF0F000000000000000000000000000063
:100FA0000000000000000000F803FC0F3E1F1E3E82
:100FB0001F3C1F7CFF7FFF7F007C007C003C003ECD
:100FC000071FFF0FFE0300000000000000000000EC
:100FD000FF01E103C003C007C007C007FF7FFF7F19
:100FE000C007C007C007C007C007C007C007C007C9
:100FF000C007C007C007C007C0070000000000000E
:1010000000000000000000000000000000000000E0
:10101000EF07FF1F7F3E1F3C1F7C1F7C1F781F7840
:101020001F781F7C1F7C3F3C7F3EFF1FDF0F1E0091
:101030001E001E007C38F83F003C003C003C003C99
:10104000003C003CFC3DFE3F9E3F1F3F1F3E1F3CBF
:101050001F3C1F3C1F3C1F3C1F3C1F3C1F3C1F3CB8
:101060001F3C00000000000000000000F001F00143
:101070000000000000000000E07FE07FE001E001F0
:10108000E001E001E001E001E001E001E001E00158
:10109000E001E001E00100000000000000000000AD
:1010A000F800F8000000000000000000F83FF83FE2
:1010B000F800F800F800F800F800F800F800F80070
:1010C000F800F800F800F800F800F800F800F00068
:1010D000F071E07F003C003C003C003C003C003CE8
:1010E0001F3C3E3C7C3CF83CF03DE03DC03FC03FF7
:1010F000E03FF03DF83C7C3C3E3C1F3C1F3C000088
:101100000000000000000000F07FF001F001F0019D
:10111000F001F001F001F001F001F001F001F00147
:10112000F001F001F001F001F001F001F001F00137
:10113000F0010000000000000000000000000000BE
:1011400000000000000000009EF7FFFFFFFFFFFF10
:10115000E7FBE7F9C7F1C7F1C7F1C7F1C7F1C7F17D
:10116000C7F1C7F1C7F10000000000000000000057
:10117000000000000000000000000000FC3DFE3FF9
:101180009E3F1F3F1F3E1F3C1F3C1F3C1F3C1F3C00
:101190001F3C1F3C1F3C1F3C1F3C00000000000088
:1011A000000000000000000000000000000000003F
:1011B000F007FC1F3E3E1F3C1F7C0F780F780F7816
:1011C0000F780F781F7C1F3C3E3EFC1FF00700008D
:1011D000000000000000000000000000000000000F
:1011E00000000000F83DFE3F3E3F1F3E0F3C0F3C1D
:1011F0000F3C0F3C0F3C0F3C1F3C1E3E3E3FFC3F54
:10120000F83F003C003C003C003C003C000000007B
:101210000000000000000000EE07FE1F7E3E1E3CA6
:101220001E7C1E781E781E781E781E781E7C3E7CE2
:101230007E3EFE1FDE0F1E001E001E001E001E0052
:101240000000000000000000000000007F1FFF1FE2
:10125000E71FC71F871F001F001F001F001F001F61
:10126000001F001F001F001F001F000000000000E3
:10127000000000000000000000000000000000006E
:10128000FC07FE1F0E1E003E003E003FE01FFC0755
:10129000FE003E001E001E003E3CFC3FF01F000012
:1012A00000000000000000000000000000008007B7
:1012B00080078007FF7FFF7F800780078007800708
:1012C000800780078007800780078007C007FF032B
:1012D000FF0100000000000000000000000000000E
:1012E00000000000000000001E3C1E3C1E3C1E3C96
:1012F0001E3C1E3C1E3C1E3C1E3C1E3C3E3C7E3C9E
:10130000FE3EFE1FDE0F0000000000000000000097
:1013100000000000000000000000000007F00F784F
:101320000F781E3C1E3C1E3E3C1E3C1E780F780F64
:10133000F00FF007F007E003E003000000000000FA
:10134000000000000000000000000000000000009D
:1013500003F0E3F1E3F3E7F3F7F3F7F3F77F777FD6
:101360007F7F7F7F7F7F3E3E3E3E3E3E3E3E000093
:10137000000000000000000000000000000000006D
:10138000000000000F7C1E3E3C3E3C1FF80FF007A3
:10139000F007E003F007F807F80F7C1E3E3E1F3C05
:1013A0001F780000000000000000000000000000A6
:1013B000000000000000000007F80F780F7C1E3CC2
:1013C0001E3C3C1E3C1E3C1F780FF80FF007F00738
:1013D000E003E003C003C003C0038007800F007F69
:1013E000000000000000000000000000FF3FFF3F81
:1013F0001F003E007C00F800F001E003C007800FF2
:10140000001F001E003CFF7FFF7F00000000000067
:1014100000000000FE01E003C003C003C003C003DE
:10142000E001E001E001C001C003803F803FC00354
:10143000C001E001E001E001C003C003C003C0033C
:10144000E003FE017E000000C001C001C001C00138
:10145000C001C001C001C001C001C001C001C00184
:10146000C001C001C001C001C001C001C001C00174
:10147000C001C001C001C001C0010000C03FE003C5
:10148000E001E001E001E001C001C003C003C001D0
:10149000E001FE00FE00E001C001C003C003C00186
:1014A000E001E001E001E001E003C03F003F000097
:1014B000000000000000000000000000000000002C
:1014C000000000000000073FC77FE773FFF17EF0D8
:1014D000000000000000000000000000000000000C
:1014E000000000002DE9F14FB2B09946924600236A
:1014F0000691CDE900333C9A0F930DF14A01149106
:101500004A7011E0329E57462C4617F8011B069888
:10151000B0470028069000F026810F98401C641EFA
:101520000F90F2D13296AA449AF80000252808D1EB
:101530000021002209910A920B910C920D910E92BA
:101540000FE06A464FF0FF31504601F01DF80500EC
:1015500002D10F9800F00EBED4D50125E3E741F08B
:1015600001011AF8010F2028F9D023280CD02B28CC
:1015700004D02D2805D0302809D00BE041F002011D
:10158000EFE741F00401ECE741F00801E9E741F041
:101590001001E6E72A280FD1D9F8002052F8040BF1
:1015A000C9F800200028119003D54042119041F065
:1015B00004010AF1010A14E01192DFF8543B0AE039
:1015C0001198984205DA00EB800402EB4402303AAD
:1015D00011920AF1010A9AF80020A2F130000A28BB
:1015E000EED39AF800002E2803D04FF0FF3210926D
:1015F00029E01AF8010F2A2809D1D9F8000050F87B
:10160000042BC9F8000010920AF1010A1BE02D28F2
:101610000CBF0AF1010A002000221092DFF8F02A24
:101620000BE040B9109B934205DA03EB830504EB12
:101630004504303C10940AF1010A9AF80040A4F1E4
:1016400030030A2BEDD3ADF848100FF6C8209AF8F6
:10165000001000F0A3FF08B11AF8010B8DF84A0042
:101660009DF84A00682805D19AF8000068280CD136
:10167000622106E06C2804BF9AF800006C2804D1AF
:1016800071218DF84A100AF1010A1FA808901AF872
:1016900001BBBBF125012DD01C3900F06381091F6E
:1016A000022940F25F810E392AD0491F00F066847A
:1016B000093900F05781891E00F0FC84491E00F0B2
:1016C000A884491E022940F24D81091F00F0A1841F
:1016D000491F00F0BC80491E00F05084491E65D0AF
:1016E000C91E21D0891E00F04984C91E00F046841D
:1016F00000F0FFBC25238DF87C30012109912AE000
:101700006C208DF84A00D9F8000050F8042BC9F875
:101710000000002A43D11499487800283DD04FF0AA
:10172000FF340FF6F81012E09DF84A006C28EAD05A
:10173000D9F8000050F8044BC9F800000794D4B958
:101740001499487898B14FF0FF340FF6EC1000F080
:1017500035FF201A07D132981FAA04A900F00DFD09
:1017600000287FF5E1AE4FF0FF3000F003BD0FF62B
:10177000E4100790EFE7109D002D04D5204600F0FF
:101780003DFF044607E02A46204600F041FF0028BE
:1017900014BF041B2C460A94DDE70FF6BC123298E6
:1017A00004A900F070FD0028D5D5DCE7D9F80010B9
:1017B00051F8040BC9F8001020F00004002121F0BA
:1017C000FF351FABCDE904450793DDE904230899F4
:1017D0003C2413B90AB91098A8B102F00F053035AE
:1017E000641EEEB23A2E08DA120942EA03721B09AD
:1017F0000D5508BF002A02D105E02735F4E7079808
:101800000D19A842E9D308190790C4F13C021098B9
:101810000A92824209DABDF84810821A4FF6EF7038
:1018200001400C92ADF8481095E7002893D59DF83B
:10183000480000F0140010288DD1119B09990C98D4
:101840005B1A1B1A9A1A002A85DD0C9283E71499F9
:10185000487820B14FF0FF340FF6001077E79DF87D
:101860004A00622862D0682819D06A2840D06C28C3
:1018700006D071284DD074282DD07A281ED064E06F
:10188000D9F8001051F8040BC9F8001020B94FF036
:10189000FF340FF644405AE70F9901605BE7D9F82F
:1018A000001051F8040BC9F8001020B94FF0FF34B4
:1018B0000FF624404BE70F9901804CE7D9F8001050
:1018C00051F8040BC9F800100028E5D14FF0FF349F
:1018D0000FF604403BE7D9F8001051F8040BC9F8A3
:1018E00000100028D8D14FF0FF340FF6EC302EE76F
:1018F000D9F8001051F8040BC9F8001020B94FF0C6
:10190000FF340FF6D43022E70F9AD317C0E9002333
:1019100021E7D9F8001051F8040BC9F8001000288D
:10192000F2D14FF0FF340FF6B03010E7D9F80010C5
:1019300051F8040BC9F8001020B94FF0FF340FF62E
:10194000983004E70F99017005E7D9F8001051F8B5
:10195000040BC9F8001000289ED14FF0FF340FF699
:101960007830F4E6D9F80020D21D22F00702C9F839
:101970000020D2E900010832C9F80020CDE90401B5
:10198000C80F02D009982D210AE0BDF84800810750
:1019900002D509982B2103E0C00705D5099820211D
:1019A0001FAA1154401C09901FA80999DDE904459C
:1019B00043184BF020006128079315AE0BD0109808
:1019C000002802D50620109005E001BF4BF0200052
:1019D000672801211091DDE9040148004015401CF1
:1019E0000A4611D109030FD0ABF1610703201A2F6A
:1019F0000A9002D20FF6F82101E00FF6F821032237
:101A0000184600F031FEA6E650B9120308D1ABF13A
:101A1000610703201A2F0A9018D30FF6E021EEE792
:101A2000DDE9040102AA00F073FECDE904014BF0E8
:101A30002000612811D1079830210170821CBBF170
:101A4000610F07920CBF7821582102E00FF6A82100
:101A5000D5E741700998801C0990DDE9040120F068
:101A6000000231F0004308BF002A02D10025002403
:101A700046E14BF02008B8F1610F40F095801098D6
:101A8000002847BF21210391401C0390039F7F1C26
:101A90002046294600220023DDE9044500F070FEBF
:101AA00002998DF8542038BF85F00045091F002F9A
:101AB00002910DF1550034DD0646204629460022EC
:101AC000002300F077FE2BD21C2200F08DFE04468E
:101AD0000D4600F027FFFF1F002F804609DD00F0B4
:101AE0003DFF02460B462046294600F0FFFF044614
:101AF0000D46F01D0721B8F1000F0CDD491E5EBF39
:101B000008F00F0200F8012D4FEA2818F3D502E083
:101B1000002200F8012D491EFAD5C61D002FCCDC8D
:101B200030460DF15501401A039905468842C8BF59
:101B30000D46002D0DF155062FD4854206DA0DF124
:101B40005500415D0829A8BF0F2000DA0020294672
:101B500015AA0A4400E06D1E12F80139491E83429D
:101B6000F9D00F2804D10DF15500425C521C4254AB
:101B7000002904D50298001D15AE6D1C0290681E48
:101B80000BD431180A783032D3B23A2BA4BF5A445E
:101B90003A3A401E01F80129F4D51098002840F186
:101BA000AE80691E1091AAE00299DFF8EC2847F296
:101BB0009750414391FBF2F2029225F00045C2F1A9
:101BC0000702002A04DD2046294600F042FC0BE013
:101BD00052420020DFF8C41800F03BFC02460B46DE
:101BE0002046294600F0F4FF0446B8F1660F10982D
:101BF00006BF029F0A3706273F18142FC8BF1427B5
:101C000030208DF854000D460020DFF89418CDE9FF
:101C10002E010DF15506002F33DD2046294601F037
:101C2000FBF801460A4606F1080304200A26B2FB27
:101C3000F6F606EB860EA2EB4E02303203F8012CCC
:101C40000A22B6FBF2F202EB820EA6EB4E0630360B
:101C5000401E03F8026DE9D1083F002F03F108068A
:101C6000D9DD084601F0EAF802460B46204629462F
:101C700000F03CFFDDE92E2301F0EEF804460D46AE
:101C8000CBE70DF15500301A0DF1550604E002992D
:101C9000491E401E0291761C31783029F7D0B8F1E8
:101CA000660F02D10299491C04E0B8F1650F0CBF20
:101CB00001210021109D4D19A842B8BF451E002DDD
:101CC0001DD4854204DA705D3428C8BF392000DC99
:101CD00030202946721E531800E06D1E13F801498A
:101CE000491E8442F9D0392802D1705C401C7054DE
:101CF000002904D50298401C16466D1C0290029CD7
:101D000000F046FC406A0778DDF8408028B20028E1
:101D100002DC01250FF2E8764BF02000662808BFB0
:101D2000641C16D0672846D120B210F1040F48DB9E
:101D3000404546DA9DF84800641C010703D428B2E8
:101D40004045D8BF804620B2B8EB000848BF4FF0EE
:101D500000080FFA84FB07980A99BBF1000F00F303
:101D6000B3804A1C0A9230234354B8F1000F03DCBD
:101D70009DF84800010704D50A98411C0A9107996B
:101D80000F5418EB0B0FB8BFC8F1000424B2604227
:101D90000D90A0442AB29045B8BF4546079B0A98CB
:101DA0002DB20B952A463146184400F05DFCA8EB95
:101DB00005000E90CCE0BBF1610F17D14FF0700B16
:101DC00019E028B2404504DA9DF848100A0758BFC8
:101DD0008046B8F1010848BF4FF00008BBF1670F1B
:101DE00014BF4FF0450B4FF0650B04E0BBF1410F02
:101DF00008BF4FF0500B0A98411C0A91B8F1000F30
:101E0000079916F8012B0A5403DC9DF848000107D6
:101E10001AD50A98411C0A91B8F1000F07990F547E
:101E200012DD6D1E28B2804507980A9BB8BF454653
:101E30002AB23146184400F017FC0A992DB26918ED
:101E40000A91A8EB05000D9007980A99084421B261
:101E5000002980F800B003D42B224270821C04E0D9
:101E60002D2242700C46821C644200212EAB20467B
:101E70000AE004460A2094FBF0F000EB8005A4EB96
:101E8000450403F8014B491C00B20028F1DC01298C
:101E900006DC4BF02000652804BF302002F8010B5F
:101EA00000292EAB08D1302002F8010B06E0491EB4
:101EB000585C303002F8010B0029F8DC07990A98C9
:101EC0000844121A0B9243E0084429B222B291420C
:101ED00019DA2AB2314600F0C7FB0A992DB2691807
:101EE0000A91ABEB0500B8F1000F0D9003DC9DF8F3
:101EF0004800020704D5079847540B99491C0B91D9
:101F0000CDF8388024E0314600F0AEFB0A982D1B56
:101F10005844B8F1000F0A9003DC9DF848100A07F6
:101F200003D5411C0A9107990F5428B280450798A0
:101F30000A9BB8BF45462AB206EB0B01184400F0D5
:101F400093FB0A982DB228180A90A8EB05000D9073
:101F50009DF8480000F0140010287FF4FCAB099AAB
:101F60000A990D988A180B9982180E988A18821867
:101F700011988242BFF6EFAB821A66E49DF84A00E0
:101F8000622808D068280ED06A2814D06C281FD088
:101F9000712810D01CE0D9F8001051F8040BC9F8D2
:101FA0000010C0B21AE0D9F8001051F8040BC9F8BB
:101FB000001080B212E0D9F80020D21D22F00702F2
:101FC000C9F80020D2E900010832C9F8002006E073
:101FD000D9F8001051F8040BC9F800100021CDE920
:101FE00004019DF8480001075AD5DDE90423002BC0
:101FF00008BF002A54D04BF02000782850D109980F
:102000001FA930220A54401C431C099301F800B058
:1020100046E09DF84A00622808D068280ED06A2859
:1020200014D06C281FD0712810D01CE0D9F80010F3
:1020300051F8040BC9F8001040B21AE0D9F80010AA
:1020400051F8040BC9F8001000B212E0D9F80020D2
:10205000D21D22F00702C9F80020D2E9000108329F
:10206000C9F8002006E0D9F8001051F8040BC9F8AF
:102070000010C117CDE90401002902D509982D21CE
:102080000AE0BDF84800810702D509982B2103E03A
:10209000C00705D5099820211FAA1154401C09909A
:1020A0001FA809990144079104A8594600F04BF96B
:1020B000FFF751BB9DF84A006C280BD00121099114
:1020C000D9F8000050F8041BC9F800008DF87C1006
:1020D000FFF741BBD9F8000050F8041BC9F8000015
:1020E00002914FF0FF3210920021039102AAFFF7F4
:1020F00056BB25210122BBF1000F8DF87C100992FF
:102100003FF429AB8DF87DB00221FFF7F7BA00004C
:10211000CBCCCC0C686A6C747A4C00007072696E1F
:1021200074665F733A2062616420256C732061726B
:1021300067756D656E7400007072696E74665F73AA
:102140003A2062616420257320617267756D656E47
:102150007400000000000000000000007072696E52
:1021600074665F733A20256E20646973616C6C6FCE
:102170007765640033B0BDE8F08F2DE9FC410F4670
:10218000064690467A6B7869396ABC6A121AB86951
:10219000521A796A121AF869521A121A97F8380004
:1021A000141B41070FD42020002C8DF800000ADDFD
:1021B000254601236A463946304600F075F9002865
:1021C0005DD16D1EF5D17B6942463946304600F03F
:1021D0006BF9002853D130208DF800003D6A002DA6
:1021E00009DD01236A463946304600F05DF90028D2
:1021F00045D16D1EF5D1BB69FA683946304600F00D
:1022000053F900283BD130208DF800007D6A002D65
:1022100008DD01236A463946304600F045F970BBB7
:102220006D1EF6D1F868B969FB6942183946304627
:1022300000F03AF918BB30208DF80000BD6A002D7F
:1022400008DD01236A463946304600F02DF9B0B961
:102250006D1EF6D197F8380041070DD52020002CCF
:102260008DF8000008DD01236A463946304600F04B
:102270001BF920B9641EF6D10020BDE8F6814FF0AD
:10228000FF30BDE8F6812DE9F8470D46A3B02F6B6E
:10229000002F8246904648BF6FF0004700F0B1FE25
:1022A000696B401801AA0021C2E90011812828BFEA
:1022B0004FF0FF3044D289461EE0A74230DB686908
:1022C000201881280BD30021696303AA29465046B0
:1022D000FFF753FF5FEA000922D40020686103ABD7
:1022E0006E6922466946981900F0BEF9A6196E611A
:1022F00058F8040BA0B13F1B002F11DDD8F80010D7
:1023000001AA684600F042F90446002C05D4D8F82A
:1023100000000028D1D1641ECFD54FF0FF390EE068
:10232000B9F1000F504604D103AA2946FFF725FF53
:102330008146B9F1000F02D1002068616863484608
:1023400024B0BDE8F0872DE9FC4304466F292569D8
:1023500008BF082605D041F02000782814BF0A26BF
:1023600010263C27D4E90023642918BF6929904628
:10237000994605D1002B03D5D8F1000869EB49092E
:10238000B9F1000F08BFB8F1000F0CD1206B50B9A4
:10239000082E3AD194F83800010736D530203B2773
:1023A00085F83B0031E08DF8001040464946324642
:1023B000F31700F02BFE3032D0B27F1E3A2801977F
:1023C0000EDAEA55404649463246F31700F01EFE43
:1023D00080465FEA010908BFB8F1000F05D108E0A7
:1023E0009DF800001218513AEBE7E068E9198842BD
:1023F000DBD3082E09D194F83800010705D5E85D34
:10240000302802D07F1E3020E855C7F13C02A2617F
:10241000E919E160206B824208DA821A22624FF6E3
:10242000EF70218F01402187BDE8F38300280ED58E
:1024300094F8380000F01400102808D1636B61692B
:10244000206A5B1A1B1A9A1A002AC8BF2262BDE8CA
:10245000F3832DE9D04306460F4614464FF000089B
:10246000DFF8409012E0E00707D542464B46304681
:10247000394600F0F1FC06460F46404649464246C2
:102480004B4600F0E9FC641080468946002CEAD1F6
:1024900030463946BDE8D083A08601000000F03FF9
:1024A00084D7974100002440F8B505460E461746EC
:1024B0001C4600205CB117F8011BB068A847B0604B
:1024C00030B1F06A401CF0620020641EF3D1F2BD0E
:1024D0004FF0FF30F2BD00007072696E74663A20F2
:1024E00062616420256E20617267756D656E74008F
:1024F0006E616E004E414E00696E6600494E4600A8
:102500003000B1F5807F02D34FF0FF30704701708B
:10251000012070470078401E8041C043C00F7047C3
:102520001C48704770B45368D41801E05B1C491E06
:10253000042B08DA00291FBF057804F8015B10F8A6
:10254000016B002EF2D1536070BC704738B5144651
:102550001D4661B1FFF7E6FF61686A6B2046904750
:102560006FF00102811A02D0491E01D001E003E0A0
:1025700005E00021616032BD6FF0010032BD4FF017
:10258000FF3032BDDA6B1047024BDFE7014BF9E752
:10259000014870478C00002054000020C9B2027826
:1025A0008A421AB11CBF10F8012FF9E718BF0020AA
:1025B00070470268531C03601170704780B500B902
:1025C00006A005490B681BB122220021984701E0B3
:1025D00000F09FFD222002BDF8050020636F6E739E
:1025E000747261696E742068616E646C65723A2001
:1025F000626164206D6573736167650000F10103BA
:1026000010F8011B11B110F8011BFBE7C01A70474D
:10261000C9B2830706D0521E22D310F8013B99425B
:10262000F7D11FE0083A13D302F1040241EA012175
:1026300041EA014150F8043B121F21BF4B40A3F176
:10264000013C2CEA030C1CF0803FF3D0C9B2001F00
:10265000083210F8013B521E28BF91EA030FF8D848
:1026600018BF0120401E704762B38B0708D0521E6E
:1026700011F8013B00F8013B00F024808B07F6D1F4
:10268000830740F0208000BF103A07D330B4B1E890
:102690003810103AA0E83810F9D230BC530724BFE4
:1026A000B1E80810A0E8081044BF51F8043B40F816
:1026B000043BD20724BF31F8022B20F8022B44BF81
:1026C0000B7803707047121F17D35B0009D151F8C4
:1026D000043B20F8023B1B0C121F20F8023BF6D2F1
:1026E0000BE051F8043B00F8013B1B0A20F8023BC9
:1026F0001B0C121F00F8013BF3D238BF121D521EF3
:1027000024BF11F8013B00F8013BF8D870472E00B8
:1027100010B5144600F002F8226010BDC1F30A5350
:1027200043B14A0012F5001F28D2A3F2FE32A1EBFA
:102730000251704750EA410C20D001F0004C31EAC0
:102740000C01B1FA81F204BFB0FA80F3D2180B3A4F
:10275000B2F120032CBF00FA03F1914041EA0C01D1
:102760003EBFC2F1200C20FA0CF3194390405242B4
:1027700040F2FD33D21A01EB03517047002270473B
:1027800041EA030C50EA4C0C52EA0C0C4FF4001CCA
:1027900009D307D01CEB410F9CBF1CEB430F8B42AE
:1027A00008BF824270471CEB430FFBD8994208BF19
:1027B0009042704741EA030C50EA4C0C52EA0C0C70
:1027C0004FF4001C09D307D01CEB410F9CBF1CEB3E
:1027D000430F994208BF904270471CEB410FFBD852
:1027E0008B4208BF82427047124254D440F2FF7CB1
:1027F0001CEA11530FD0634531D09B1863453CBF91
:1028000001EB0251704701F0004141EA0C510020F8
:10281000AFF30080704750EA410320D001F0004C34
:1028200091EA0C011CD0B1FA81F30B3B9A420DD90D
:10283000D21A994051EA0C01C3F1200C20FA0CFC89
:1028400061449840531C40F2FF7CD7E7914041EA35
:102850000C01C2F1200C20FA0CF319439040704790
:10286000B0FA80F31533202BE0D3202AEED3203AA0
:10287000203B9A4209D9D21A00FA03F141EA0C012D
:102880000020531C40F2FF7CB8E700FA02F141EA55
:102890000C0100207047524240F2FF7C1CEA1153A9
:1028A0000DD06345DBD0B2EB030C3CBFA1EB025172
:1028B00070470CF1010221EA035141F4801150EA02
:1028C000410CCCD001F0004C352A27DC30B481EA31
:1028D0000C01B2F1200309DAC2F12003044601FA27
:1028E00003F5D0402843D1409C400CE0C3F12002C6
:1028F000450020FA03F418BF44F0010421FA03F064
:1029000091400C43002174F1004550F1000051EB5F
:102910000C01244230BC7FF47BAF7047614600203D
:1029200076E74300C1F30A5340F21E42D31A0CDD8E
:10293000CA0283F3070342EA505242F00042DA40EF
:1029400002EBE17282EAE17070476FEAE17203F232
:10295000E13008B182F000407047000010F0004103
:1029600060B148BF4042B0FA80F29040D21CC2F53C
:10297000846241EA025202EBD02140057047000018
:10298000841A71EB030604D26E40001BB141121988
:1029900073414FF4001C1CEB410F34BF7CEB43062A
:1029A00083E00C0DA4EB1356362E00F37C80012E31
:1029B00045EAC32341DC43EA525312BFD2029202DA
:1029C0005B08240545EAC12141EA5051D2EBC02001
:1029D000994125D407D1B0FA80F610FA06F162D0F9
:1029E0000020203608E0B1FA81F6B140C6F120029D
:1029F00020FA02F21143B0404FEAF474B4EB4654AB
:102A000034F001064FEA74040AD8D6F50016760DA4
:102A100004F00044F04061FA06F25040F1404840B2
:102A2000C00A40EA415021F0004128BF5FEA50054A
:102A300050F1000044EBD12135E0DB0A45EAC12129
:102A4000C90AB6F120050EDD42EA0242120CC5F1B8
:102A5000200603FA06F6EB4042EA06056D4298416D
:102A600061F100010DE062FA06F5F240554063FAAB
:102A700006FC82EA0C02F3405A406D42904161EB41
:102A8000030111F4801F05D1641E620502D06D00A0
:102A90004041494121F48011430875F1004350F150
:102AA000000041EB045170BC70471CEB410F15D284
:102AB00023F0004352EA43060BD04FEA4C0CBCEB28
:102AC000410F04D80C0D661E342EB7DDEBE7801ADB
:102AD000994150EA410608BF0021E4E708BF1CEB1A
:102AE000430F28BF6FF00001DDE7000070B491EAEA
:102AF000030F4FF000457FF543AF6B40841A71EB35
:102B0000030603D2001BB141121973414FF4001C9C
:102B10001CEB410F34BF7CEB430442E00C0DA4EBF3
:102B20001356352E4FDC45EAC323DB0A45EAC121A3
:102B3000C912B6F120050DDD63FA05F6EB4086EA11
:102B40000305124218BF45F00105C01851F10001FC
:102B50000CD213E062FA06F5F2405540F3415A40B8
:102B6000B340F3405A408018594107D349085FEAFF
:102B700030005FEA350528BF45F0010501F58011F9
:102B8000420875F1004250F1000041EB04514E0043
:102B900016F5001F70BC38BF70470020090D0905ED
:102BA00070471CEB410F10D252EA43060BD0BCEB2E
:102BB000410F05D80C0DAB43661E342EB6DD02E086
:102BC000AB438018594170BC704770BC704700001F
:102BD000F0B540F2FF7581EA030C0CF0004C15EAE9
:102BE00011541DBF15EA1357AC42AF42E5E0BC419A
:102BF000C1F31301C3F31303801A994143F4801303
:102C000004D2641E0018494180185941C90241EAA2
:102C10005051B1FBF3F603FB1611A2FB0675D7EB7F
:102C2000C020A94102D2761E80185941C90241EA4A
:102C30005051B1FBF3FE03FB1E11A2FB0E75D7EB47
:102C4000C020A94103D2AEF1010E8018594189027A
:102C500041EA9051760546EA8E2EB1FBF3F603FB6E
:102C60001611A2FB0675D7EB8020A94102D2761E71
:102C700080185941C90241EA50514EEA060EB1FB93
:102C8000F3F603FB1611A2FB0675D7EBC020A94192
:102C900002D2761E80185941C90241EA5051B1FB57
:102CA000F3F703FB1711A2FB0735D3EBC020A941B3
:102CB00067F100070CBF004247F0010766F3D52714
:102CC0004FEA1E31B80814F5806412DDBD0775F1B6
:102CD000004250EB0E5051EB045111F5801F5CBFC8
:102CE00041EA0C01F0BD4CF07F6141F0E041002071
:102CF000F0BDBD076D0840EA0E5041F48011D4F1DB
:102D00000104B4F120060ADAC4F120060200E04012
:102D100001FA06F3E1401843B24015430EE0342CAB
:102D200013DCC6F1200445EA40056D0820FA06F2DE
:102D3000154321FA06F0A1400D43002175F1004230
:102D400050F1000051EB0C01F0BD00205FEA0C01D6
:102D5000F0BDCFB992185B41B3FA83F704BFB2FA62
:102D600082F6BF190B3FB7F120062FBF02FA06F318
:102D7000BB40C7F1200622FA06F638BF3343BA40FB
:102D80001CB1E419641E33E77F4231F00041B1FA0F
:102D900081F404BFB0FA80F6A4190B3CB4F120060C
:102DA0002FBF00FA06F1A140C4F1200620FA06F672
:102DB00038BF3143A0403C1B1AE7AC421ABF05EABA
:102DC0001357AF4212E050EA41061CBF52EA4306D5
:102DD000BFE750EA4107304661461CBF41EA055152
:102DE000F0BD52EA430C08BFC143F0BD00204FF4D0
:102DF000001616EB410F98BF16EB430F08BF16EBFA
:102E0000410F24BFC14305E016EB430F0CBF6146E1
:102E10004CEA0551F0BD0000400D40F21E4C40EA66
:102E2000C120BCEB115C40F0004003D48CF30701DF
:102E3000C84070476FEAE1707047000050B1B0FAC7
:102E400080F18840C91CC1F58461090501EBD021DE
:102E5000400570470146704730B540F2FF7C1CEAE0
:102E600011541DBF1CEA1355644565453FE06419C4
:102E700081EA030C6FF35F530CF0004C43F48013B2
:102E8000C90241F0004141EA505EC5021100A5FBB4
:102E9000020200284FF00000EEFB01204FF000017D
:102EA000E3FB052118BF42F001024018002149410F
:102EB000E3FB0E01A4F580640D0302D29218404199
:102EC000494154F1010470DD450872F1004250F1AE
:102ED000000051EB0451A1F5801102D441EA0C012C
:102EE00030BD40F2FF7E4CEA0E51002030BD0CEAAE
:102EF0001355644518BF654581EA030C0CF0004C7E
:102F000041D050EA410E1CBF52EA430E02E0614636
:102F1000002030BD24422C441BD15FEA050EF6D0C0
:102F2000090302BF01460020AEF1140EB1FA81F58B
:102F3000AEEB050401FA05FE0C35C5F1200100FADF
:102F400005F5C8404EEA000E6FF35F5343F480135B
:102F50009CE733F00043B3FA83F504BFB2FA82FE74
:102F600075440B3D641BB5F1200E2FBF02FA0EF322
:102F7000AB40C5F1200E22FA0EFE38BF43EA0E0325
:102F8000AA40641C7CE750EA410E14BF52EA430E8B
:102F90006FF000014FF4001515EB430F8EBF19467B
:102FA00015EB410F9DE7B4D830BDD4F10104B4F165
:102FB00020050FDAC4F12005520828BF42F00102B3
:102FC00010FA05FE01FA05F57244E2BFE04028431D
:102FD000E1400FE0352C9ADCC5F1200452EA4002B2
:102FE00020FA05F218BF42F0010231FA05F0A140C3
:102FF0000A43002172F1004250F1000051EB0C0134
:1030000030BD80B5FFF78CFA006C02BDD3BBD9B1DF
:10301000B2F5803F5BD2022A1ED98C46B1FBF2F199
:1030200002FB11C31B0443EA1043B3FBF2FC02FB97
:103030001C3380B240EA0343B3FBF2F002FB1032D0
:1030400040EA0C4000237047022A05D98446B0FBB1
:10305000F2F002FB10C270474AB105D100F0010244
:1030600049085FEA3000704700220023704700F0F3
:1030700053B80B000200002100207047F7D3002254
:1030800000237047904271EB030CF2D370B5B1FA94
:1030900081F4B3FA83F52C1BA340C4F1200532FA66
:1030A00005F63343A2405FF00046E64002E05B08CD
:1030B0005FEA3202841A71EB030524BF20462946D9
:1030C0007641F4D302000B003000002170BD70B5D2
:1030D000B1FA81F4B2FA82F5C4F120046419B4F1B2
:1030E0002006DAD3B2405FF00044F440002502E04D
:1030F00052085FEA3303C61A71EB020E24BF304652
:10310000714664416D41F3D302000B002000290099
:1031100070BD012000F002B87047000080B5AFF329
:103120000080024A11001820ABBEFBE72600020017
:1031300038B5040001D1012032BD0020A06204F1A5
:103140005005687820B900212970204600F0D8FA8F
:103150000220687000F0C4F96268A168E068236822
:103160000A432169024360690A43A169024301F4E9
:103170000071E0690A43216A0243A06A0A430243DC
:103180001A60A169606A2268090C01F00401014318
:1031900051602068C16921F40061C161002068604C
:1031A0000121697032BD2DE9F84300F0A3F898467B
:1031B00008BF022000F088800120387000F020FB5A
:1031C0007978012918BF02267CD1002C18BFB9F1EB
:1031D000000F76D0032179707E602C63A5F83490BF
:1031E000A5F83690AE63AE87EE876E642E64AB684A
:1031F000B3F5004F04D129680B6843F480430B609A
:1032000029680B685C0603D40B6843F040030B602D
:103210004446E968B1F5006F696821D1002918BFFB
:10322000B9F1010F00F07BF8804604E0296B0A88B1
:10323000C26000F051F8E88E002833D02868816819
:103240008A07F3D400F0DCFAA0EB0800A04204D314
:1032500014F1010FEFD0032634E0002CEBD1FAE794
:10326000002918BFB9F1010F00F04DF8804606E0C3
:10327000296B0A780273286B411C00F02FF8E88E46
:1032800080B1286881688A07F2D400F0B9FAA0EB0F
:103290000800A04203D314F1010FF0D0DBE7002CAB
:1032A000EDD1D8E742462146284600F08AF908B118
:1032B00020207860A86810B900F015F8009A7868A6
:1032C00000B1012600F002F8BDE8F2830120787019
:1032D0000021397030467047286B811C2963E88EC5
:1032E000411EE986704700962968CA68009289687D
:1032F00000917047054605F15007002638780128EF
:103300000C469146704709D1296B2B680A781A73CD
:10331000296B4A1C2A63E98E4A1EEA86704709D146
:10332000296B2B680A88DA60296B8A1C2A63E98E6C
:103330004A1EEA86704730B500F150040023257814
:10334000012D01D1022030BD0125257009B11500E4
:1033500001D1012326E06578012D18BF022321D178
:1033600003256570636001638286C28683638387F9
:10337000C3870364C168002919BF0FF29112426428
:103380000FF2691141648168B1F5004F04D1016801
:103390000A6842F480420A6001684A6842F0A0026A
:1033A00000F004F800202070184630BD4A60006824
:1033B00001684A0603D4016841F04001016070478A
:1033C0007CB5044622685168936803F041000128E7
:1033D00006D1480604D5216C2046BDE87C4008474C
:1033E000980706D50D0604D5616C2046BDE87C40E3
:1033F000084713F4B07F63D0880661D55D060ED50B
:1034000094F8510003284ED0606D40F004006065D0
:1034100000250095D66800969568009500989D0651
:103420000DD5606D40F00100606500250095926843
:1034300000922068056825F0400505600098DA05CF
:1034400009D5606D40F00800606500220092206898
:1034500082680092009B606D90B32068426822F001
:10346000E0024260012011F0030F84F8510022D0E5
:1034700020680FF255054168890889004160E06CB9
:1034800028B10565E06C00F038FA00F023F8A06C74
:10349000B0B10565A06C00F030FA88B1606D40F005
:1034A0004000606573BD00200090D1680091926873
:1034B0000092009873BD2046BDE8764000F028BB1E
:1034C00073BD90F851007047806B0021C187C186A1
:1034D00000F01EBB18B1606D40F0400060657047A1
:1034E0002068016821F0400101607047016B0368AA
:1034F0000A781A73016B4A1C0263C18E4A1EC28687
:10350000C18E002908BF00F094B87047016B0368B2
:103510000A88DA60016B8A1C0263C18E4A1EC28669
:10352000C18E002908BF00F084B870472DE9F04132
:10353000069F05460E4690461C4628688168314025
:10354000B1420CBF01200020404531D014F1010FE1
:10355000F3D000F055F9C01BA04201D2002CECD1F1
:103560002868416821F0E00141606868B0F5827F19
:1035700008D1A868B0F5004F18BFB0F5806F01D131
:1035800000F019F8A86AB0F5005F09D12868016851
:1035900021F4005101602868026842F40052026080
:1035A00005F150000121417000220270032000E06B
:1035B0000020BDE8F0812868016821F04001016029
:1035C00070477CB504463F483F4E0B4601681825BE
:1035D000B1FBF5F5B5FBF6F64FF47A70464300966D
:1035E0006168B1F5827F09D10092802100222046D6
:1035F000FFF79CFF58B100F00CF876BD009830B191
:103600000098401E0090216888680106F6D40020CA
:1036100076BD606D40F0200060650320704718B1F2
:10362000606D40F0200060657047BDE8164000F016
:103630006FBA1CB500F025F80246009818B100F0EA
:1036400019F8FAD503E0606D40F02000606520684D
:10365000416821F0A001416020466421FFF7B1FFDD
:10366000FFF7DDFF00F01CF800D0DEE7BDE81640F4
:1036700000F04FBA0098401E0090216888688107CA
:10368000704704460F4801681822B1FBF2F24FF46C
:103690007A73B2FBF3F364204343009300F0B0B8B5
:1036A000A06838B9002100912168CA680092896831
:1036B00000910098012184F85110606D0028204687
:1036C000704700005000002040420F0081B00020F1
:1036D000009000224248416841F4804141604168C5
:1036E00001F48041009100990092036843F08053F7
:1036F0000360006800F080500090009801B07047AF
:1037000038B586B004461422002101A800F002FA60
:1037100021683448814245D100223348334D00921C
:10372000416941F480514161416901F48051009146
:1037300000990092A021036843F001030360022274
:10374000006800F001000090009829480191029261
:1037500000210391032205210591049201A900F0A3
:10376000E3F9244828604FF080616960002040221E
:10377000E8604FF480616861A861E861286268626E
:10378000AA602961284600F041F808B100F044FC25
:10379000A564AC6300220021232000F059FC232003
:1037A00000F073FC07B030BD00681449884200D0B7
:1037B000704780B5002210480092016841F48031C2
:1037C00001600021006800F480300090009818200B
:1037D00000F03EFCBDE80240182000F056BC00009E
:1037E000403802400030014030380240840500205B
:1037F0000000024040640240443802400040014062
:1038000001484068704700BF4400002070B504467E
:10381000FFF7F6FF06460CB9012070BD04F1340530
:103820000020287002216970206802685208520046
:10383000026022681068C1070AD5FFF7E1FF801B0C
:103840000628F6D32020286203216970032070BD6A
:103850001368DFF8540261680340A0680B43E16815
:10386000034320690B4361690343A0690B43E1698A
:103870000343206A0B43616A0343042903D1E16ACD
:10388000206B0B430343136023685A69606AD208B4
:10389000042840EAC2020AD1A66AE16A324331B181
:1038A000A06988B9002E18BF022E1FD016D35A6106
:1038B000204600F015F9A96A3F228A408260002064
:1038C00028620121697070BDB0F5005F0AD1032E36
:1038D000EDD8DFE806F00D0B0D03E8E7B1F1C07F8E
:1038E000E5D105E0022E03D9F61EE0D1C801DED5F0
:1038F000402129620120687070BD90F835100229BE
:1039000003D08022426501207047052180F83510E0
:1039100000680268520852000260002070472DE9DA
:10392000FC41044604F134060020604900904FF445
:103930001650776A0A683D68B2FBF0F8B06A082151
:1039400000F0B7F80ED02068026853070AD5026865
:1039500022F004020260B06A8140B960316A41F02D
:1039600001013162B06A25FA00F1CA070BD521685E
:103970004A69110607D5012202FA00F0B860306AE0
:1039800040F002003062042100F092F808D0216873
:103990000A68930704D5B860306A40F004003062CA
:1039A000102100F085F81BD021680A68130717D58D
:1039B000B860206801684A0307D5006801030BD589
:1039C000716969B1204688470AE00168CA0503D4D5
:1039D000016821F008010160F16809B120468847BB
:1039E000B06A202100F065F83FD021680A68D3064C
:1039F0003BD5B8602068717805291CD1026822F097
:103A00001602026000F059F8F068002804BF7069DF
:103A1000002801D000F05DF83F22B06A8240BA6011
:103A20000021317001227270F169002939D02046DD
:103A3000BDE8FC41084701684A0307D50068010357
:103A40000FD4316989B1204688470EE00168CA0564
:103A500007D4016821F010010160002030700122BC
:103A60007270B16809B120468847306AC8B1306ABF
:103A7000C10710D50520707000F025F80098401C93
:103A80008045009003D320680168CA07F6D400205F
:103A9000307001217170B16919B12046BDE8FC4157
:103AA0000847BDE8F38100003F8010F0500000207F
:103AB000B06A01FA00F0054270472068416921F0C0
:103AC0008001416170472068016849084900016030
:103AD00070472068016821F008010160704700000C
:103AE00030B501461823086807A400F0FF02103A19
:103AF000B2FBF3F2800AA55CCD658002042A28BFE0
:103B0000001D886530BD0000000610160006101666
:103B10007047704710B5044610460A4601462046D5
:103B200000F0DEFA204610BD2DE9F84F0D460026C4
:103B30006649674A0F23044601202F68B04000EA17
:103B40000708804540F0B2804FEA460C032707FA89
:103B50000CF76FEA070E6F68012F18BF022F03D012
:103B6000112F18BF122F12D1A768D5F80C900EEAAA
:103B7000070709FA0CF949EA0707A760676827EA07
:103B800000006F68C7F30017B74038436060E06813
:103B9000AF680EEA000007FA0CF73843E060B000A7
:103BA0006F68022F18BF122F12D1F70804EB870796
:103BB00000F01C09D7F820A003FA09FB2AEA0B0A37
:103BC000D5F810B00BFA09F949EA0A09C7F82090AC
:103BD00027680EEA070E2F7907F0030707FA0CF79C
:103BE00047EA0E0727606F68FF005FD50027009740
:103BF0004FEA960C176847F48047176000F00C00F6
:103C0000176807F48047009703FA00FE009F314FC2
:103C100057F82C7027EA0E0E2F4FBC4208BF002722
:103C200013D02E4FBC4208BF01270ED02C4FBC42F0
:103C300008BF022709D02B4FBC4208BF032704D07E
:103C4000294FBC420CBF0427072707FA00F0214F79
:103C500040EA0E0047F82C006FEA08000F6800EAFF
:103C6000070C6F68FF0348BF48EA0C0CC1F800C09E
:103C70004F6800EA070C6F68BF0348BF48EA0C0CA6
:103C8000C1F804C08F6800EA070C6F68FF0248BFE4
:103C900048EA0C0CC1F808C0CF6800EA070C686855
:103CA000800248BF48EA0C0CC1F80CC0761C0F2EED
:103CB0007FF642AFBDE8F18F0069084018BF0120D0
:103CC000C0B2704702B9090481617047003C0140ED
:103CD000443802400838014000000240000402401D
:103CE00000080240000C0240001002402DE9F84F8D
:103CF00086B000F0FFF900F021F9142101A800F0CE
:103D000013FA0020B94DBA4CBA4E0090296841F020
:103D1000800129600021286800F080000090009850
:103D200000912A6842F001022A60286800F0010030
:103D300000900098009140212A6842F002022A6017
:103D40000022286800F00200009000982046FFF74B
:103D5000B9FF002203213046FFF7B4FF0420002101
:103D6000019002910122039201A92046FFF7DCFE97
:103D7000402100F0DBF82046FFF7D6FE032100F0DB
:103D8000D5F83046FFF7D0FE0020009000222968C9
:103D900041F48001296000212868974D00F48000DB
:103DA000009000983A2000F053F93A2000F06DF9A5
:103DB000924868604FF48271A9600020E860002199
:103DC00068612961A96129626962A962E9624FF4A7
:103DD0000070E8610A212963281DFFF7A9F908B1DD
:103DE00000F01AF96846002100220023002680E82E
:103DF0004E0042F20F70286641F288308049A86672
:103E0000E9656A66EA666A6705F15C0000F090F9A8
:103E100008B100F001F94FF480500090694605F1B7
:103E20005C0000F058FA08B100F0F6F86D486E4EEC
:103E30000168DFF8D091DFF8D0A141F08071016016
:103E400005F19C07306840F0010030600FF28818DF
:103E500000F024FB0120009004230522052104200A
:103E600000F0AAFC00F099FB05F15C0000F06DF990
:103E700005F1AC0000904EE00BF1010B1FFA8BF145
:103E8000B1F57A7F22DB287800BB012129706422FA
:103E90007068F968B0FBF2F2521A00EE102A87ED52
:103EA000020A9FED4E1A70686421B8EE400ADFEDF9
:103EB0004C0AB0FBF1F180EE200A81EE001ABCEE54
:103EC000C11AF96087ED000A87ED011A0421204626
:103ED000FFF7F2FE0028CFD00020287099F80010DC
:103EE000012918D189F8000000F0A2FC786800F0E0
:103EF000DDFC00F0F5FC02460098414600F038FD7C
:103F00000521002000F07DFB00984049012200F0CF
:103F1000C2FB00F042FB04212046FFF7CDFE002843
:103F2000DAD18AF800004FF0000BCFE701910122AF
:103F3000002103910491029201A9704780B592B0CB
:103F4000302106A800F0F0F8142101A800F0ECF8E8
:103F5000002000904FF480332D48016841F08051DB
:103F600001600021006800F080500090009829480E
:103F70000091026842F4404202600122006800F4AD
:103F80004040009006A80099069202214FF480025A
:103F90000C910D920C2160220E910F9202210422AD
:103FA00007931091119200F003FD08B172B6FEE77D
:103FB000022102910F204FF48051019000220491C0
:103FC00003920592032101A800F07AFE08B172B6AF
:103FD000FEE713B000BD0000256400000000704241
:103FE00000247449FCED00E0001000E0303802408D
:103FF0000000024000040240D404002000300140D0
:1040000000400140820500208105002000000020C2
:10401000403802400070004072B6FEE7090102001D
:1040200002D4294881547047284B02F00F021A44E9
:1040300002F8041C7047264B19684FF6FF02000275
:10404000114000F4E06008432249084318607047BB
:1040500070B51F4B1C68C4F302230124C3F107058C
:10406000052D2EBF0F2504FA05F56D1E1E1D072E0A
:1040700034BF0023DB1E2940994004FA03F3BDE856
:1040800070405B1E1A401143C8E7010007D40122AB
:1040900000F01F01104B8A40400943F82020704770
:1040A00010B5401EB0F1807F01D3012010BD0B4C34
:1040B00060600F214FF0FF30FFF7B0FF0021A160DB
:1040C00007202060002010BD00E400E018ED00E0B3
:1040D0000CED00E00000FA0500E100E010E000E077
:1040E0004018491C1CBFB1F1010100F8012DF9D1A4
:1040F0007047000080B50B48016841F40071016011
:10410000026842F480620260016841F480710160DB
:104110000320FFF790FF002000F062FEFFF7D6FAC1
:10412000002002BD003C0240002200F07DBE0000E5
:1041300038B5040001D1012032BD00F024F818B9CF
:1041400000F01DF8FFF730FB0FE00068C16841F098
:104150000101C160816801F00701062903D00168EF
:1041600041F0010101600020704702206870211DAC
:10417000206800F00DF901206870002032BD002198
:1041800029702046704704F13C056878704710B5E7
:104190000446206801698A0715D5C1688A0712D5C7
:1041A0006FF00201016101222277806910F0030F94
:1041B000204602D000F051FE03E000F04FFE00F078
:1041C00087F800202077206801694A0715D5C16863
:1041D0004A0712D56FF0040101610222227780693B
:1041E00010F4407F204602D000F037FE03E000F0DC
:1041F00035FE00F06DF800202077206801690A077D
:1042000015D5C1680A0712D56FF0080101610422B3
:104210002277C06910F0030F204602D000F01DFE87
:1042200003E000F01BFE00F053F800202077206828
:104230000169CA0615D5C168CA0612D56FF010010A
:10424000016108222277C06910F4407F204602D025
:1042500000F003FE03E000F001FE00F039F800205A
:10426000207720680169CA0708D5C168CA0705D543
:104270006FF001010161204600F0F1FD2068016945
:104280000A0608D5C1680A0605D56FF080010161EC
:10429000204600F0E5FD206801694A0608D5C1689E
:1042A0004A0605D56FF040010161204600F0D9FDB6
:1042B000206801698A060AD5C1688A0607D56FF0A9
:1042C000200101612046BDE8104000F0CBBD10BDCB
:1042D000204600F0C8BD38B500F04EF801D10220EC
:1042E00032BD0120207002226270DFF820012A68AE
:1042F0009368034093600868020018BF10282DD00F
:10430000202818BF302829D0402823D0502816D084
:10431000602818D0702803D0B0F5005F07D021E0E6
:1043200000F025F82868816841F0770105E000F089
:104330001EF82868816841F48041816012E000F035
:1043400012F850210BE0CA684968286800F07FF82D
:10435000602104E000F007F8402100E001462868F1
:1043600000F087F80EE0CA684968286860E0CB680A
:104370004A688968286884E0054605F13C0420788D
:10438000012870470120607000212170002032BD9B
:10439000F0B51F4B04681F4D1F4E204F984218BFA9
:1043A000B0F1804F04D0B8421CBFB042A8420CD13B
:1043B0004A6824F070041443984218BFB0F1804F4B
:1043C0000ED0B84218BFB0420AD0A8421CBF144A4F
:1043D000904205D0134DA8421CBF134A904203D10E
:1043E000CA6824F4407414434A6924F080041443D6
:1043F000046098428C68C4620A68826202D10969CA
:104400000A4A116001234361F0BD00008800FFFFEC
:1044100000000140000C0040000800400004004083
:10442000004001400044014000480140300001408C
:1044300010B5036A046A64086400046223F00A0386
:10444000846924F0F00444EA0214846123E010B586
:10445000036A23F0100303628369046A23F4704340
:1044600043EA023324F0A004836144EA01140462A5
:1044700010BD826822F07002114341F00701816093
:10448000704710B5846824F47F442143114341EA06
:104490000321816010BD1943016210BD10B5DFF822
:1044A000F403FFF70EF8012801D0002010BD002210
:1044B0004021DFF8E403DFF8E443FFF703FC0022C8
:1044C00020212046FFF7FEFB0A2000F0CDFCAE20A5
:1044D00000F0BAF900F04FF88D2000F0B5F9142083
:1044E00000F0B2F9D92000F0AFF9F12000F0ACF9FA
:1044F00000F09EF9002240212046FFF7E3FB6420F4
:1045000000F0B2FCD52000F09FF9F02000F09CF9FB
:10451000812000F099F90F2000F096F9A82000F012
:1045200093F93F2000F090F9202000F08DF9002051
:1045300000F08AF9A12000F087F9C82000F084F982
:10454000DA2000F081F9202000F07EF9A62000F0AA
:104550007BF92E2000F078F9AF2000F075F9DFF834
:1045600040130020012308604B718871887900286E
:10457000FCD1012010BD10B5DFF828430022022134
:104580002046FFF79FFB012000F06EFC2046BDE8AF
:10459000104001220221FFF795BBDFF80C035EE11A
:1045A00000280CBF0022FF224FF48061DFF8F802E0
:1045B00000F036BC802800DB704770B540290EDA69
:1045C000CB08DFF8DC52DFF8E04200EBC3102B79B8
:1045D00033B13AB100F00AF822EA0101215470BD6A
:1045E000012AF7D100F002F81143F7E78D0801EB3B
:1045F0005576F608225C0123A1EBC60103FA01F10E
:104600007047DFF89C221080518070472DE9F84FE9
:104610000F46DFF88C423978B4F80090494480297D
:10462000BFBF66887978891940299046A8BF0020C5
:104630002CDA00258DF8000000E06D1C78788542AA
:104640001FD29DF800107A68203900FB015032F823
:1046500010A04FF0000B04E0B8F101029241D20F1C
:104660000AE038788345E8D2A9190AFA0BF2120455
:104670000BEB0900F0D5424600F00AF80BF1010BF4
:10468000EFE73878484420809DF80000BDE8F28FBD
:1046900089B280B28EE770B504460D46164600E03A
:1046A000641C207830B132462946FFF7AFFF2178ED
:1046B0008842F5D0207870BD2DE9F84F0446802857
:1046C000A8BF7F249446BCF1800FA8BF4FF07F0C99
:1046D0000D46402DA8BF3F25402BA8BF3F234FF6D6
:1046E000FF78644534BFACEB0401A4EB0C019D42A0
:1046F00034BF581BE81A644534BF4FF0010BC34662
:104700009D4209B200B238BF4FF001088842B4BFE1
:104710000F46474207EBD7770A9E7F10A9B9184684
:10472000A8423CBF2B460546E346A34588BFA346A7
:104730002DB21C4605E03246A9B25846FFF73AFFB3
:104740006D1C29B28C42F6DA34E0A0B99B46AB4529
:1047500088BFAB466046A0423CBFA446044625B293
:10476000644604E03246594600F05CF86D1C29B2FC
:104770008C42F7DA1EE0ADF802C0ADF800308A4690
:1047800081460BE038B2CAF100018142BCBFA7EB01
:1047900009075C444845BCBF5744454400F044F811
:1047A000BDF80210A0B2884202BFBDF80020A8B236
:1047B0009042E7D1BDE8F18F2DE9FC418028B8BFD8
:1047C00040290546884616461F4627DA8019802864
:1047D000A8BFC5F18006C8194028A8BFC8F1400786
:1047E000089C009476194346B2B22846FFF764FF4E
:1047F00047440094BBB2B2B2B9B22846FFF75CFF9F
:104800000094BBB22A4641462846FFF755FF009464
:10481000BBB2B2B24146B0B2FFF74EFFBDE8F38182
:104820005246B9B2A8B2C5E63246A9B2A0B2C1E6B4
:1048300080B50020FFF7B4FE1B4800F010F81848C0
:1048400000210160817101BD01B500F01EF84FF437
:104850007A73012269460F48FEF7A5FC01BD70B5C9
:104860000F4DAE79044630000DD10123AB7101220A
:1048700000F00CF84FF4806221460648FEF75BFD1D
:1048800008B10220A871304670BD002240210248C4
:10489000FFF718BAD80400200000024000080240C8
:1048A000F005002000040240D400002010B52E497D
:1048B000088100200022D3B231F81330521CC018F6
:1048C000D4B2052CF7DB0522B0FBF2F0002201EB9D
:1048D00042035C8821F81240521C052AF7DB10BD08
:1048E000F0B500B90120214B196801F1080403F16A
:1048F0000C02A21AD210042AC8BF03F10C041E1D18
:10490000606059682568A14208BF5D6059681F1D35
:104910000522D1F800C0A44508BF0D60D1F804E01D
:10492000864503D2386820603C60002003F13407DC
:104930003668B94214D00F68D7F800C0A44508BF44
:104940003D60D7F804E0864503D2086820600C601B
:10495000002003F134018F4202D03968521ED8D1B1
:104960001C607068F0BD0000E40500200800002015
:104970000CB430B583B00A4606A90291044600255E
:104980000194009502AB01A9084878441E30FCF759
:10499000A9FD019A157000284EBF04460198041B1A
:1049A000204603B030BC5DF80CFB00BF07DCFFFF06
:1049B0002DE9F843040016D02078DFF8F462C1072F
:1049C00013D5B06800F00C00042807D0B06800F0E0
:1049D0000C0008283DD1706841023AD53068810347
:1049E00003D56068002800F05E812078B14F810710
:1049F00019D5B06810F00C0F07D0B06800F00C00AB
:104A000008285BD17068410258D43068810703D50B
:104A1000E068012840F047813168206921F0F80101
:104A200041EAC00131602178080779D56069A2495F
:104A3000002868D001220A60FEF7E2FE0546706F8A
:104A400081076DD4FEF7DCFE401B0228F7D9032056
:104A50002CE16068B0F5803F04D1306840F48030CC
:104A6000306011E0B0F5A02F306806D140F480200E
:104A70003060316841F4803105E020F480303060EE
:104A8000316821F480213160606858B1FEF7B8FECA
:104A9000054630688103A8D4FEF7B2FE401B6528A6
:104AA000F7D3D4E7FEF7ACFE0546306881039CD50A
:104AB000FEF7A6FE401B6528F7D3C8E7E068A8B15B
:104AC00001213960FEF79CFE05463068810705D458
:104AD000FEF796FE401B0228F7D9B8E73068216937
:104AE00020F0F80040EAC10030609CE73860FEF733
:104AF00087FE05463168880795D5FEF781FE401B85
:104B00000228F7D9A3E70860FEF77AFE0546706F22
:104B1000810705D5FEF774FE401B0228F7D996E7FA
:104B2000207841075FD5306C0025C1000AD400957C
:104B30000125316C41F080513164306C00F08050BF
:104B400000900098DFF87481D8F80000C10513D4F4
:104B5000D8F8000040F48070C8F80000FEF750FE5E
:104B60008146D8F80000C10506D4FEF749FEA0EB47
:104B700009000228F5D96AE7A068012805D00528B0
:104B8000306F06D140F004003067306F40F0010014
:104B900005E0400840003067306F20F004003067C7
:104BA00041F28938A06860B1FEF72AFE8146306F75
:104BB000810713D4FEF724FEA0EB09004045F6D38D
:104BC00045E7FEF71DFE8146306F810706D5FEF7EB
:104BD00017FEA0EB09004045F6D338E71DB1306C55
:104BE00020F080503064A06900285ED0B16801F0E8
:104BF0000C0108293AD002282AD100203866FEF795
:104C0000FFFD05463068810105D5FEF7F9FD401B23
:104C10000228F7D91BE7E069216A626A0843A16AA2
:104C2000490840EA8210491E40EA0140E16A40EA30
:104C30000160706001203866FEF7E2FD04463068CE
:104C4000810132D4FEF7DCFD001B0228F7D9FEE615
:104C500000203866FEF7D4FD04463068810124D573
:104C6000FEF7CEFD001B0228F7D9F0E601281AD086
:104C70007068E26900F48001914202BF00F03F01D8
:104C8000226A91420FD147F6C071626A0140914297
:104C900002BF00F44031A26A914202BF00F070608E
:104CA000E16A884201D0012000E00020BDE8F283E3
:104CB0000038024000004742800E4742007000402A
:104CC0002DE9F04104000F4654D0404E306800F00A
:104CD0000F00B84202D200F073F84BD120683C4D6F
:104CE000810712D5400703D5A96841F4E051A960B6
:104CF0002078010703D5A86840F46040A860A9683F
:104D0000A06821F0F0010143A9602178C80729D5E6
:104D10006068012802D129688A0305E0022818BFCB
:104D2000032803D129688A0103D423E029688A076C
:104D300020D5A968890840EA8100A860FEF760FDD7
:104D40008046A868616800F00C00B0EB810F09D0C4
:104D5000FEF756FDA0EB080041F289318842F0D3FE
:104D600003202BE0306800F00F00874204D200F0EF
:104D700027F801D0012021E02078410705D5AA6855
:104D8000E06822F4E0520243AA602178080706D5C1
:104D9000A968206921F4604141EAC001A96000F0DE
:104DA00077F8AA680B490C4BC2F30312895CC84020
:104DB00018600A48006800F013F80020BDE8F08190
:104DC0003770316801F00F01B9427047003C024072
:104DD0000038024034500008500000204C000020F1
:104DE00038B50D4D0D4B2A7804464FF47A7118688A
:104DF000B1FBF2F2B0FBF2F0FFF752F950B9102C10
:104E000008D2002221464FF0FF30FFF721F9AC60B5
:104E1000002032BD012032BD44000020500000209F
:104E200062F30F2262F31F4200B500BF13009646E3
:104E30009446103928BFA0E80C50FAD85FEA417CAC
:104E400028BF0CC048BF40F8042BC90728BF20F872
:104E5000022B48BF00F8012B00BD70477047704718
:104E6000704770477047704738B50446FEF7C8FC76
:104E700014F1010F054602D0044801786418FEF7CA
:104E8000BFFC401BA042FAD331BD00BF440000204C
:104E900030B5144C606800F00C00042802D00828DB
:104EA00002D01DE0104830BD226820680023410276
:104EB00002F03F0204D525680B49C5F3881003E0D2
:104EC00020680A49C0F38810A1FB0001FEF79EF894
:104ED0002168C1F30141491C4900B0FBF1F030BD2C
:104EE000024830BD0438024040787D010024F400BF
:104EF000F0B40246106895681318506803EB50042C
:104F0000C0071CD54D441AE013F8017B05F8017B5E
:104F1000491EF9D198B113F8011BC6F38106032E7F
:104F200008BF13F8016B01EB06214942801C29449C
:104F300005D011F8016B05F8016B401EF9D1A342B1
:104F40000ED013F8016B16F0030104BF13F8011B18
:104F5000C91C30090F28DBD113F8010B0F30D7E73C
:104F6000F0BC02F10C007047FEE7FEE7FEE7FEE74B
:104F7000FEE770477047704700F02AB810B50E483A
:104F80000E4CFFF704F904210D48FEF795FE0128A9
:104F900002D12078401C20702178012902DD0949C6
:104FA000002008600122627010BD0748FEF708BAB1
:104FB0000648FEF7B4BC0000300500208105002043
:104FC0000000024074050020D80400208405002061
:104FD0000248416802788A18426070474400002005
:104FE00030B4002512E050F8042BD30744BF4A44E4
:104FF000521E091F042942F8045BFAD213468C079B
:1050000044BF15809B1CC90748BF1D7050F8041B86
:105010000029E8D130BC70470448054A016841F4D2
:10502000700101604FF000601060704788ED00E093
:1050300008ED00E000000000000000000102030491
:105040000607080910B5074979441831064C7C4415
:10505000163404E00A68081D114488470146A1423D
:10506000F8D110BD2C000000480000004EF6885119
:10507000CEF20001086840F470000860BFF34F8F63
:10508000BFF36F8F4FF00070E1EE100A7047000021
:1050900051FFFFFF28050000D400002000000000A1
:1050A00051FEFFFF440100008A00000000000020C4
:1050B00000F00DF8002801D0FFF7C4FFAFF3008027
:1050C0000020AFF30080FEF711FE00F002F801208F
:1050D000704700F001B8000007463846FEF71EF89A
:1050E000FBE700000548014603B4684680F30988E1
:1050F000AFF30080FFF7BAFFFFF7DAFFA5EDF5FE8B
:10510000014880470148004719500008E550000851
:10511000FFF7FEBFFFF7FEBFFFF7FEBFFFF7FEBFC3
:10512000FFF7FEBFFFF7FEBFFFF7FEBFFFF7FEBFB3
:10513000FFF7FEBFFFF7FEBFFFF7FEBFFFF7FEBFA3
:10514000FFF7FEBFFFF7FEBFFFF7FEBFFFF7FEBF93
:10515000FFF7FEBFFFF7FEBFFFF7FEBFFFF7FEBF83
:10516000FFF7FEBFFFF7FEBFFFF7FEBFFFF7FEBF73
:10517000FFF7FEBFFFF7FEBFFFF7FEBFFFF7FEBF63
:10518000FFF7FEBFFFF7FEBFFFF7FEBFFFF7FEBF53
:10519000FFF7FEBFFFF7FEBFFFF7FEBFFFF7FEBF43
:1051A000FFF7FEBFFFF7FEBFFFF7FEBFFFF7FEBF33
:1051B000FFF7FEBFFFF7FEBFFFF7FEBFFFF7FEBF23
:1051C000FFF7FEBFFFF7FEBFFFF7FEBFFFF7FEBF13
:1051D000FFF7FEBFFFF7FEBFFFF7FEBFFFF7FEBF03
:1051E000FFF7FEBFFFF7FEBF100B101A000098017B
:1051F0000008140000203C04F22200015201352274
:105200001008F0050724F4005A2900080452FF0191
:10521000E30E271410010000220C214CF21A5488CE
:0D5220002002152500082C4303253C210128
:04000005080050E5BA
:00000001FF
