:020000040800F2
:100000003009002085370008613700086337000891
:1000100065370008673700086937000800000000EE
:100020000000000000000000000000006B37000826
:100030006D370008000000006F37000871370008B6
:1000400095370008993700089D370008A137000848
:10005000A5370008A9370008AD370008B1370008F8
:10006000B5370008B9370008BD370008C1370008A8
:10007000C5370008C9370008CD370008D137000858
:10008000D5370008D9370008DD3700080000000028
:10009000000000000000000000000000E137000840
:1000A000E5370008E9370008ED370008F1370008A8
:1000B000F5370008F9370008FD3700080138000857
:1000C00005380008093800080D3800081138000804
:1000D00015380008193800081D3800080000000015
:1000E00021380008253800082938000800000000E1
:1000F0000000000000000000000000002D38000893
:100100000000000031380008353800083938000890
:1001100000000000000000000000000000000000DF
:100120003D380008413800084538000849380008C3
:100130004D38000800000000000000000000000032
:10014000000000000000000000000000513800081E
:1001500055380008593800085D3800086138000833
:100160006538000869380008000000000000000041
:10017000000000000000000000000000000000007F
:10018000000000006D3800080000000000000000C2
:10019000713800087538000840F2DF1140F23F1254
:1001A0008160C260704738B504460D4600220DE0FC
:1001B00070B504460D461646012200F010F832468E
:1001C00029462046BDE8704000F013BF00F007F854
:1001D0002A462046BDE83840002100F00ABF4FF40F
:1001E0008051DFF8300C01F023B938B50446DFF850
:1001F000245C217100F0D8F8052001F02DF90022CF
:100200004FF4807100F026FB0F2001F025F900F07B
:10021000CBF80F2001F020F900F01FFB112100F0B6
:10022000C1F8C82001F018F9282100F0BBF8C0215E
:1002300000F0B8F80D220D2100F0EAFBC12100F01A
:10024000B1F80022432100F0E3FB00F0B3F8C22133
:1002500000F0A8F800F0AEF8C52100F0A3F80022E5
:10026000482100F0D5FBB62100F09CF84A2200217D
:1002700000F0CEFB00223B2100F0CAFB782001F009
:10028000EBF8E02100F08EF8242200F0C0FB0A22F7
:100290001C2100F0BDFB082200F0B9FB882243219D
:1002A00000F0B6FB0F22322100F0B2FB0622102133
:1002B00000F0AEFB072200F0AAFB00F07BF8E12182
:1002C00000F070F8382200F0A2FB0922302100F083
:1002D0009FFB0F2200F09BFB77224E2100F098FB42
:1002E00007223C2100F094FB0522102100F090FB36
:1002F0001B22232100F08CFB00F05CF8202100F091
:1003000051F800F057F8362100F04CF800226A212D
:1003100000F07EFB3A2100F045F80022552100F064
:1003200077FB00F03EF800F045F8DF22012100F0F5
:100330006FFB2B2100F036F800F03CF83F22012142
:1003400000F066FB292100F02DF82C2100F02AF89E
:1003500000F027F800F02EF83F22002100F058FBB3
:100360002B2100F01FF800F025F8DF22002100F01B
:100370004FFB2C2100F016F801224FF4007100F021
:1003800069FAFF23FF22FF21204600F0A9FA00238B
:1003900000220021204600F0AFFA002020612076E4
:1003A00031BD2A212046FEE601224FF48071284605
:1003B00001F03EB8002200212046F9E62DE9F04187
:1003C000804698F80400069C01280D4616461F46F4
:1003D00007D1284635463E46D8F80C1027468E1BD6
:1003E0000C1A2A214046FFF7DEFEEAB22D04290E40
:1003F00000F0D3FDFAB23F04390E00F0CEFD2B2100
:100400004046FFF7D0FEF2B23604310E00F0C5FDD3
:10041000E2B22404210E00F0C0FD4046BDE8F041E8
:100420002C21C0E680B58368C268017909B90092C1
:1004300002E00093002113460022FFF7BFFF01BD39
:100440002DE9F8430D469846A8450446164602DABB
:10045000284645468046089FB74202DA30463E4667
:100460000746A8EB05094B46324600F013F84B4609
:100470003A4600F00FF8BF1B3B463246294620465D
:1004800000F003FB3B4632464146204601B0BDE842
:10049000F043FAE229462046BDE22DE9F84F0E4628
:1004A0001F46B742814602DA30463E460746DDF82F
:1004B00028809246D04502DA5046C2468046BD1B8F
:1004C000052DA4BFA8EB0A04052C2BDB0AF1010BB8
:1004D00000F02EF800F028F8A8F1010B00F028F841
:1004E00000F022F82D1F06F1020B2B46524659460A
:1004F000484600F090FA2B4642465946484600F0DE
:100500008AFA241F0AF1020523462A463146484644
:1005100000F0BBFA23462A463946484601B0BDE8FA
:10052000F04FB2E2BDE8F18F5A46791E4846F5E138
:100530005A46711C4846F1E12DE9F84F89461E469E
:100540004E45044602DA4846B14606460A9F15461D
:10055000AF4202DA28463D46074620786178884255
:10056000A7EB0508A6EB090A22D1DFF8A8B80022FC
:100570004FF40071584600F05BFF009733462A465F
:10058000494600F035FC01224FF48051584600F0F6
:100590004FFF0AF1010008F1010101FB00F221788F
:1005A000204600F09BFD5846BDE8F84F00F01CBD0A
:1005B000207990B9002608EBD8704010401C864284
:1005C00021DA534672194946FFF765FF5346BA1BB5
:1005D0004946FFF760FF761CEDE700270DE0434634
:1005E0002A4607EB0901204600F04FFA43462A4607
:1005F000F11B204600F049FA7F1C0AEBDA7040102C
:10060000401C8742EBDBBDE8F18F2DE9FE4F1C4615
:100610008C4202DA0B4621461C460C9E964202DAB8
:10062000134632461E46641A052CA4BFB31A052B86
:1006300034DB231F01930027A31E009301F1020B5B
:1006400001F1010A80468946154613E023467A19CE
:10065000494600F025F82346F21B494607E0009B77
:100660006A1C514600F01CF8009B721E514600F0B7
:1006700017F87F1C701B00EBD0704010401C8742A5
:100680000CDA17B1012FEAD0E0E7019B2A46594660
:1006900000F006F8019B32465946E8E7BDE8F78FBF
:1006A0004046B8E12DE9F84F05460E46174684B09E
:1006B00000224FF40071DFF85C071C4600F0B8FE22
:1006C000E2190092334600F0D7F900F0CDF93A1B59
:1006D0000092334600F0D0F900F0C6F9A119009756
:1006E0000B463A4600F0C9F900F0BEF9311B0097FD
:1006F0000B463A4600F0C1F900F0B6F902964FF009
:1007000001094FEA440A0197C4F10108CAF1000A3D
:100710004FF0000BCDF80C904AE0B8F1000F03D475
:100720000AF1020A641ED0440398DDF80890801C88
:1007300003900BF1010B019F8044D944E71900F0AD
:100740003EF800F09AF900F08FF9029E0097A6EBB0
:100750000B0600F08FF900F087F9019F3F1B00F0B6
:100760002EF800F08AF900F07FF900F082F900F02D
:100770007BF9019FDDF808905F44A14400F01FF869
:1007800000F07BF900F070F9029E0097361B00F034
:1007900071F900F069F9019FA7EB0B0700F00FF862
:1007A00000F06BF900F060F900F063F900F05CF91B
:1007B000A345B2DB00F01FFB284600F0E9BB009721
:1007C0004B463A46494670472DE9F84F9A46CAF1DA
:1007D00000098346884614464D4617E0761C012ED4
:1007E00013DA05FB05F106FB06118842F6DB7742BA
:1007F00046447B002A193146584600F00CF97B002C
:10080000621B3146584600F006F96D1C012D03DAD3
:100810004E460AFB0AF0E2E7BDE8F18F38B5044620
:10082000DFF8F05500F019F82046FFF7FBFD012234
:100830004FF4805100F00EF8A268E068521C401C92
:1008400042430021204600F049FC2846BDE83840DC
:1008500000F0CABB284600F0EBBD00224FF4007147
:10086000284600F0E5BD0902D20001F4784102F407
:10087000FC62114341EAD3012DE9F0410546DFF85E
:100880009485002240460F464FF4007100F0D0FDE1
:100890002846FFF7C7FD00F0F2F83E0AF0B2F9B2C1
:1008A000884209D1AA68E868521C401C4243F1B250
:1008B000284600F013FC0EE0002405E0FAB2F1B285
:1008C000284600F096FB641CA868E968401C491C97
:1008D00048438442F2DB4046BDE8F04100F084BB6F
:1008E00001F0F80141EA5211D20002F0E002017079
:1008F00042EAD3024270704701F0F80141EA521116
:100900008170D20002F0E00242EAD3020021C270FC
:1009100001767047CAB20904090E49E4F8B50446E5
:100920000D461646DFF8EC74002200F011F8009630
:100930002B463246294600F05BFA2078617800F0B9
:100940004FFA012200F004F82046BDE8F24069E5C4
:100950004FF40071384600F06BBD2DE9FE4F1E4686
:100960000C9F751ABA42044606D12B4600F053F884
:1009700020467AE1BDE8F78FBB1AB14202D100F000
:1009800084F8F5E74FF0FF39B2BF4FF001088D1B37
:10099000C846BA4201910092BABF9A464FF0010987
:1009A000A2EB070A00F02DFA554518D20C974FEA32
:1009B0005A004042019F009E834606E015EB0B0B58
:1009C0004E445CBF4744ABEB0A0B00F00DFA627873
:1009D000217800F01DF80C988642EFD1CAE768082C
:1009E00002964042019F009E834606E01AEB0B0BE5
:1009F00047445CBF4E44ABEB050B00F0F5F9627861
:100A0000217800F005F802988742EFD1B2E70F2174
:100A10002046FFF7CDBB2DE9FC410F461E000546E1
:100A2000144644BF7642BF1B00F065F80094F319EA
:100A30002246394600F021F828786978884207D1A3
:100A400000F01DF829783246284600F047FB07E001
:100A5000002702E000F008F87F1C701C8742F9DBD9
:100A600000F043F828463DE06A7829782846FFF7E9
:100A70009FBB009733463A46314628469EE4012202
:100A80004FF48051404600F0D3BC2DE9FC4115469F
:100A90001C0006460F4644BF64422D1B00F02BF895
:100AA000601900903B462A4639463046FFF786FCDF
:100AB00030787178884207D1FFF7E1FF317822461C
:100AC000304600F00BFB0AE0002705E07278317831
:100AD0003046FFF76DFB7F1C601C8742F6DB00F0A1
:100AE00004F83046BDE8F6419CE401224FF4007161
:100AF000404600F09DBCDFF81C8300224FF40071DB
:100B0000404600F095BC2DE9FE4F05460E46904646
:100B100000F077F9287E697D2A7D00286FD1287939
:100B2000002832D102980918491E009108EB0203EF
:100B3000029A5B1E4146FFF7A0FFA87D297D361A69
:100B4000C908687D4E43464306F10408002602E0CA
:100B500008F10108761C297D687DC90841438E4251
:100B600021D2296911F808400027C7F1070024FAAB
:100B700000F1CA0759BFA878E9782878697800F0A9
:100B800080F87F1C082FF0DBE2E700F072F804E049
:100B9000287D06EBD00607EBD0072B7D697DD808B2
:100BA00002464A4397425DD2029AB7FBF0F08218A0
:100BB000009243445B1E4146FFF75FFF2C7DE40833
:100BC00004E0A878E97841EA00210FE0641EDFD450
:100BD0002869A1194FF0000910F801A02AFA09F0BC
:100BE000C007EED52A78697841EA02212846FFF746
:100BF00091FE09F10109B9F1080FEFDBE6E700F01A
:100C000038F827E0286909EB06014FF0000A10F8D0
:100C100001B0CAF107002BFA00F1CA070CD5601C1D
:100C200008EBC901009051444B1C2246FFF725FFF9
:100C30002878697800F025F80AF1010ABAF1080F5E
:100C4000E7DB09F10109287DB9EBD00FDADB06EB10
:100C5000D0067F1C687D874204D2029C4FF00009B9
:100C60003C19F0E700F0C7F82846BDE8FE4FFFF753
:100C7000D9BBA87D361AD20856434E43361D0027ED
:100C8000704741EA0021284644E62DE9F84F2DED52
:100C9000068B8AB00446DDF868901B980D46934693
:100CA0009A4600F0EDFB00F09BF941EC180B00F0C8
:100CB000A8F8A07D217D2D1AC908607D4D434543CC
:100CC0002D1D00210795069107E0079901EBD00142
:100CD00006980791401CC0B206900698617D884234
:100CE00072DA06A80027007800F0DCFB41EC190B53
:100CF00006E0207E002863D1A078E1785EE07F1CCA
:100D0000207DB7EBD00FE0DA07992069791800252C
:100D1000405C089000F056F9267D05EBC70006FB05
:100D20000906B0EE40AAF0EE60AA584600F0A8FB13
:100D300000F051F853EC1A2B00F0C2FB00F048F918
:100D400053EC102B51EC190B00F0BAFB02460B468A
:100D5000DDE9000100F048FD00F02AF900F0B6FDE1
:100D6000804600F02FF9B0EE40AAF0EE60AA50469F
:100D700000F086FBCDE9040153EC192B51EC1A0B62
:100D800000F09EFB00F027F800F022F900F014F9C3
:100D900000F00EF900F008F900F098FD411C0091F8
:100DA000024608F10103414600F022F80898C5F117
:100DB00007010841C2079CD52078617800F010F83F
:100DC0006D1C082DA6DB9AE700F015F80AB0204646
:100DD000BDEC068BE4E0CDE90201304600F050BBEB
:100DE00041EA0021204695E500963B4632463946C9
:100DF0002046FFF7E3BA01224FF40071054800F0E6
:100E000017BB00224FF40071DFF8700400F010BB34
:100E100000000000000402402DE9FC4707468A4616
:100E200015469846504600F06DFD397942F20E7233
:100E300042F20F7341B99D4202D1B96800F02FF818
:100E400095420ED1B96807E09D4202D1F96800F0E1
:100E500026F8954205D1F96800F021F805EBD57523
:100E60006D100A9C0026814615E0019400964346C9
:100E70001AF8011B2A463846FFF707FF0AE0002C44
:100E8000F3D13A7D1AF8011B434602FB065238465D
:100E9000FFF739FE761C4E45F1DBBDE8F3873D7D5B
:100EA000491C05FB101570472DE9F04F8FB08246A5
:100EB0009046002400250020189E199A0029994682
:100EC00001AF13D16EB1761E002E04DD314601A8AC
:100ED00000F022FD3546302179550DF105004455CD
:100EE0003EE030218DF80410787039E012D50124ED
:100EF00049420FE04FF00A0C91FBFCFC4FF00A0E48
:100F00000EFB1C11303159550EFB0CF30A216D1CE0
:100F100093FBF1F1002908ABECDC585514B12D23FB
:100F20008DF8043004EB050BB34509DA761B361B4C
:100F3000002E05DD01A83146204400F00BFD3046AF
:100F4000002108E008AB6E1A334422188A1813F8FF
:100F5000013CBB54491CA942F4DB584400213954DC
:100F600000244B4642465046009401A9FFF754FF27
:100F70000FB0BDE8F08F0161097802690175517801
:100F800002694175917802698175D178C1757047A0
:100F900005B0BDE8F04FFFF745BA4046FFF708B986
:100FA000BDE8F24FFFF73EBADDE9042300F05EBB77
:100FB000DDE9022300F05ABBDDE9002351EC100B00
:100FC00000F07EBAB0EE480AF0EE680A00F0D5BC38
:100FD000CDE90001B0EE480AF0EE680A00F0D3BC9B
:100FE000A74AA84B00F06CBA01224FF4007100F040
:100FF0001FBA70B50C461546A04E04F0010201213F
:1010000000F063F8620800F05DF8A20802F0010247
:10101000042100F05AF8E20802F00102082100F071
:1010200054F8220902F00102102100F04EF8620982
:1010300002F00102202100F048F8A20902F00102AA
:10104000402100F042F8E209802100F03EF800F073
:101050003FF801224FF4806100F037F805F00102FB
:10106000012100F032F86A0800F02CF8AA0802F01A
:101070000102042100F029F8EA0802F00102082127
:1010800000F023F82A0902F00102102100F01DF8F7
:101090006A0902F00102202100F017F8AA0902F003
:1010A0000102402100F011F8EA09802100F00DF85A
:1010B00000F00EF83046BDE8704001224FF4806128
:1010C00000F0B6B902F001020221304600F0B0B9DA
:1010D00000224FF48061304600F0AAB9F8B50E4600
:1010E0001446664D06F001020121FFF7B3FB7210B2
:1010F00002F001020221FFF7ADFBB01000F0010287
:101100000421FFF7A7FBF01000F001020821FFF710
:10111000A1FB301100F001021021FFF79BFB7011C1
:1011200000F001022021FFF795FBB01100F0010251
:101130004021FFF78FFBF61106F001028021FFF737
:1011400089FBE01004EB10763611002780E000F0F8
:10115000A1F800F099F800F09DF800F095F800F083
:1011600099F800F091F800F095F800F08DF800F093
:1011700091F800F089F800F08DF800F085F800F0A3
:1011800089F800F081F800F085F800F07DF800F0B3
:1011900081F800F079F800F07DF800F075F800F0C3
:1011A00079F800F071F800F075F800F06DF800F0D3
:1011B00071F800F069F800F06DF800F065F800F0E3
:1011C00069F800F061F800F065F800F05DF800F0F3
:1011D00061F800F059F800F05DF800F055F800F003
:1011E00059F800F051F800F055F800F04DF800F013
:1011F00051F800F049F800F04DF800F045F800F023
:1012000049F800F041F800F045F800F03DF800F032
:1012100041F800F039F800F03DF800F035F800F042
:1012200039F800F031F800F035F800F02DF800F052
:1012300031F800F029F800F02DF800F025F800F062
:1012400029F800F021F800F025F800F01DF87F1CC7
:10125000B742FFF67CAFB4EB06140DD0002608E0D1
:1012600000F018F800F010F800F014F800F00CF896
:10127000761C601C8642F3DBF1BD000000040240D6
:10128000EC51B81E85EB913F01224FF48061284656
:1012900000F0CEB800224FF48061284600F0C8B8B4
:1012A0002DE9F84F0D4600266349644A0F23044692
:1012B00001202F68B04000EA0708804540F0B28066
:1012C0004FEA460C032707FA0CF76FEA070E6F6820
:1012D000012F18BF022F03D0112F18BF122F12D1C8
:1012E000A768D5F80C900EEA070709FA0CF949EA45
:1012F0000707A760676827EA00006F68C7F3001751
:10130000B74038436060E068AF680EEA000007FA53
:101310000CF73843E060B0006F68022F18BF122F3F
:1013200012D1F70804EB870700F01C09D7F820A0BA
:1013300003FA09FB2AEA0B0AD5F810B00BFA09F9EF
:1013400049EA0A09C7F8209027680EEA070E2F79A4
:1013500007F0030707FA0CF747EA0E0727606F68E4
:10136000FF005FD5002700974FEA960C176847F4F7
:101370008047176000F00C00176807F4804700975B
:1013800003FA00FE009F2E4F57F82C7027EA0E0E2E
:101390002C4FBC4208BF002713D02B4FBC4208BFC4
:1013A00001270ED0294FBC4208BF022709D0284F81
:1013B000BC4208BF032704D0264FBC420CBF042701
:1013C000072707FA00F01E4F40EA0E0047F82C00EE
:1013D0006FEA08000F6800EA070C6F68FF0348BF58
:1013E00048EA0C0CC1F800C04F6800EA070C6F68AF
:1013F000BF0348BF48EA0C0CC1F804C08F6800EA7C
:10140000070C6F68FF0248BF48EA0C0CC1F808C01F
:10141000CF6800EA070C6868800248BF48EA0C0CF5
:10142000C1F80CC0761C0F2E7FF642AFBDE8F18FDD
:1014300002B9090481617047003C01404438024010
:101440000838014000000240000402400008024049
:10145000000C02400010024038B5044600F09AFA31
:1014600014F1010F054602D004480178641800F019
:1014700091FA401BA042FAD331BD00BF780400208E
:1014800010F0004160B148BF4042B0FA80F2904095
:10149000D21CC2F5846241EA025202EBD02140051F
:1014A0007047000050B1B0FA80F18840C91CC1F506
:1014B0008461090501EBD021400570470146704762
:1014C00030B540F2FF7C1CEA11541DBF1CEA1355D5
:1014D000644565453FE0641981EA030C6FF35F538F
:1014E0000CF0004C43F48013C90241F0004141EA82
:1014F000505EC5021100A5FB020200284FF000005B
:10150000EEFB01204FF00001E3FB052118BF42F084
:101510000102401800214941E3FB0E01A4F580645B
:101520000D0302D292184041494154F1010470DD8B
:10153000450872F1004250F1000051EB0451A1F551
:10154000801102D441EA0C0130BD40F2FF7E4CEA2A
:101550000E51002030BD0CEA1355644518BF654597
:1015600081EA030C0CF0004C41D050EA410E1CBF44
:1015700052EA430E02E06146002030BD24422C4472
:101580001BD15FEA050EF6D0090302BF0146002019
:10159000AEF1140EB1FA81F5AEEB050401FA05FEC9
:1015A0000C35C5F1200100FA05F5C8404EEA000EE1
:1015B0006FF35F5343F480139CE733F00043B3FAB7
:1015C00083F504BFB2FA82FE75440B3D641BB5F18E
:1015D000200E2FBF02FA0EF3AB40C5F1200E22FA07
:1015E0000EFE38BF43EA0E03AA40641C7CE750EAB3
:1015F000410E14BF52EA430E6FF000014FF4001584
:1016000015EB430F8EBF194615EB410F9DE7B4D87C
:1016100030BDD4F10104B4F120050FDAC4F1200586
:10162000520828BF42F0010210FA05FE01FA05F542
:101630007244E2BFE0402843E1400FE0352C9ADCE1
:10164000C5F1200452EA400220FA05F218BF42F028
:10165000010231FA05F0A1400A43002172F1004273
:1016600050F1000051EB0C0130BD000070B491EA64
:10167000030F4FF0004540F1BF806B40841A71EBBF
:10168000030604D26E40001BB141121973414FF49E
:10169000001C1CEB410F34BF7CEB430683E00C0DB8
:1016A000A4EB1356362E00F37C80012E45EAC323AB
:1016B00041DC43EA525312BFD20292025B08240576
:1016C00045EAC12141EA5051D2EBC020994125D4CD
:1016D00007D1B0FA80F610FA06F162D00020203669
:1016E00008E0B1FA81F6B140C6F1200220FA02F218
:1016F0001143B0404FEAF474B4EB465434F00106A1
:101700004FEA74040AD8D6F50016760D04F00044AA
:10171000F04061FA06F25040F1404840C00A40EA09
:10172000415021F0004128BF5FEA500550F1000010
:1017300044EBD12135E0DB0A45EAC121C90AB6F103
:1017400020050EDD42EA0242120CC5F1200603FA22
:1017500006F6EB4042EA06056D42984161F1000150
:101760000DE062FA06F5F240554063FA06FC82EAA3
:101770000C02F3405A406D42904161EB030111F4B9
:10178000801F05D1641E620502D06D0040414941B1
:1017900021F48011430875F1004350F1000041EB42
:1017A000045170BC70471CEB410F15D223F000436D
:1017B00052EA43060BD04FEA4C0CBCEB410F04D865
:1017C0000C0D661E342EB7DDEBE7801A994150EA06
:1017D000410608BF0021E4E708BF1CEB430F28BF08
:1017E0006FF00001DDE7000070B491EA030F4FF0E5
:1017F00000457FF543AF6B40841A71EB030603D2BB
:10180000001BB141121973414FF4001C1CEB410F36
:1018100034BF7CEB430442E00C0DA4EB1356352E91
:101820004FDC45EAC323DB0A45EAC121C912B6F100
:1018300020050DDD63FA05F6EB4086EA030512424A
:1018400018BF45F00105C01851F100010CD213E09A
:1018500062FA06F5F2405540F3415A40B340F34076
:101860005A408018594107D349085FEA30005FEABF
:10187000350528BF45F0010501F58011420875F1D5
:10188000004250F1000041EB04514E0016F5001FDC
:1018900070BC38BF70470020090D090570471CEB6C
:1018A000410F10D252EA43060BD0BCEB410F05D8D2
:1018B0000C0DAB43661E342EB6DD02E0AB43801840
:1018C000594170BC704770BC70470000C1F30A53A7
:1018D00040F21E42D31A0CDDCA0283F3070342EA28
:1018E000505242F00042DA4002EBE17282EAE170CB
:1018F00070476FEAE17203F2E13008B182F0004014
:101900007047000000F1010310F8011B11B110F83D
:10191000011BFBE7C01A704762F30F2262F31F42FC
:1019200000B500BF130096469446103928BFA0E8C2
:101930000C50FAD85FEA417C28BF0CC048BF40F881
:10194000042BC90728BF20F8022B48BF00F8012B41
:1019500000BD00004018491C1CBFB1F1010100F896
:10196000012DF9D17047000041EC100B01BD80B58D
:1019700051EC100B00F014F8F6E780B551EC100BA9
:1019800000F0BEFBF0E780B551EC100B00F0BAFBA5
:10199000EAE7000001484068704700BF7804002073
:1019A000F8B52DED068B41EC180B53EC182BBF4806
:1019B000BF49FFF785FD41EC190B0C4624F00041AF
:1019C000BC4ABD4B00F0A0FB59D29FEDD00B51ECAF
:1019D000100B04F0004453EC192B2143FFF746FE93
:1019E000FFF774FF040047D0FFF74AFD0022B44B15
:1019F000FFF766FD41EC190B53EC192B4FF0A0409B
:101A0000B049FFF75DFD53EC182BFFF72FFE06469C
:101A10000F4653EC192B4FF0C040AB49FFF750FD78
:101A200032463B46FFF722FE05460E4653EC192B85
:101A30004FF00050A549FFF743FD2A463346FFF714
:101A400015FE06460F4653EC192B0020A049FFF760
:101A500037FD32463B46FFF709FE06460F4653EC7C
:101A6000192B4FF000509549FFF72AFD32463B46AF
:101A7000FFF7FCFD41EC180B04F00304A1E051EC6E
:101A8000180B48004015401C09D1090340F0AE80F6
:101A9000BDEC068B4FF0FF306FF00041F4BD51EC10
:101AA000180B31F0004108BF002800F09F809FED27
:101AB000970B04F0004453EC102B1846044351ECF0
:101AC000100B53EC192B2146FFF7D0FD4B0043EAD6
:101AD000D0734200002B08BF002A41EC190B19D02B
:101AE00040F23344A4EB5352352A04DB00F00000EB
:101AF00001F000410CE0202A03DD203AD140914062
:101B000000E001D1002003E0002AC4BFD040904093
:101B100041EC190B51EC190B20F0000231F000439D
:101B200008BF002A47D053EC192B00206449FFF767
:101B3000C7FC41EC1A0B53EC1A2B4FF0A040614943
:101B4000FFF7BEFC53EC182BFFF790FD04460D4643
:101B500053EC1A2B4FF0C0405B49FFF7B1FC224613
:101B60002B46FFF783FD06460F4653EC1A2B4FF02A
:101B700000505649FFF7A4FC32463B46FFF776FD7E
:101B800004460D4653EC1A2B00205149FFF798FCF0
:101B900022462B46FFF76AFD04460D4653EC1A2BEE
:101BA0004FF000504549FFF78BFC22462B46FFF7CC
:101BB0005DFD41EC180B51EC190BFFF787FE00F0AF
:101BC000030451EC180B21F0004100224FF079532F
:101BD00000F09AFA04F001040BD23CB100203D4918
:101BE00053EC182B00F0AAFA41EC180B51EC180B2F
:101BF00058E053EC182B51EC180BFFF761FC41EC4B
:101C00001A0B53EC1A2B34483449FFF759FC344A69
:101C1000344BFFF72BFD53EC1A2BFFF751FC324AE4
:101C2000324BFFF723FD53EC1A2BFFF749FC002240
:101C30002F4BFFF71BFD41EC190B53EC182B51EC0C
:101C40001A0BFFF73DFC06460F4653EC1A2B2948AA
:101C50002949FFF735FC294A294BFFF707FD53ECCB
:101C60001A2BFFF72DFC274A274BFFF7FFFC3246C4
:101C70003B46FFF725FC53EC182BFFF7F7FC41EC34
:101C8000100B54B151EC190B53EC102B00F056FA19
:101C9000BDEC068B81F00041F4BD53EC192B00F034
:101CA0004DFA00BFBDEC068BF4BD000083C8C96DC2
:101CB000305FE43F0000A0FFFFFFDF419A833BBBA2
:101CC0000000303EFB21B9C1B41011C026A651BEA0
:101CD0005C14D3BC0000F0BF6C9E741E68522BBF16
:101CE000A908265CB9E7973FD5FFB699218BDDBFE0
:101CF0000000F03FDB9955949A63DFBED625F78646
:101D000075FC663F6955C388986BC0BF0000000032
:101D10000000E03FF8B52DED068B41EC180B1546A1
:101D200053EC182BD248D349FFF7CAFB41EC190BEF
:101D30000C4624F00041D04AD04B00F0E5F95AD2CD
:101D40009FEDC90B51EC100B04F0004453EC192B20
:101D50002143FFF78BFCFFF7B9FD040047D0FFF7E5
:101D60008FFB0022C74BFFF7ABFB41EC190B53EC89
:101D7000192B4FF0A040C449FFF7A2FB53EC182BDE
:101D8000FFF774FC06460F4653EC192B4FF0C0408A
:101D9000BE49FFF795FB32463B46FFF767FC064618
:101DA0000F4653EC192B4FF00050B949FFF788FB51
:101DB00032463B46FFF75AFC06460F4653EC192BBA
:101DC0000020B449FFF77CFB32463B46FFF74EFC50
:101DD00006460F4653EC192B4FF00050A849FFF769
:101DE0006FFB32463B46FFF741FC41EC180B04F019
:101DF00003046519A3E051EC180B48004015401C82
:101E000009D1090340F02A81BDEC068B4FF0FF3069
:101E10006FF00041F4BD51EC180B31F0004108BFE8
:101E2000002805D1002D00F019819FED9B8B15E155
:101E30009FED8D0B51EC100B04F0004453EC192B6B
:101E40002143FFF713FC4B0043EAD0734200002B01
:101E500008BF002A41EC190B19D040F23344A4EB1F
:101E60005352352A04DB00F0000001F000410CE081
:101E7000202A03DD203AD140914000E001D100202A
:101E800003E0002AC4BFD040904041EC190B51EC54
:101E9000190B20F0000231F0004308BF002A47D0A0
:101EA00053EC192B00207749FFF70AFB41EC1A0B82
:101EB00053EC1A2B4FF0A0407349FFF701FB53EC92
:101EC000182BFFF7D3FB06460F4653EC1A2B4FF0A7
:101ED000C0406E49FFF7F4FA32463B46FFF7C6FBB7
:101EE00004460E4653EC1A2B4FF000506849FFF79A
:101EF000E7FA22463346FFF7B9FB06460F4653EC96
:101F00001A2B00206349FFF7DBFA32463B46FFF706
:101F1000ADFB06460F4653EC1A2B4FF000505849C4
:101F2000FFF7CEFA32463B46FFF7A0FB41EC180B19
:101F300051EC190BFFF7CAFC00F00300451951ECF6
:101F4000180B21F0004100224FF0795300F0DCF82B
:101F500005F0010404D2002C78D09FED4F8B75E082
:101F600053EC182B51EC180BFFF7AAFA002C41EC9C
:101F7000190B31D053EC192B49484A49FFF7A0FA05
:101F8000494A4A4BFFF772FB53EC192BFFF798FABB
:101F9000474A484BFFF76AFB53EC192BFFF790FABF
:101FA000454A464BFFF762FB53EC192BFFF788FAC3
:101FB000434A444BFFF75AFB53EC192BFFF780FAC7
:101FC0006FF05102404BFFF751FB53EC192BFFF719
:101FD00077FA00223D4B35E053EC182BFFF770FAEF
:101FE00006460F4653EC192B39483A49FFF768FA71
:101FF000394A3A4BFFF73AFB53EC192BFFF760FADB
:10200000374A384BFFF732FB53EC192BFFF758FADE
:10201000354A364BFFF72AFB53EC192BFFF750FAE2
:10202000334A344BFFF722FB53EC192BFFF748FAE6
:10203000314A324BFFF71AFB32463B46FFF740FA74
:1020400053EC182BFFF712FB41EC180BA80705D532
:1020500051EC180B81F0004141EC180B51EC180BBE
:10206000BDEC068BF4BD00BF000000000000E03FA7
:1020700083C8C96D305FE43F0000A0FFFFFFDF4170
:102080009A833BBB0000303EFB21B9C1B41011C0A4
:1020900026A651BE5C14D3BC000000000000F03F37
:1020A00009260A1039BA213E3BA861C6F97D92BEC5
:1020B00063AC30909F01FA3EF6FB51166CC156BFDF
:1020C000B10255555555A53FFFFFDFBF0000F03F5A
:1020D000B08F2FC310D8E53D8F0C73A1E1E55ABE38
:1020E0004DADE44FE31DC73E3EE3B519A0012ABF45
:1020F000FAF010111111813F425555555555C5BF84
:10210000012207E6002205E641EA030C50EA4C0CE6
:1021100052EA0C0C4FF4001C09D307D01CEB410F02
:102120009CBF1CEB430F8B4208BF824270471CEBE5
:10213000430FFBD8994208BF90427047F0B540F278
:10214000FF7581EA030C0CF0004C15EA11541DBF19
:1021500015EA1357AC42AF42E5E0BC41C1F31301AD
:10216000C3F31303801A994143F4801304D2641E0D
:102170000018494180185941C90241EA5051B1FB48
:10218000F3F603FB1611A2FB0675D7EBC020A9419D
:1021900002D2761E80185941C90241EA5051B1FB62
:1021A000F3FE03FB1E11A2FB0E75D7EBC020A94165
:1021B00003D2AEF1010E80185941890241EA9051D3
:1021C000760546EA8E2EB1FBF3F603FB1611A2FB51
:1021D0000675D7EB8020A94102D2761E801859419E
:1021E000C90241EA50514EEA060EB1FBF3F603FB79
:1021F0001611A2FB0675D7EBC020A94102D2761EAC
:1022000080185941C90241EA5051B1FBF3F703FB71
:102210001711A2FB0735D3EBC020A94167F10007D6
:102220000CBF004247F0010766F3D5274FEA1E3185
:10223000B80814F5806412DDBD0775F1004250EB5B
:102240000E5051EB045111F5801F5CBF41EA0C01A7
:10225000F0BD4CF07F6141F0E0410020F0BDBD07D2
:102260006D0840EA0E5041F48011D4F10104B4F13C
:1022700020060ADAC4F120060200E04001FA06F363
:10228000E1401843B24015430EE0342C13DCC6F194
:10229000200445EA40056D0820FA06F2154321FAAC
:1022A00006F0A1400D43002175F1004250F10000FD
:1022B00051EB0C01F0BD00205FEA0C01F0BDCFB97D
:1022C00092185B41B3FA83F704BFB2FA82F6BF19E2
:1022D0000B3FB7F120062FBF02FA06F3BB40C7F150
:1022E000200622FA06F638BF3343BA401CB1E4197F
:1022F000641E33E77F4231F00041B1FA81F404BF3C
:10230000B0FA80F6A4190B3CB4F120062FBF00FAF6
:1023100006F1A140C4F1200620FA06F638BF314389
:10232000A0403C1B1AE7AC421ABF05EA1357AF4264
:1023300012E050EA41061CBF52EA4306BFE750EAEA
:102340004107304661461CBF41EA0551F0BD52EAE3
:10235000430C08BFC143F0BD00204FF4001616EB3C
:10236000410F98BF16EB430F08BF16EB410F24BF78
:10237000C14305E016EB430F0CBF61464CEA055123
:10238000F0BD0000E0B500204FF480710190009195
:102390004FF400734FF480624FF48051DFF8B407BC
:1023A000FDF7FAFE07BD10B52A2000F03BFCDFF870
:1023B000A44701212046FDF718FF2046BDE8104044
:1023C000DFF89417FEF7D7BD2DE9F0472DED088B08
:1023D000DFF88087ADF5A06D4046FEF71FFA00F0EC
:1023E000B0FB00F0E4FB0D20009040F23F1A534692
:1023F000002200F09AFB40234022402100F0D7FB4E
:10240000EF2000905346E22200F08FFBFF23FF22D3
:10241000FF2100F0CCFB00F094FB00F0B7FB0020A4
:10242000009042F20E79DFF8344701234A462146F4
:1024300000F0B7FB40234022402100F0A7FB00231F
:10244000FF22FF2100F0B3FB00200090E3234A4667
:1024500004F1280100F0A5FBFF2300F0A6FBE1201A
:10246000009053460E2200214046FDF7E9FFFF236E
:1024700000F09BFB00F087FB00F08BFB00F09FFB64
:1024800009247920009023467522214600F086FB1E
:102490000A34B4F59B7FF4DB13240094A123224675
:1024A0009D2100F07BFB0A34DC2CF6DBFF23FF22AE
:1024B00000F07CFB002000900F23052273A100F0A8
:1024C00070FB01249FED728B9FED739B9FED74ABAE
:1024D0009FED75BB00F070FB00F01BFB00F021FBD3
:1024E00000F033FB41EC100BFFF74DFA00F00BFB53
:1024F00053EC182BFFF7BAF8FFF7E8F900F03EFBB2
:10250000641CB4F59F7FE5DB00F01BFB00F04FFB84
:10251000002000901B23052265A100F042FB01244E
:1025200000F04AFB00F0F5FA00F0FBFA00F00DFBBA
:1025300041EC100BFFF721FA00F0E5FA53EC182BF1
:10254000FFF794F8FFF7C2F900F018FB641CB4F52C
:102550009F7FE5DB0023FF22FF2100F028FB002006
:1025600000902723052253A100F01BFB012400F05B
:1025700023FB00F0CEFA00F0D4FA00F0E6FA41ECCA
:10258000100BFFF7F4F953EC102B51EC180BFFF77D
:102590006DF8FFF79BF900F0F1FA641CB4F59F7F2A
:1025A000E5DB00F0ACFA00F0FFFA00F011FBFF23CE
:1025B00000F0FBFA00F0E7FA00F0EBFA00F0FFFAA7
:1025C00001260127761C564508BF0126574517DD11
:1025D0009F2E1FBF02A800EB860151F8042C772A1A
:1025E00007BFFF2300220023002200F0DFFA02A829
:1025F00000EB8601404651F8042C3146FEF78EF977
:10260000FF23FF2200F0D2FA642497FBF4F0C0F11C
:102610005A00FEF735FF04460D463846FEF730FFF8
:10262000DFF83C25DFF83C35FEF74AFF00F079FA89
:1026300000F08BFA41EC100BFFF7A5F951EC100BF1
:1026400022462B46FEF73CFF02460B4651EC180B88
:10265000FFF70CF8FFF73AF904462246314600F03E
:102660008FFA02A800EB86017F1C41F6D800874252
:1026700041F8044CA6DB00F042FA00F095FA00F0B5
:10268000A7FA01251424FF2317E000BF53696E0049
:102690000000000000C05D400000000000C0574086
:1026A0001F85EB51B81E094014AE47E17A14F23F82
:1026B000436F730054616E0000230022FF2105E088
:1026C000FF23002201E00023FF22114600F06FFAF1
:1026D00000F00FFA01F1820301F11E02463100F011
:1026E00025FA6D1C052D10DC681E0428F0D8DFE8E3
:1026F00000F0070608050400EAE7E4E7E0E7DBE7A7
:10270000C1E70023FF220021E0E700F0F8F900F024
:102710004BFA00F05DFA0125FF2300E000230022C0
:10272000FF2105E0FF23002201E00023FF221146E4
:1027300000F03DFA00F0DDF9C1F1FA0301F11E02EB
:10274000C1F1BE014046FDF760FF6D1C052D10DC98
:10275000681E0428EED8DFE800F00706080504002C
:10276000E8E7E2E7DEE7D9E7D6E70023FF2200212A
:10277000DEE700F0C4F900F017FA00F029FA0125AD
:10278000FF2300E000230022FF2105E0FF230022B9
:1027900001E00023FF22114600F009FA04FB05F1D5
:1027A00001F13C021E2364314046FEF70DF86D1C1A
:1027B000052D10DC681E0428F0D8DFE800F00706BD
:1027C00008050400EAE7E4E7E0E7DBE7D8E70023F1
:1027D000FF220021E0E700F092F900F0E5F900F0B7
:1027E000F7F900F0AEF900F0E2F90F249FEDB48B99
:1027F00000F0E0F900F091F90022DB4BFEF736FF24
:10280000FFF764F80346224600F0DEF9641DE02C71
:10281000EEDB00F096F900F0CAF9E0240F2000F09A
:10282000CAF900F07AF90022D04BFEF71FFFFFF73C
:102830004DF8034622464FF49F7100F0AFF9641F34
:102840000F2CEBDCFF23FF2200F0B0F9E0240F2077
:1028500000F0B1F900F061F902460B460020C449CE
:10286000FEF7C2FFFFF732F80346224600F0ACF94C
:10287000641F0F2CEBDCFF23FF2200F097F90F24DD
:1028800000F098F900F049F902460B460020B949DA
:10289000FEF7AAFFFFF71AF8034622464FF49F718E
:1028A00000F07CF9641DE02CEADB00F028F900F070
:1028B0007BF900F08DF9642400F018F9054600F06A
:1028C00015F900F012F900F007F900F070F94FF473
:1028D000807000F0ACF90546922000F0A8F9064699
:1028E0001E2000F0A4F9034606F12D0205F1200197
:1028F0004046FDF7D7FE641EDED100F000F900F07F
:1029000053F900F065F9642400F0F0F8054600F092
:10291000EDF800F0EAF800F0DFF800F048F900F018
:10292000D7F800F0D1F800F0DBF8074600F0CDF85A
:1029300000F0FFF8FDF784FD641EE5D100F0DFF83C
:1029400000F032F900F044F9642400F0CFF80546B5
:1029500000F0CCF800F0C9F800F0BEF800F027F95C
:1029600000F0B6F800F0B0F800F0BAF8074600F052
:10297000ACF800F0DEF8FDF790FD641EE5D100F044
:10298000BEF800F011F900F023F9642400F0AEF86D
:10299000054600F0ABF800F0A8F800F09DF800F054
:1029A00006F900F095F80546D12000F040F900F056
:1029B00097F80746D12000F03AF910300090BB1C80
:1029C00006F11002A91C00F0E9F8641EDED100F047
:1029D00096F800F0E9F800F0FBF842F210752C468A
:1029E00000F084F800F081F8074600F07FF8C1B2EB
:1029F000F3B2FAB200F0DBF8D12000F018F900F0E1
:102A00006FF8811C06F1100200F0BAF8641EE7D1DD
:102A100000F075F8FF23002200214046FDF723FF58
:102A200000F08FF800F0C3F8A9200090EF234622B1
:102A300050214046FDF7E9FDFF23FF22FF2100F072
:102A4000B6F800F07EF800F0A1F8002000905D23B9
:102A50004FEA090263A100F0A4F800200090772358
:102A60004FEA090262A100F09CF800200090842344
:102A70004FEA090262A100F094F80023FF2200F05F
:102A800095F8FF2300F080F800200090D2234A46FA
:102A90005FA100F086F8FEF77DFF20210191002262
:102AA00000920146E1234A464046FEF7FDF92846DA
:102AB000FEF7D2FC0DF5A06DBDEC088BBDE8F087EC
:102AC0000AD7A3703D0AF73F0546CF2000F0AFB804
:102AD0004FF49E7000F0ABB8C1B2EBB2F2B27047E7
:102AE00006464FF49E7000F0A2B80646FF2000F0A4
:102AF0009EB804FB05F101F15A00009070474FF4B5
:102B0000FA60FEF7A9BC53EC102B51EC190BFEF741
:102B1000D7BC53EC1B2BFEF7D3BC53EC182BFEF7A2
:102B2000CFBC53EC1A2BFEF7CBBC00214046FDF77F
:102B300003BD10300090BB1C06F11002A91C4046DA
:102B4000704700230022FF21704700220A4BFFF745
:102B5000F5BA00001405002000000020A035000890
:102B60009A9999999999F13F000024C0000026C0D4
:102B700000B0744000A074400080664002462146C8
:102B80004046FDF7CBBE0023002200214046FDF762
:102B9000B3BEE02000909F230F229F214046FDF707
:102BA000DCBE4046FEF738B9002300220021404633
:102BB000FDF796BEE02000902046FEF761BC77202E
:102BC00000904FF49F73772201214046FDF7C5BE68
:102BD000E02000904FF49F730F2201214046FDF743
:102BE000ABBC000054686174277320697421000035
:102BF00052657374617274696E6720696E2061003A
:102C0000666577207365636F6E64732E2E2E0000E9
:102C100052756E74696D653A20286D73656373290A
:102C200000000000002818BF00F053B8704710B52E
:102C3000040001D1002010BD00F006F890FBF4F173
:102C400004FB1104204610BDF0B42449244AD1F8F5
:102C5000807056681078234C234D6FF0004320BBE2
:102C6000082005FB064637461E46B7FBF6F6401E13
:102C700003FB1676F5D10F46102005FB06469C4651
:102C8000B6FBFCFC03FB1C663E601E4657F804CBFB
:102C900005FB0C4CBCFBF6F603FB16C6401E47F8C2
:102CA000046BEAD1CF6F0120107005FB06461C466D
:102CB00007F01F07B6FBF4F451F8270003FB146676
:102CC00041F82760C1F88000566020F04040F0BC19
:102CD0007047034900220A70486070479004002042
:102CE000880400205FF36E3C0D6619002DE9F8435F
:102CF000040016D02078DFF8F462C10713D5B0685D
:102D000000F00C00042807D0B06800F00C00082880
:102D10003DD1706841023AD53068810303D56068BF
:102D2000002800F05E812078B14F810719D5B06886
:102D300010F00C0F07D0B06800F00C0008285BD131
:102D40007068410258D43068810703D5E0680128D3
:102D500040F047813168206921F0F80141EAC00163
:102D600031602178080779D56069A249002868D0C8
:102D700001220A60FEF70EFE0546706F81076DD4D2
:102D8000FEF708FE401B0228F7D903202CE16068FB
:102D9000B0F5803F04D1306840F48030306011E0FD
:102DA000B0F5A02F306806D140F480203060316843
:102DB00041F4803105E020F480303060316821F446
:102DC00080213160606858B1FEF7E4FD0546306847
:102DD0008103A8D4FEF7DEFD401B6528F7D3D4E7B6
:102DE000FEF7D8FD0546306881039CD5FEF7D2FD7D
:102DF000401B6528F7D3C8E7E068A8B10121396016
:102E0000FEF7C8FD05463068810705D4FEF7C2FD10
:102E1000401B0228F7D9B8E73068216920F0F80094
:102E200040EAC10030609CE73860FEF7B3FD05461C
:102E30003168880795D5FEF7ADFD401B0228F7D90C
:102E4000A3E70860FEF7A6FD0546706F810705D56C
:102E5000FEF7A0FD401B0228F7D996E7207841072E
:102E60005FD5306C0025C1000AD400950125316C76
:102E700041F080513164306C00F080500090009837
:102E8000DFF87481D8F80000C10513D4D8F8000029
:102E900040F48070C8F80000FEF77CFD8146D8F849
:102EA0000000C10506D4FEF775FDA0EB090002285D
:102EB000F5D96AE7A068012805D00528306F06D14A
:102EC00040F004003067306F40F0010005E040083A
:102ED00040003067306F20F00400306741F28938DD
:102EE000A06860B1FEF756FD8146306F810713D4AC
:102EF000FEF750FDA0EB09004045F6D345E7FEF78D
:102F000049FD8146306F810706D5FEF743FDA0EBF2
:102F100009004045F6D338E71DB1306C20F08050F1
:102F20003064A06900285ED0B16801F00C01082966
:102F30003AD002282AD100203866FEF72BFD05463C
:102F40003068810105D5FEF725FD401B0228F7D921
:102F50001BE7E069216A626A0843A16A490840EAFE
:102F60008210491E40EA0140E16A40EA0160706057
:102F700001203866FEF70EFD04463068810132D428
:102F8000FEF708FD001B0228F7D9FEE60020386690
:102F9000FEF700FD04463068810124D5FEF7FAFCF7
:102FA000001B0228F7D9F0E601281AD07068E26900
:102FB00000F48001914202BF00F03F01226A914279
:102FC0000FD147F6C071626A0140914202BF00F41E
:102FD0004031A26A914202BF00F07060E16A88420B
:102FE00001D0012000E00020BDE8F283003802405B
:102FF00000004742800E47420070004038B586B05E
:1030000000F096F800F039F800F08CF800200090FD
:1030100041F2FF753F48404C016841F0800101607A
:10302000026802F080020092002200990092036878
:1030300043F002030360016801F00201009100996E
:1030400000922946036843F001030360006800F022
:103050000100009000982046FEF7EAF90121029154
:10306000002203920492019501A92046FEF718F967
:10307000FFF799F9FFF7A8F9FCE780B592B0302285
:10308000002106A800F06EF800F04CF80020009037
:103090004FF480332148016841F0805101600021E4
:1030A000006800F08050009000981D480091026870
:1030B00042F4404202600122006800F44040009067
:1030C00006A80099069202214FF480020C910D92FD
:1030D0000C2160220E910F9202210422079310917D
:1030E0001192FFF703FE08B172B6FEE702210291CA
:1030F0000F204FF480510190002204910392059219
:10310000032101A800F038F808B172B6FEE713B049
:1031100000BD000030380240000402404038024048
:10312000007000401422002101A800F01BB800002C
:1031300080B50B48016841F400710160026842F4F7
:1031400080620260016841F480710160032000F038
:10315000B0F8002000F0F6F800F014F9002002BDED
:10316000003C024010B5044610460A46014620467F
:10317000FEF7F0FB204610BD2DE9F04104000F469C
:1031800054D0404E306800F00F00B84202D200F038
:1031900073F84BD120683C4D810712D5400703D509
:1031A000A96841F4E051A9602078010703D5A86817
:1031B00040F46040A860A968A06821F0F0010143D4
:1031C000A9602178C80729D56068012802D129683B
:1031D0008A0305E0022818BF032803D129688A0161
:1031E00003D423E029688A0720D5A968890840EA22
:1031F0008100A860FEF7CEFB8046A868616800F0F9
:103200000C00B0EB810F09D0FEF7C4FBA0EB080067
:1032100041F289318842F0D303202BE0306800F07E
:103220000F00874204D200F027F801D0012021E0EE
:103230002078410705D5AA68E06822F4E0520243ED
:10324000AA602178080706D5A968206921F46041A1
:1032500041EAC001A96000F0B1F8AA680B490C4B23
:10326000C2F30312895CC84018600A48006800F085
:1032700069F80020BDE8F0813770316801F00F0176
:10328000B9427047003C0240003802404436000812
:1032900084040020800400200901020002D4244894
:1032A00081547047234B02F00F021A4402F8041CA9
:1032B0007047214B19684FF6FF020002114000F4DD
:1032C000E06008431D4908431860704770B51A4B09
:1032D0001C68C4F302230124C3F10705052D2EBF8A
:1032E0000F2504FA05F56D1E1E1D072E34BF0023A1
:1032F000DB1E2940994004FA03F3BDE870405B1ED1
:103300001A401143C8E710B5401EB0F1807F01D3C9
:10331000012010BD0A4C60600F214FF0FF30FFF715
:10332000BBFF0021A16007202060002010BD00002D
:1033300000E400E018ED00E00CED00E00000FA050C
:1033400010E000E038B50D4D0D4B2A7804464FF4DF
:103350007A711868B1FBF2F2B0FBF2F0FFF7D3FF1D
:1033600050B9102C08D2002221464FF0FF30FFF751
:10337000ADFFAC60002032BD012032BD78040020DA
:103380008404002081B00020009000220A48416897
:1033900041F480414160416801F48041009100990D
:1033A0000092036843F080530360006800F080508F
:1033B0000090009801B070474038024030B5144C7E
:1033C000606800F00C00042802D0082802D01DE03C
:1033D000104830BD226820680023410202F03F02FD
:1033E00004D525680B49C5F3881003E020680A4915
:1033F000C0F38810A1FB000100F010F82168C1F3B0
:103400000141491C4900B0FBF1F030BD024830BD1C
:103410000438024040787D010024F400D3BBD9B1C8
:10342000B2F5803F5BD2022A1ED98C46B1FBF2F185
:1034300002FB11C31B0443EA1043B3FBF2FC02FB83
:103440001C3380B240EA0343B3FBF2F002FB1032BC
:1034500040EA0C4000237047022A05D98446B0FB9D
:10346000F2F002FB10C270474AB105D100F0010230
:1034700049085FEA3000704700220023704700F0DF
:1034800051B80B000200002100207047F7D3002242
:1034900000237047904271EB030CF2D370B5B1FA80
:1034A00081F4B3FA83F52C1BA340C4F1200532FA52
:1034B00005F63343A2405FF00046E64002E05B08B9
:1034C0005FEA3202841A71EB030524BF20462946C5
:1034D0007641F4D302000B003000002170BD70B5BE
:1034E000B1FA81F4B2FA82F5C4F120046419B4F19E
:1034F0002006DAD3B2405FF00044F440002502E039
:1035000052085FEA3303C61A71EB020E24BF30463D
:10351000714664416D41F3D302000B002000290085
:1035200070BD00007047F0B402461068956813182B
:10353000506803EB5004C0071CD54D441AE013F843
:10354000017B05F8017B491EF9D198B113F8011BE5
:10355000C6F38106032E08BF13F8016B01EB0621A9
:103560004942801C294405D011F8016B05F8016B14
:10357000401EF9D1A3420ED013F8016B16F00301DF
:1035800004BF13F8011BC91C30090F28DBD113F845
:10359000010B0F30D7E7F0BC02F10C0070470000C0
:1035A0002A20556E6976657273616C20436F6C6F6B
:1035B000722054465420446973706C6179204C69C0
:1035C0006272617279202A003C687474703A2F2FFD
:1035D0007777772E52696E6B7944696E6B456C65AF
:1035E0006374726F6E6963732E636F6D2F3E00009C
:1035F00030B4002512E050F8042BD30744BF4A44EE
:10360000521E091F042942F8045BFAD213468C07A4
:1036100044BF15809B1CC90748BF1D7050F8041B90
:103620000029E8D130BC70470448054A016841F4DC
:10363000700101604FF000601060704788ED00E09D
:1036400008ED00E00000000000000000010203049B
:103650000607080910B5074979441831064C7C441F
:10366000163404E00A68081D114488470146A14247
:10367000F8D110BD2C0000004C0000004EF688511F
:10368000CEF20001086840F470000860BFF34F8F6D
:10369000BFF36F8F4FF00070E1EE100A704700002B
:1036A00051FFFFFFA0000000900400200000000078
:1036B00077FEFFFFC8010000220500000000002087
:1036C0000500000010B50446044979440E31044851
:1036D00078440C3000F006F8204610BDA001000030
:1036E0009801000038B504460D46AC4205D020686C
:1036F00020188047241DAC42F9D131BD00F00DF8EF
:10370000002801D0FFF7A6FFAFF300800020AFF341
:103710000080FFF773FC00F002F80120704700F012
:1037200001B800000746384600F002F8FBE7000049
:1037300080B5AFF30080024A11001820ABBEFBE752
:10374000260002000548014603B4684680F3098854
:10375000AFF30080FFF792FFFFF7D0FFA5EDF5FE76
:10376000FEE7FEE7FEE7FEE7FEE7704770477047BB
:1037700000F000B80248416802788A184260704739
:103780007804002001488047014800472936000896
:1037900045370008FFF7FEBFFFF7FEBFFFF7FEBF8C
:1037A000FFF7FEBFFFF7FEBFFFF7FEBFFFF7FEBF4D
:1037B000FFF7FEBFFFF7FEBFFFF7FEBFFFF7FEBF3D
:1037C000FFF7FEBFFFF7FEBFFFF7FEBFFFF7FEBF2D
:1037D000FFF7FEBFFFF7FEBFFFF7FEBFFFF7FEBF1D
:1037E000FFF7FEBFFFF7FEBFFFF7FEBFFFF7FEBF0D
:1037F000FFF7FEBFFFF7FEBFFFF7FEBFFFF7FEBFFD
:10380000FFF7FEBFFFF7FEBFFFF7FEBFFFF7FEBFEC
:10381000FFF7FEBFFFF7FEBFFFF7FEBFFFF7FEBFDC
:10382000FFF7FEBFFFF7FEBFFFF7FEBFFFF7FEBFCC
:10383000FFF7FEBFFFF7FEBFFFF7FEBFFFF7FEBFBC
:10384000FFF7FEBFFFF7FEBFFFF7FEBFFFF7FEBFAC
:10385000FFF7FEBFFFF7FEBFFFF7FEBFFFF7FEBF9C
:10386000FFF7FEBFFFF7FEBFFFF7FEBFFFF7FEBF8C
:10387000FFF7FEBFFFF7FEBF0DEBFFFFB003080C25
:10388000205F0001322001130020168001285050D3
:103890001C30042828FC2850FC1220072078A8A0FF
:1038A000603028A8F025200648A8B0502834544895
:1038B0002A100620505078A8A8906C0C7001404047
:1038C000803C3001040810011308041842200C3316
:1038D0002040312002A87070A846317812F804A167
:1038E0008D6144C3F80001213B2153400120204059
:1038F00023337088013270533260C2310C111811B9
:10390000693280404004708808300808242006107E
:10391000305050907810180C6002F88080F01850E9
:1039200003709080F0884813F8906011015148624C
:103930007018210930017808480C3600276200B55C
:103940002108213111F01220E821EF210162F8C293
:1039500031145208FB319C4568110C300498A8A81A
:10396000B880784D12209D20017848CC0C2006F0BC
:10397000484870484848F00C10017888800141841C
:1039800033F0480131188006F8485070504048F82C
:103990000C2340E00C2006384880809C8848300C7E
:1039A0004004CC48487848485446F8E13130467CD9
:1039B0008C2290312006EC485060505048EC18237F
:1039C000E040012344FC0C12D80112A801210CC4D0
:1039D00008DC486868585848E800007421A852403C
:1039E0007831182401E898705D211843504854112B
:1039F000C0400260100888B486A8A442CCCC61A85C
:103A00004401505030741174137050013184180106
:103A10005050205C72D80C872020A441FC533820E1
:103A2000012A38382B4020671208185370100111F2
:103A300031F0010220500001BBFC00751101200390
:103A4000304838483C142401C040408055EC1553A0
:103A50001340405F40060000180808384848241109
:103A60000140013048781810021C202078885278D4
:103A70001870053C483040784438483508116D537B
:103A80006020C012103C31A032E02454015C507020
:103A90008095A4110166F080110162F04811015770
:103AA0003048381101211846708211A83003484867
:103AB00038081C0C57D86098110140027840300833
:103AC0009C1180116352181892D8CC1907663010D7
:103AD0003582612447502080110131243320C00EEB
:103AE000437810F02E18900321CC9001180010019B
:103AF00031EC3D49036002600040A47150010000B8
:0D3B0000010A15023002000024F40E211409
:040000050800374573
:00000001FF
