:020000040800F2
:1000000028210020C9620008496200084B620008EC
:100010004D6200084F6200085162000800000000B5
:100020000000000000000000000000005362000813
:10003000556200080000000057620008596200087D
:10004000E1620008E5620008E9620008ED6200086C
:10005000F1620008F5620008F9620008FD6200081C
:100060000163000805630008096300080D630008C8
:100070001163000815630008196300081D63000878
:1000800021630008256300082963000800000000C0
:100090000000000000000000000000002D630008C8
:1000A0003163000835630008396300083D630008C8
:1000B0004163000845630008496300084D63000878
:1000C0005163000855630008596300085D63000828
:1000D00061630008656300086963000800000000B0
:1000E0006D6300087163000875630008000000007C
:1000F000000000000000000000000000796300081C
:10010000000000007D63000881630008856300082B
:1001100000000000000000000000000000000000DF
:10012000896300088D6300089163000895630008E7
:1001300099630008000000000000000000000000BB
:100140000000000000000000000000005D620008E8
:100150009D630008A1630008A5630008A963000867
:10016000AD630008B163000800000000000000005B
:10017000000000000000000000000000000000007F
:1001800000000000B563000800000000000000004F
:10019000B963000800F5E0700268914203D28068FC
:1001A0000028F9D1704743681A449142F7D270474A
:1001B0001749086880B94FF4805048604FF4803286
:1001C0004FF0FF30C86008610420124B8A6048611C
:1001D000C3F8BC01104808600120704701F1080312
:1001E00013F0070F0EBF0023C3F1080303F007034A
:1001F0001944D21A8161C26042F001034B60091DAB
:100200004FF0280C41F802C0014A1369C3617047DE
:10021000F81C0020941A00206859883C2DE9F84FFA
:1002200084B00646AFF30080F52E1E4D80F0138299
:100230000B2E31BF10260B36F608F6002868F4089E
:10024000E04010F0030F4AD0C04300F00100041951
:1002500005F1280000EBC408E700D8F808607068D2
:10026000C008C000B84218BF01F0FEF9D6F80890E7
:10027000464508BF01F0F8F94E4508BF01F0F4F912
:100280007068C008C000B84218BF01F0EDF9C84559
:100290000AD12868012101FA04F420EA04042C6040
:1002A00010E000BF941A00202869814508D3D9F8CE
:1002B0000C10B14204D1C8F80890C9F80C8001E0D4
:1002C00001F0D2F947F00300311D7060301DCA59AA
:1002D00042F00102C25106F1080800F024BFA968EB
:1002E000B14280F0AA83002800F0A2804FF00108FC
:1002F00008FA04F1490000FA04F4484201430C40B2
:1003000060420440641E200B00F01000C4406109EC
:1003100001F00801CC40A20802F00402D4406308B6
:1003200003F002030818DC401018C4F34007181843
:100330003818FC40241805F1280000EBC40AE70037
:10034000DAF80890D9F80400C008C000B84218BF15
:1003500001F08AF9D9F808B0D14508BF01F084F955
:10036000D94508BF01F080F9D9F80400C008C000E1
:10037000B84218BF01F078F9DA4506D1286808FAC2
:1003800004F420EA04042C600DE029698B4508D3AD
:10039000DBF80C00484504D1CAF808B0CBF80CA033
:1003A00001E001F061F9BF1B46F0030009F104020E
:1003B000C9F8040047F00101915109EB06020192CE
:1003C000D751AC684FEAD40ABAF11F0F88BF01F0C9
:1003D0004BF934B3CDF800A005F128006E6900EBAD
:1003E000CA0AD346102C38BF01F03EF9296800989C
:1003F00021FA00F2D30704D408FA00F00843286079
:1004000007E0DAF80800296988422CBF834601F02A
:100410002BF9CAF80860CBF80C60C6F808B0C6F82B
:100420000CA0AF6009F108080198686100F07BBE7C
:100430006868002800F0238341420840401E010BF9
:1004400001F01001C840420902F00802D0408308C0
:1004500003F00403D840440804F002045118E040BB
:100460005918C0F34007611805F598787918F840D5
:10047000401858F820104868C008C0008A46A0EB11
:10048000060B08E001464868C008C000801B5845BC
:100490003CBF83468A4608690028F3D14969002990
:1004A000F1D128698245C0F0D380DAF80410C90878
:1004B00006EB0B09C900494518BF01F0D5F80AEB56
:1004C00006008245019080F0C380DAF80C40DAF82B
:1004D000187054450DD0DAF808002969884223D3F2
:1004E000C268524504BFA16851451DD1C460A060D7
:1004F0001CE00AF114010C6834B90AF110010C680F
:10050000A4B101E011460C6804F11402106800283F
:1005100002BF04F1100210680028F3D1286981425B
:1005200002D300220A6001E001F09EF8002F38D0CB
:10053000DAF81C0008EB80010A6892450AD11CBB5E
:100540006A68012303FA00F022EA000068600020D4
:10055000086026E029698F4213D33869504514BFDB
:100560007C613C61ECB129698C4218D3A761DAF84F
:10057000100058B1884226BF2061846101F074F8F0
:1005800004E001F071F8EDE70C60ECE7DAF8140034
:1005900038B12969884202D36061846101E001F0C9
:1005A00063F8BBF1100F0ED249F003000AF1040109
:1005B000CAF804000AF1040051F8092042F00102CF
:1005C00040F809203EE046F003010AF10402CAF8AF
:1005D00004104BF001009051019941F80BB0A8684C
:1005E0000090C4081F2C88BF01F03EF8009828B383
:1005F00005F1280000996F6900EBC408C146102975
:1006000038BF01F031F8286820FA04F1CA0705D490
:10061000012101FA04F404432C6007E0D8F8080033
:10062000296988422CBF814601F01EF8C8F808707D
:10063000C9F80C70C7F80890C7F80C80C5F808B066
:10064000019868611AF1080800F0F78100F06BBDAD
:1006500001F00AF8F1E116F1400F28BF4FF0FF3624
:1006600080F0EB810B36F6086B68F600002B00F08B
:10067000E4810027300AC6F1000908BF002423D016
:10068000B0F5803F28BF1F241ED2A0F58071090C51
:1006900001F008018840A0F58052120C02F004021B
:1006A0009040A0F58044240CC1F10E0104F0020436
:1006B000891A091BA04001EBD031C81D26FA00F4AD
:1006C00004F0010404EB410405F5987858F824007F
:1006D00040B31F2C0FBFB4464FEA540CCCF1190C99
:1006E00006FA0CFCBE46494601E04FEA4C0C426853
:1006F000D208D200921B8A4207D3426910304FEAD7
:10070000DC7950F829003AB103E011000746F4D132
:1007100005E0824218BF96460028E6D17046894619
:10072000A8BBB7BB012101FA04F464006042044392
:10073000234000F08281584203405B1E180B00F0FA
:100740001000C340590901F00801CB409A0802F09B
:100750000402D3405C0804F002040818E3401018B7
:10076000C3F3400C2018604423FA0CF31B1858F80C
:1007700023000CE008464168C908C900891B4945A7
:100780003CBF8946074601690029F3D1406900282A
:10079000F1D1002F00F05181A868801B814580F0C5
:1007A0004C8129698F42FFF453AF7868C008C000BC
:1007B00006EB0901884218BF00F056FF07EB060B55
:1007C0005F45BFF445AFFC68D7F818A0BC420CD019
:1007D000B8682969884223D3C268BA4204BFA168B5
:1007E000B9421DD1C460A0601CE007F114010C687F
:1007F00034B907F110010C68A4B101E011460C688E
:1008000004F114021068002802BF04F110021068FD
:100810000028F3D12869814202D300220A6001E056
:1008200000F022FFBAF1000F39D0F86908EB80011F
:100830000A6897420AD134BB6A68012303FA00F0C0
:1008400022EA000068600020086028E029698A45E3
:1008500016D3DAF81000B84214BFCAF81440CAF828
:100860001040E4B129698C4217D3C4F818A0386944
:1008700058B1884226BF2061846100F0F5FE04E093
:1008800000F0F2FEEDE70C60ECE7786938B1296919
:10089000884202D36061846101E000F0E5FEB9F1B5
:1008A000100F0CD2B14449F00300391D7860381D97
:1008B00051F8092042F0010240F80920B9E046F061
:1008C00003013A1D796049F0010090514FEAD900C7
:1008D0004BF809901F2822D805F1280101EBC0042C
:1008E000296821FA00F2D307A04605D4012202FAB2
:1008F00000F00843286006E0A068296988422CBF00
:10090000804600F0B1FEC4F808B007F10800C8F84E
:100910000CB040F8068007F10C018C5189E05FEAC9
:10092000192008BF002123D0B0F5803F28BF1F2128
:100930001ED2A0F58072120C02F008029040A0F5C1
:100940008051090C01F004018840A0F580431B0C84
:10095000C2F10E0203F00203521AD21A984002EBBF
:10096000D032D01D29FA00F101F0010101EB420162
:1009700007F11403CBF81C1000229A5107F1100361
:1009800008EB81009A516A6822FA01F3DC0711D45E
:10099000012303FA01F111436960C0F800B0CBF8FC
:1009A000180007F1080107F10C0040F806B041F803
:1009B00006B03EE002681F291DBF4908C1F11901B8
:1009C00009FA01F1494600E002465068C008C0003B
:1009D000484518D002F11003C80F03EB800349000B
:1009E00018680028F0D12869834220D3C3F800B0EA
:1009F00007F10C01CBF8182041F806B007F1080008
:100A000040F806B015E0296990688A4228BF8842FC
:100A10000DD3C0F80CB007F10801C2F808B0885136
:100A200007F10C0082510022CBF8182001E000F001
:100A30001BFE17F1080840F07683A868B0421ED369
:100A4000811B6A6910290AD3141DA96041F00100B5
:100A50009319A051595046F0030656600BE000214F
:100A6000A96040F00304111D5460141D0E5846F097
:100A70000106265000236B6102F1080853E3E86881
:100A80008642C0F04083DFF8D89BD9F8000008B94F
:100A9000FFF78EFBD9F8081088192F30491E20EA7D
:100AA00001018E4280F03D8305F5D877B86838B1F2
:100AB0003A6889188A4280F034838842C0F03183D2
:100AC00000F0DAFD00281CBFD0F8008010F1010F03
:100AD00000F027833968AC6941443960D5F8B0210A
:100AE000D5F8B4118A4238BF0A467A6004BB296936
:100AF00009B1884200D2286100213861C7F814800A
:100B0000F9614FF0FF31D9F800206A62296205F1DE
:100B1000280200219260D26002F108035361136140
:100B2000891C10321F29F5D9A8F1280201461DE0C1
:100B300005F5E0710A46814600E09268D2B110687E
:100B4000536803449945F8D1107B030712D4136806
:100B50009C420FD3D2F804C063449C420AD2C444DE
:100B6000C2F804C02146E86808EB00022846FFF7F7
:100B700035FBC5E22869814538BFC5F8109009EBFF
:100B8000080000E08968002900F0C1810A688242FB
:100B9000F8D1087B020700F1BA810868C1F800901B
:100BA0004A6842444A6009F1080111F0070F08BF82
:100BB000CDF8049006D0C1F1080101F0070109EB5E
:100BC0000102019200F1080111F0070F04D0C1F1F8
:100BD000080101F00701084480460198A8EB0001D4
:100BE0008419A1EB060B274646F0030646604745ED
:100BF00028BF00F039FD98F80400C10758BF00F085
:100C000033FDBBF1100F38BF00F02EFDA869804501
:100C100008D1E9688B44C5F80CB0AF614BF0010016
:100C2000786070E1686980450AD1A9686F618B447A
:100C3000C5F808B04BF00100786047F80BB062E1EE
:100C4000D8F8040000F00301012940F0BC80C0087E
:100C5000C000C1081F29039040D8D8F8082000928E
:100C6000D8F80C600291B04508BF00F0FDFC009878
:100C7000804508BF00F0F8FCD8F804000299C008CD
:100C8000C000B0EBC10F18BF00F0EEFC0299009A53
:100C900005F1280000EBC100824208D011462A6904
:100CA0009142C0F08B80CA68424540F0878000992D
:100CB0008E4206D102982A68012383409A432A6013
:100CC0007EE0864205D029698E4277D3B0684045E0
:100CD00074D10098C6600099B16071E0D8F818002E
:100CE0000090D8F80C6046450DD0D8F80800296966
:100CF000884223D3C268424504BFB16841451DD133
:100D0000C660B0601CE008F114010E6836B908F145
:100D100010010E68A6B101E011460E6806F114023A
:100D20001068002802BF06F1100210680028F3D1F5
:100D30002869814202D300220A6001E000F094FC9D
:100D4000009800283CD0D8F81C0005F5987101EBFC
:100D500080010A6890450AD12EBB6A68012303FA14
:100D600000F022EA000068600020086028E0009996
:100D70002869814214D30869404514BF4E610E6151
:100D8000F6B129698E4219D30098B061D8F81000E5
:100D900058B1884226BF3061866100F065FC04E0EE
:100DA00000F062FCECE70E60EBE7D8F8140038B115
:100DB0002969884202D37061866101E000F054FC29
:100DC000039988448B44D8F8041049084900C8F8AE
:100DD00004104BF0010078604FEADB0647F80BB0D7
:100DE0001F2E22D805F1280000EBC604A146BBF156
:100DF000100F38BF00F038FC286820FA06F1CA0747
:100E000005D4012101FA06F606432E6006E0A0682B
:100E1000296988422CBF814600F026FCA760C9F8EA
:100E20000C70C7F80890FC606DE05FEA1B2008BFFB
:100E3000002123D0B0F5803F28BF1F211ED2A0F58E
:100E40008072120C02F008029040A0F58051090C4B
:100E500001F004018840A0F580431B0CC2F10E0292
:100E600003F00203521AD21A984002EBD032D01D7E
:100E70002BFA00F101F0010101EB4201F9610023BD
:100E800005F598727B6102EB81003B616A6822FA8A
:100E900001F3DE0707D4012303FA01F1114369606E
:100EA0000760B8611DE002681F291DBF4908C1F134
:100EB00019010BFA01F1594600E002465068C008DA
:100EC000C000584510D002F11003C80F03EB800397
:100ED000490018680028F0D12869834211D31F60A7
:100EE000BA61FF60BC600EE0296990688A4228BF41
:100EF000884206D3C7609760B860FA600020B86186
:100F000001E000F0B1FB019800F108080BE1214677
:100F10002846FFF73FF90168406808440090A0F1B7
:100F2000270111F0070000980EBF0021C1F1080150
:100F300001F007010844A0F12F0B04F110018B45CB
:100F400038BFA3460BF11802002102920191A8F1CB
:100F5000280249462846FFF741F90BF1080010F036
:100F6000070F18BF00F080FB1B20CBF8040005F52D
:100F7000E07292E809500BF1080181E80950002164
:100F80000BF10800F961B861009A02980199C7F85D
:100F90001090C7F81480072300E0001D491C00F1E1
:100FA000080797424360F8D30129D8BF00F05CFBE3
:100FB000A34500F0A580ABEB040B201D221D50F8CB
:100FC0000B104908490042F80B104BF0010060601B
:100FD0004FEADB0944F80BB0B9F11F0F22D805F135
:100FE000280000EBC907B846BBF1100F38BF00F06E
:100FF0003BFB286820FA09F1CA0705D4012101FA50
:1010000009F10843286006E0B868296988422CBFC6
:10101000804600F029FBBC60C8F80C40C4F808808A
:10102000E7606DE05FEA1B2008BF002123D0B0F528
:10103000803F28BF1F211ED2A0F58072120C02F043
:1010400008029040A0F58051090C01F0040188408D
:10105000A0F580431B0CC2F10E0203F00203521AEA
:10106000D21A984002EBD032D01D2BFA00F101F0D9
:10107000010101EB420105F59872002302EB8100AA
:10108000E161636123616A6822FA01F3DF0707D433
:10109000012303FA01F1114369600460A0611DE0BE
:1010A00002681F291DBF4908C1F119010BFA01F19E
:1010B000594600E002465068C008C000584510D0AC
:1010C00002F11003C80F03EB8003490018680028E1
:1010D000F0D12869834211D31C60A261E460A4604E
:1010E0000EE0296990688A4228BF884206D3C4600E
:1010F0009460A060E2600020A06101E000F0B4FA1A
:10110000E86886420DD2801BA969E8608A19AA6145
:1011100040F00100506046F003064E6001F10808FF
:1011200001E04FF00008AFF30080404605B0BDE895
:10113000F08F002800D170472DE9F047A0F1080595
:10114000AFF30080DFF81C6531698D42C0F0848206
:10115000686800F00302012A00F07E82C2084FEAAC
:10116000C209C20705EB090839D42C6810F0030F37
:1011700000F06E82604205448D42A144C0F06C8252
:101180007069854200F0DE80E408202C72D2D5F828
:101190000CA0AF68554508BF00F066FABD4208BF15
:1011A00000F062FA6868C008C000B0EBC40F18BF56
:1011B00000F05AFA06F1280000EBC400874205D07F
:1011C00031698F4253D3FA68AA4250D1BA4540D10F
:1011D0003068012101FA04F420EA04043460454532
:1011E00080F03A82D8F80440E00740F13582A10748
:1011F00000F18381B069804540F0B780F168B56146
:101200008944C6F80C9049F00100686071698D420C
:1012100002D100207061B060F169494580F0188208
:10122000DFF83C24106808B9FEF7C2FFB169002955
:1012300000F00E82F068292824BF3046FEF7AAFF8E
:10124000F069F168884280F003824FF0FF30F0616E
:10125000FEE1824506D03069824508D3DAF80810ED
:10126000A94204D1C7F80CA0CAF80870B7E700F08B
:10127000FBF9B4E7EC68AF69AC420BD0A8688842D0
:1012800022D3C168A94204BFA268AA421CD1C4608B
:10129000A0601BE005F11402146834B905F11002D6
:1012A00014689CB101E01A46146804F1140318682C
:1012B000002802BF04F1100318680028F3D18A4205
:1012C00002D30021116001E000F0CEF9002F86D09A
:1012D000E86906F5987101EB80010A6895420AD128
:1012E00024BB7268012303FA00F022EA0000706058
:1012F0000020086073E731698F4214D33869A8422F
:1013000014BF7C613C61002C3FF469AF31698C42B1
:10131000ADD3A761286958B1884226BF2061846196
:1013200000F0A2F904E000F09FF9ECE70C60EDE7B3
:10133000686900283FF453AF3169884297D36061F0
:1013400084614CE798F8040000F0030003287FF460
:1013500046AFC6F8089049F00101D8F804004008EB
:101360004000C8F8040069600AE0706980450AD14D
:10137000B16875618944C6F8089049F00100686059
:1013800045F8099064E1E408E400A144E408202C55
:101390003AD2D8F80CA0D8F80870D04508BF00F0B1
:1013A00063F9B84508BF00F05FF9D8F80400C00839
:1013B000C000B0EBC40F18BF00F056F906F12800CA
:1013C00000EBC400874207D031698F42C0F08880AB
:1013D000FA68424540F08480BA4507D1306801215F
:1013E00001FA04F420EA040434607BE0824506D06C
:1013F0003069824574D3DAF80810414570D1C7F8D6
:101400000CA0CAF808706DE0D8F80C40D8F8187035
:1014100044450DD0D8F808003169884223D3C2680A
:10142000424504BFA16841451DD1C460A0601CE0D5
:1014300008F114010C6834B908F110010C68A4B16A
:1014400001E011460C6804F114021068002802BF84
:1014500004F1100210680028F3D13069814202D3F0
:1014600000220A6001E000F0FFF8002F3AD0D8F81F
:101470001C0006F5987101EB80010A6890450AD1BD
:101480001CBB7268012303FA00F022EA00007060BE
:101490000020086026E031698F4213D33869404547
:1014A00014BF7C613C61ECB131698C4218D3A761F7
:1014B000D8F8100058B1884226BF2061846100F03E
:1014C000D3F804E000F0D0F8EDE70C60ECE7D8F8D2
:1014D000140038B13169884202D36061846101E04F
:1014E00000F0C2F849F00100686045F809907169A0
:1014F0008D420BD1C6F80890AAE064086400C8F8D1
:10150000044049F00100686045F809904FEAD907A6
:10151000202F22D206F1280000EBC704A046B9F123
:10152000100F38BF00F0A0F8306820FA07F1CA07A2
:1015300005D4012101FA07F70743376006E0A068E8
:10154000316988422CBF804600F08EF8A560C8F84B
:101550000C50C5F80880EC607AE05FEA192008BFFB
:10156000002123D0B0F5803F28BF1F211ED2A0F557
:101570008072120C02F008029040A0F58051090C14
:1015800001F004018840A0F580431B0CC2F10E025B
:1015900003F00203521AD21A984002EBD032D01D47
:1015A00029FA00F101F0010101EB420106F5987200
:1015B000002302EB8100E9616B612B61726822FA02
:1015C00001F3DC0707D4012303FA01F11143716031
:1015D0000560A8611DE002681F291DBF4908C1F10F
:1015E000190109FA01F1494600E002465068C008B5
:1015F000C000484510D002F11003C80F03EB800370
:10160000490018680028F0D13069834211D31D6069
:10161000AA61ED60AD600EE0316990688A4228BF32
:10162000884206D3C5609560A860EA600020A86182
:1016300001E000F019F8306A401E08D13062D6F897
:10164000C80100E080680028FCD14FF0FF30306214
:10165000AFF30080BDE8F08700F006F8F8E700007F
:10166000F81C0020941A0020012000F01BB802682A
:10167000531C0360117070470749086808B10020C7
:1016800070470648C008C00008600549C908C9007D
:10169000091A0160704700BF201D00202F21002083
:1016A0002823002080B5AFF30080024A11001820E3
:1016B000ABBEFBE7260002002DE9F14FB0B0924629
:1016C00004910DF142013A9A2B9199464A700020FB
:1016D0000AE01AF8011B0498309A904700280490F9
:1016E00000F06B860D98401C0D909AF8000050B1E8
:1016F0002528EED1002100220791089209910A9233
:101700000B910C9204E00D9800F059BE41F00101DC
:101710001AF8010F2028F9D023280CD02B2804D048
:101720002D2805D0302809D00BE041F00201EFE769
:1017300041F00401ECE741F00801E9E741F0100154
:10174000E6E72A280FD1D9F8002052F8040BC9F88F
:10175000002000280F9003D540420F9041F0040173
:101760000AF1010A14E00F92DFF8583C0AE00F98E2
:10177000984205DA00EB800402EB4402303A0F9203
:101780000AF1010A9AF80020A2F130000A28EED3EB
:101790009AF800002E2803D04FF0FF320E9229E075
:1017A0001AF8010F2A2809D1D9F8000050F8042BA3
:1017B000C9F800000E920AF1010A1BE02D280CBFA7
:1017C0000AF1010A002000220E92DFF8F84B0BE02C
:1017D00040B90E9AA24205DA02EB820503EB4503FB
:1017E000303B0E930AF1010A9AF80030A3F130025F
:1017F0000A2AEDD3ADF840100FF6CC309AF800105D
:1018000000F0F2FE08B11AF8010B8DF842009DF8C5
:101810004200682805D19AF8000068280CD162219E
:1018200006E06C2804BF9AF800006C2804D17121EE
:101830008DF842100AF1010A12A806901AF801BBAD
:10184000BBF125012CD01C3900F0D781091F0229DA
:1018500040F2D381133900F0E284093900F0CD81E0
:10186000891E00F07785491E00F02485491E022953
:1018700040F2C381091F00F01D85491F00F032812D
:10188000491E00F0CC84491E00F0D880C91E0DD03E
:10189000891E00F0C484C91E00F0C18400F065BD3B
:1018A00025238DF84830012100F06ABDD9F80000E9
:1018B00050F8044BC9F80000002C059440F0AB80B0
:1018C0002B994878002800F0A1804FF0FF340FF6E4
:1018D000003000F095FE201A40F06F8500F051BDF9
:1018E00001236A4602A9304600F042FE002840F07B
:1018F00064856D1EF4D13096079D12AF75B1309E90
:1019000017F8012B02A9304600F022FE002801D46E
:101910006D1EF5D10028309640F04F850A9D30208D
:10192000002D8DF800000CDD309E01236A4602A9CF
:10193000304600F01DFE002840F03F856D1EF4D1BA
:101940003096059F089D75B1309E17F8012B02A9AE
:10195000304600F0FDFD002801D46D1EF5D10028B1
:10196000309640F02A850B9D3020002D8DF8000028
:101970000CDD309E01236A4602A9304600F0F8FDD6
:10198000002840F01A856D1EF4D13096059808990C
:10199000099D471875B1309E17F8012B02A93046F2
:1019A00000F0D6FD002801D46D1EF5D10028309638
:1019B00040F003850C9D3020002D8DF800000CDDDB
:1019C000309E01236A4602A9304600F0D1FD00286E
:1019D00040F0F3846D1EF4D130969DF8400041072D
:1019E0007FF583AE2020002C8DF800007FF77DAEC0
:1019F000309D01236A4602A9284600F0B9FD00285F
:101A000040F0DB84641EF4D130956EE60FF6C030F2
:101A1000059000F0B6BC0E9D002D04D5204600F0C8
:101A20000FFE044607E02A46204600F013FE002879
:101A300014BF041B2C46089400F0A3BCD9F8001076
:101A400051F8040BC9F8001020F00004002121F027
:101A5000FF3512ABCDE902450593DDE90223069976
:101A60003C2413B90AB90E98A8B102F00F0530351D
:101A7000641EEEB23A2E08DA120942EA03721B091A
:101A80000D5508BF002A02D105E02735F4E7059877
:101A90000D19A842E9D308190590C4F13C020E982B
:101AA000089282420ADABDF84010821A4FF6EF70AF
:101AB00001400A92ADF8401000F063BC002840F1EC
:101AC00060849DF8400000F01400102840F0598414
:101AD0000F9B07990A985B1A1B1A9A1A002A40F35F
:101AE00050849AE32B99487820B14FF0FF340FF6D9
:101AF000B020EEE69DF84200622860D0682817D03A
:101B00006A283FD06C2806D0712847D074282CD082
:101B10007A281DD062E0D9F8001051F8040BC9F8FA
:101B20000010002866D14FF0FF340FF68C20D0E66D
:101B3000D9F8001051F8040BC9F8001020B94FF083
:101B4000FF340FF67420C4E60D99018000F019BC33
:101B5000D9F8001051F8040BC9F80010002849D139
:101B60004FF0FF340FF65020B3E6D9F8001051F8CB
:101B7000040BC9F8001000283CD14FF0FF340FF6D9
:101B80003820A6E6D9F8001051F8040BC9F8001067
:101B900080B94FF0FF340FF620209AE6D9F80010F4
:101BA00051F8040BC9F8001020B94FF0FF340FF6BC
:101BB00008208EE60D9AD317C0E90023E1E3D9F897
:101BC000001051F8040BC9F8001020B94FF0FF3491
:101BD0000FF6E4107DE60D990170D2E3D9F80010FC
:101BE00051F8040BC9F8001020B94FF0FF340FF67C
:101BF000C8106EE60D990160C3E3D9F80020D21D2C
:101C000022F00702C9F80020D2E900010832C9F821
:101C10000020CDE90201C80F02D007982D210AE06B
:101C2000BDF84000810702D507982B2103E0C007CB
:101C300005D50798202112AA1154401C079012A81C
:101C40000799DDE9024543184BF020006128059310
:101C500021AE0BD00E98002802D506200E9005E08C
:101C600001BF4BF02000672801210E91DDE9020140
:101C700048004015401C0A460DD109030BD0ABF1BA
:101C8000610703201A2F089002D20FF648110DE0C9
:101C90000FF644110AE070B912030CD1ABF16107E1
:101CA00003201A2F08901CD30FF634110322184674
:101CB00000F0FCFC65E3DDE902016A4600F002FD8C
:101CC000CDE902014BF02000612811D105983021A7
:101CD0000170821CBBF1610F05920CBF7821582165
:101CE00002E00FF6F801E1E741700798801C0790C9
:101CF000DDE9020120F0000231F0004308BF002AB4
:101D000002D10025002445E14BF02008B8F1610F15
:101D100040F095800E98002847BF21210191401C7A
:101D20000190019F7F1C2046294600220023DDE907
:101D3000024500F0FFFC00998DF8842038BF85F043
:101D40000045091F002F00910DF1850034DD064686
:101D5000204629460022002300F006FD2BD21C223B
:101D600000F01CFD04460D4600F0B6FDFF1F002FDD
:101D7000804609DD00F0CCFD02460B462046294690
:101D800000F08EFE04460D46F01D0721B8F1000F4D
:101D90000CDD491E5EBF08F00F0200F8012D4FEA6E
:101DA0002818F3D502E0002200F8012D491EFAD5CB
:101DB000C61D002FCCDC30460DF18501401A01997B
:101DC00005468842C8BF0D46002D0DF185062FD46B
:101DD000854206DA0DF18500415D0829A8BF0F2074
:101DE00000DA0020294621AA0A4400E06D1E12F8FC
:101DF0000139491E8342F9D00F2804D10DF1850025
:101E0000425C521C4254002904D50098001D21AEAA
:101E10006D1C0090681E0BD431180A783032D3B292
:101E20003A2BA4BF5A443A3A401E01F80129F4D58E
:101E30000E98002840F1AD80691E0E91A9E000992E
:101E4000DFF8FC2647F29750414391FBF2F20092F3
:101E500025F00045C2F10702002A04DD204629468C
:101E600000F04AFB0BE052420020DFF8D81600F0E9
:101E700043FB02460B462046294600F083FE0446FB
:101E8000B8F1660F0E9806BF009F0A3706273F1865
:101E9000142FC8BF142730208DF884000D460DF193
:101EA000850000E03046002F35DD064620462946F5
:101EB00000F08CFF01460A4606F1080304200A26BA
:101EC000B2FBF6F606EB860EA2EB4E02303203F8BA
:101ED000012C0A22B6FBF2F202EB820EA6EB4E06B2
:101EE0003036401E03F8026DE9D1083F002F03F1A0
:101EF0000806D7DD084600F07BFF02460B46204669
:101F0000294600F0CDFD0022DFF83C3600F07EFFD0
:101F100004460D46CAE70DF18501401A0DF185060C
:101F200004E00099491E401E0091761C317830294A
:101F3000F7D0B8F1660F02D10099491C04E0B8F15E
:101F4000650F0CBF012100210E9D4D19A842B8BF9D
:101F5000451E002D1DD4854204DA705D3428C8BFAB
:101F6000392000DC30202946721E531800E06D1E17
:101F700013F80149491E8442F9D0392802D1705C16
:101F8000401C7054002904D50098401C16466D1C56
:101F90000090009C01F010F8406A0778DDF8388066
:101FA00028B2002802DC01250FF238664BF0200031
:101FB000662808BF641C16D0672846D120B210F1ED
:101FC000040F48DB404546DA9DF84000641C0107D9
:101FD00003D428B24045D8BF804620B2B8EB0008F1
:101FE00048BF4FF000080FFA84FBBBF1000F00F36D
:101FF000B5800898411C0891302205990A54B8F11F
:10200000000F03DC9DF84000010704D50898411C2F
:10201000089105990F5418EB0B0FB8BFC8F10004D5
:1020200024B260420B90A0442AB29045B8BF454606
:10203000059B08982DB209952A463146184400F0B0
:1020400035FBA8EB05000C90D2E0BBF1610F17D176
:102050004FF0700B19E028B2404504DA9DF84010AB
:102060000A0758BF8046B8F1010848BF4FF0000882
:10207000BBF1670F14BF4FF0450B4FF0650B04E049
:10208000BBF1410F08BF4FF0500B0898411C08915D
:10209000B8F1000F059916F8012B0A5403DC9DF8DE
:1020A000400001071AD50898411C0891B8F1000FAB
:1020B00005990F5412DD6D1E28B280450598089BC6
:1020C000B8BF45462AB23146184400F0EFFA0899E5
:1020D0002DB269180891A8EB05000B900598089996
:1020E000084421B2002980F800B003D42B224270AA
:1020F000821C04E02D2242700C46821C64420021A6
:102100002CAB20460AE004460A2094FBF0F000EBDA
:102110008005A4EB450403F8014B491C00B20028DC
:10212000F1DC012906DC4BF02000652804BF3020DB
:1021300002F8010B00292CAB08D1302002F8010B6A
:1021400006E0491E585C303002F8010B0029F8DC2B
:10215000059908980844121A099249E028B221B258
:1021600088421CDA0598089B2AB23146184400F0D0
:102170009DFA08992DB269180891ABEB0500B8F1EA
:10218000000F0B9003DC9DF84000020704D5059872
:1021900047540999491C0991CDF8308028E00598E9
:1021A000089B22B23146184400F080FA08982D1B93
:1021B0005844B8F1000F089003DC9DF840100A075E
:1021C00003D5411C089105990F5428B28045059804
:1021D000089BB8BF45462AB206EB0B01184400F035
:1021E00065FA08982DB228180890A8EB05000B9006
:1021F0009DF8400000F01400102840F0C280079ABB
:1022000008990B988A18099982180C988A188218CC
:102210000F98824280F2B580821A0A92B1E09DF84E
:102220004200622808D068280ED06A2814D06C2892
:102230001FD0712810D01CE0D9F8001051F8040B01
:10224000C9F80010C0B21AE0D9F8001051F8040B18
:10225000C9F8001080B212E0D9F80020D21D22F097
:102260000702C9F80020D2E900010832C9F80020AD
:1022700006E0D9F8001051F8040BC9F8001000214D
:10228000CDE902019DF8400001075AD5DDE902239E
:10229000002B08BF002A54D04BF02000782850D1E2
:1022A000079812A930220A54401C431C079301F8D6
:1022B00000B046E09DF84200622808D068280ED0A1
:1022C0006A2814D06C281FD0712810D01CE0D9F8CF
:1022D000001051F8040BC9F8001040B21AE0D9F808
:1022E000001051F8040BC9F8001000B212E0D9F840
:1022F0000020D21D22F00702C9F80020D2E9000117
:102300000832C9F8002006E0D9F8001051F8040B93
:10231000C9F80010C117CDE90201002902D50798BC
:102320002D210AE0BDF84000810702D507982B2136
:1023300003E0C00705D50798202112AA1154401CBC
:10234000079012A807990144059102A8594600F088
:102350004DF816E001200790D9F8000050F8041B52
:10236000C9F800008DF848100BE025210122BBF1CF
:10237000000F8DF84810079203D08DF849B0022164
:1023800007910F9A07980A990C9C121A0898521AEA
:102390000B99121A0998521A121A9DF84000141B30
:1023A00041073FF5A9AA2020002C8DF800007FF7F7
:1023B000A3AA309E2546FFF793BA4FF0FF3031B005
:1023C000BDE8F08FCBCCCC0C686A6C747A4C000002
:1023D0007072696E74665F733A206261642025735F
:1023E00020617267756D656E740000002DE9FC4315
:1023F00004466F29256908BF082605D041F0200052
:10240000782814BF0A2610263C27D4E90023642923
:1024100018BF69299046994605D1002B03D5D8F1FC
:10242000000869EB4909B9F1000F08BFB8F1000FC6
:102430000CD1206B50B9082E3AD194F8380001071E
:1024400036D530203B2785F83B0031E08DF8001071
:10245000404649463246F31700F0B2FD3032D0B262
:102460007F1E3A2801970EDAEA5540464946324621
:10247000F31700F0A5FD80465FEA010908BFB8F137
:10248000000F05D108E09DF800001218513AEBE763
:10249000E068E9198842DBD3082E09D194F83800A6
:1024A000010705D5E85D302802D07F1E3020E855B1
:1024B000C7F13C02A261E919E160206B824208DAAF
:1024C000821A22624FF6EF70218F01402187BDE80A
:1024D000F38300280ED594F8380000F0140010287B
:1024E00008D1636B6169206A5B1A1B1A9A1A002A69
:1024F000C8BF2262BDE8F3832DE9D04306460F46EC
:1025000014464FF00008DFF8449012E0E00707D5CA
:1025100042464B463046394600F078FC06460F46A8
:102520004046494642464B4600F070FC64108046E7
:102530008946002CEAD130463946BDE8D0830000F8
:10254000A08601000000F03F84D79741000024409E
:1025500010B503460C461146A0689847A06020B10C
:10256000E06A401CE062002010BD4FF0FF3010BD5B
:10257000F8B505460E4617461C4600205CB117F814
:10258000011BB068A847B06030B1F06A401CF0622F
:102590000020641EF3D1F2BD4FF0FF30F2BD000009
:1025A0007072696E74665F733A20256E2064697379
:1025B000616C6C6F776564007072696E74663A2046
:1025C00062616420256E20617267756D656E7400AE
:1025D000000000006E616E004E414E00696E6600A4
:1025E000494E460030002E00C9B202788A421AB124
:1025F0001CBF10F8012FF9E718BF0020704700003A
:1026000080B500B906A005490B681BB12222002144
:10261000984701E0FFF728F8222002BD1C1D00208A
:10262000636F6E73747261696E742068616E646C3E
:1026300065723A20626164206D657373616765003D
:1026400000F1010310F8011B11B110F8011BFBE7A9
:10265000C01A7047C9B2830706D0521E22D310F8A1
:10266000013B9942F7D11FE0083A13D302F104026B
:1026700041EA012141EA014150F8043B121F21BF08
:102680004B40A3F1013C2CEA030C1CF0803FF3D03B
:10269000C9B2001F083210F8013B521E28BF91EA50
:1026A000030FF8D818BF0120401E70474AB1000040
:1026B00011F8013B521E00F8013B1CBF11F8013B11
:1026C000F8E7704710B5144600F002F8226010BD1C
:1026D000C1F30A5343B14A0012F5001F28D2A3F2F6
:1026E000FE32A1EB0251704750EA410C20D001F0BC
:1026F000004C31EA0C01B1FA81F204BFB0FA80F368
:10270000D2180B3AB2F120032CBF00FA03F191402A
:1027100041EA0C013EBFC2F1200C20FA0CF3194330
:102720009040524240F2FD33D21A01EB0351704700
:102730000022704741EA030C50EA4C0C52EA0C0CA0
:102740004FF4001C09D307D01CEB410F9CBF1CEBBE
:10275000430F8B4208BF824270471CEB430FFBD8EC
:10276000994208BF9042704741EA030C50EA4C0C72
:1027700052EA0C0C4FF4001C09D307D01CEB410F9C
:102780009CBF1CEB430F994208BF904270471CEB63
:10279000410FFBD88B4208BF82427047124254D48B
:1027A00040F2FF7C1CEA11530FD0634531D09B18D7
:1027B00063453CBF01EB0251704701F0004141EA23
:1027C0000C510020AFF30080704750EA410320D045
:1027D00001F0004C91EA0C011CD0B1FA81F30B3BE3
:1027E0009A420DD9D21A994051EA0C01C3F1200C3A
:1027F00020FA0CFC61449840531C40F2FF7CD7E760
:10280000914041EA0C01C2F1200C20FA0CF319436B
:1028100090407047B0FA80F31533202BE0D3202A84
:10282000EED3203A203B9A4209D9D21A00FA03F19A
:1028300041EA0C010020531C40F2FF7CB8E700FA8B
:1028400002F141EA0C0100207047524240F2FF7C45
:102850001CEA11530DD06345DBD0B2EB030C3CBF37
:10286000A1EB025170470CF1010221EA035141F43E
:10287000801150EA410CCCD001F0004C352A27DC05
:1028800030B481EA0C01B2F1200309DAC2F120036D
:10289000044601FA03F5D0402843D1409C400CE0A7
:1028A000C3F12002450020FA03F418BF44F00104EC
:1028B00021FA03F091400C43002174F1004550F1DE
:1028C000000051EB0C01244230BC7FF47BAF704719
:1028D0006146002076E70000C1F30A5340F21E4231
:1028E000D31A0CDDCA0283F3070342EA505242F0C6
:1028F0000042DA4002EBE17282EAE17070476FEA6F
:10290000E17203F2E13008B182F00040704700004C
:1029100010F0004160B148BF4042B0FA80F29040F0
:10292000D21CC2F5846241EA025202EBD02140057A
:1029300070470000841A71EB030604D26E40001B3E
:10294000B141121973414FF4001C1CEB410F34BF0D
:102950007CEB430683E00C0DA4EB1356362E00F3FC
:102960007C80012E45EAC32341DC43EA525312BF67
:10297000D20292025B08240545EAC12141EA505186
:10298000D2EBC020994125D407D1B0FA80F610FAD5
:1029900006F162D00020203608E0B1FA81F6B1409D
:1029A000C6F1200220FA02F21143B0404FEAF4745B
:1029B000B4EB465434F001064FEA74040AD8D6F555
:1029C0000016760D04F00044F04061FA06F2504023
:1029D000F1404840C00A40EA415021F0004128BF80
:1029E0005FEA500550F1000044EBD12135E0DB0AED
:1029F00045EAC121C90AB6F120050EDD42EA0242CC
:102A0000120CC5F1200603FA06F6EB4042EA060571
:102A10006D42984161F100010DE062FA06F5F24065
:102A2000554063FA06FC82EA0C02F3405A406D42BC
:102A3000904161EB030111F4801F05D1641E620512
:102A400002D06D004041494121F48011430875F1E5
:102A5000004350F1000041EB045170BC70471CEB87
:102A6000410F15D223F0004352EA43060BD04FEA40
:102A70004C0CBCEB410F04D80C0D661E342EB7DD98
:102A8000EBE7801A994150EA410608BF0021E4E7CC
:102A900008BF1CEB430F28BF6FF00001DDE700000B
:102AA00070B491EA030F4FF000457FF543AF6B40E0
:102AB000841A71EB030603D2001BB1411219734152
:102AC0004FF4001C1CEB410F34BF7CEB430442E08D
:102AD0000C0DA4EB1356352E4FDC45EAC323DB0A5D
:102AE00045EAC121C912B6F120050DDD63FA05F6EC
:102AF000EB4086EA0305124218BF45F00105C018F5
:102B000051F100010CD213E062FA06F5F240554093
:102B1000F3415A40B340F3405A408018594107D31B
:102B200049085FEA30005FEA350528BF45F0010536
:102B300001F58011420875F1004250F1000041EBAF
:102B400004514E0016F5001F70BC38BF70470020BE
:102B5000090D090570471CEB410F10D252EA4306DC
:102B60000BD0BCEB410F05D80C0DAB43661E342EC9
:102B7000B6DD02E0AB438018594170BC704770BCB1
:102B800070470000F0B540F2FF7581EA030C0CF0CD
:102B9000004C15EA11541DBF15EA1357AC42AF4261
:102BA000E5E0BC41C1F31301C3F31303801A99415B
:102BB00043F4801304D2641E00184941801859411F
:102BC000C90241EA5051B1FBF3F603FB1611A2FB17
:102BD0000675D7EBC020A94102D2761E8018594154
:102BE000C90241EA5051B1FBF3FE03FB1E11A2FBE7
:102BF0000E75D7EBC020A94103D2AEF1010E8018AB
:102C00005941890241EA9051760546EA8E2EB1FB80
:102C1000F3F603FB1611A2FB0675D7EB8020A94142
:102C200002D2761E80185941C90241EA50514EEA3B
:102C3000060EB1FBF3F603FB1611A2FB0675D7EBEC
:102C4000C020A94102D2761E80185941C90241EA2A
:102C50005051B1FBF3F703FB1711A2FB0735D3EB80
:102C6000C020A94167F100070CBF004247F00107EF
:102C700066F3D5274FEA1E31B80814F5806412DDDB
:102C8000BD0775F1004250EB0E5051EB045111F5A8
:102C9000801F5CBF41EA0C01F0BD4CF07F6141F048
:102CA000E0410020F0BDBD076D0840EA0E5041F440
:102CB0008011D4F10104B4F120060ADAC4F120062F
:102CC0000200E04001FA06F3E1401843B240154328
:102CD0000EE0342C13DCC6F1200445EA40056D08F3
:102CE00020FA06F2154321FA06F0A1400D43002117
:102CF00075F1004250F1000051EB0C01F0BD0020D5
:102D00005FEA0C01F0BDCFB992185B41B3FA83F7CB
:102D100004BFB2FA82F6BF190B3FB7F120062FBFEE
:102D200002FA06F3BB40C7F1200622FA06F638BFC6
:102D30003343BA401CB1E419641E33E77F4231F0DB
:102D40000041B1FA81F404BFB0FA80F6A4190B3C3B
:102D5000B4F120062FBF00FA06F1A140C4F120060D
:102D600020FA06F638BF3143A0403C1B1AE7AC42BC
:102D70001ABF05EA1357AF4212E050EA41061CBFE2
:102D800052EA4306BFE750EA4107304661461CBF9E
:102D900041EA0551F0BD52EA430C08BFC143F0BD02
:102DA00000204FF4001616EB410F98BF16EB430FAF
:102DB00008BF16EB410F24BFC14305E016EB430FDC
:102DC0000CBF61464CEA0551F0BD0000400D40F2D9
:102DD0001E4C40EAC120BCEB115C40F0004003D423
:102DE0008CF30701C84070476FEAE170704700003C
:102DF00050B1B0FA80F18840C91CC1F58461090561
:102E000001EBD021400570470146704730B540F2D4
:102E1000FF7C1CEA11541DBF1CEA1355644565452F
:102E20003FE0641981EA030C6FF35F530CF0004C30
:102E300043F48013C90241F0004141EA505EC502EB
:102E40001100A5FB020200284FF00000EEFB01205C
:102E50004FF00001E3FB052118BF42F001024018CA
:102E600000214941E3FB0E01A4F580640D0302D269
:102E700092184041494154F1010470DD450872F156
:102E8000004250F1000051EB0451A1F5801102D431
:102E900041EA0C0130BD40F2FF7E4CEA0E510020A9
:102EA00030BD0CEA1355644518BF654581EA030C33
:102EB0000CF0004C41D050EA410E1CBF52EA430EC8
:102EC00002E06146002030BD24422C441BD15FEA61
:102ED000050EF6D0090302BF01460020AEF1140E24
:102EE000B1FA81F5AEEB050401FA05FE0C35C5F12A
:102EF000200100FA05F5C8404EEA000E6FF35F535B
:102F000043F480139CE733F00043B3FA83F504BF26
:102F1000B2FA82FE75440B3D641BB5F1200E2FBF43
:102F200002FA0EF3AB40C5F1200E22FA0EFE38BFB6
:102F300043EA0E03AA40641C7CE750EA410E14BF2A
:102F400052EA430E6FF000014FF4001515EB430FEA
:102F50008EBF194615EB410F9DE7B4D830BDD4F1B3
:102F60000104B4F120050FDAC4F12005520828BF8E
:102F700042F0010210FA05FE01FA05F57244E2BFC3
:102F8000E0402843E1400FE0352C9ADCC5F12004F5
:102F900052EA400220FA05F218BF42F0010231FA6B
:102FA00005F0A1400A43002172F1004250F10000F7
:102FB00051EB0C0130BD0000004870478401002037
:102FC000D3BBD9B1B2F5803F5BD2022A1ED98C4661
:102FD000B1FBF2F102FB11C31B0443EA1043B3FB44
:102FE000F2FC02FB1C3380B240EA0343B3FBF2F075
:102FF00002FB103240EA0C4000237047022A05D938
:103000008446B0FBF2F002FB10C270474AB105D112
:1030100000F0010249085FEA3000704700220023F7
:10302000704700F051B80B000200002100207047EB
:10303000F7D3002200237047904271EB030CF2D3C8
:1030400070B5B1FA81F4B3FA83F52C1BA340C4F137
:10305000200532FA05F63343A2405FF00046E64011
:1030600002E05B085FEA3202841A71EB030524BFB9
:10307000204629467641F4D302000B00300000219F
:1030800070BD70B5B1FA81F4B2FA82F5C4F12004D2
:103090006419B4F12006DAD3B2405FF00044F44082
:1030A000002502E052085FEA3303C61A71EB020EF4
:1030B00024BF3046714664416D41F3D302000B00DA
:1030C0002000290070BD0000704700000EB418B544
:1030D00004460898012817D1A06B20F48030A06323
:1030E000E168DFF860080140E160E16821F4401127
:1030F000E1600F98012803D1E06840F48010E0609F
:10310000204600F008FC0FE0E06840F04000E0607E
:10311000204600F000FC0C990029A16B0CBF41F483
:10312000803121F48031A1630699012907D1A1687A
:1031300041F00601A160A16841F02001A16012BC2C
:103140005DF810FB10B5022A58D1DFF8FC27DFF834
:10315000FC3752189A4238BF4FF4705150D3DFF801
:10316000F027DFF8F03752189A4238BF4FF4605119
:1031700046D3DFF8E427DFF8E43752189A4238BF25
:103180004FF450513CD3DFF8D827DFF8D837521826
:103190009A4238BF4FF4405132D3DFF8CC27DFF8E2
:1031A000CC3752189A4238BF4FF4305128D3DFF849
:1031B000E027DFF8E03752189A4238BF4FF4205129
:1031C0001ED3DFF8D427DFF8D43752189A4215D32C
:1031D000DFF8CC47DFF8CC276418944238BF4FF4AF
:1031E00000510DD3DFF8C027DFF8C03751189942DE
:1031F0002CBF4FF4C0514FF4E05101E04FF4105197
:10320000C26822F47052C260C2681143C1600020DB
:1032100010BD816841F0010102E081684908490060
:1032200081600020704780B5C26822F0C042012949
:10323000C26008D1C16841F00051C160322000F085
:10324000C7FB002002BD19B9C16841F08041F4E715
:10325000012002BD0EB42DE9F043054604460026C8
:103260000021002004EB8102491C0F29C2F804014F
:10327000F8D3DDF84490B9F1000F05F500670AD1E5
:10328000786840F002007860A06B40F40010A06302
:1032900000F075FB06E0A06B20F40010A063A06BAB
:1032A00040F4002005F56061A0630E603A683A6062
:1032B0000C98012805D1099A002A14BF0121002188
:1032C00000E00321204600F08DF81021204600F098
:1032D0006BF800B10126204600F076F800B1012617
:1032E0000020386178612A46F8614FF67F334FF04D
:1032F000904C4FF0006E002503E00D600D618B6077
:10330000401C0799884211D202EB401101F510616F
:10331000D1F80080B8F1000FEFD5002806BF02F504
:103320001068C8F800E0C1F800C0E7E7002003E03B
:103330000D600D618B60401C0799884211D202EB31
:10334000401101F53061D1F80080B8F1000FEFD5E0
:10335000002806BF02F53068C8F800E0C1F800C0D8
:10336000E7E7386920F480703861A5616FF080402C
:1033700060610A9800F0FCFADFF834060143A161AD
:103380000D9818B1A06940F00800A061B9F1010FD3
:1033900005D1A06940F0804040F00400A0613046B3
:1033A000BDE8F0035DF810FB890141F020010161E7
:1033B000DFF80016491E03D002699306FAD401E033
:1033C000032070470020704710210161DFF8E415E9
:1033D000491E03D00269D306FAD401E003207047E6
:1033E0000020704700F500600268114313E200F509
:1033F0000060806810F0060006D0022818BF06287A
:1034000001D1022070470F20704770B50C784E78BC
:103410002546012304F00F0400EB451203FA04F4DF
:10342000012E00F50060DFF890350DD1C669A4B219
:10343000344302F51062C4611068040411D400F032
:1034400012F840EA85500AE0C56945EA044502F5EC
:103450003062C5611068040403D400F004F803432B
:103460001360002070BD10688C68C978C4F30A042A
:10347000204340EA8140704730B500F041F810D158
:1034800000F04CF800F026F8ADB2AC43D463D46938
:1034900000F027F824EA0303D3610268DFF81C1563
:1034A00014E000F530600468002C01D500F01FF82E
:1034B00000F010F824EA0544D463D46900F029F838
:1034C00024EA0344D4610268DFF8F4140A4002607D
:1034D000002030BDD46B0D7805F00F0503FA05F51B
:1034E0007047097801F00F018B409BB27047046868
:1034F00044F000640460056845F08045056070474D
:103500000B784C7800F5006200EB43100123012C8E
:103510007047097801F00F018B40704700F510608B
:103520000468002C07D5046844F000640460056852
:1035300045F0804505607047F8B50B78DFF8846486
:10354000DFF8847400EB43154B78012B00F5006421
:1035500060D14B6905F51065002B2B6909D11F401F
:103560002F612E6946F400262E612B69DB0CDB04EB
:1035700022E0DB0CDB042B612B691F402F618B6881
:103580002F69D1F814C09C44ACF1010CBCFBF3F3DF
:1035900006EAC3463E432E612B694E69C6F3120606
:1035A00033432B61CB78012B07D12B6923F0C04328
:1035B0002B612B6943F000532B61012A03D1086969
:1035C000002852D050E02B6843F004432B60CE78A3
:1035D000012E0BD0486900285AD0606B097801226F
:1035E00001F00F018A401043606351E0A368DC05DD
:1035F00004D42B6843F000532B6003E02C6844F0A4
:1036000080542C6000920A784B69C9689BB200F024
:10361000A5F83DE005F530652869C00CC0042861B7
:10362000286907402F618B68486940B92869C3F34E
:10363000120303432B61286940F400200FE018189F
:10364000401EB0FBF3F080B22B6906EAC0461E4371
:103650002E612B698E687043C0F312001843012A53
:10366000286102D1C86800B16861C87801280BD10F
:10367000A068C10504D4286840F00050286003E029
:10368000296841F080512960286840F00440286092
:103690000020F2BD30B50B78DFF82C5300EB43145B
:1036A0004B78012B38D14B6904F51064002B23694A
:1036B00009D11D402561256945F40025256123694F
:1036C000DB0CDB0414E0DB0CDB04236123691D400D
:1036D00025618B684D69AB4288BF2B464B612369DE
:1036E00043F40023236123694D69C5F312052B437D
:1036F000012A236101D1086928E0236843F00443CB
:1037000023604A6942B300F500600123426BFFF772
:1037100000FF1A4342631FE004F530642069C00CC7
:10372000C004206123691D402561486908B188688B
:103730004861206940F40020206120698B68C3F350
:1037400012031843012A206102D1C86800B16061E8
:10375000206840F004402060002030BDB8B5059CD2
:1037600064B9DB1C07E000EB023751F8045B07F596
:103770008057641C3D60B4EB930FF4D30020B2BDBE
:1037800010B5D21C002305E000F580545B1C2468B2
:1037900041F8044BB3EB920FF6D3084610BD0A78FC
:1037A000497800EB421001290CBF00F5106000F5CC
:1037B00030600168002904D41AB1016821F0804109
:1037C0000160026842F400120260002070470A782B
:1037D00000EB42104A78012A0CBF00F5106000F59A
:1037E0003060026822F400120260C978032918BF11
:1037F000022903D1016841F0805101600020704727
:1038000000F500600901026822F4FE62026001F422
:10381000FE610368194301600020704700F5606194
:1038200000F500600A68920892000A60416821F081
:1038300002010AE000F5606100F500600A68920884
:1038400092000A60416841F0020141600020704727
:103850000146486989690840704700F50061886938
:10386000C9690840000C704700F500618869C969A2
:10387000084080B27047024602EB411000F530600C
:1038800002F500628068516908407047024602F5FF
:10389000006302EB411218695B6B01F00F0102F546
:1038A0001062CB40DB01926803F0800318431040A4
:1038B0007047406900F00100704700F5106100F5A5
:1038C00000600A68D20AD2020A60416841F480713D
:1038D000BBE710B5036CDFF8F440A34200F530609D
:1038E00002D30368002B14D4002303610129046967
:1038F00044F400240461036943F01803036103697D
:1039000043F0C043036104D14261016841F080216A
:103910000160002010BDDFF89C201146491E0CD02C
:103920000369002BFAD5016941F001010161521EC2
:1039300003D00169CB07FAD401E0032070470020CF
:1039400070470000BFFFBDFF405327FF00350C004C
:10395000401E1BFF40420F0000DC0BFF804F120097
:10396000808CF9FE20D6130060B6E5FE60E31600F9
:1039700018B9A06940F01000A061A1697047A06B60
:1039800020F40020A063A06B20F48020704700008A
:1039900000D3CEFE40771B00C05BB3FEC091210078
:1039A00000CA91FE20753800E05459FEE09C4100A9
:1039B00000383C80410D030000800010007833EC9B
:1039C0000078F3EF0000F81FFFFF07E00B30544FC3
:1039D00038B5044600F010F814F1010F054602D086
:1039E00004480178641800F007F8401BA042FAD39D
:1039F00031BD00BF0000002001484068704700BF93
:103A00000000002070B504008AB04BD0266804F591
:103A10006F75687820B900212970204600F00CFCF1
:103A200003206870F16BC8055CBF0021216120682C
:103A3000FFF7F3FB83B000F048F80EBC2068FFF7F7
:103A400045FB00282CD120680021FFF7ECFB00216A
:103A50001C2000260AE010FB01F222443C32012324
:103A600053701170D180002300F028F862689142F1
:103A7000F1D3002109E010FB01F2224402F5FE72AD
:103A800000231170537000F019F862689142F2D36C
:103A900083B000F01AF80EBC2068FFF7DBFB18B10A
:103AA00002206870012007E084F838000121697065
:103AB0002068FFF7BFFE00200AB070BD491CD67019
:103AC0009360D6605361C9B27047211D68463422A5
:103AD000FEF7ECBD10B500F0ABFA01D1022010BD2D
:103AE00000F0ACFAFFF795FB20689BE22DE9F84F58
:103AF000054684B02C6801942046FFF7DAFE0028C2
:103B000040F0858200F086FA002800F0808200F004
:103B100081FA800704D52868416901F002014161FA
:103B200000F078FAC00632D52868816921F01001CA
:103B300081611C20266A06F00F014143681800F5D8
:103B4000FE77C6F3434002280FD147F6F0700642D5
:103B500018D0F968C6F30A122046FFF711FEF8687C
:103B6000C6F30A110844F86007E006280AD10822C3
:103B700005F571712046FFF703FEB969C6F30A1017
:103B80004118B9612868816941F01001816100F034
:103B900041FA000340F1B0802868FFF75EFE002480
:103BA0002E4605004FF4004A48E0002C04BFD6F82A
:103BB0001002002809D106F5717200211846FFF79E
:103BC00088FE02E008B120208860E1B2304600F0B3
:103BD00077FB380720D50821C9F808103068DFF8CE
:103BE0003C84D0F840B000EB441101F53060C3458F
:103BF000816803D3090448BFC0F808A0304600F02C
:103C000059FBC34508D33069012805D1306806F552
:103C100071720121FFF75DFEF80644BF1021C9F85B
:103C20000810B80644BF2021C9F80810B80444BFE2
:103C30004FF40051C9F80810641C6D085BD0E80708
:103C4000FAD53068E1B2FFF716FE0746019800EB9F
:103C5000441000F53069F807BBD50121C9F80810F8
:103C60003368D3F840C003EB441101F530618A6832
:103C7000D6F810E0BEF1010F02F0200030D113079A
:103C800006D5DFF898038445A3D3120430D4A0E707
:103C900010B1202088609CE712F0280F99D1DFF83E
:103CA0007C03844501D3120422D41C206043304499
:103CB00000F5017002680969C1F31201521A02612C
:103CC000002C416802680A44426004BFD6F8100222
:103CD00000287FF47AAF306806F5717201216EE733
:103CE000DFF83CE3F4457FF460AF12047FF56AAF80
:103CF000C1F808A06DE7354600F08CF9400340F1AB
:103D0000A4802868FFF7B0FD06460198002400F55E
:103D100000600390002E34E0D7F808B0411A8B45BC
:103D200088BF8B460BF103004FEA900A2869C0B2A6
:103D300000901FFA8BF3F968E2B24846FFF70EFDD8
:103D4000F868B96958448B44F860C7F818B009EBB3
:103D5000441000F51060816989B2514505D3786936
:103D6000B969814201D20028D6D1B86979698842FF
:103D700005D309F50062516B029801405163641C40
:103D8000760862D0F007FAD52868E1B2FFF77EFD29
:103D90008046019800EB441000F510691C220121B7
:103DA00004F00F0062438140AF18C9435FEAC87056
:103DB00002911DD503994A6B029802404A63012083
:103DC000C9F80800296901290ED1B86C796C014441
:103DD000B964002C04BF286D002805D1286805F5BA
:103DE00071720121FFF775FDE1B2284600F072FA09
:103DF0005FEA087044BF0821C9F808105FEAC8608C
:103E000044BF1021C9F808105FEA486044BF402150
:103E1000C9F808105FEA887044BF0221C9F8081089
:103E20005FEA0860ABD53C37B8697969D5F800908E
:103E30008142A4D3D7F808A0081A824588BF8246D9
:103E40000AF103004FEA900A81E72868019CFFF716
:103E5000FFFC002804F5006416D561684908490094
:103E6000616095F8F403012806D1002185F8F41368
:103E7000284600F004FB02E0284600F063FA2868B8
:103E8000416901F00041416100F0C4F800050AD524
:103E9000A168C80744BF284600F03FFA2868416976
:103EA00001F40061416100F0B5F8C00453D56168C8
:103EB00049084900616010212868FFF775FA0198E8
:103EC00000214FF67F3218E000EB411303F5106636
:103ED00003F53063B260491C376827F40017376078
:103EE000376847F0006737609A601E6826F400164E
:103EF0001E601F6847F000671F606B689942E3D33C
:103F0000E06940F00110E061286B50B1D4F8840002
:103F100040F00B00C4F88400606C40F00B0060645B
:103F200009E0606940F4005040F02B0060612069B6
:103F300040F00B00206105F57172206820F4FE60EE
:103F4000206029692868C9B2FFF7C3FC2868416965
:103F500001F48051416100F05DF8800416D52868B5
:103F6000FFF7ABFC2868FFF742FAE86000F00EFBB1
:103F70000146EA682868D2B2FFF7E4F8284600F064
:103F8000B6F92868416901F40051416100F042F836
:103F9000000707D5284600F0A6F92868416901F016
:103FA0000801416100F036F8C00208D5002128461A
:103FB00000F0D0F92868416901F48011416100F0F6
:103FC00029F8800208D50021284600F0BFF92868AA
:103FD000416901F40011416100F01CF8400007D56F
:103FE000284600F0BBF92868416901F08041416131
:103FF00000F010F840070AD529684C68600744BFF4
:10400000284600F0AFF9286841680C43446005B0C9
:10401000BDE8F08F2868FFF71BBC00000B30544F41
:104020000A31544FFFF7FAFB002084F8BC0310BD9F
:10403000044694F8BC232068012A7047A36A012231
:10404000012B84F8BC2306D1A269012A03D0826B1C
:1040500042F480328263704710B5044694F8BC0382
:10406000012801D1022010BD012084F8BC0384F88E
:1040700038102068FFF7C4FBD6E738B5054601F0D5
:104080000F041C20444328190C0647BF00F13C04D0
:10409000012000F5FE74002001F00F016070217016
:1040A000A260E370607808B12178E180022B04BF40
:1040B0000020207195F8BC03012801D1022032BDF7
:1040C000012085F8BC0321462868FFF79EF97CE0B3
:1040D00010B5044601F00F0200F09FF800F090F8D0
:1040E00001D1022010BD00F092F8FFF7C5F99BE75F
:1040F00038B500F026F803F5FE73002500F028F827
:1041000008BF1A6110E001F00F011C22514308445E
:10411000D0F81402704738B500F013F83C3301258D
:1041200000F016F808BF1A61026900680029D2B2CF
:10413000194602D1FFF7AEFA01E0FFF7FDF90020C2
:1041400032BD1C4601F00F051C235D434319704727
:104150005C6101F00F0100249C61DA605D701970F0
:104160000469012C704738B505460C46696804F0AF
:104170000F00814201D2012032BD1C21220605D54B
:104180004843284400F13C01012005E011FB04F103
:10419000681800F5FE710020487001228A7004F052
:1041A0000F040C7095F8BC03012801D1022032BD28
:1041B00085F8BC232868FFF7F2FA34B92969286822
:1041C00005F57172C9B2FFF784FB002085F8BC03C6
:1041D00032BD10B5044601F00F026068904201D272
:1041E000012010BD00F019F80023837000F008F8DA
:1041F00001D1022010BD00F00AF8FFF7E8FA13E73A
:1042000001F00F01017094F8BC13012970470122DD
:1042100084F8BC230146206870471C204243A01844
:104220000A0603D53C3001234370704700F5FE7049
:10423000002242707047000010B586B00446142179
:1042400001A800F0C7F92268B2F1A04F30D10020D8
:104250005D4C00900222216841F0010121604FF481
:10426000C051206800F0010000900098574801916B
:1042700002920021039103220A210591049201A9CF
:1042800000F0ACF9606840F08000606000210091AF
:104290000022606940F480406061606900F4804001
:1042A00000900098432000F08FFA432000F0A9FA14
:1042B00006B010BD00F57171D0F8040400F007BB22
:1042C0000B461C225343C218D0F80404D2F808222B
:1042D00000F02BBB0B461C225343C218D0F8040439
:1042E000926C00F058BBD0F8040400F0E2BB38B583
:1042F00004460125E06808B9002503E0022818BF3C
:1043000000F04AFDD4F80404294600F0BEFBD4F8BE
:104310000404BDE8324000F08DBB10B50446D4F86B
:10432000040400F0B5FB206800F56060016841F00E
:1043300001010160206A20B12548016841F00601B1
:10434000016010BDD0F8040400F0AABBD0F804044A
:1043500000F0BDBBD0F8040400F0B7BBD0F80404F3
:1043600000F0B7BBD0F8040400F0B5BB10B501787D
:1043700039BB184CC4F80404C0F8C4424FF0A04044
:1043800020600421002002222061E061206260623E
:10439000E06220636160E260A2612046FFF732FBC9
:1043A00008B100F0F9FC8021204600F018FD402201
:1043B0000021204600F0F2FC80220121204600F07E
:1043C000EDFC002010BD000030380240000002402B
:1043D00010ED00E0BC11002080B5D0F8C402FFF75A
:1043E00079FBBDE8024041E010B51C461346D0F809
:1043F000C4022246FFF741FEBDE8104036E080B51A
:10440000D0F8C402FFF764FEEBE780B5D0F8C40231
:10441000FFF7A9FEE5E780B5D0F8C402FFF7D9FEA3
:10442000DFE7D0F8C42201F07F031C204343D018FB
:10443000090602D590F83E00704790F8FE017047DB
:1044400080B5D0F8C402FFF707FECAE780B5D0F800
:10445000C402FFF760FEC4E780B5D0F8C402FFF7DE
:1044600047FEBEE7D0F8C402FFF74DBE014600206C
:1044700021B1022901D10120704703207047704704
:104480002DE9F04104000F4654D04B4E306800F047
:104490000F00B84202D200F073F84BD12068474DAC
:1044A000810712D5400703D5A96841F4E051A960FE
:1044B0002078010703D5A86840F46040A860A96887
:1044C000A06821F0F0010143A9602178C80729D52F
:1044D0006068012802D129688A0305E0022818BF14
:1044E000032803D129688A0103D423E029688A07B5
:1044F00020D5A968890840EA8100A860FFF77CFA06
:104500008046A868616800F00C00B0EB810F09D00C
:10451000FFF772FAA0EB080041F289318842F0D32C
:1045200003202BE0306800F00F00874204D200F037
:1045300027F801D0012021E02078410705D5AA689D
:10454000E06822F4E0520243AA602178080706D509
:10455000A968206921F4604141EAC001A96000F026
:1045600043FCAA681649174BC2F30312895CC84082
:1045700018601548006800F067FC0020BDE8F08175
:104580003770316801F00F01B94270470D4800687B
:1045900070470C480D4A006813680D49C3F3822226
:1045A00006E00848094A006813680949C3F3423223
:1045B000895CC84070470000003C0240003802405F
:1045C000CC6100080C0000200800002008380240E0
:1045D000D8620008002200F057BC00002DE9F84F17
:1045E0000D4600266349644A0F23044601202F68C4
:1045F000B04000EA0708804540F0B2804FEA460C20
:10460000032707FA0CF76FEA070E6F68012F18BF30
:10461000022F03D0112F18BF122F12D1A768D5F87F
:104620000C900EEA070709FA0CF949EA0707A76098
:10463000676827EA00006F68C7F30017B740384380
:104640006060E068AF680EEA000007FA0CF73843D4
:10465000E060B0006F68022F18BF122F12D1F70868
:1046600004EB870700F01C09D7F820A003FA09FB28
:104670002AEA0B0AD5F810B00BFA09F949EA0A0937
:10468000C7F8209027680EEA070E2F7907F0030776
:1046900007FA0CF747EA0E0727606F68FF005FD53F
:1046A000002700974FEA960C176847F48047176079
:1046B00000F00C00176807F48047009703FA00FE2B
:1046C000009F2E4F57F82C7027EA0E0E2C4FBC423D
:1046D00008BF002713D02B4FBC4208BF01270ED0C4
:1046E000294FBC4208BF022709D0284FBC4208BF4F
:1046F000032704D0264FBC420CBF0427072707FA24
:1047000000F01E4F40EA0E0047F82C006FEA080048
:104710000F6800EA070C6F68FF0348BF48EA0C0CFB
:10472000C1F800C04F6800EA070C6F68BF0348BFBC
:1047300048EA0C0CC1F804C08F6800EA070C6F68E7
:10474000FF0248BF48EA0C0CC1F808C0CF6800EA75
:10475000070C6868800248BF48EA0C0CC1F80CC01E
:10476000761C0F2E7FF642AFBDE8F18F02B9090427
:1047700081617047003C01404438024008380140E4
:10478000000002400004024000080240000C024009
:10479000001002400901020002D4294881547047E8
:1047A000284B02F00F021A4402F8041C7047264BF3
:1047B00019684FF6FF020002114000F4E060084360
:1047C000224908431860704770B51F4B1C68C4F33A
:1047D00002230124C3F10705052D2EBF0F2504FA7E
:1047E00005F56D1E1E1D072E34BF0023DB1E29405C
:1047F000994004FA03F3BDE870405B1E1A40114370
:10480000C8E7010007D4012200F01F01104B8A40C5
:10481000400943F82020704710B5401EB0F1807F5A
:1048200001D3012010BD0B4C60600F214FF0FF3011
:10483000FFF7B0FF0021A16007202060002010BD1D
:1048400000E400E018ED00E00CED00E00000FA05E7
:1048500000E100E010E000E038B508B9032032BD07
:1048600000F52774E3690BB10025E561236B0BB1FB
:104870000025256301B1A161012121700270BDE80D
:104880003240FFF773BD1CB50022ADF8002009B916
:10489000032016BD00F52E7468462160896A88479A
:1048A0006061002016BDFFF797BD80B5D0F8B83223
:1048B000032213B11A6890470246104602BD80B524
:1048C000D0F8B8220AB152689047002002BD38B52E
:1048D000044604F2AA25284600F0FEFC04F52570E3
:1048E00001210160828B817D426011F01F0003D0A5
:1048F00002280DD006D311E029462046BDE83440F9
:1049000000F0E2BA29462046BDE8344000F025BC5C
:1049100029462046BDE8344000F045BC2046BDE8AD
:10492000344001F08001FFF770BD38B504461046F1
:104930000A0004F5257320D1196803290ED104F566
:10494000AE714A680D68AA420AD2AD1A0D6095424E
:10495000014638BF2A46204600F01BFD002032BD2C
:10496000596A086928B1187A032802D109692046D2
:104970008847204600F015FDF0E75A6A906940B17B
:10498000187A032805D19269204690470100E5D0A6
:1049900032BD032032BD38B5054610460A0005F584
:1049A000257439D1216802292FD1EA69296A9142F7
:1049B00006D2521AEA610146284600F0D8FC0DE002
:1049C00013D1A869884210D3616888420DD20022B1
:1049D0000021284600F0CBFC00206060002300226C
:1049E00000212846FFF738FD0FE0616AC86828B14A
:1049F000207A032802D1C9682846884780212846A2
:104A0000FFF703FD284600F0D3FC207B012804BFFC
:104A100000212173002032BD626A506940B1207AC2
:104A2000032805D15269284690470100F2D032BDD3
:104A3000032032BD38B5044604F52572012000215B
:104A40001072116061600025906A156128B1526A88
:104A500061685368C9B2204698474023002200216C
:104A60002046FFF7C1FC04F5B0700121402281808F
:104A700002604023002280212046FFF7B5FC012080
:104A8000A08440212162002032BD017400207047C3
:104A900000F52770042201784170027000207047F1
:104AA00000F527700178042904BF417801700020C7
:104AB000704780B500F527710A78032A03D1C969C8
:104AC000C96901B18847002002BD0020704700205D
:104AD00070470020704780B500F5277101220A70E9
:104AE000CA691AB141685268C9B29047002002BD34
:104AF00010B59E4C2046FDF7A3FD81B2204600F084
:104B00007DFC0128F6D0012194A000F077FC01285B
:104B1000F9D02046FDF794FD81B2204600F06EFCEE
:104B20000128F6D001218EA000F068FC0128F9D000
:104B300001218CA000F062FC0128F9D010BD2DE904
:104B4000F8478BB000F074FC00F0B9F8142101A80C
:104B5000FFF740FD00200090854C8648016841F039
:104B600004010160026802F0040200920022009930
:104B70000092036843F080030360016801F0800144
:104B8000009100990092036843F0010303600168FB
:104B900001F001010091009900922021036843F087
:104BA00002030360006800F00200009000982046B5
:104BB000FFF7DCFD4FF400506F4901900291002295
:104BC000039201A96D48FFF709FD202101910122FF
:104BD000002103910491029201A92046FFF7FEFCF7
:104BE000674C684860604FF4E131A1600020E060EC
:104BF000206160610C21E0612062A161201D00F054
:104C000031FC08B100F0C8F8242102A8FFF7E2FC4B
:104C100000210022CDE900124FF6FF70A164E1648B
:104C20002065616500200121E065029104910690F4
:104C300008910A90039205920792099202A9524D97
:104C4000656404F1440000F0C3FC08B100F0A4F86E
:104C500000210091019104F14400694600F082FDB9
:104C600008B100F099F800F0B9FD002104F144000A
:104C700000F0F5FC04F18406DFF8F080DFF80C9119
:104C800039A747F6181A03E048450CDC4A4406E009
:104C9000606C416A726808B25045F5DB524472603C
:104CA0000020686200217068218000FA81F2326081
:104CB0003946404600F0BCFDFFF71AFFE8E780B533
:104CC00092B0302106A8FFF785FC142101A8FFF758
:104CD00081FC002000904FF4A0232D48016841F092
:104CE000805101600021006800F080500090009821
:104CF00028480091026822F4404242F400420260D7
:104D00000122006800F44040009006A80099069235
:104D100002214FF480020D920C91A8220F920421DF
:104D2000072207930E911091119200F0A1FD08B196
:104D300072B6FEE7022102910F204FF480510190DC
:104D40000022049103920592022101A8FFF798FB2B
:104D500008B172B6FEE713B000BD00005F000000AE
:104D60000D0000000A00000025640000101D002056
:104D700000000240303802400000211000080240CC
:104D80006C1C00200044004000080040E886FFFF43
:104D9000403802400070004072B6FEE770B500680F
:104DA000436A0C0003D143EA0242826215E0846A3E
:104DB00003EB1443002406E000EB8505641CD5F8E2
:104DC000046103EB1643E5B24E1EB542F4D300EB8B
:104DD000810043EA0242C0F80021002070BD006853
:104DE000416200207047000030B5144C606800F04C
:104DF0000C00042802D0082802D01DE0104830BD65
:104E0000226820680023410202F03F0204D5256891
:104E10000B49C5F3881003E020680A49C0F38810E5
:104E2000A1FB0001FEF7CCF82168C1F30141491C48
:104E30004900B0FBF1F030BD024830BD04380240FB
:104E400000127A000024F40038B50D4D0D4B2A787D
:104E500004464FF47A711868B1FBF2F2B0FBF2F03D
:104E6000FFF7DAFC50B9102C08D2002221464FF08F
:104E7000FF30FFF7A9FCAC60002032BD012032BD3D
:104E8000000000200C00002000B500BF1300964673
:104E90009446103928BFA0E80C50FAD85FEA417C4C
:104EA00028BF0CC048BF40F8042BC90728BF20F812
:104EB000022B48BF00F8012B00BD000041780078AC
:104EC00040EA0120704700002DE9F8430F46002416
:104ED0000646387810F0600006F5277509D02028BE
:104EE00018BF402824D1EA699368304698470446A1
:104EF000A6E0797809291BD8DFE811F00001150137
:104F000080000F01800086000A008000EC00A500F0
:104F1000ADF800407888010A012969D002295AD0E9
:104F2000032924D006291AD0072904BF307C002881
:104F300064D1E9690A6B6846904707214170FA8895
:104F4000002A5ED0BDF80010002957D0914288BFDA
:104F50001146ADF800100146BDF80020C5E0307CD8
:104F600000284BD1E9694A6B68469047E7E7C0B231
:104F7000052843D8DFE800F028211A130B03A8699D
:104F80008269002A3AD0307C69469047D7E7A86901
:104F90004269002A32D0307C69469047CFE7A86941
:104FA00002695AB3307C69469047C8E7A869C2686D
:104FB00022B3307C69469047C1E7A8698268EAB1AC
:104FC000307C69469047BAE7A8694268B2B1307C44
:104FD00069469047B3E7307CE9690028684604D108
:104FE000896A884702224270A9E7C96A8847F9E7B7
:104FF000AA69307C136869469847A0E700F0AAF8D0
:105000001EE000F0A4F81BE0B888002804BFF88870
:105010000028F3D178888028F0D200F07F08287823
:105020000328EBD085F8028041463046FFF708FAA6
:1050300000F08DF8B8F1000F0CBF0120022028709D
:105040002046BDE8F283DFF8F090788889F8000008
:10505000A04699F80040022C03D300F07BF803240B
:10506000EEE7287802281AD0032829D134B9022083
:1050700028700021716000F067F81EE071688C42B2
:105080001BD000F060F800F059F85FEA000814D077
:1050900000F060F8716800F056F802200BE064B18F
:1050A00000F04CF85FEA000802D000F053F80FE07F
:1050B00000F04DF8032028700AE000F048F807E0FF
:1050C00000F048F899F8001000F03EF84FF003089F
:1050D0004446B5E7F888012890D12978491E01296E
:1050E00007D9891E8AD10122311D304600F037F9D7
:1050F000A6E7B460012206F10801F6E72878401E11
:105100000228EFD8FA88022AECD1A868012100B160
:105110000321F16006F10C01E7E7788801288FD1BF
:105120000121A9606DE72878401E0228DAD87A8824
:10513000012A85D1AC6064E7241D002074602146FB
:105140003046FFF7B2BBC9B23046FFF7B8BB3046B6
:1051500000F027B939463046D3E070B50E46044614
:105160003078002510F060001CBF2028402815D1A1
:1051700004F527721078401E02280FD83379022BCD
:105180000CD2D2699368204698470546F08840B90A
:10519000280006D1204600F004F902E0204600F085
:1051A000B0F8284670BD2DE9F0410E4680463178B2
:1051B0003079002411F0600108F5277707D0202905
:1051C00018BF402963D100F082F8044663E071788B
:1051D000002936D0012914D0032958D13A78022A5F
:1051E00015D0032A53D1718839B9002818BF8028F7
:1051F00003D0F18809B900F066F8404600F0D1F814
:1052000049E03978022902D003290AD03FE000287A
:1052100018BF80283BD000F056F8802100F054F8E9
:1052200039E07288002A36D110F07F0103D00146A0
:105230004046FFF7F0F8404600F0B3F800F047F8BA
:1052400029E0142200F07F013F78514308EB01036D
:10525000022F03F5AA7500F0800102D0032F0ED0B3
:1052600015E0002818BF802811D109B103F11405F9
:105270002C6002222946404600F071F80BE000F055
:105280000F0712FB07F2424441B1918C81B93146BC
:10529000404600F036F82046BDE8F081B2F86411CF
:1052A0000029F4D0002818BF802804D1002008E08D
:1052B00003F11405F6E701464046FFF7B2F800B1E6
:1052C00001202860D5E701464046FFF79EB8FA69FD
:1052D000936831464046184738B50D46044628784D
:1052E0002070A81C697861702D1DFFF7E7FD6080B4
:1052F0002846FFF7E3FDA080A81CFFF7DFFDE08054
:1053000031BD10B504468021FFF77FF82046BDE887
:1053100010400021FFF779B800280B4600D17047F4
:1053200070B50021044600E0491C14F8015B002D13
:10533000FAD10906C90D891C118011781970032250
:105340005A70022207E010F8011BD4B2521C195502
:10535000D6B2521C9D5501780029F4D170BD80B59C
:1053600013460222C0F894228361C36101E080B534
:1053700013460A460021FFF769F8002002BD80B5F8
:1053800013460322C0F8942200F5AC7213605360F8
:1053900001E080B513460A460021FFF75DF80020C2
:1053A00002BD80B50421C0F8941200230022E1E779
:1053B00080B50521C0F8941200230022ECE700001C
:1053C00038B5184C184D002205F50061204600F054
:1053D00016FD2946204600F01AFD002032BD0020AF
:1053E00070470020704710B501460E4C204600F073
:1053F0000EFD204600F027FD002010BD10B5094C21
:10540000D4F8BC320A46D3F8141109B1012010BDFA
:105410000146204600F0F3FC2046BDE8104000F0B5
:10542000FCBC0000C4150020BC0100200020704717
:1054300080B50B48016841F400710160026842F4D4
:1054400080620260016841F4807101600320FFF70F
:10545000AEF90020FFF7F8FC00F008FD002002BDC7
:10546000003C024038B5040001D1012032BD00F0FB
:1054700021F808B900F022F800F012F800F023F843
:10548000FFE7416100F001F832BD2068C16841F4D6
:105490000051C1600020686020216970A9707047C8
:1054A000242068702068C16821F40051C160204642
:1054B00000F013B804F138056878704700212970AE
:1054C000204600F01BBD2068016921F49041016174
:1054D0002068416921F02A017047D0B50646192499
:1054E00032681169F06821F44051014311616FF095
:1054F0006307D3682C48B168034030690B43716976
:105500000343F0690B430343D3605169B06921F44D
:10551000407101435161F36924482549B3F5004FB7
:105520001FD18A4218BF824202D1FFF73AF801E048
:10553000FFF72FF80246A4FB02017268D30F520056
:10554000FDF73EFD00F036F8FF0032376420B7FB70
:10555000F0F0420002F4F87202EB011200F00700D2
:105560001DE08A4218BF824202D1FFF71AF801E01B
:10557000FFF70FF80246A4FB02017268930F920036
:10558000FDF71EFD00F016F83F0132376420B7FB2F
:10559000F0F000F0F00202EB011200F00F003168B1
:1055A00080188860D0BD0000F369FFFF001401403F
:1055B000001001406421B0FBF1F107FB01077047C7
:1055C000002129702046704704F13C056878704737
:1055D000F8B504000E4601D10120F2BDFFF7F4FF3B
:1055E00018B9FFF7EDFF00F05DFC0220687021683C
:1055F000DFF8AC008A6802408A60211D206800F054
:1056000055F82268DFF89C1093689069176A01408A
:10561000B0680843B16940EA0120DFF88C1001400E
:10562000F0680843F16940EA0121306941EA00105D
:10563000316A40EA013C7068716927F0AA070743A4
:105640003068034347EA011793602168C1F818C026
:1056500001212068076269700020F2BD000010B5CA
:10566000044609B1042901D1012203E000F013F836
:1056700001220421206800F067F8FFE7206800F0AD
:1056800005F8002010BDC16001223068016841F0BA
:1056900001010160704720680122002100F054B828
:1056A000F8BFFFFFFCFCFFFF0303FFFFF0B51E4B3D
:1056B00004681E4D1E4E1F4F984218BFB0F1804F18
:1056C00004D0B8421CBFB042A8420CD14A6824F0B2
:1056D00070041443984218BFB0F1804F0ED0B84206
:1056E00018BFB0420AD0A8421CBF134A904205D04E
:1056F000124DA8421CBF124A904203D1CA6824F43A
:10570000407414434A6924F08004144304609842AE
:105710008C68C4620A68826202D10969094A116010
:1057200001234361F0BD000000000140000C004077
:1057300000080040000400400040014000440140D7
:10574000004801403000014010B501F01F01036A1C
:1057500001248C40A343036202FA01F1036A194356
:10576000016210BD70B500F13C031A78012A01D125
:10577000022070BD01221A7002245C7005686E68F8
:10578000AC680A6826F0700616436E6002680E4820
:10579000824218BFB2F1804F0BD00C4882421CBF2E
:1057A0000B4DAA4205D00B4882421CBF0A4DAA42AB
:1057B00004D1486824F080040443946001215970A6
:1057C0000020187070BD000000000140000400407F
:1057D00000080040000C00400040014010B5104C93
:1057E000104900222046FFF737F808B1FFF7D4FA36
:1057F0000D492046FFF747F808B1FFF7CDFA0B49EE
:10580000204600F0F5FA08B1FFF7C6FA2046FFF788
:105810004AF818B1BDE81040FFF7BEBA10BD00BF8E
:10582000C4150020340100201C00002020010020AD
:105830000CB430B583B00A4606A90291044600258F
:105840000194009502AB01A9084878441E30FBF78B
:1058500033FF019A157000284EBF04460198041BBF
:10586000204603B030BC5DF80CFB00BF03BEFFFF59
:105870002DE9F843040016D02078DFF8F462C10760
:1058800013D5B06800F00C00042807D0B06800F011
:105890000C0008283DD1706841023AD53068810378
:1058A00003D56068002800F05E812078B14F810741
:1058B00019D5B06810F00C0F07D0B06800F00C00DC
:1058C00008285BD17068410258D43068810703D53D
:1058D000E068012840F047813168206921F0F80133
:1058E00041EAC00131602178080779D56069A24991
:1058F000002868D001220A60FEF77EF80546706F26
:1059000081076DD4FEF778F8401B0228F7D90320F1
:105910002CE16068B0F5803F04D1306840F48030FD
:10592000306011E0B0F5A02F306806D140F480203F
:105930003060316841F4803105E020F4803030601F
:10594000316821F480213160606858B1FEF754F865
:10595000054630688103A8D4FEF74EF8401B652841
:10596000F7D3D4E7FEF748F80546306881039CD5A5
:10597000FEF742F8401B6528F7D3C8E7E068A8B1F6
:1059800001213960FEF738F805463068810705D4F3
:10599000FEF732F8401B0228F7D9B8E730682169D2
:1059A00020F0F80040EAC10030609CE73860FEF764
:1059B00023F805463168880795D5FEF71DF8401B8A
:1059C0000228F7D9A3E70860FEF716F80546706FBE
:1059D000810705D5FEF710F8401B0228F7D996E796
:1059E000207841075FD5306C0025C1000AD40095AE
:1059F0000125316C41F080513164306C00F08050F1
:105A000000900098DFF87481D8F80000C10513D425
:105A1000D8F8000040F48070C8F80000FDF7ECFFF3
:105A20008146D8F80000C10506D4FDF7E5FFA0EBDC
:105A300009000228F5D96AE7A068012805D00528E1
:105A4000306F06D140F004003067306F40F0010045
:105A500005E0400840003067306F20F004003067F8
:105A600041F28938A06860B1FDF7C6FF8146306F0A
:105A7000810713D4FDF7C0FFA0EB09004045F6D322
:105A800045E7FDF7B9FF8146306F810706D5FDF781
:105A9000B3FFA0EB09004045F6D338E71DB1306CE9
:105AA00020F080503064A06900285ED0B16801F019
:105AB0000C0108293AD002282AD100203866FDF7C7
:105AC0009BFF05463068810105D5FDF795FF401B1A
:105AD0000228F7D91BE7E069216A626A0843A16AD4
