:020000040800F2
:10000000900D002005320008A5300008A730000838
:10001000A9300008AB300008AD3000080000000037
:10002000000000000000000000000000AF300008E9
:10003000B130000800000000B3300008B5300008FF
:1000400015320008193200081D320008213200085C
:1000500025320008293200082D320008313200080C
:100060003532000839320008B93000083D32000846
:100070004132000845320008493200084D3200087C
:100080005132000855320008593200085D3200082C
:10009000E13000086132000865320008693200086A
:1000A0006D3200087132000875320008793200089C
:1000B0007D3200088132000885320008893200084C
:1000C0008D320008913200089532000899320008FC
:1000D0009D320008A1320008A5320008A9320008AC
:1000E000AD320008B1320008B532000878B504001E
:1000F00085B045D004F52A75687820B900212970AB
:10010000204600F0E9FC03206870206800F0D6FD6E
:1001100083B000F048F80EBC206800F0C5FD002850
:100120002CD12068002100F0CFFD002128200026DE
:100130000AE000FB01F222442832012353701170BF
:10014000D181002300F028F862689142F1D30021A8
:1001500009E000FB01F2224402F5B47200231170A1
:10016000537000F019F862689142F2D383B000F046
:100170001AF80EBC206800F0A9FD18B102206870C2
:10018000012007E084F8240001216970206801F053
:100190004DFA002006B070BD491CD670136156613F
:1001A0009361C9B27047211D6846202201F070BAE0
:1001B00010B500F0B1FB01D1022010BD00F0A8FB8A
:1001C000206800F073FD99E30021204600F061BD36
:1001D0002DE9F84F064686B000F01CFB000400F144
:1001E000BD8000F017FB40050CD500F0FCFA4FF67F
:1001F000FF3000F0F4FA304600F0A5FC0021304654
:1002000000F08FFB00F006FB400405D500F0EBFA90
:100210004BF6FF7000F0E3FA00F0FCFA800405D51D
:1002200000F0E1FA4DF6FF7000F0D9FA00F0F2FAB2
:10023000C00418D53168B1F840204FF6FB70024079
:10024000A1F840204FF6F7703168B1F84020024025
:10025000A1F84020304600F096FC00F0C4FA4EF6BB
:10026000FF7000F0BCFA00F0D5FA000544D500207C
:1002700001A9326832F8203021F81030401C0828DB
:10028000F7D33068B0F8402042F00102A0F84020D7
:100290004FF6FE703268B2F840300340A2F84030AA
:1002A0003268B2F844004305FAD54FF6FF30B2F891
:1002B00044400440A2F844400020336831F8102044
:1002C00023F82020401C0828F7D33068B0F84010ED
:1002D00041F00801A0F840104FF2FF7000F083FADF
:1002E00000F07DFA3068B0F8401041F00401A0F849
:1002F0004010304600F039FC00F08CFA800508D53B
:1003000000F071FA4FF6FF5000F069FA304600F045
:1003100016FC00F07FFAC00505D500F064FA4FF630
:10032000FF6000F05CFA07B0BDE8F08F012802D151
:1003300000F04CFA138079619BB27A89306801F041
:1003400081F93168387831F8202048F6BF731A40B7
:1003500082F030024AEA020221F82020306800F1DF
:1003600044010A8813047FF53CAF0A8812F00F0598
:1003700048F2800A4BF68F7B40F68F7448F60F796F
:1003800040F09880D2062BD4018809EA010141F49B
:100390000041018006F124043068B0F85010227941
:1003A00001EBC20100EB410000F204400088A169AA
:1003B000C0F3090020620844A0610021304600F02B
:1003C000B5FB20780028C9D0E0690028C6D1217883
:1003D000306841F08001A0F84C1000212170BDE789
:1003E0000288130506F5B47514D5898900F0E5F97E
:1003F000EA88C3F30903EB6106F52C7101F034F9C7
:10040000306801880C4044F080040480304600F0DD
:100410007DFBA3E71004A1D531680A88144044F09D
:1004200080040C803068B0F8501000F0C6F9C3F3B7
:100430000903002BEB611CBF696900290AD0EA8817
:1004400001F012F96869E9690144696130460021E7
:1004500000F062FB306801880A05DAD4B0F8502059
:100460001118286901F20C4148B9088848F2FF3296
:10047000104008800B8843F400430B8010E03F28B5
:1004800005D24208C00748BF521C900207E042094B
:1004900010F01F0F08BF521E900240F40040088069
:1004A000306801880BEA010181F440514AEA0101F8
:1004B000018053E730F825100091282200986A4304
:1004C00032440104059248F68F7840F196803068F6
:1004D00030F825100C4044F0800420F825400599A0
:1004E00001F5B477387B90B93068B0F850103A789D
:1004F00001EBC20100EB410303F20C431C88C4F37F
:100500000904002C65D0FA88796923465FE0F87801
:10051000022848F2C0022FD1009B3468B96903F069
:1005200040005B043B78A446B4F8504004EBC3049D
:100530000CEB440C11D50CF2044C00F038F92CBF34
:10054000091B0021B96109B900F067F908B100F091
:1005500070F9002C3DD03A8936E00CF20C4C00F0DA
:1005600026F92CBF091B0021B96109B900F055F922
:1005700038BB00F05EF924E000F05BF938783168B0
:10058000024631F8223059040FD53268B2F85010C3
:1005900001EBC00102EB410000F204400488C4F307
:1005A0000904002C15D03A890EE03168B1F85020CA
:1005B00002EBC00201EB420000F20C400488C4F3DD
:1005C0000904002C05D07A8923467969306801F046
:1005D0004BF8F8692018F8617A6922447A61B869A1
:1005E00038B13869844204D33068394600F014FDCC
:1005F00003E03978304600F08FFA009801067FF565
:10060000ADAE059800F12807306830F8251009EAEA
:10061000010141F4004120F82510F878032818BFA3
:10062000002800F0A180022803D10098C10540F104
:100630009B803268B86997F800C000991346B2F8F9
:10064000502001F48044490602EBCC024CF28005B4
:1006500003EB42034BD503F204431B88C3F30903A6
:10066000834234BFC01A00200028B8610DD100F0C9
:1006700000F9002C08D03168387831F8202008EAD9
:1006800002022A4321F820205BE60CB100F0AFF80B
:1006900097F824000128F7D100F0D5F8F0B900F060
:1006A000AFF84BB9028848F2FF3422400280058837
:1006B00045F40045058016E03F2B05D25A08DC07BB
:1006C00048BF521C920207E05A0913F01F0F08BFDF
:1006D000521E920242F40042028004E0012802D13C
:1006E00000F08EF8038079619BB23A8926E603F226
:1006F0000C431B88C3F3090398422CBFC01A002087
:100700000028B86104D100F0B4F8002CBCD1B2E7E5
:100710000CB900F06CF897F824000128B4D100F06F
:1007200092F8346800287FF401AE00F04FF84BB91E
:10073000108848F2FF3420401080158845F40045A9
:100740001580F8E53F2B06D25808DC0748BF401C4F
:1007500080021080EFE5580913F01F0F08BF401EFC
:10076000800240F40040F4E730683978B0F8502057
:1007700002EBC10200EB420000F204400288B869BB
:10078000C2F30902824234BF801A0020B86118B94E
:10079000304600F0CBF9E1E5786910447861F969F9
:1007A0005218FA613946306800F036FCD6E5BCF8DC
:1007B0000040C4F30904A14270472A7801EBC2014A
:1007C00000EB410303F20C431B887047B4F8500060
:1007D00002193C7802EB041202F20C42704702400C
:1007E000A1F8442070473168B1F844207047306860
:1007F00030F82C1008EA0101294320F82C1070472A
:100800003068B0F850203C78101800EB041000F26B
:1008100004407047306800F00BBF316831F823C0E6
:100820000BEA0C0B8BF4005B4AEA0B0B21F823B0AC
:1008300070473168387831F8203008EA03031A43EA
:1008400021F820207047FA6978699A18FA61C1186E
:100850003A69386A904203D31346C01A386206E0F8
:1008600010B1034600203862002287F824207878EF
:100870007047787888B93068B0F85020101800EBCD
:100880000C1000F2044048F2FF3201881140018050
:10089000038843F4004303800BE001282AD1306829
:1008A000B0F85020101800EB0C1000F204400021AA
:1008B00001803268787888B9B2F8500081183A78A7
:1008C00001EB021101F20C4148F2FF32088810409E
:1008D00008800B8843F400430B800BE0012809D10A
:1008E000B2F8500081183A7801EB021101F20C4184
:1008F000002008803046397800F018B90121FFF750
:1009000064FC206800F090FE002084F8A80210BD6E
:10091000012084F8A8027047044694F8A802012830
:10092000704710B5FFF7F8FF01D1022010BDFFF7A7
:10093000EFFF84F82410206800F070FEE4E738B57B
:10094000054601F007042820444328190C0647BF38
:1009500000F12804012000F5B474002001F0070123
:10096000607021702261E370607808B12178E181C4
:10097000022B04BF0020207195F8A802012801D1A4
:10098000022032BD012085F8A8022146286800F027
:10099000A9F968E010B5044600F08DF800F084F87D
:1009A00001D1022010BD00F079F800F0AFFAABE7FA
:1009B00038B501F0070528246543441904F5B474DB
:1009C00001F007016261A3610022E261627021709F
:1009D000214614E038B51C4601F0070528235D4385
:1009E000431928335A619C611C620122002401F0E2
:1009F000070183F82420DC615A70197019460068D9
:100A000000F00AFB002032BD38B505460C46696887
:100A100004F00700814201D2012032BD28212206C4
:100A200005D54843284400F12801012004E0614332
:100A3000681800F5B4710020487001228A7004F033
:100A400007040C7095F8A802012801D1022032BDDC
:100A500085F8A822286800F08BFD24B9286805F5E0
:100A60002C7100F0E8FD002085F8A80232BD10B519
:100A7000044601F00F036068984201D2012010BDC6
:100A800000F019F80023837000F00EF801D1022065
:100A900010BD00F003F800F084FD35E7012284F872
:100AA000A82201462068704701F00701017094F800
:100AB000A8120129704701F0070228204243A0181C
:100AC0000A0603D5283001234370704700F5B4703F
:100AD000002242707047000000686849884200D0D8
:100AE000704780B56648026842F400020260002246
:100AF000006800F40000009000210098142000F02D
:100B0000EDFDBDE80240142000F005BE00F52C719B
:100B1000D0F8E80200F05ABE0B4628225343C21810
:100B2000D0F8E802D2F87C2100F07ABE0B462822E9
:100B30005343C218D0F8E802D26B00F0B2BED0F82E
:100B4000E80200F042BF10B50446A068022818BFB2
:100B500001F067F8D4F8E802012100F022FFD4F890
:100B6000E802BDE8104000F0F3BE10B50446D4F82A
:100B7000E80200F019FFA06920B14248016841F085
:100B80000601016010BDD0F8E80200F015BF10B5F5
:100B900004463D483949C0F8E842C4F8C002016043
:100BA000082202230021426083608161C1610162E9
:100BB000FFF79CFA08B101F034F8D4F8C00218230A
:100BC0000022002101F02FF8D4F8C002582300229F
:100BD000802101F028F8D4F8C0024FF4807300227D
:100BE000812101F020F8002010BD80B5D0F8C002AE
:100BF000FFF7DEFABDE802404CE010B51C46134694
:100C0000D0F8C0022246FFF79AFEBDE8104041E04E
:100C100080B5D0F8C002FFF7BDFEEBE780B5D0F895
:100C2000C002FFF7F1FEE5E780B5D0F8C002FFF79C
:100C30001EFFDFE7D0F8C02201F07F0328204343E6
:100C4000D018090602D590F82A00704790F86A017A
:100C5000704780B5D0F8C002FFF763FECAE780B5E1
:100C6000D0F8C002FFF7B6FEC4E780B5D0F8C002E6
:100C7000FFF79EFEBEE7054870470000005C00409D
:100C80001C10024010ED00E06801002070090020F7
:100C9000704770470146002021B1022901D101208F
:100CA00070470220704700000EB417E0403000216A
:100CB00081804FF43F42028000207047B0F840200E
:100CC00044F2FF0100F0B9BC002070470EB40121CE
:100CD00020F8401F0022028082800282002003B0A0
:100CE000704700002DE9F0470B4602461C7832F8A9
:100CF0002460DD7848F68F1100200E40032D0CD8BB
:100D0000DFE805F002080C0546F4007606E046F43C
:100D1000C06603E046F4806600E0012048F28005EA
:100D20002E4322F8246048F68F7619780C4632F864
:100D3000247037403943294322F824104BF68F782A
:100D4000197B93F800A000294CF2800C48F6BF777D
:100D500048F2C0095BD1D9884FF6FE740C4059782F
:100D60000029B2F8501011D0891801EB0A1101F5D1
:100D700080610C8000F0BCF8DB78012B32F8213068
:100D800000F081801F4087F020077DE0891801EB8B
:100D90000A1101F581610C80B2F850108C18197895
:100DA00004EB011E19690EF20C4E69B9BEF8004041
:100DB00048F2FF310C40AEF80040BEF8007047F436
:100DC0000047AEF8007011E03F2905D24C08C90772
:100DD00048BF641CA10207E04C0911F01F0F08BFB7
:100DE000641EA10241F40041AEF80010197832F8F7
:100DF0002140640406D532F8214026404CEA06061C
:100E000022F8216000F06EF883F440535BE032F882
:100E10002A10314041F4014141F0800122F82A10AA
:100E2000B2F850401978B3F808A0A41804EB0114E4
:100E300004F580644FF6FE7101EA0A012180B2F8E0
:100E400050101C78891801EB041101F5816E598945
:100E50004FF6FE742140AEF8001059781C78002936
:100E600032F8241012D100F033F800F041F832F8D3
:100E7000214008EA040484F440542C4322F8214021
:100E8000197832F821301F403D431DE000F020F872
:100E9000197832F82140640606D532F82140264000
:100EA00049EA060622F82160DC781978012C32F82C
:100EB00021401ABF274087F0200727402F4322F800
:100EC000217000F00FF81D4322F82150BDE8F08793
:100ED000490406D532F8241031404CEA010122F8C9
:100EE00024107047197832F8213008EA030370475C
:100EF000197832F82140640606D532F821402640A0
:100F000049EA060622F82160197870472DE9F04178
:100F1000024691F800C048780B7B4BF68F7E4CF26E
:100F2000800448F2800848F6BF7548F2C00648F6CB
:100F30008F77ABB9002832F82C0008D0400636D5A0
:100F400032F82C0007403E4322F82C602FE040048A
:100F500056D532F82C0007403C4322F82C404FE095
:100F6000002832F82C0029D1400405D532F82C0095
:100F70003840044322F82C40087832F820305B06D1
:100F800005D532F820303B40334322F82030087832
:100F900032F820301F403E4322F82060087832F8B3
:100FA00020300EEA030348EA030322F820300878D1
:100FB00032F820100D4048EA050128E0400405D52C
:100FC00032F82C003840204322F82C00087832F800
:100FD00020305B0605D532F820303B401E4322F816
:100FE0002060087832F820301F403C4322F820402F
:100FF000087832F820301D4048EA050522F82050D4
:10100000087832F820100EEA010148EA010122F8BE
:1010100020100020BDE8F0812DE9F84F0E4605466E
:101020007278012A48F2800848F68F7140F03C81BE
:10103000B4693769307BA74238BF3C4628B9F2888B
:1010400000F087FA00F071FA25E196F803B0630921
:10105000620896F800E0D6F82090BBF1020F04F089
:10106000010048F2801A7CD14F456FD235F82E70BE
:1010700039404AEA010125F82E1000F028FABE4650
:1010800035F82E905FEA496E33D591B900F034FA05
:1010900014B900F012FA17E03F2C02D200F0FBF96D
:1010A00005E014F01F0F08BF5B1E00F0F8F9088080
:1010B0000AE0012908D1B5F85000401900EB071EDD
:1010C0000EF20C4EAEF8004000F042FA00F0DCF9EF
:1010D00032BF001B0446002030627078002840F0C8
:1010E000918000F011FA07F2044779D100F0DBF9A2
:1010F0008CE091B900F0F8F914B900F0DEF90EE0D7
:101100003F2C02D200F0C7F905E014F01F0F08BF12
:101110005B1E00F0C4F9088001E000F01EFA32897D
:1011200000F017FA00F0B0F932BF001B04460020AF
:1011300030627078002840F0A38000F0E5F907F2F3
:101140000C4740F08B8000F0AEF99EE035F82E1091
:1011500048F68F60014048EA010125F82E104C4600
:1011600052E035F82E7039404AEA010125F82E1078
:1011700000F0ADF9BE4635F82E905FEA496E48D5CD
:1011800091B900F0B9F914B900F097F917E03F2CC4
:1011900002D200F080F905E014F01F0F08BF5B1EBB
:1011A00000F07DF908800AE0012908D1B5F8500067
:1011B000401900EB071E0EF20C4EAEF8004000F096
:1011C000C7F900F061F932BF001B04460020002C73
:1011D000306260D07078A8B900F07FF907F2044758
:1011E0003F2C05D26008E10748BF401C800207E0A1
:1011F000600914F01F0F08BF401E800240F4004039
:10120000388003E0012801D100F08FF9A3B23289C0
:101210003DE091B900F068F914B900F04EF90EE024
:101220003F2C02D200F037F905E014F01F0F08BF81
:101230005B1E00F034F9088001E000F08EF932897D
:1012400000F087F900F020F932BF001B04460020AF
:10125000306204B3707898B900F071F93F2C05D270
:101260006008E10748BF401C800207E0600914F0F5
:101270001F0F08BF401E800240F40040388004E089
:10128000012802D100F05BF93C80A3B27289716938
:10129000284600F0D7F9317835F8212048F6BF709C
:1012A000024082F0300217E0307B00282DD1B16976
:1012B0003069884232BF091A08460021B16100F046
:1012C0002BF980B900F0EFF84BF68F70317835F8D4
:1012D0002120024082F4405248EA020025F8210011
:1012E0000020BDE8F28F3F2806D24108C00748BF62
:1012F000491C88023880E7E7410910F01F0F08BF3A
:10130000491E880240F40040F4E7F078022868D1D2
:101310001ABBB5F850203078521902EB0012306930
:1013200002F2044248B9138848F2FF3003401380A8
:10133000148844F4004414800FE03F2805D2430889
:10134000C00748BF5B1C980206E0430910F01F0F5E
:1013500008BF5B1E00F0A3F81080707808BB00F097
:10136000BCF8306907F20C4748B93A8848F2FF30B8
:1013700002403A803B8843F400433B8019E03F2819
:1013800005D24208C00748BF521C900207E042093C
:1013900010F01F0F08BF521E900240F4004038802A
:1013A00007E0012805D1B5F85000326900F0C9F80E
:1013B0003A80F069002887D0307835F8202044F250
:1013C000400303EA02049C4218BF1A4208D135F8D0
:1013D0002020114041F4004141F0C00125F82010C7
:1013E00072E701284ED1B1693069884232BF091ACB
:1013F00008460021B161430900F0010144081ABB0D
:10140000B5F850C03278AC440CEB021C0CF2044C22
:1014100048B9BCF8007048F2FF323A40ACF80020FE
:10142000BCF800200CE03F2804D2224601B1521C37
:10143000920207E01A4610F01F0F08BF521E9202D8
:1014400042F40042ACF800207278B2B9B5F85020EE
:101450005719327807EB0217002807F20C473FF4C0
:1014600031AF3F2803D201B1641CA00242E710F063
:101470001F0F08BF5B1E980244E7012AB0D100F09D
:101480004BF837E701202CE770693169204470611F
:10149000306A8142704700B1521C90027047980236
:1014A00040F400407047398848F2FF3001403980ED
:1014B0003A8842F400423A8070470A8848F2FF3086
:1014C00002400A800B8843F400430B807047A9EB6D
:1014D00004013162377871787047B5F850004719C8
:1014E000307807EB00177047B5F85010491901EB39
:1014F000071101F204417047B5F85010491901EB8A
:10150000071101F20C417047B5F8500047193078C7
:1015100007EB0017002C7047B5F850104F193178C1
:1015200007EB011707F20C477047B5F85000471951
:10153000307807EB001707F204473C807047B5F896
:1015400050004719307807EB001707F20C47704737
:1015500072897169A3B2284674E0012907D1B5F8F0
:101560005000401900EB071000F20440048070475F
:1015700010B50A78497830F82240002948F28003F3
:1015800005D048F6BF710C4084F0100404E04BF61F
:101590008F710C4084F48054234320F822300020C3
:1015A00010BD30B50A7B002A36D14A780C78002A63
:1015B00030F8242048F2800348F68F7516D0520682
:1015C00008D530F82420154045F4004545F0C00505
:1015D00020F82450CA78012A1ED00A7830F8224018
:1015E00048F6BF710C4084F0200412E0520408D584
:1015F00030F82420154045F4404545F0800520F89A
:1016000024500A7830F822404BF68F710C4084F455
:101610004054234320F82230002030BD11B98021EE
:10162000A0F84C1000207047002070470020704741
:10163000B0F844007047002070470A40A0F84020EE
:101640000020704710B500EB42005B1C00F5806085
:101650005B0807E00A784C7842EA0422891C20F8EB
:10166000042B5B1EF6D110BD10B500EB420000F557
:1016700080605A0806E030F8044B0C70240A4C7065
:10168000891C521EF7D1DA0744BF0088087010BDCC
:101690004AB1000011F8013B521E00F8013B1CBF8B
:1016A00011F8013BF8E770470901020002D429480C
:1016B00081547047284B02F00F021A4402F8041CB0
:1016C0007047264B19684FF6FF020002114000F4E4
:1016D000E0600843224908431860704770B51F4B0B
:1016E0001C68C4F302230124C3F10705052D2EBF96
:1016F0000F2504FA05F56D1E1E1D072E34BF0023AD
:10170000DB1E2940994004FA03F3BDE870405B1EDC
:101710001A401143C8E7010007D4012200F01F015D
:10172000104B8A40400943F82020704710B5401EF6
:10173000B0F1807F01D3012010BD0B4C60600F2100
:101740004FF0FF30FFF7B0FF0021A16007202060BD
:10175000002010BD00E400E018ED00E00CED00E01A
:101760000000FA0500E100E010E000E038B508B93B
:10177000022032BD00F52774A3690BB10025A561D5
:1017800001B16161012121700270FFF700FA0020B0
:1017900032BD0246002011B1C2F8B41270470220D7
:1017A000704780B5FFF721FA002002BD10B5D0F8D0
:1017B000B42202241AB11268904700B900242046CE
:1017C00010BD80B5D0F8B42253680AE138B504469C
:1017D00004F52A75284600F02EFC04F52570012139
:1017E0000160428B017D426011F01F0003D002288E
:1017F0000BD005D30EE02946204600F02FFA0DE06D
:101800002946204600F060FB08E02946204600F00B
:1018100081FB03E001F0800100F040F8002032BDC0
:1018200038B5044610460A0004F5257329D1196815
:1018300003291ED104F5B0714A680D68AA420BD283
:10184000AD1A0D60954238BF2A46014692B2204635
:1018500000F043FC002032BD196A086928B1187AEB
:10186000032802D1096920468847204600F03DFC44
:10187000F0E70529EED100201860002100F00EF8F5
:10188000E8E71A6A906930B1187A032803D192699F
:1018900020469047DEE7022032BD80212046FFF738
:1018A000BDB938B504460800134604F5257543D183
:1018B0002868022833D1226A616A914207D2521AFB
:1018C0002262194692B2204600F0FFFB11E0E26965
:1018D000B2FBF1F001FB102090B98A4210D3686886
:1018E00082420DD200220021204600F0EEFB0020B3
:1018F00068600023002200212046FFF7B6F914E0BB
:10190000296AC86828B1287A032802D1C968204604
:101910008847FFF7C2FF204600F0EEFB05E00428F1
:1019200018BF002801D1FFF7B8FF287B012804BFAA
:1019300000212973002032BD2A6A506930B1287A0B
:10194000032803D1526920469047F3E7022032BDB5
:1019500038B50446402300220021FFF74EF904F574
:10196000AC70012140220160C2604023002280212E
:101970002046FFF742F90120402104F52572A061BD
:10198000616210720021116061600025506A15616A
:1019900028B1126A61685368C9B22046984700208E
:1019A00032BD01740020704700F5277004220178D1
:1019B000417002700020704700F5277001780429FB
:1019C00004BF417801700020704780B500F5277191
:1019D0000A78032A03D18969C96901B188470020BF
:1019E00002BD9847002002BD38B584B06946002288
:1019F00000230024002581E83C0001285D4C5F4D58
:101A000002D002281FD028E020200121009001915F
:101A100000F025F81022009201210191002200F02F
:101A20001EF8606940F030006061002152480022D9
:101A3000417002701021206940F020002061009167
:101A40000195029207E0102100910292019500F0A9
:101A500007F800F09DF800F003F805B030BD0292E1
:101A60006946204600F050BB38B5434C44492078C5
:101A70006278030007D0431E072B06D9083B15D018
:101A80005B1E1FD025E0012021E0E3880125401ED8
:101A900085402B4206D00B6843F020030B60521C9C
:101AA000627016E0086840F4001009E0D00704D521
:101AB0000A6842F400120A600BE0086840F0200057
:101AC000086006E000216170E180A1700220FFF74C
:101AD0008BFF2078401C207031BD30B585B000F000
:101AE000FDFB00F05BF8684600F094F82548264DB1
:101AF000016841F020010160026802F020020492B6
:101B00000499026842F004020260036803F00403CF
:101B100004930499026842F00802026010210068F0
:101B2000164A00F008000490049802940091019273
:101B30006946104C204600F0E7FA00F029F82046EC
:101B4000694600F0E1FA002200210A20FFF7C6FDF5
:101B50000A20FFF7E0FD00F0D3FB0C4C201D00F045
:101B6000FBFB2368221D04F15001284600F0BEFC57
:101B7000F7E70000000C01400000002000001110F9
:101B8000100C0140181002405404002018090020D5
:101B900020200021009001910291704718B593B068
:101BA000282109A800F0E6FC1421684600F0E2FCB8
:101BB00005A800F02FF8012109910B924FF4803114
:101BC0000A911191012302224FF4E0110D9310921A
:101BD000129109A800F0D2FC08B100F022F802210D
:101BE00001910F204FF480610090039102940494BE
:101BF0000221684600F04CFE08B172B6FEE71021E3
:101C00000591089405A800F005FF08B172B6FEE73B
:101C100014B010BD002100220023002480E81E0023
:101C2000704772B6FEE730B528240D0605D501F0E1
:101C3000070161430844283003E06143084400F58C
:101C4000B4701AB900210173C38004E0038101213B
:101C50001B0C01734381002030BD00002DE9FC41C5
:101C60000E460546307810F0600005F5277708D05D
:101C7000202818BF402824D1BA699368284698477D
:101C8000ACE0717809291CD8DFE811F0FD001201E1
:101C900088000C0188008D000A008800E800AB0075
:101CA0000022ADF800207088010A012970D00229B5
:101CB00061D003292CD0062922D0072904BF287C13
:101CC00000286BD1B9690A6B6846904707214170BB
:101CD000BDF8001081B1F188002910D0BDF80010C6
:101CE000F288914288BF1146ADF800100146BDF858
:101CF0000020284600F0E1F9F08800286ED19FE02E
:101D0000287C00284AD1B9694A6B68469047DFE7CA
:101D1000C0B2052842D8DFE800F0272019120B03D3
:101D200078698269002A39D0287C69469047CFE7D4
:101D30007869426992B3287C69469047C8E7786918
:101D400002695AB3287C69469047C1E77869C2683E
:101D500022B3287C69469047BAE778698268EAB17D
:101D6000287C69469047B3E778694268B2B1287C1D
:101D700069469047ACE7287CB9690028684604D1D9
:101D8000896A884702224270A2E7C96A8847F9E750
:101D90007A69287C13686946984799E7314628464E
:101DA00000F05DF91AE0B088002804BFF088002830
:101DB000F4D17488802CF1D23878032804F07F04A1
:101DC000ECD0BC7021462846FEF743FF284600F0C1
:101DD0008CF9002C0CBF0120022038700020BDE8D7
:101DE000F681DFF8E080708888F8000098F80040FD
:101DF00021460229D2DA3878022818D0032823D1C4
:101E000034B90220387069602846FFF7DAFC17E021
:101E100069688C4214D0C9B22846FFF7D2FC6C60C6
:101E200021462846FFF7C2FC022809D1B6E73CB19B
:101E30006C60032038702846FFF7B8FC0228ADD04C
:101E4000284600F052F9C9E73146284600F007F964
:101E500098F800102846FFF7B4FCBFE7F088012887
:101E60009CD13978491E012907D9891E96D10122B2
:101E7000291D284600F021F9B0E70020A8600122C2
:101E800005F10801F5E73878401E022886D8F28867
:101E9000022A83D1B868012100B10321E96005F16C
:101EA0000C01E6E77088012898D10121B960C7E7E5
:101EB0003878401E0228ECD87288012A8ED1002082
:101EC000B860BDE78E09002038B50D460446287875
:101ED00010F060001CBF2028402816D104F527729E
:101EE0001078401E022810D82B79022B0DDA926947
:101EF0009368204698470146E888002808BF0029D3
:101F000006D1204600F0F1F802E0204600F0A7F8E4
:101F1000002032BDF8B50A780446087912F0600551
:101F200004F5277308D0202D18BF402D66D19A697B
:101F300093682046984764E002F06002202A05D1A9
:101F40009A6993682046BDE8F44018474A7882B3FE
:101F5000012A11D0032A51D11B78022B12D0032B56
:101F60004CD14A880ABB002818BF80281DD0C988D8
:101F7000D9B900F05CF818E01A78022A02D0032AD6
:101F80000AD03BE0002818BF802837D000F04FF877
:101F9000802100F04DF834E04A8892BB10F07F01B8
:101FA00003D001462046FEF73FFE204600F09DF894
:101FB00027E0142600F07F021B787243A718022B3B
:101FC00007F5AA7500F0800202D0032B0FD015E0B0
:101FD000002818BF802811D10AB107F1140500208C
:101FE000286002222946204600F067F809E000F048
:101FF0000F035E43A31932B19A696AB9204600F013
:102000002EF80020F2BDD3F85821002AF6D000287F
:1020100018BF802803D1E2E707F11405F7E701466E
:102020002046FEF707FE0028DAD00120D8E7014657
:102030002046FEF7F3BD0A7802704B7843708A7829
:10204000CB7802EB032242804B790A7902EB032220
:1020500082808A79C97902EB0122C280704710B56B
:1020600004468021FEF7DAFD2046BDE8104000213D
:10207000FEF7D4BD00280B4600D1704770B501466D
:10208000002400E0641C11F8015B002DFAD1240645
:10209000E40DA41C14801178197003225A700222D6
:1020A00007E010F8011BD4B2521C1955D6B2521CCD
:1020B0009D5501780029F4D170BD80B513460222E8
:1020C000C0F89422C361036201E080B513460A465A
:1020D0000021FEF7C4FD002002BD80B513460A466C
:1020E0000021FEF7C2FD002002BD80B50421C0F82A
:1020F000941200230022EBE780B50521C0F894126A
:1021000000230022ECE700002DE9F8474FF0000E15
:102110000024644A644BDFF894814FF00F09824633
:102120000CE0D7683840D06006E095604D68AD029D
:10213000F7D5D0680743D7600EF1010E0F6837FA64
:102140000EF000F09F80012000FA0EF63740B742F3
:10215000F2D1486838B301281AD002281DD00328CC
:102160002ED0112816D012281AD0514DA8421CBFCB
:10217000504DA84217D0504DA8421CBF4F4DA84209
:1021800011D04F4DA8421CBF4E4DA8420BD018E0B5
:10219000CC6816E0CC68241D13E0CC68083410E04D
:1021A000CC680C340DE0886808B9042409E00128E3
:1021B00019BF0824CAF814600824CAF8106000E0A7
:1021C0000024B7F5807F03D250464FEA8E0C05E01D
:1021D000AEF108050AF104004FEA850C056809FA1A
:1021E0000CF6B54304FA0CF6354305604868C000A8
:1021F000A2D5D8F8000040F00100C8F80000D8F8D7
:10220000005005F0010500954FEA8E0500984FEA51
:102210009E0053F8206005F00C0C09FA0CF526EA34
:102220000505294EB24508BF00260ED0274EB245FF
:1022300008BF012609D0264EB24508BF022604D0A9
:10224000244EB2450CBF0326042606FA0CF635438D
:1022500043F82050F8434D68ED0315684CBF3D43EB
:10226000054015604D68AD0355684CBF3D430540C2
:1022700055604D689668ED024CBF47EA060500EAD6
:10228000060552E7BDE8F1878068084018BF0120C5
:10229000C0B27047104A136803421CBF106000F0C0
:1022A0002DBC704700040140080001401810024096
:1022B0000000111000001210000021100000221078
:1022C000000031100000321000080140000C0140F5
:1022D00000100140001401401404014080B507487B
:1022E000016841F0100101600320FFF7EAF90F20B7
:1022F00000F006FC00F024FC002002BD002002409B
:1023000010B50C4C0C4900222046FFF72FFA08B1FB
:10231000FFF787FC09492046FFF73BFA08B1FFF7B2
:1023200080FC2046FFF73DFA18B1BDE81040FFF7EA
:1023300078BC10BD540400201C0000206C0000205C
:10234000806C401E8041C00F7047806C202801D1F6
:1023500001207047002070471F21016441647047CD
:10236000826C202A0CD2026C531E036420F81210D7
:10237000816C491C8164016C002944BF1F220264E6
:10238000704702460020916C61B1506C411E51644F
:10239000916C32F81000491E9164516C002944BFC1
:1023A0001F2353647047000010B5E0290CD02DD3D3
:1023B000E22913D00DD3E42918D013D3E6291DD078
:1023C00018D3E7291ED021E0017841F00101017006
:1023D00010BD027842F00202027010BD017841F097
:1023E0000401F4E7027842F00802F5E7017841F0D1
:1023F0001001ECE7027842F02002EDE7017841F0AD
:102400004001E4E7027842F08002E5E7002300247F
:10241000821C125D8A42DBD002B92346641C052C63
:10242000F6DB801CC15410BD60B5E0290CD02DD363
:10243000E22911D00CD3E42916D011D3E6291BD000
:1024400016D3E7291DD021E0017801F0FE0116E046
:10245000027802F0FD0217E0017801F0FB010EE0C6
:10246000027802F0F7020FE0017801F0EF0106E0D8
:10247000027802F0DF0207E0017801F0BF0101708D
:1024800060BD027802F07F02027060BD002200256C
:1024900083189B788B4204BF8618B570521C052A9E
:1024A000F6DB60BDF8B52F4E04460D463788194659
:1024B0001046FFF7E9FE71680A0002D00A2909D028
:1024C0000EE001280CD100203080706000F05AFB33
:1024D0002860F1BDC7F347012046FFF741FFF2E74F
:1024E00088400743491C37807160EFE7F8B5044620
:1024F00016460D461F463046FFF727FFE8B900F0A5
:1025000041FBC71B102F18D2F1BDFFF74DFF0FE0A5
:10251000F02921D0387810B3134A515C00233B7066
:10252000787800282846F0D0FFF77EFF00207870EA
:1025300008222946204600F0ABFB3046FFF700FF9B
:102540000028E1D13046FFF71CFFC1B2E029074F58
:10255000DED101203870F1BD01217970F1BD044850
:10256000415CDDE7840900202C2E00088C09002046
:102570002C2D0008002200F0BFBB00002DE9F8431D
:10258000040016D02078DFF84C64C10713D57068BA
:1025900000F00C00042807D0706800F00C00082838
:1025A00041D17068C1033ED53068810303D56068AE
:1025B000002800F064812078DFF82874810719D59D
:1025C000706810F00C0F07D0706800F00C0008283D
:1025D00061D17068C1035ED43068810703D520697A
:1025E000012840F04C813168606921F0F80141EA2E
:1025F000C00131602178080740F18180A069DFF8CF
:10260000E813002800F0A68001220A6000F0BAFA60
:102610000546706A810763D400F0B4FA401B0228B3
:10262000F7D903202EE16068B0F5803F04D130680F
:1026300040F48030306014E008B930680AE0B0F54A
:10264000A02F306806D140F480203060316841F41A
:10265000803105E020F480303060316821F4802141
:102660003160606858B100F08DFA0546306881032A
:10267000A1D400F087FA401B6528F7D3D1E700F01A
:1026800081FA05463068810395D500F07BFA401B3E
:102690006528F7D3C5E72069A8B10121396000F0AA
:1026A00071FA05463068810705D400F06BFA401BCB
:1026B0000228F7D9B5E73068616920F0F80040EAF0
:1026C000C100306096E7386000F05CFA054631687A
:1026D00088078FD500F056FA401B0228F7D9A0E7EB
:1026E000DFF8F4020168C9084FF47A72B1FBF2F224
:1026F000009200BF0098411E00280091F9D1207877
:1027000041076ED5F0690025C10009D4F06940F099
:102710008050F0610125F06900F080500090009831
:10272000DFF8C882D8F80000C10520D4D8F800002E
:1027300040F48070C8F8000000F024FA8146D8F810
:102740000000C10513D400F01DFAA0EB09006528B4
:10275000F5D366E7086000F015FA0546706A810750
:10276000CDD500F00FFA401B0228F7D959E7E068F1
:10277000012808D008B9306A09E00528306A06D176
:1027800040F004003062306A40F0010005E040088B
:1027900040003062306A20F00400306241F2893833
:1027A000E06860B100F0EEF98146306A810713D429
:1027B00000F0E8F9A0EB09004045F6D331E700F05E
:1027C000E1F98146306A810706D500F0DBF9A0EB1C
:1027D00009004045F6D324E71DB1F06920F0805090
:1027E000F061E06900284CD0716801F00C01082903
:1027F00038D002282AD100F047F805463068810118
:1028000005D500F0BFF9401B0228F7D909E7206A77
:10281000B0F5803F05D17168A06821F40031014313
:1028200071607268206A616A22F4741202430A437A
:102830007260012000F029F804463068810120D43C
:1028400000F0A0F9001B0228F7D9EAE600F01CF816
:1028500004463068810114D500F094F9001B022869
:10286000F7D9DEE601280AD07068226A00F48031C8
:10287000914202BF00F47010616A884201D00120C9
:1028800000E00020BDE8F2830020386600F07AB94D
:102890002DE9F041040088464ED0554E00F077F8FF
:1028A00002D200F06FF847D120684A4D810712D557
:1028B000400703D5696841F4E06169602078010749
:1028C00003D5686840F4605068606968A06821F0CA
:1028D000F001014369602178C80725D560680128A7
:1028E00002D129688A0303E00228296802D18A01FB
:1028F00002D421E08A071FD56968890840EA81006F
:10290000686000F03FF907466868616800F00C00F5
:10291000B0EB810F08D000F035F9C01B41F28931CE
:102920008842F1D303202BE0306800F00700804597
:1029300004D200F027F801D0012021E020784107DF
:1029400005D56A68E06822F4E06202436A60217893
:10295000080706D56968206921F4605141EAC00181
:10296000696000F019F86A6822491B4BC2F3031230
:10297000895CC84018601A48006800F0C1F800205F
:10298000BDE8F0813168C90848EAC10131603068AA
:1029900000F0070040457047174910480A6802F0E8
:1029A0000C03082B00D0704710B500BF14A4C2F36D
:1029B0008343D203E35C08D50968584314A3C1F3E9
:1029C00040415A5CB0FBF2F010BD18460B49484339
:1029D00010BD0000001002401800002000127A0014
:1029E0001400002000004242800442420070004077
:1029F00000200240F43100080410024000093D00AC
:102A000002030405060708090A0B0C0D0E0F10102F
:102A1000010200002DE9FC410646354D3078C10722
:102A200050D5A8690024C10009D4A86940F080509D
:102A3000A8610124A86900F08050009000982D4FF3
:102A40003868C10511D4386840F48070386000F0EF
:102A500099F880463868C10507D400F093F8A0EBD8
:102A600008006528F6D303203FE0E86910F44070C1
:102A70001EBF716801F44071884218D01E49E86990
:102A800001220A60002320F440700B60E861C00757
:102A90000DD500F077F80746E869810707D400F004
:102AA00071F8C01B41F289318842F5D3DBE7EA694E
:102AB000706822F440720243EA611CB1A86920F0F8
:102AC0008050A8613078810705D52A68B06822F463
:102AD000404202432A603178C80605D52968F0686B
:102AE00021F48001014329600020BDE8F681000047
:102AF0000410024000700040400442427047000051
:102B000038B50D4D0D4B2A7804464FF47A7118688C
:102B1000B1FBF2F2B0FBF2F0FEF708FE50B9102C58
:102B200008D2002221464FF0FF30FEF7D7FDAC60FF
:102B3000002032BD012032BD0C0000201800002012
:102B40000E4881B0016841F001010160026802F0A5
:102B5000010200920099426842F08052426040684F
:102B600000F08050009000980548016821F0E06175
:102B700041F00071016001B0704700BF18100240C1
:102B80000400014001484068704700BF0C0000206D
:102B900010B50446042303228121FEF72EF80122FA
:102BA000E2621020FEF767F8C4F8B80208B9022004
:102BB00010BD00210173002010BD10B50446812115
:102BC000FEF726F80022D4F8B802E26220B1FEF740
:102BD0005FF80020C4F8B802002010BD38B500F539
:102BE00027720024D369ADF800400D7815F0600518
:102BF00016D0202D47D14A78022A0ED0032A06D0BB
:102C00000A2A06D00B2A3ED18D781D603EE00122B3
:102C100028E04888000A586038E00122191D29E0A0
:102C20004D7835B1062D0CD00A2D1DD00B2D24D09A
:102C300029E01278032A26D102226946FFF73DFADD
:102C400024E04A88274B120A222A05D1CA88402A42
:102C500028BF3F220C3305E0212A14D1CA880A2A52
:102C600028BF0922194605E01278032A0BD1012258
:102C700003F10801FFF721FA08E01278032A02D1D4
:102C80008878986002E0FFF7EAF90224204632BD16
:102C900038B5134600F52772D4691278032A04BFA9
:102CA000227B002A05D101250A4625738121FDF7E3
:102CB000D6FF002032BD222101800B48704722211F
:102CC00001800A4870472221018009487047D0F8E6
:102CD000B80200210173002070470A2101800548D5
:102CE0007047000010010020A4000020C800002050
:102CF000EC0000205C01002000B500BF13009646E8
:102D00009446103928BFA0E80C50FAD85FEA417CFD
:102D100028BF0CC048BF40F8042BC90728BF20F8C3
:102D2000022B48BF00F8012B00BD00000042003E0E
:102D30003C3A3B450043413F3D2B350000E2E1007A
:102D4000E0141E0000001D16041A1F0000061B07D9
:102D500008212000002C1909171522000011050B6D
:102D60000A1C23000000100D1824250000360E0C4C
:102D7000122726000037380F33132D0000003400CF
:102D80002F2E000039E528300031000000E200005D
:102D900000002A000059005C5F00000062635A5D79
:102DA0005E60295344575B56556147000000004060
:102DB0009A00000000000000000000000000000079
:102DC0000000000000000000000000000000000003
:102DD00000000000000000000000000000000000F3
:102DE00000000000000000000000000000000000E3
:102DF00000000000000000000000000000000000D3
:102E0000000000000000000000000000E3000000DF
:102E100000000000000000000000000000000000B2
:102E2000000000000000000000000000000102039C
:102E300004050000000000000000000000E30000A6
:102E4000E40000000000000000000000000000009E
:102E50000000000000000000000000000000000072
:102E60000000000000000000000000000000000062
:102E700000000000000054000000000000000000FE
:102E800000000000000058000000000000000000EA
:102E900000000000004D00504A000000494C510065
:102EA0004F52000000004E00007D000000000000B6
:102EB0000000000000000000000000000000000012
:102EC0000000000000000000000000000000000002
:102ED00000000000000000000000000000000000F2
:102EE00000000000000000000000000000000000E2
:102EF00000000000000000000000000000000000D2
:102F000000000000000000000000000000000000C1
:102F100000000000000000000000000000000000B1
:102F200000000000000000000000000012200880E7
:102F30001A48704704200880194870472DE910404E
:102F400000F028F827A004E02DE9104000F022F856
:102F50002AA02146FFF78EF8204610BD38B51A206A
:102F6000088010494C68086889680F4D081809D016
:102F70000822A91C00F022F8042205F112012046C3
:102F800000F01CF8284632BD2DE9104000F002F890
:102F90001FA0DEE70A46054C7047000038000020FD
:102FA0004C000020E8F7FF1F500000201807002009
:102FB0002DE91040FFF7EEFF18A0CAE730B5002357
:102FC0000CE0040F0A2C2CBF3734303401F81340C6
:102FD00001EB4305002400016C705B1C9342F0DBA5
:102FE00030BD000053544D33322048756D616E2062
:102FF000696E7465726661636500000053544D69C3
:1030000063726F656C656374726F6E6963730000E1
:1030100048494420436F6E66696700004849442070
:10302000496E74657266616365000000F0B4024623
:10303000106895681318506803EB5004C0071CD53E
:103040004D441AE013F8017B05F8017B491EF9D1C4
:1030500098B113F8011BC6F38106032E08BF13F8BD
:10306000016B01EB06214942801C294405D011F86F
:10307000016B05F8016B401EF9D1A3420ED013F885
:10308000016B16F0030104BF13F8011BC91C3009C2
:103090000F28DBD113F8010B0F30D7E7F0BC02F19A
:1030A0000C007047FEE7FEE7FEE7FEE7FEE770472D
:1030B0007047704700F022B880B51020FFF7EAF89B
:1030C0000949087838B9BDE800502023074A084963
:1030D0000848FFF7E7B9BDE80240ED20FEF7C4BCA1
:1030E0000548FDF775B8000002000020000C014003
:1030F000180900201C0900206801002002494A68C4
:10310000087882184A6070470C00002030B400250F
:1031100012E050F8042BD30744BF4A44521E091F43
:10312000042942F8045BFAD213468C0744BF158089
:103130009B1CC90748BF1D7050F8041B0029E8D12B
:1031400030BC704710B5074979441831064C7C44AF
:10315000163404E00A68081D114488470146A1425C
:10316000F8D110BD0800000024000000A1FFFFFFFF
:10317000280800006801002000000000B1FEFFFFE9
:1031800038010000B40100000000002000F00DF83C
:10319000002801D0FFF7D6FFAFF300800020AFF387
:1031A0000080FEF79AFC00F002F80120704700F062
:1031B00001B800000746384600F002F8FBE70000BF
:1031C00080B5AFF30080024A11001820ABBEFBE7C8
:1031D000260002000548014603B4684680F30988CA
:1031E000AFF30080AFF30080FFF7D0FFA5EDF5FE51
:1031F000704700000000000000000000010203040E
:10320000060708090148804701480047F1310008D6
:10321000D5310008FFF7FEBFFFF7FEBFFFF7FEBF87
:10322000FFF7FEBFFFF7FEBFFFF7FEBFFFF7FEBFD2
:10323000FFF7FEBFFFF7FEBFFFF7FEBFFFF7FEBFC2
:10324000FFF7FEBFFFF7FEBFFFF7FEBFFFF7FEBFB2
:10325000FFF7FEBFFFF7FEBFFFF7FEBFFFF7FEBFA2
:10326000FFF7FEBFFFF7FEBFFFF7FEBFFFF7FEBF92
:10327000FFF7FEBFFFF7FEBFFFF7FEBFFFF7FEBF82
:10328000FFF7FEBFFFF7FEBFFFF7FEBFFFF7FEBF72
:10329000FFF7FEBFFFF7FEBFFFF7FEBFFFF7FEBF62
:1032A000FFF7FEBFFFF7FEBFFFF7FEBFFFF7FEBF52
:1032B000FFF7FEBFFFF7FEBF830B000152010C2298
:1032C0001008100624F4002D2F00083504124904BC
:1032D000123D04125D0412890412B104100212019D
:1032E00000022710084083042B5700020102033D0F
:1032F000F00508040309041A0300011003912B00D0
:1033000008BB0412DD04612683CF2C0C610112BFBF
:103310001412B70412C70412DB04100909022200B8
:10332000010100E0320904A512030BE0100921118C
:10333000010001223F000705810304000A00002468
:10334000E20224F2120724830A001211012025054B
:10335000010906A101050719E029E71500250175F6
:103360000195088102950175088103950575010590
:103370000819012905911210050391039506750896
:103380002612653044070029658100C0000A062422
:023390002558BE
:04000005080031D5E9
:00000001FF
