:020000040800F2
:1000000068040020C911000871100008731000086E
:100010007510000877100008791000080000000033
:100020000000000000000000000000007B1000083D
:100030007D100008000000007F10000881100008FB
:10004000F1110008F5110008F9110008FD11000870
:100050000112000805120008091200080D1200081C
:100060001112000815120008191200081D120008CC
:100070002112000825120008291200082D1200087C
:100080003112000835120008391200083D1200082C
:100090004112000845120008491200084D120008DC
:1000A0005112000855120008591200085D1200088C
:1000B0006112000865120008691200086D1200083C
:1000C0007112000875120008791200087D120008EC
:1000D00081120008851000088512000889120008A6
:1000E0008D12000891120008951200082DE9F843BE
:1000F000040016D02078DFF87064C10713D570684B
:1001000000F00C00042807D0706800F00C000828EC
:1001100041D17068C1033ED53068810303D5606862
:10012000002800F064812078DFF84C74810719D52D
:10013000706810F00C0F07D0706800F00C000828F1
:1001400061D17068C1035ED43068810703D520692E
:10015000012840F04C813168606921F0F80141EAE2
:10016000C00131602178080740F18180A069DFF883
:100170000C14002800F0A68001220A6000F02AFA80
:100180000546706A810763D400F024FA401B0228F8
:10019000F7D903202EE16068B0F5803F04D13068C4
:1001A00040F48030306014E008B930680AE0B0F5FF
:1001B000A02F306806D140F480203060316841F4CF
:1001C000803105E020F480303060316821F48021F6
:1001D0003160606858B100F0FDF905463068810370
:1001E000A1D400F0F7F9401B6528F7D3D1E700F060
:1001F000F1F905463068810395D500F0EBF9401B15
:100200006528F7D3C5E72069A8B10121396000F05E
:10021000E1F905463068810705D400F0DBF9401BA1
:100220000228F7D9B5E73068616920F0F80040EAA4
:10023000C100306096E7386000F0CCF905463168BF
:1002400088078FD500F0C6F9401B0228F7D9A0E730
:10025000DFF818030168C9084FF47A72B1FBF2F2B3
:10026000009200BF0098411E00280091F9D120782B
:1002700041076ED5F0690025C10009D4F06940F04E
:100280008050F0610125F06900F0805000900098E6
:10029000DFF8EC82D8F80000C10520D4D8F80000BF
:1002A00040F48070C8F8000000F094F98146D8F856
:1002B0000000C10513D400F08DF9A0EB09006528FA
:1002C000F5D366E7086000F085F90546706A810796
:1002D000CDD500F07FF9401B0228F7D959E7E06837
:1002E000012808D008B9306A09E00528306A06D12B
:1002F00040F004003062306A40F0010005E0400840
:1003000040003062306A20F00400306241F28938E7
:10031000E06860B100F05EF98146306A810713D46D
:1003200000F058F9A0EB09004045F6D331E700F0A2
:1003300051F98146306A810706D500F04BF9A0EBF0
:1003400009004045F6D324E71DB1F06920F0805044
:10035000F061E06900284CD0716801F00C010829B7
:1003600038D002282AD100F047F8054630688101CC
:1003700005D500F02FF9401B0228F7D909E7206ABC
:10038000B0F5803F05D17168A06821F400310143C8
:1003900071607268206A616A22F4741202430A432F
:1003A0007260012000F029F804463068810120D4F1
:1003B00000F010F9001B0228F7D9EAE600F01CF85B
:1003C00004463068810114D500F004F9001B0228AE
:1003D000F7D9DEE601280AD07068226A00F480317D
:1003E000914202BF00F47010616A884201D001207E
:1003F00000E00020BDE8F2830020386600F0EAB893
:100400002DE9F041040088464ED05E4E00F077F8AA
:1004100002D200F06FF847D12068534D810712D502
:10042000400703D5696841F4E061696020780107FD
:1004300003D5686840F4605068606968A06821F07E
:10044000F001014369602178C80725D5606801285B
:1004500002D129688A0303E00228296802D18A01AF
:1004600002D421E08A071FD56968890840EA810023
:10047000686000F0AFF807466868616800F00C003B
:10048000B0EB810F08D000F0A5F8C01B41F2893114
:100490008842F1D303202BE0306800F0070080454C
:1004A00004D200F027F801D0012021E02078410794
:1004B00005D56A68E06822F4E06202436A60217848
:1004C000080706D56968206921F4605141EAC00136
:1004D000696000F019F86A682B49244BC2F30312D3
:1004E000895CC84018602348006800F079F8002053
:1004F000BDE8F0813168C90848EAC101316030685F
:1005000000F0070040457047204919480A6802F08A
:100510000C03082B00D0704710B500BF1EA4C2F317
:100520008343D203E35C08D5096858431EA3C1F393
:1005300040415A5CB0FBF2F010BD184614494843E4
:1005400010BD0A48114A006813681249C3F3022219
:1005500006E006480D4A006813680E49C3F3C2223C
:10056000895CC84070470000001002400C00002069
:1005700000127A000800002000004242800442423B
:100580000070004000200240B81100080410024032
:1005900000093D00E81100080203040506070809E8
:1005A0000A0B0C0D0E0F101001020EE002684368DA
:1005B000024408305FEAC37C44BF4B445B1E52F8E0
:1005C00004CB43F804CB091FF9D150F8041B0029D0
:1005D000ECD1704701484068704700BF0000002020
:1005E00038B50D4D0D4B2A7804464FF47A711868D2
:1005F000B1FBF2F2B0FBF2F000F054F850B9102C5D
:1006000008D2002221464FF0FF3000F023F8AC6002
:10061000002032BD012032BD000000200C0000206F
:100620000901020002D4294881547047284B02F086
:100630000F021A4402F8041C7047264B19684FF643
:10064000FF020002114000F4E06008432249084321
:100650001860704770B51F4B1C68C4F30223012457
:10066000C3F10705052D2EBF0F2504FA05F56D1EF4
:100670001E1D072E34BF0023DB1E2940994004FABB
:1006800003F3BDE870405B1E1A401143C8E7010048
:1006900007D4012200F01F01104B8A40400943F8A3
:1006A0002020704710B5401EB0F1807F01D301209B
:1006B00010BD0B4C60600F214FF0FF30FFF7B0FF13
:1006C0000021A16007202060002010BD00E400E0B0
:1006D00018ED00E00CED00E00000FA0500E100E09C
:1006E00010E000E038B5040001D1012032BD00F077
:1006F00026F808B900F014F800F017F800F023F815
:10070000FFE7416100F001F832BD2068C16841F4A3
:100710000051C1600020686020216970A970704795
:1007200000212970204600F03EBA2420687020681D
:10073000C16821F40051C160204600F0D5B904F130
:100740003C05687870472068016921F49041016197
:100750002068416921F02A01704738B500F1300363
:100760009C7B202C0FD109B1140001D1012032BD96
:100770001C7B012C07D001241C7300251D60BDE8E3
:10078000384000F01BB9022032BD2068C16821F05A
:100790001001C1607047416921F040014161A06BC7
:1007A0007047F8B5044626683368F768756913F032
:1007B0000F0203F0200107F0200007D1002918BF25
:1007C00000285BD02046BDE8F24031E1EA0702D4C0
:1007D00017F4907F52D0DA0705D5FE0503D5226CB9
:1007E00042F0010222645A0705D5EE0703D5226CB8
:1007F00042F0020222649A0705D5EE0703D5226C67
:1008000042F0040222641A0706D508B9EA0703D5A4
:10081000236C43F008032364226C002A2DD00029A6
:100820001EBF0028204600F003F920684069216CB3
:100830000A0701D440061BD5204600F0DAF82068EC
:1008400041694A060FD5FFF7A6FF60B10FF2D51137
:100850004163A06B00F013FA00280ED0A06B416B2F
:10086000BDE8F44008472046BDE8F24000F062BA17
:10087000204600F05FFA00202064F1BD206B0128C3
:1008800004F13D0257D1D80655D5F90653D50023BA
:10089000009331680091236858680090009920689F
:1008A0004369580625D5A16B0868406880B20028C6
:1008B0007DD0A38D98427ADAE0858869202814D00B
:1008C0002168C86820F48070C86000F071F8206862
:1008D000416921F0400141612020507000212163D5
:1008E000FFF753FFA06B00F0A5F9A18DE08D091A69
:1008F0001BE0A08DE18D411AE08D00281CBF88B25D
:10090000002854D02068C36823F49073C360206823
:1009100043695B085B004361202050700022226322
:100920002068C26822F01002C2602046BDE8F44090
:1009300089B200F000BA18062AD5390628D51078F1
:10094000212834D1A068B0F5805F04BF2069002859
:1009500008D1206A0188C1F308017160206A811CF6
:10096000216205E0206A411C216222680078506003
:10097000E08C401EE08480B2C8B92068C16821F0D4
:100980008001C1602068C16841F04001C160F1BDD3
:1009900058060CD579060AD5F16821F04001F160BE
:1009A000204620211170BDE8F24000F0C5B9F1BD2C
:1009B0002068416949084900416170478162828528
:1009C000C28500F13C0100224A6022238B700A702C
:1009D0000168CB6843F48073CB6001684A6942F0D8
:1009E00001024A610068C16841F02001C160002035
:1009F00070470168CA6822F49072CA6001684A6947
:100A0000520852004A61016B012904D10168CA6889
:100A100022F01002CA60202180F83E1000220263FA
:100A200070470000406A0021C185C18400F082B98E
:100A30001CB590F83E10222954D18168826AB1F524
:100A4000805F0AD1016969B903685968C1F3080177
:100A50001180826A911C81620FE0002904BF016944
:100A6000002902D10368596803E00168496801F070
:100A70007F011170816A4A1C8262C18D491EC18545
:100A800089B269BB0168CA6822F02002CA600168A5
:100A9000CA6822F48072CA6001684A69520852002A
:100AA0004A61202180F83E10026B012A16D10021F4
:100AB00001630168CA6822F01002CA600268116806
:100AC000CB0607D500240094126800920368596889
:100AD0000091009A818D00F02EF901E000F02DF9CF
:100AE000002016BD022016BD10B50446226811690B
:100AF000E06821F4405101431161D3681949A068AD
:100B00000B402169034360690B430343D360516980
:100B1000A06921F440710143516113498A4202D115
:100B2000FFF717FD01E0FFF70CFD6268192148434C
:100B30009200B0FBF2F16423B1FBF3F26FF06300BB
:100B400000FB021109013231B1FBF3F000F0F001BA
:100B500001EB0211226800F00F004018906010BDF8
:100B600000000000F3E9FFFF003801402D4881B08C
:100B7000016841F001010160026802F00102009287
:100B80000099426842F080524260406800F0805014
:100B9000009000982448016821F0E06141F0007164
:100BA000016001B0704718B585B0044610220021DD
:100BB000684600F0C3F821681C48814230D11948CA
:100BC0001B4C016841F480410160026802F48042DC
:100BD00004920499026842F0040202604FF400712A
:100BE000006800F004000490022204980091019231
:100BF000032103912046694600F0AAF84FF4806073
:100C000000210090019102912046694600F0A0F871
:100C1000002200212520FFF71DFD2520FFF737FDCD
:100C200006B010BD18100240040001400038014019
:100C30000008014010B590F82110022900F1380297
:100C400006D004231360002180F82010012010BD7D
:100C500001680B6823F00E030B60012301680C6828
:100C6000640864000C60916852688B4053600121F5
:100C7000002280F8211080F82020002010BD38B517
:100C800090F821200024022A00F1340103D004202E
:100C9000486001243EE00268136823F00E031360ED
:100CA0000268DFF8743015686D086D001560026821
:100CB0009A4208BF012222D0DFF860309A4208BF72
:100CC00010221CD0DFF858309A4208BF4FF48072CF
:100CD00015D0DFF850309A4208BF4FF480520ED042
:100CE000DFF844309A4208BF4FF4803207D0DFF873
:100CF0003C309A420CBF4FF480124FF08072DFF804
:100D000030301A60012280F8212080F820400968E4
:100D100001B18847204632BD080002401C00024055
:100D20003000024044000240580002406C00024083
:100D300004000240704770477047704710B5044682
:100D400010460A460146204600F0DCF8204610BD59
:100D50002DE9F8474FF0000E00245D4A5D4BDFF8A7
:100D600078814FF00F0982460CE0D7683840D06098
:100D700006E095604D68AD02F7D5D0680743D760AF
:100D80000EF1010E0F6837FA0EF000F09F8001207F
:100D900000FA0EF63740B742F2D1486838B301285E
:100DA0001AD002281DD003282ED0112816D01228C0
:100DB0001AD04A4DA8421CBF494DA84217D0494DF0
:100DC000A8421CBF484DA84211D0484DA8421CBFA4
:100DD000474DA8420BD018E0CC6816E0CC68241D23
:100DE00013E0CC68083410E0CC680C340DE088685F
:100DF00008B9042409E0012819BF0824CAF81460BE
:100E00000824CAF8106000E00024B7F5807F03D200
:100E100050464FEA8E0C05E0AEF108050AF10400D9
:100E20004FEA850C056809FA0CF6B54304FA0CF68E
:100E3000354305604868C000A2D5D8F8000040F0EE
:100E40000100C8F80000D8F8005005F00105009531
:100E50004FEA8E0500984FEA9E0053F8206005F097
:100E60000C0C09FA0CF526EA0505224EB24508BF1E
:100E700000260ED0204EB24508BF012609D01F4ED5
:100E8000B24508BF022604D01D4EB2450CBF032652
:100E9000042606FA0CF6354343F82050F8434D6813
:100EA000ED0315684CBF3D43054015604D68AD032B
:100EB00055684CBF3D43054055604D689668ED024E
:100EC0004CBF47EA060500EA060552E7BDE8F18790
:100ED00000040140080001401810024000001110F9
:100EE000000012100000211000002210000031103C
:100EF0000000321000080140000C014000100140C9
:100F00000014014062F30F2262F31F42401810F0F8
:100F1000030308D0C91A1FD3DB0748BF00F8012D0F
:100F200028BF20F8022D130030B41446154610399E
:100F300028BF20E93C00FAD8490728BF20E90C0067
:100F400048BF40F8042D890028BF20F8022D48BF73
:100F500000F8012D30BC7047C91818BF00F8012DEA
:100F6000CB0728BF00F8012D704700001CB500F02A
:100F70006DF800F035F81748174C016841F0200172
:100F80000160026802F02002009200990268134991
:100F900042F0040202604FF4E132006800F0040005
:100FA0000090009821600020A060E06020610C218A
:100FB000A061E061626061612046FFF793FB08B1C8
:100FC00000F041F80C2204F144012046FFF7C5FB74
:100FD000FEE7000018100240100000200038014019
:100FE00000B58FB02822002105A8FFF7A7FE142224
:100FF00000216846FFF7A2FE4FF4803100220691DF
:1010000007920D9101200590099002224FF4E01102
:101010000C920E9105A8FFF769F808B172B6FEE7C9
:10102000022101910F204FF4806100900022039172
:101030000292049202216846FFF7E2F908B172B603
:10104000FEE70FB000BD72B6FEE7000080B50748AE
:10105000016841F0100101600320FFF7EEFA0F2054
:10106000FFF7BEFAFFF782FD002002BD002002401C
:10107000FEE7FEE7FEE7FEE7FEE7704770477047D2
:1010800000F01CB838B50A4D0A4C2846FFF789FB1A
:101090000B2221462846FFF760FB20787F2804BFFB
:1010A0006078862802D104480121017031BD00001A
:1010B00010000020540000206000002002494A680F
:1010C000087882184A6070470000002030B400257C
:1010D00012E050F8042BD30744BF4A44521E091FA4
:1010E000042942F8045BFAD213468C0744BF1580EA
:1010F0009B1CC90748BF1D7050F8041B0029E8D18C
:1011000030BC704710B5074979441831064C7C440F
:10111000163404E00A68081D114488470146A142BC
:10112000F8D110BD0800000028000000A1FFFFFF5B
:101130005400000010000020000000006FF4FFFFCA
:1011400010000000940000000000002000000000DB
:1011500000F00DF8002801D0FFF7D4FFAFF30080B6
:101160000020AFF30080FFF701FF00F002F801203C
:10117000704700F001B800000746384600F002F85A
:10118000FBE7000080B5AFF30080024A1100182091
:10119000ABBEFBE7260002000548014603B46846E3
:1011A00080F30988AFF30080AFF30080FFF7D0FF32
:1011B000A5EDF5FE704700000000000000000000F3
:1011C0000102030406070809014880470148004757
:1011D000B51100089911000801000000000000008E
:1011E000100000000024F4000000000001020304CD
:1011F000FFF7FEBFFFF7FEBFFFF7FEBFFFF7FEBF23
:10120000FFF7FEBFFFF7FEBFFFF7FEBFFFF7FEBF12
:10121000FFF7FEBFFFF7FEBFFFF7FEBFFFF7FEBF02
:10122000FFF7FEBFFFF7FEBFFFF7FEBFFFF7FEBFF2
:10123000FFF7FEBFFFF7FEBFFFF7FEBFFFF7FEBFE2
:10124000FFF7FEBFFFF7FEBFFFF7FEBFFFF7FEBFD2
:10125000FFF7FEBFFFF7FEBFFFF7FEBFFFF7FEBFC2
:10126000FFF7FEBFFFF7FEBFFFF7FEBFFFF7FEBFB2
:10127000FFF7FEBFFFF7FEBFFFF7FEBFFFF7FEBFA2
:10128000FFF7FEBFFFF7FEBFFFF7FEBFFFF7FEBF92
:08129000FFF7FEBFFFF7FEBFF0
:040000050800119945
:00000001FF
