:020000040800F2
:1000000010040020010B0008C90A0008CB0A0008F0
:10001000CD0A0008CF0A0008D10A0008000000003D
:10002000000000000000000000000000D30A0008EB
:10003000D50A000800000000D70A0008D90A000805
:10004000210B0008250B0008290B00082D0B0008C8
:10005000310B0008350B0008390B00083D0B000878
:10006000410B0008450B0008490B00084D0B000828
:10007000510B0008550B0008590B00085D0B0008D8
:10008000610B0008650B0008690B00086D0B000888
:10009000710B0008750B0008790B00087D0B000838
:1000A000810B0008850B0008890B00088D0B0008E8
:1000B000910B0008950B0008990B00089D0B000898
:1000C000A10B0008A50B0008A90B0008AD0B000848
:1000D000B10B0008B50B0008B90B0008BD0B0008F8
:1000E000C10B0008C50B0008C90B00082DE9F84337
:1000F000040016D02078DFF84C64C10713D570686F
:1001000000F00C00042807D0706800F00C000828EC
:1001100041D17068C1033ED53068810303D5606862
:10012000002800F064812078DFF82874810719D551
:10013000706810F00C0F07D0706800F00C000828F1
:1001400061D17068C1035ED43068810703D520692E
:10015000012840F04C813168606921F0F80141EAE2
:10016000C00131602178080740F18180A069DFF883
:10017000E813002800F0A68001220A6000F016FAB9
:100180000546706A810763D400F010FA401B02280C
:10019000F7D903202EE16068B0F5803F04D13068C4
:1001A00040F48030306014E008B930680AE0B0F5FF
:1001B000A02F306806D140F480203060316841F4CF
:1001C000803105E020F480303060316821F48021F6
:1001D0003160606858B100F0E9F905463068810384
:1001E000A1D400F0E3F9401B6528F7D3D1E700F074
:1001F000DDF905463068810395D500F0D7F9401B3D
:100200006528F7D3C5E72069A8B10121396000F05E
:10021000CDF905463068810705D400F0C7F9401BC9
:100220000228F7D9B5E73068616920F0F80040EAA4
:10023000C100306096E7386000F0B8F905463168D3
:1002400088078FD500F0B2F9401B0228F7D9A0E744
:10025000DFF8F4020168C9084FF47A72B1FBF2F2D8
:10026000009200BF0098411E00280091F9D120782B
:1002700041076ED5F0690025C10009D4F06940F04E
:100280008050F0610125F06900F0805000900098E6
:10029000DFF8C882D8F80000C10520D4D8F80000E3
:1002A00040F48070C8F8000000F080F98146D8F86A
:1002B0000000C10513D400F079F9A0EB090065280E
:1002C000F5D366E7086000F071F90546706A8107AA
:1002D000CDD500F06BF9401B0228F7D959E7E0684B
:1002E000012808D008B9306A09E00528306A06D12B
:1002F00040F004003062306A40F0010005E0400840
:1003000040003062306A20F00400306241F28938E7
:10031000E06860B100F04AF98146306A810713D481
:1003200000F044F9A0EB09004045F6D331E700F0B6
:100330003DF98146306A810706D500F037F9A0EB18
:1003400009004045F6D324E71DB1F06920F0805044
:10035000F061E06900284CD0716801F00C010829B7
:1003600038D002282AD100F047F8054630688101CC
:1003700005D500F01BF9401B0228F7D909E7206AD0
:10038000B0F5803F05D17168A06821F400310143C8
:1003900071607268206A616A22F4741202430A432F
:1003A0007260012000F029F804463068810120D4F1
:1003B00000F0FCF8001B0228F7D9EAE600F01CF870
:1003C00004463068810114D500F0F0F8001B0228C3
:1003D000F7D9DEE601280AD07068226A00F480317D
:1003E000914202BF00F47010616A884201D001207E
:1003F00000E00020BDE8F2830020386600F0D6B8A7
:100400002DE9F041040088464ED0554E00F077F8B3
:1004100002D200F06FF847D120684A4D810712D50B
:10042000400703D5696841F4E061696020780107FD
:1004300003D5686840F4605068606968A06821F07E
:10044000F001014369602178C80725D5606801285B
:1004500002D129688A0303E00228296802D18A01AF
:1004600002D421E08A071FD56968890840EA810023
:10047000686000F09BF807466868616800F00C004F
:10048000B0EB810F08D000F091F8C01B41F2893128
:100490008842F1D303202BE0306800F0070080454C
:1004A00004D200F027F801D0012021E02078410794
:1004B00005D56A68E06822F4E06202436A60217848
:1004C000080706D56968206921F4605141EAC00136
:1004D000696000F019F86A6822491B4BC2F30312E5
:1004E000895CC84018601A48006800F065F8002070
:1004F000BDE8F0813168C90848EAC101316030685F
:1005000000F0070040457047174910480A6802F09C
:100510000C03082B00D0704710B500BF14A4C2F321
:100520008343D203E35C08D50968584314A3C1F39D
:1005300040415A5CB0FBF2F010BD18460B494843ED
:1005400010BD0000001002400C00002000127A00D4
:100550000800002000004242800442420070004037
:1005600000200240F00A00080410024000093D008B
:1005700002030405060708090A0B0C0D0E0F1010E4
:1005800001020EE002684368024408305FEAC37C5F
:1005900044BF4B445B1E52F804CB43F804CB091F05
:1005A000F9D150F8041B0029ECD17047014840688C
:1005B000704700BF0000002038B50D4D0D4B2A7864
:1005C00004464FF47A711868B1FBF2F2B0FBF2F016
:1005D00000F049F850B9102C08D2002221464FF003
:1005E000FF3000F023F8AC60002032BD012032BDA6
:1005F000000000200C0000200901020002D4244861
:1006000081547047234B02F00F021A4402F8041C75
:100610007047214B19684FF6FF020002114000F4A9
:10062000E06008431D4908431860704770B51A4BD5
:100630001C68C4F302230124C3F10705052D2EBF56
:100640000F2504FA05F56D1E1E1D072E34BF00236D
:10065000DB1E2940994004FA03F3BDE870405B1E9D
:100660001A401143C8E710B5401EB0F1807F01D396
:10067000012010BD0A4C60600F214FF0FF30FFF7E2
:10068000BBFF0021A16007202060002010BD0000FA
:1006900000E400E018ED00E00CED00E00000FA05D9
:1006A00010E000E02DE9F8474FF0000E00245D4A0D
:1006B0005D4BDFF878814FF00F0982460CE0D76878
:1006C0003840D06006E095604D68AD02F7D5D0683F
:1006D0000743D7600EF1010E0F6837FA0EF000F0F5
:1006E0009F80012000FA0EF63740B742F2D14868E9
:1006F00038B301281AD002281DD003282ED0112883
:1007000016D012281AD04A4DA8421CBF494DA84203
:1007100017D0494DA8421CBF484DA84211D0484DA2
:10072000A8421CBF474DA8420BD018E0CC6816E089
:10073000CC68241D13E0CC68083410E0CC680C347D
:100740000DE0886808B9042409E0012819BF0824CD
:10075000CAF814600824CAF8106000E00024B7F555
:10076000807F03D250464FEA8E0C05E0AEF10805BB
:100770000AF104004FEA850C056809FA0CF6B54346
:1007800004FA0CF6354305604868C000A2D5D8F8D5
:10079000000040F00100C8F80000D8F8005005F053
:1007A000010500954FEA8E0500984FEA9E0053F828
:1007B000206005F00C0C09FA0CF526EA0505224E1E
:1007C000B24508BF00260ED0204EB24508BF012614
:1007D00009D01F4EB24508BF022604D01D4EB245B7
:1007E0000CBF0326042606FA0CF6354343F82050C6
:1007F000F8434D68ED0315684CBF3D430540156057
:100800004D68AD0355684CBF3D43054055604D688C
:100810009668ED024CBF47EA060500EA060552E776
:10082000BDE8F187000401400800014018100240B3
:100830000000111000001210000021100000221012
:10084000000031100000321000080140000C01408F
:10085000001001400014014018B585B000F072F896
:1008600000F03DF810220021684600F07DF816489F
:10087000164C016841F020010160026802F020027C
:1008800004920499026842F004020260036803F0D3
:10089000040304930499026842F0080202601021E4
:1008A00000680B4A00F0080004900498009101923F
:1008B000002100F00FF8202000210090019100F0AD
:1008C00009F8FEE70000000018100240000C01408B
:1008D00000002110029120466946FFF7E3BE00B5F3
:1008E0008FB02822002105A800F03EF81422002134
:1008F000684600F039F84FF48031002206910792E3
:100900000D9101200590099002224FF4E0110C9204
:100910000E9105A8FFF7EAFB08B172B6FEE70221C7
:1009200001910F204FF48061009000220391029208
:10093000049202216846FFF763FD08B172B6FEE734
:100940000FB000BD80B50748016841F0100101609B
:100950000320FFF75EFE0F20FFF72EFE00F00EF8DB
:10096000002002BD0020024010B5044610460A4691
:100970000146204600F024F8204610BD0E4881B004
:10098000016841F001010160026802F00102009279
:100990000099426842F080524260406800F0805006
:1009A000009000980548016821F0E06141F0007175
:1009B000016001B0704700BF181002400400014000
:1009C00062F30F2262F31F42401810F0030308D0B5
:1009D000C91A1FD3DB0748BF00F8012D28BF20F834
:1009E000022D130030B414461546103928BF20E9F3
:1009F0003C00FAD8490728BF20E90C0048BF40F85E
:100A0000042D890028BF20F8022D48BF00F8012DD1
:100A100030BC7047C91818BF00F8012DCB0728BF9C
:100A200000F8012D7047000010B5074979441831CE
:100A3000064C7C44163404E00A68081D11448847BB
:100A40000146A142F8D110BD0800000018000000C6
:100A500033FBFFFF10000000B80000000000002082
:100A60000000000000F00DF8002801D0FFF7DCFFC7
:100A7000AFF300800020AFF30080FFF7EDFE00F041
:100A800002F80120704700F001B800000746384620
:100A900000F002F8FBE7000080B5AFF30080024AE7
:100AA00011001820ABBEFBE72600020005480146F6
:100AB00003B4684680F30988AFF30080AFF3008089
:100AC000FFF7D0FFA5EDF5FEFEE7FEE7FEE7FEE748
:100AD000FEE770477047704700F000B802494A6867
:100AE000087882184A6070470000002070470000B4
:100AF00000000000000000000102030406070809CE
:100B00000148804701480047ED0A0008AD0A000887
:100B10000100000000000000100000000024F400AC
:100B2000FFF7FEBFFFF7FEBFFFF7FEBFFFF7FEBFF9
:100B3000FFF7FEBFFFF7FEBFFFF7FEBFFFF7FEBFE9
:100B4000FFF7FEBFFFF7FEBFFFF7FEBFFFF7FEBFD9
:100B5000FFF7FEBFFFF7FEBFFFF7FEBFFFF7FEBFC9
:100B6000FFF7FEBFFFF7FEBFFFF7FEBFFFF7FEBFB9
:100B7000FFF7FEBFFFF7FEBFFFF7FEBFFFF7FEBFA9
:100B8000FFF7FEBFFFF7FEBFFFF7FEBFFFF7FEBF99
:100B9000FFF7FEBFFFF7FEBFFFF7FEBFFFF7FEBF89
:100BA000FFF7FEBFFFF7FEBFFFF7FEBFFFF7FEBF79
:100BB000FFF7FEBFFFF7FEBFFFF7FEBFFFF7FEBF69
:0C0BC000FFF7FEBFFFF7FEBFFFF7FEBF10
:0400000508000AAD38
:00000001FF
